{
  "_format": "hh-sol-artifact-1",
  "contractName": "DragonNft",
  "sourceName": "contracts/test/DragonNft.sol",
  "abi": [
    {
      "inputs": [
        {
          "internalType": "string",
          "name": "_name",
          "type": "string"
        },
        {
          "internalType": "string",
          "name": "_symbol",
          "type": "string"
        },
        {
          "internalType": "string",
          "name": "_initBaseURI",
          "type": "string"
        },
        {
          "internalType": "string",
          "name": "_initNotRevealedUri",
          "type": "string"
        }
      ],
      "stateMutability": "nonpayable",
      "type": "constructor"
    },
    {
      "anonymous": false,
      "inputs": [
        {
          "indexed": true,
          "internalType": "address",
          "name": "owner",
          "type": "address"
        },
        {
          "indexed": true,
          "internalType": "address",
          "name": "approved",
          "type": "address"
        },
        {
          "indexed": true,
          "internalType": "uint256",
          "name": "tokenId",
          "type": "uint256"
        }
      ],
      "name": "Approval",
      "type": "event"
    },
    {
      "anonymous": false,
      "inputs": [
        {
          "indexed": true,
          "internalType": "address",
          "name": "owner",
          "type": "address"
        },
        {
          "indexed": true,
          "internalType": "address",
          "name": "operator",
          "type": "address"
        },
        {
          "indexed": false,
          "internalType": "bool",
          "name": "approved",
          "type": "bool"
        }
      ],
      "name": "ApprovalForAll",
      "type": "event"
    },
    {
      "anonymous": false,
      "inputs": [
        {
          "indexed": true,
          "internalType": "address",
          "name": "previousOwner",
          "type": "address"
        },
        {
          "indexed": true,
          "internalType": "address",
          "name": "newOwner",
          "type": "address"
        }
      ],
      "name": "OwnershipTransferred",
      "type": "event"
    },
    {
      "anonymous": false,
      "inputs": [
        {
          "indexed": true,
          "internalType": "address",
          "name": "from",
          "type": "address"
        },
        {
          "indexed": true,
          "internalType": "address",
          "name": "to",
          "type": "address"
        },
        {
          "indexed": true,
          "internalType": "uint256",
          "name": "tokenId",
          "type": "uint256"
        }
      ],
      "name": "Transfer",
      "type": "event"
    },
    {
      "inputs": [
        {
          "internalType": "address",
          "name": "to",
          "type": "address"
        },
        {
          "internalType": "uint256",
          "name": "tokenId",
          "type": "uint256"
        }
      ],
      "name": "approve",
      "outputs": [],
      "stateMutability": "nonpayable",
      "type": "function"
    },
    {
      "inputs": [
        {
          "internalType": "address",
          "name": "owner",
          "type": "address"
        }
      ],
      "name": "balanceOf",
      "outputs": [
        {
          "internalType": "uint256",
          "name": "",
          "type": "uint256"
        }
      ],
      "stateMutability": "view",
      "type": "function"
    },
    {
      "inputs": [],
      "name": "baseExtension",
      "outputs": [
        {
          "internalType": "string",
          "name": "",
          "type": "string"
        }
      ],
      "stateMutability": "view",
      "type": "function"
    },
    {
      "inputs": [],
      "name": "baseURI",
      "outputs": [
        {
          "internalType": "string",
          "name": "",
          "type": "string"
        }
      ],
      "stateMutability": "view",
      "type": "function"
    },
    {
      "inputs": [],
      "name": "cost",
      "outputs": [
        {
          "internalType": "uint256",
          "name": "",
          "type": "uint256"
        }
      ],
      "stateMutability": "view",
      "type": "function"
    },
    {
      "inputs": [
        {
          "internalType": "uint256",
          "name": "tokenId",
          "type": "uint256"
        }
      ],
      "name": "getApproved",
      "outputs": [
        {
          "internalType": "address",
          "name": "",
          "type": "address"
        }
      ],
      "stateMutability": "view",
      "type": "function"
    },
    {
      "inputs": [
        {
          "internalType": "address",
          "name": "owner",
          "type": "address"
        },
        {
          "internalType": "address",
          "name": "operator",
          "type": "address"
        }
      ],
      "name": "isApprovedForAll",
      "outputs": [
        {
          "internalType": "bool",
          "name": "",
          "type": "bool"
        }
      ],
      "stateMutability": "view",
      "type": "function"
    },
    {
      "inputs": [],
      "name": "maxMintAmount",
      "outputs": [
        {
          "internalType": "uint256",
          "name": "",
          "type": "uint256"
        }
      ],
      "stateMutability": "view",
      "type": "function"
    },
    {
      "inputs": [],
      "name": "maxSupply",
      "outputs": [
        {
          "internalType": "uint256",
          "name": "",
          "type": "uint256"
        }
      ],
      "stateMutability": "view",
      "type": "function"
    },
    {
      "inputs": [
        {
          "internalType": "address",
          "name": "_to",
          "type": "address"
        },
        {
          "internalType": "uint256",
          "name": "_mintAmount",
          "type": "uint256"
        }
      ],
      "name": "mint",
      "outputs": [],
      "stateMutability": "payable",
      "type": "function"
    },
    {
      "inputs": [],
      "name": "name",
      "outputs": [
        {
          "internalType": "string",
          "name": "",
          "type": "string"
        }
      ],
      "stateMutability": "view",
      "type": "function"
    },
    {
      "inputs": [],
      "name": "notRevealedUri",
      "outputs": [
        {
          "internalType": "string",
          "name": "",
          "type": "string"
        }
      ],
      "stateMutability": "view",
      "type": "function"
    },
    {
      "inputs": [],
      "name": "owner",
      "outputs": [
        {
          "internalType": "address",
          "name": "",
          "type": "address"
        }
      ],
      "stateMutability": "view",
      "type": "function"
    },
    {
      "inputs": [
        {
          "internalType": "uint256",
          "name": "tokenId",
          "type": "uint256"
        }
      ],
      "name": "ownerOf",
      "outputs": [
        {
          "internalType": "address",
          "name": "",
          "type": "address"
        }
      ],
      "stateMutability": "view",
      "type": "function"
    },
    {
      "inputs": [
        {
          "internalType": "bool",
          "name": "_state",
          "type": "bool"
        }
      ],
      "name": "pause",
      "outputs": [],
      "stateMutability": "nonpayable",
      "type": "function"
    },
    {
      "inputs": [],
      "name": "paused",
      "outputs": [
        {
          "internalType": "bool",
          "name": "",
          "type": "bool"
        }
      ],
      "stateMutability": "view",
      "type": "function"
    },
    {
      "inputs": [
        {
          "internalType": "address",
          "name": "_user",
          "type": "address"
        }
      ],
      "name": "removeWhitelistUser",
      "outputs": [],
      "stateMutability": "nonpayable",
      "type": "function"
    },
    {
      "inputs": [],
      "name": "renounceOwnership",
      "outputs": [],
      "stateMutability": "nonpayable",
      "type": "function"
    },
    {
      "inputs": [],
      "name": "reveal",
      "outputs": [],
      "stateMutability": "nonpayable",
      "type": "function"
    },
    {
      "inputs": [],
      "name": "revealed",
      "outputs": [
        {
          "internalType": "bool",
          "name": "",
          "type": "bool"
        }
      ],
      "stateMutability": "view",
      "type": "function"
    },
    {
      "inputs": [
        {
          "internalType": "address",
          "name": "from",
          "type": "address"
        },
        {
          "internalType": "address",
          "name": "to",
          "type": "address"
        },
        {
          "internalType": "uint256",
          "name": "tokenId",
          "type": "uint256"
        }
      ],
      "name": "safeTransferFrom",
      "outputs": [],
      "stateMutability": "nonpayable",
      "type": "function"
    },
    {
      "inputs": [
        {
          "internalType": "address",
          "name": "from",
          "type": "address"
        },
        {
          "internalType": "address",
          "name": "to",
          "type": "address"
        },
        {
          "internalType": "uint256",
          "name": "tokenId",
          "type": "uint256"
        },
        {
          "internalType": "bytes",
          "name": "data",
          "type": "bytes"
        }
      ],
      "name": "safeTransferFrom",
      "outputs": [],
      "stateMutability": "nonpayable",
      "type": "function"
    },
    {
      "inputs": [
        {
          "internalType": "address",
          "name": "operator",
          "type": "address"
        },
        {
          "internalType": "bool",
          "name": "approved",
          "type": "bool"
        }
      ],
      "name": "setApprovalForAll",
      "outputs": [],
      "stateMutability": "nonpayable",
      "type": "function"
    },
    {
      "inputs": [
        {
          "internalType": "string",
          "name": "_newBaseExtension",
          "type": "string"
        }
      ],
      "name": "setBaseExtension",
      "outputs": [],
      "stateMutability": "nonpayable",
      "type": "function"
    },
    {
      "inputs": [
        {
          "internalType": "string",
          "name": "_newBaseURI",
          "type": "string"
        }
      ],
      "name": "setBaseURI",
      "outputs": [],
      "stateMutability": "nonpayable",
      "type": "function"
    },
    {
      "inputs": [
        {
          "internalType": "uint256",
          "name": "_newCost",
          "type": "uint256"
        }
      ],
      "name": "setCost",
      "outputs": [],
      "stateMutability": "nonpayable",
      "type": "function"
    },
    {
      "inputs": [
        {
          "internalType": "string",
          "name": "_notRevealedURI",
          "type": "string"
        }
      ],
      "name": "setNotRevealedURI",
      "outputs": [],
      "stateMutability": "nonpayable",
      "type": "function"
    },
    {
      "inputs": [
        {
          "internalType": "uint256",
          "name": "_newmaxMintAmount",
          "type": "uint256"
        }
      ],
      "name": "setmaxMintAmount",
      "outputs": [],
      "stateMutability": "nonpayable",
      "type": "function"
    },
    {
      "inputs": [
        {
          "internalType": "bytes4",
          "name": "interfaceId",
          "type": "bytes4"
        }
      ],
      "name": "supportsInterface",
      "outputs": [
        {
          "internalType": "bool",
          "name": "",
          "type": "bool"
        }
      ],
      "stateMutability": "view",
      "type": "function"
    },
    {
      "inputs": [],
      "name": "symbol",
      "outputs": [
        {
          "internalType": "string",
          "name": "",
          "type": "string"
        }
      ],
      "stateMutability": "view",
      "type": "function"
    },
    {
      "inputs": [
        {
          "internalType": "uint256",
          "name": "index",
          "type": "uint256"
        }
      ],
      "name": "tokenByIndex",
      "outputs": [
        {
          "internalType": "uint256",
          "name": "",
          "type": "uint256"
        }
      ],
      "stateMutability": "view",
      "type": "function"
    },
    {
      "inputs": [
        {
          "internalType": "address",
          "name": "owner",
          "type": "address"
        },
        {
          "internalType": "uint256",
          "name": "index",
          "type": "uint256"
        }
      ],
      "name": "tokenOfOwnerByIndex",
      "outputs": [
        {
          "internalType": "uint256",
          "name": "",
          "type": "uint256"
        }
      ],
      "stateMutability": "view",
      "type": "function"
    },
    {
      "inputs": [
        {
          "internalType": "uint256",
          "name": "tokenId",
          "type": "uint256"
        }
      ],
      "name": "tokenURI",
      "outputs": [
        {
          "internalType": "string",
          "name": "",
          "type": "string"
        }
      ],
      "stateMutability": "view",
      "type": "function"
    },
    {
      "inputs": [],
      "name": "totalSupply",
      "outputs": [
        {
          "internalType": "uint256",
          "name": "",
          "type": "uint256"
        }
      ],
      "stateMutability": "view",
      "type": "function"
    },
    {
      "inputs": [
        {
          "internalType": "address",
          "name": "from",
          "type": "address"
        },
        {
          "internalType": "address",
          "name": "to",
          "type": "address"
        },
        {
          "internalType": "uint256",
          "name": "tokenId",
          "type": "uint256"
        }
      ],
      "name": "transferFrom",
      "outputs": [],
      "stateMutability": "nonpayable",
      "type": "function"
    },
    {
      "inputs": [
        {
          "internalType": "address",
          "name": "newOwner",
          "type": "address"
        }
      ],
      "name": "transferOwnership",
      "outputs": [],
      "stateMutability": "nonpayable",
      "type": "function"
    },
    {
      "inputs": [
        {
          "internalType": "address",
          "name": "_owner",
          "type": "address"
        }
      ],
      "name": "walletOfOwner",
      "outputs": [
        {
          "internalType": "uint256[]",
          "name": "",
          "type": "uint256[]"
        }
      ],
      "stateMutability": "view",
      "type": "function"
    },
    {
      "inputs": [
        {
          "internalType": "address",
          "name": "_user",
          "type": "address"
        }
      ],
      "name": "whitelistUser",
      "outputs": [],
      "stateMutability": "nonpayable",
      "type": "function"
    },
    {
      "inputs": [
        {
          "internalType": "address",
          "name": "",
          "type": "address"
        }
      ],
      "name": "whitelisted",
      "outputs": [
        {
          "internalType": "bool",
          "name": "",
          "type": "bool"
        }
      ],
      "stateMutability": "view",
      "type": "function"
    },
    {
      "inputs": [],
      "name": "withdraw",
      "outputs": [],
      "stateMutability": "payable",
      "type": "function"
    }
  ],
  "bytecode": "0x60806040526040518060400160405280600581526020017f2e6a736f6e000000000000000000000000000000000000000000000000000000815250600c90816200004a9190620011ce565b5066b1a2bc2ec50000600d55612710600e556014600f556000601060006101000a81548160ff0219169083151502179055506000601060016101000a81548160ff021916908315150217905550348015620000a457600080fd5b50604051620060d9380380620060d98339818101604052810190620000ca919062001419565b83838160009081620000dd9190620011ce565b508060019081620000ef9190620011ce565b50505062000112620001066200015160201b60201c565b6200015960201b60201c565b62000123826200021f60201b60201c565b62000134816200024460201b60201c565b620001473360146200026960201b60201c565b5050505062001b67565b600033905090565b6000600a60009054906101000a900473ffffffffffffffffffffffffffffffffffffffff16905081600a60006101000a81548173ffffffffffffffffffffffffffffffffffffffff021916908373ffffffffffffffffffffffffffffffffffffffff1602179055508173ffffffffffffffffffffffffffffffffffffffff168173ffffffffffffffffffffffffffffffffffffffff167f8be0079c531659141344cd1fd0a4f28419497f9722a3daafe3b4186f6b6457e060405160405180910390a35050565b6200022f620003d860201b60201c565b80600b9081620002409190620011ce565b5050565b62000254620003d860201b60201c565b8060119081620002659190620011ce565b5050565b60006200027b6200046960201b60201c565b9050601060009054906101000a900460ff16156200029857600080fd5b60008211620002a657600080fd5b600f54821115620002b657600080fd5b600e548282620002c7919062001536565b1115620002d357600080fd5b620002e36200047660201b60201c565b73ffffffffffffffffffffffffffffffffffffffff163373ffffffffffffffffffffffffffffffffffffffff16146200038e5760011515601260003373ffffffffffffffffffffffffffffffffffffffff1673ffffffffffffffffffffffffffffffffffffffff16815260200190815260200160002060009054906101000a900460ff161515146200038d5781600d546200037f919062001571565b3410156200038c57600080fd5b5b5b6000600190505b828111620003d257620003bc848284620003b0919062001536565b620004a060201b60201c565b8080620003c990620015bc565b91505062000395565b50505050565b620003e86200015160201b60201c565b73ffffffffffffffffffffffffffffffffffffffff166200040e6200047660201b60201c565b73ffffffffffffffffffffffffffffffffffffffff161462000467576040517f08c379a00000000000000000000000000000000000000000000000000000000081526004016200045e906200166a565b60405180910390fd5b565b6000600880549050905090565b6000600a60009054906101000a900473ffffffffffffffffffffffffffffffffffffffff16905090565b620004c2828260405180602001604052806000815250620004c660201b60201c565b5050565b620004d883836200053460201b60201c565b620004ed60008484846200077a60201b60201c565b6200052f576040517f08c379a0000000000000000000000000000000000000000000000000000000008152600401620005269062001702565b60405180910390fd5b505050565b600073ffffffffffffffffffffffffffffffffffffffff168273ffffffffffffffffffffffffffffffffffffffff1603620005a6576040517f08c379a00000000000000000000000000000000000000000000000000000000081526004016200059d9062001774565b60405180910390fd5b620005b7816200092360201b60201c565b15620005fa576040517f08c379a0000000000000000000000000000000000000000000000000000000008152600401620005f190620017e6565b60405180910390fd5b620006106000838360016200096c60201b60201c565b62000621816200092360201b60201c565b1562000664576040517f08c379a00000000000000000000000000000000000000000000000000000000081526004016200065b90620017e6565b60405180910390fd5b6001600360008473ffffffffffffffffffffffffffffffffffffffff1673ffffffffffffffffffffffffffffffffffffffff16815260200190815260200160002060008282540192505081905550816002600083815260200190815260200160002060006101000a81548173ffffffffffffffffffffffffffffffffffffffff021916908373ffffffffffffffffffffffffffffffffffffffff160217905550808273ffffffffffffffffffffffffffffffffffffffff16600073ffffffffffffffffffffffffffffffffffffffff167fddf252ad1be2c89b69c2b068fc378daa952ba7f163c4a11628f55a4df523b3ef60405160405180910390a46200077660008383600162000b0060201b60201c565b5050565b6000620007a88473ffffffffffffffffffffffffffffffffffffffff1662000b0660201b620018de1760201c565b1562000916578373ffffffffffffffffffffffffffffffffffffffff1663150b7a02620007da6200015160201b60201c565b8786866040518563ffffffff1660e01b8152600401620007fe9493929190620018bb565b6020604051808303816000875af19250505080156200083d57506040513d601f19601f820116820180604052508101906200083a91906200196c565b60015b620008c5573d806000811462000870576040519150601f19603f3d011682016040523d82523d6000602084013e62000875565b606091505b506000815103620008bd576040517f08c379a0000000000000000000000000000000000000000000000000000000008152600401620008b49062001702565b60405180910390fd5b805181602001fd5b63150b7a0260e01b7bffffffffffffffffffffffffffffffffffffffffffffffffffffffff1916817bffffffffffffffffffffffffffffffffffffffffffffffffffffffff1916149150506200091b565b600190505b949350505050565b60008073ffffffffffffffffffffffffffffffffffffffff166200094d8362000b2960201b60201c565b73ffffffffffffffffffffffffffffffffffffffff1614159050919050565b620009858484848462000b6660201b620019011760201c565b6001811115620009cc576040517f08c379a0000000000000000000000000000000000000000000000000000000008152600401620009c39062001a14565b60405180910390fd5b6000829050600073ffffffffffffffffffffffffffffffffffffffff168573ffffffffffffffffffffffffffffffffffffffff160362000a1d5762000a178162000b6c60201b60201c565b62000a65565b8373ffffffffffffffffffffffffffffffffffffffff168573ffffffffffffffffffffffffffffffffffffffff161462000a645762000a63858262000bb560201b60201c565b5b5b600073ffffffffffffffffffffffffffffffffffffffff168473ffffffffffffffffffffffffffffffffffffffff160362000ab15762000aab8162000d3260201b60201c565b62000af9565b8473ffffffffffffffffffffffffffffffffffffffff168473ffffffffffffffffffffffffffffffffffffffff161462000af85762000af7848262000e0e60201b60201c565b5b5b5050505050565b50505050565b6000808273ffffffffffffffffffffffffffffffffffffffff163b119050919050565b60006002600083815260200190815260200160002060009054906101000a900473ffffffffffffffffffffffffffffffffffffffff169050919050565b50505050565b6008805490506009600083815260200190815260200160002081905550600881908060018154018082558091505060019003906000526020600020016000909190919091505550565b6000600162000bcf8462000e9a60201b6200134f1760201c565b62000bdb919062001a36565b905060006007600084815260200190815260200160002054905081811462000cc1576000600660008673ffffffffffffffffffffffffffffffffffffffff1673ffffffffffffffffffffffffffffffffffffffff168152602001908152602001600020600084815260200190815260200160002054905080600660008773ffffffffffffffffffffffffffffffffffffffff1673ffffffffffffffffffffffffffffffffffffffff168152602001908152602001600020600084815260200190815260200160002081905550816007600083815260200190815260200160002081905550505b6007600084815260200190815260200160002060009055600660008573ffffffffffffffffffffffffffffffffffffffff1673ffffffffffffffffffffffffffffffffffffffff16815260200190815260200160002060008381526020019081526020016000206000905550505050565b6000600160088054905062000d48919062001a36565b905060006009600084815260200190815260200160002054905060006008838154811062000d7b5762000d7a62001a71565b5b90600052602060002001549050806008838154811062000da05762000d9f62001a71565b5b90600052602060002001819055508160096000838152602001908152602001600020819055506009600085815260200190815260200160002060009055600880548062000df25762000df162001aa0565b5b6001900381819060005260206000200160009055905550505050565b600062000e268362000e9a60201b6200134f1760201c565b905081600660008573ffffffffffffffffffffffffffffffffffffffff1673ffffffffffffffffffffffffffffffffffffffff168152602001908152602001600020600083815260200190815260200160002081905550806007600084815260200190815260200160002081905550505050565b60008073ffffffffffffffffffffffffffffffffffffffff168273ffffffffffffffffffffffffffffffffffffffff160362000f0d576040517f08c379a000000000000000000000000000000000000000000000000000000000815260040162000f049062001b45565b60405180910390fd5b600360008373ffffffffffffffffffffffffffffffffffffffff1673ffffffffffffffffffffffffffffffffffffffff168152602001908152602001600020549050919050565b600081519050919050565b7f4e487b7100000000000000000000000000000000000000000000000000000000600052604160045260246000fd5b7f4e487b7100000000000000000000000000000000000000000000000000000000600052602260045260246000fd5b6000600282049050600182168062000fd657607f821691505b60208210810362000fec5762000feb62000f8e565b5b50919050565b60008190508160005260206000209050919050565b60006020601f8301049050919050565b600082821b905092915050565b600060088302620010567fffffffffffffffffffffffffffffffffffffffffffffffffffffffffffffffff8262001017565b62001062868362001017565b95508019841693508086168417925050509392505050565b6000819050919050565b6000819050919050565b6000620010af620010a9620010a3846200107a565b62001084565b6200107a565b9050919050565b6000819050919050565b620010cb836200108e565b620010e3620010da82620010b6565b84845462001024565b825550505050565b600090565b620010fa620010eb565b62001107818484620010c0565b505050565b5b818110156200112f5762001123600082620010f0565b6001810190506200110d565b5050565b601f8211156200117e57620011488162000ff2565b620011538462001007565b8101602085101562001163578190505b6200117b620011728562001007565b8301826200110c565b50505b505050565b600082821c905092915050565b6000620011a36000198460080262001183565b1980831691505092915050565b6000620011be838362001190565b9150826002028217905092915050565b620011d98262000f54565b67ffffffffffffffff811115620011f557620011f462000f5f565b5b62001201825462000fbd565b6200120e82828562001133565b600060209050601f83116001811462001246576000841562001231578287015190505b6200123d8582620011b0565b865550620012ad565b601f198416620012568662000ff2565b60005b82811015620012805784890151825560018201915060208501945060208101905062001259565b86831015620012a057848901516200129c601f89168262001190565b8355505b6001600288020188555050505b505050505050565b6000604051905090565b600080fd5b600080fd5b600080fd5b600080fd5b6000601f19601f8301169050919050565b620012ef82620012d3565b810181811067ffffffffffffffff8211171562001311576200131062000f5f565b5b80604052505050565b600062001326620012b5565b9050620013348282620012e4565b919050565b600067ffffffffffffffff82111562001357576200135662000f5f565b5b6200136282620012d3565b9050602081019050919050565b60005b838110156200138f57808201518184015260208101905062001372565b60008484015250505050565b6000620013b2620013ac8462001339565b6200131a565b905082815260208101848484011115620013d157620013d0620012ce565b5b620013de8482856200136f565b509392505050565b600082601f830112620013fe57620013fd620012c9565b5b8151620014108482602086016200139b565b91505092915050565b60008060008060808587031215620014365762001435620012bf565b5b600085015167ffffffffffffffff811115620014575762001456620012c4565b5b6200146587828801620013e6565b945050602085015167ffffffffffffffff811115620014895762001488620012c4565b5b6200149787828801620013e6565b935050604085015167ffffffffffffffff811115620014bb57620014ba620012c4565b5b620014c987828801620013e6565b925050606085015167ffffffffffffffff811115620014ed57620014ec620012c4565b5b620014fb87828801620013e6565b91505092959194509250565b7f4e487b7100000000000000000000000000000000000000000000000000000000600052601160045260246000fd5b600062001543826200107a565b915062001550836200107a565b92508282019050808211156200156b576200156a62001507565b5b92915050565b60006200157e826200107a565b91506200158b836200107a565b92508282026200159b816200107a565b91508282048414831517620015b557620015b462001507565b5b5092915050565b6000620015c9826200107a565b91507fffffffffffffffffffffffffffffffffffffffffffffffffffffffffffffffff8203620015fe57620015fd62001507565b5b600182019050919050565b600082825260208201905092915050565b7f4f776e61626c653a2063616c6c6572206973206e6f7420746865206f776e6572600082015250565b60006200165260208362001609565b91506200165f826200161a565b602082019050919050565b60006020820190508181036000830152620016858162001643565b9050919050565b7f4552433732313a207472616e7366657220746f206e6f6e20455243373231526560008201527f63656976657220696d706c656d656e7465720000000000000000000000000000602082015250565b6000620016ea60328362001609565b9150620016f7826200168c565b604082019050919050565b600060208201905081810360008301526200171d81620016db565b9050919050565b7f4552433732313a206d696e7420746f20746865207a65726f2061646472657373600082015250565b60006200175c60208362001609565b9150620017698262001724565b602082019050919050565b600060208201905081810360008301526200178f816200174d565b9050919050565b7f4552433732313a20746f6b656e20616c7265616479206d696e74656400000000600082015250565b6000620017ce601c8362001609565b9150620017db8262001796565b602082019050919050565b600060208201905081810360008301526200180181620017bf565b9050919050565b600073ffffffffffffffffffffffffffffffffffffffff82169050919050565b6000620018358262001808565b9050919050565b620018478162001828565b82525050565b62001858816200107a565b82525050565b600081519050919050565b600082825260208201905092915050565b600062001887826200185e565b62001893818562001869565b9350620018a58185602086016200136f565b620018b081620012d3565b840191505092915050565b6000608082019050620018d260008301876200183c565b620018e160208301866200183c565b620018f060408301856200184d565b81810360608301526200190481846200187a565b905095945050505050565b60007fffffffff0000000000000000000000000000000000000000000000000000000082169050919050565b62001946816200190f565b81146200195257600080fd5b50565b60008151905062001966816200193b565b92915050565b600060208284031215620019855762001984620012bf565b5b6000620019958482850162001955565b91505092915050565b7f455243373231456e756d657261626c653a20636f6e736563757469766520747260008201527f616e7366657273206e6f7420737570706f727465640000000000000000000000602082015250565b6000620019fc60358362001609565b915062001a09826200199e565b604082019050919050565b6000602082019050818103600083015262001a2f81620019ed565b9050919050565b600062001a43826200107a565b915062001a50836200107a565b925082820390508181111562001a6b5762001a6a62001507565b5b92915050565b7f4e487b7100000000000000000000000000000000000000000000000000000000600052603260045260246000fd5b7f4e487b7100000000000000000000000000000000000000000000000000000000600052603160045260246000fd5b7f4552433732313a2061646472657373207a65726f206973206e6f74206120766160008201527f6c6964206f776e65720000000000000000000000000000000000000000000000602082015250565b600062001b2d60298362001609565b915062001b3a8262001acf565b604082019050919050565b6000602082019050818103600083015262001b608162001b1e565b9050919050565b6145628062001b776000396000f3fe60806040526004361061023b5760003560e01c806355f804b31161012e578063a475b5dd116100ab578063d936547e1161006f578063d936547e14610843578063da3ef23f14610880578063e985e9c5146108a9578063f2c4ce1e146108e6578063f2fde38b1461090f5761023b565b8063a475b5dd14610770578063b88d4fde14610787578063c6682862146107b0578063c87b56dd146107db578063d5abeb01146108185761023b565b8063715018a6116100f2578063715018a6146106b15780637f00c7a6146106c85780638da5cb5b146106f157806395d89b411461071c578063a22cb465146107475761023b565b806355f804b3146105b85780635c975abb146105e15780636352211e1461060c5780636c0360eb1461064957806370a08231146106745761023b565b80632f745c59116101bc578063438b630011610180578063438b6300146104c157806344a0d68a146104fe5780634a4c560d146105275780634f6ccce714610550578063518302271461058d5761023b565b80632f745c591461040c57806330cc7ae0146104495780633ccfd60b1461047257806340c10f191461047c57806342842e0e146104985761023b565b8063095ea7b311610203578063095ea7b31461033957806313faede61461036257806318160ddd1461038d578063239c70ae146103b857806323b872dd146103e35761023b565b806301ffc9a71461024057806302329a291461027d57806306fdde03146102a6578063081812fc146102d1578063081c8c441461030e575b600080fd5b34801561024c57600080fd5b5061026760048036038101906102629190612e1d565b610938565b6040516102749190612e65565b60405180910390f35b34801561028957600080fd5b506102a4600480360381019061029f9190612eac565b6109b2565b005b3480156102b257600080fd5b506102bb6109d7565b6040516102c89190612f69565b60405180910390f35b3480156102dd57600080fd5b506102f860048036038101906102f39190612fc1565b610a69565b604051610305919061302f565b60405180910390f35b34801561031a57600080fd5b50610323610aaf565b6040516103309190612f69565b60405180910390f35b34801561034557600080fd5b50610360600480360381019061035b9190613076565b610b3d565b005b34801561036e57600080fd5b50610377610c54565b60405161038491906130c5565b60405180910390f35b34801561039957600080fd5b506103a2610c5a565b6040516103af91906130c5565b60405180910390f35b3480156103c457600080fd5b506103cd610c67565b6040516103da91906130c5565b60405180910390f35b3480156103ef57600080fd5b5061040a600480360381019061040591906130e0565b610c6d565b005b34801561041857600080fd5b50610433600480360381019061042e9190613076565b610ccd565b60405161044091906130c5565b60405180910390f35b34801561045557600080fd5b50610470600480360381019061046b9190613133565b610d72565b005b61047a610dd5565b005b61049660048036038101906104919190613076565b610f00565b005b3480156104a457600080fd5b506104bf60048036038101906104ba91906130e0565b611046565b005b3480156104cd57600080fd5b506104e860048036038101906104e39190613133565b611066565b6040516104f5919061321e565b60405180910390f35b34801561050a57600080fd5b5061052560048036038101906105209190612fc1565b611114565b005b34801561053357600080fd5b5061054e60048036038101906105499190613133565b611126565b005b34801561055c57600080fd5b5061057760048036038101906105729190612fc1565b611189565b60405161058491906130c5565b60405180910390f35b34801561059957600080fd5b506105a26111fa565b6040516105af9190612e65565b60405180910390f35b3480156105c457600080fd5b506105df60048036038101906105da9190613375565b61120d565b005b3480156105ed57600080fd5b506105f6611228565b6040516106039190612e65565b60405180910390f35b34801561061857600080fd5b50610633600480360381019061062e9190612fc1565b61123b565b604051610640919061302f565b60405180910390f35b34801561065557600080fd5b5061065e6112c1565b60405161066b9190612f69565b60405180910390f35b34801561068057600080fd5b5061069b60048036038101906106969190613133565b61134f565b6040516106a891906130c5565b60405180910390f35b3480156106bd57600080fd5b506106c6611406565b005b3480156106d457600080fd5b506106ef60048036038101906106ea9190612fc1565b61141a565b005b3480156106fd57600080fd5b5061070661142c565b604051610713919061302f565b60405180910390f35b34801561072857600080fd5b50610731611456565b60405161073e9190612f69565b60405180910390f35b34801561075357600080fd5b5061076e600480360381019061076991906133be565b6114e8565b005b34801561077c57600080fd5b506107856114fe565b005b34801561079357600080fd5b506107ae60048036038101906107a9919061349f565b611523565b005b3480156107bc57600080fd5b506107c5611585565b6040516107d29190612f69565b60405180910390f35b3480156107e757600080fd5b5061080260048036038101906107fd9190612fc1565b611613565b60405161080f9190612f69565b60405180910390f35b34801561082457600080fd5b5061082d61176b565b60405161083a91906130c5565b60405180910390f35b34801561084f57600080fd5b5061086a60048036038101906108659190613133565b611771565b6040516108779190612e65565b60405180910390f35b34801561088c57600080fd5b506108a760048036038101906108a29190613375565b611791565b005b3480156108b557600080fd5b506108d060048036038101906108cb9190613522565b6117ac565b6040516108dd9190612e65565b60405180910390f35b3480156108f257600080fd5b5061090d60048036038101906109089190613375565b611840565b005b34801561091b57600080fd5b5061093660048036038101906109319190613133565b61185b565b005b60007f780e9d63000000000000000000000000000000000000000000000000000000007bffffffffffffffffffffffffffffffffffffffffffffffffffffffff1916827bffffffffffffffffffffffffffffffffffffffffffffffffffffffff191614806109ab57506109aa82611907565b5b9050919050565b6109ba6119e9565b80601060006101000a81548160ff02191690831515021790555050565b6060600080546109e690613591565b80601f0160208091040260200160405190810160405280929190818152602001828054610a1290613591565b8015610a5f5780601f10610a3457610100808354040283529160200191610a5f565b820191906000526020600020905b815481529060010190602001808311610a4257829003601f168201915b5050505050905090565b6000610a7482611a67565b6004600083815260200190815260200160002060009054906101000a900473ffffffffffffffffffffffffffffffffffffffff169050919050565b60118054610abc90613591565b80601f0160208091040260200160405190810160405280929190818152602001828054610ae890613591565b8015610b355780601f10610b0a57610100808354040283529160200191610b35565b820191906000526020600020905b815481529060010190602001808311610b1857829003601f168201915b505050505081565b6000610b488261123b565b90508073ffffffffffffffffffffffffffffffffffffffff168373ffffffffffffffffffffffffffffffffffffffff1603610bb8576040517f08c379a0000000000000000000000000000000000000000000000000000000008152600401610baf90613634565b60405180910390fd5b8073ffffffffffffffffffffffffffffffffffffffff16610bd7611ab2565b73ffffffffffffffffffffffffffffffffffffffff161480610c065750610c0581610c00611ab2565b6117ac565b5b610c45576040517f08c379a0000000000000000000000000000000000000000000000000000000008152600401610c3c906136c6565b60405180910390fd5b610c4f8383611aba565b505050565b600d5481565b6000600880549050905090565b600f5481565b610c7e610c78611ab2565b82611b73565b610cbd576040517f08c379a0000000000000000000000000000000000000000000000000000000008152600401610cb490613758565b60405180910390fd5b610cc8838383611c08565b505050565b6000610cd88361134f565b8210610d19576040517f08c379a0000000000000000000000000000000000000000000000000000000008152600401610d10906137ea565b60405180910390fd5b600660008473ffffffffffffffffffffffffffffffffffffffff1673ffffffffffffffffffffffffffffffffffffffff168152602001908152602001600020600083815260200190815260200160002054905092915050565b610d7a6119e9565b6000601260008373ffffffffffffffffffffffffffffffffffffffff1673ffffffffffffffffffffffffffffffffffffffff16815260200190815260200160002060006101000a81548160ff02191690831515021790555050565b610ddd6119e9565b600073943590a42c27d08e3744202c4ae5ed55c2de240d73ffffffffffffffffffffffffffffffffffffffff166064600547610e199190613839565b610e2391906138aa565b604051610e2f9061390c565b60006040518083038185875af1925050503d8060008114610e6c576040519150601f19603f3d011682016040523d82523d6000602084013e610e71565b606091505b5050905080610e7f57600080fd5b6000610e8961142c565b73ffffffffffffffffffffffffffffffffffffffff1647604051610eac9061390c565b60006040518083038185875af1925050503d8060008114610ee9576040519150601f19603f3d011682016040523d82523d6000602084013e610eee565b606091505b5050905080610efc57600080fd5b5050565b6000610f0a610c5a565b9050601060009054906101000a900460ff1615610f2657600080fd5b60008211610f3357600080fd5b600f54821115610f4257600080fd5b600e548282610f519190613921565b1115610f5c57600080fd5b610f6461142c565b73ffffffffffffffffffffffffffffffffffffffff163373ffffffffffffffffffffffffffffffffffffffff161461100a5760011515601260003373ffffffffffffffffffffffffffffffffffffffff1673ffffffffffffffffffffffffffffffffffffffff16815260200190815260200160002060009054906101000a900460ff161515146110095781600d54610ffc9190613839565b34101561100857600080fd5b5b5b6000600190505b8281116110405761102d8482846110289190613921565b611f01565b808061103890613955565b915050611011565b50505050565b61106183838360405180602001604052806000815250611523565b505050565b606060006110738361134f565b905060008167ffffffffffffffff8111156110915761109061324a565b5b6040519080825280602002602001820160405280156110bf5781602001602082028036833780820191505090505b50905060005b82811015611109576110d78582610ccd565b8282815181106110ea576110e961399d565b5b602002602001018181525050808061110190613955565b9150506110c5565b508092505050919050565b61111c6119e9565b80600d8190555050565b61112e6119e9565b6001601260008373ffffffffffffffffffffffffffffffffffffffff1673ffffffffffffffffffffffffffffffffffffffff16815260200190815260200160002060006101000a81548160ff02191690831515021790555050565b6000611193610c5a565b82106111d4576040517f08c379a00000000000000000000000000000000000000000000000000000000081526004016111cb90613a3e565b60405180910390fd5b600882815481106111e8576111e761399d565b5b90600052602060002001549050919050565b601060019054906101000a900460ff1681565b6112156119e9565b80600b90816112249190613c0a565b5050565b601060009054906101000a900460ff1681565b60008061124783611f1f565b9050600073ffffffffffffffffffffffffffffffffffffffff168173ffffffffffffffffffffffffffffffffffffffff16036112b8576040517f08c379a00000000000000000000000000000000000000000000000000000000081526004016112af90613d28565b60405180910390fd5b80915050919050565b600b80546112ce90613591565b80601f01602080910402602001604051908101604052809291908181526020018280546112fa90613591565b80156113475780601f1061131c57610100808354040283529160200191611347565b820191906000526020600020905b81548152906001019060200180831161132a57829003601f168201915b505050505081565b60008073ffffffffffffffffffffffffffffffffffffffff168273ffffffffffffffffffffffffffffffffffffffff16036113bf576040517f08c379a00000000000000000000000000000000000000000000000000000000081526004016113b690613dba565b60405180910390fd5b600360008373ffffffffffffffffffffffffffffffffffffffff1673ffffffffffffffffffffffffffffffffffffffff168152602001908152602001600020549050919050565b61140e6119e9565b6114186000611f5c565b565b6114226119e9565b80600f8190555050565b6000600a60009054906101000a900473ffffffffffffffffffffffffffffffffffffffff16905090565b60606001805461146590613591565b80601f016020809104026020016040519081016040528092919081815260200182805461149190613591565b80156114de5780601f106114b3576101008083540402835291602001916114de565b820191906000526020600020905b8154815290600101906020018083116114c157829003601f168201915b5050505050905090565b6114fa6114f3611ab2565b8383612022565b5050565b6115066119e9565b6001601060016101000a81548160ff021916908315150217905550565b61153461152e611ab2565b83611b73565b611573576040517f08c379a000000000000000000000000000000000000000000000000000000000815260040161156a90613758565b60405180910390fd5b61157f8484848461218e565b50505050565b600c805461159290613591565b80601f01602080910402602001604051908101604052809291908181526020018280546115be90613591565b801561160b5780601f106115e05761010080835404028352916020019161160b565b820191906000526020600020905b8154815290600101906020018083116115ee57829003601f168201915b505050505081565b606061161e826121ea565b61165d576040517f08c379a000000000000000000000000000000000000000000000000000000000815260040161165490613e4c565b60405180910390fd5b60001515601060019054906101000a900460ff1615150361170a576011805461168590613591565b80601f01602080910402602001604051908101604052809291908181526020018280546116b190613591565b80156116fe5780601f106116d3576101008083540402835291602001916116fe565b820191906000526020600020905b8154815290600101906020018083116116e157829003601f168201915b50505050509050611766565b600061171461222b565b905060008151116117345760405180602001604052806000815250611762565b8061173e846122bd565b600c60405160200161175293929190613f2b565b6040516020818303038152906040525b9150505b919050565b600e5481565b60126020528060005260406000206000915054906101000a900460ff1681565b6117996119e9565b80600c90816117a89190613c0a565b5050565b6000600560008473ffffffffffffffffffffffffffffffffffffffff1673ffffffffffffffffffffffffffffffffffffffff16815260200190815260200160002060008373ffffffffffffffffffffffffffffffffffffffff1673ffffffffffffffffffffffffffffffffffffffff16815260200190815260200160002060009054906101000a900460ff16905092915050565b6118486119e9565b80601190816118579190613c0a565b5050565b6118636119e9565b600073ffffffffffffffffffffffffffffffffffffffff168173ffffffffffffffffffffffffffffffffffffffff16036118d2576040517f08c379a00000000000000000000000000000000000000000000000000000000081526004016118c990613fce565b60405180910390fd5b6118db81611f5c565b50565b6000808273ffffffffffffffffffffffffffffffffffffffff163b119050919050565b50505050565b60007f80ac58cd000000000000000000000000000000000000000000000000000000007bffffffffffffffffffffffffffffffffffffffffffffffffffffffff1916827bffffffffffffffffffffffffffffffffffffffffffffffffffffffff191614806119d257507f5b5e139f000000000000000000000000000000000000000000000000000000007bffffffffffffffffffffffffffffffffffffffffffffffffffffffff1916827bffffffffffffffffffffffffffffffffffffffffffffffffffffffff1916145b806119e257506119e18261238b565b5b9050919050565b6119f1611ab2565b73ffffffffffffffffffffffffffffffffffffffff16611a0f61142c565b73ffffffffffffffffffffffffffffffffffffffff1614611a65576040517f08c379a0000000000000000000000000000000000000000000000000000000008152600401611a5c9061403a565b60405180910390fd5b565b611a70816121ea565b611aaf576040517f08c379a0000000000000000000000000000000000000000000000000000000008152600401611aa690613d28565b60405180910390fd5b50565b600033905090565b816004600083815260200190815260200160002060006101000a81548173ffffffffffffffffffffffffffffffffffffffff021916908373ffffffffffffffffffffffffffffffffffffffff160217905550808273ffffffffffffffffffffffffffffffffffffffff16611b2d8361123b565b73ffffffffffffffffffffffffffffffffffffffff167f8c5be1e5ebec7d5bd14f71427d1e84f3dd0314c0f7b2291e5b200ac8c7c3b92560405160405180910390a45050565b600080611b7f8361123b565b90508073ffffffffffffffffffffffffffffffffffffffff168473ffffffffffffffffffffffffffffffffffffffff161480611bc15750611bc081856117ac565b5b80611bff57508373ffffffffffffffffffffffffffffffffffffffff16611be784610a69565b73ffffffffffffffffffffffffffffffffffffffff16145b91505092915050565b8273ffffffffffffffffffffffffffffffffffffffff16611c288261123b565b73ffffffffffffffffffffffffffffffffffffffff1614611c7e576040517f08c379a0000000000000000000000000000000000000000000000000000000008152600401611c75906140cc565b60405180910390fd5b600073ffffffffffffffffffffffffffffffffffffffff168273ffffffffffffffffffffffffffffffffffffffff1603611ced576040517f08c379a0000000000000000000000000000000000000000000000000000000008152600401611ce49061415e565b60405180910390fd5b611cfa83838360016123f5565b8273ffffffffffffffffffffffffffffffffffffffff16611d1a8261123b565b73ffffffffffffffffffffffffffffffffffffffff1614611d70576040517f08c379a0000000000000000000000000000000000000000000000000000000008152600401611d67906140cc565b60405180910390fd5b6004600082815260200190815260200160002060006101000a81549073ffffffffffffffffffffffffffffffffffffffff02191690556001600360008573ffffffffffffffffffffffffffffffffffffffff1673ffffffffffffffffffffffffffffffffffffffff168152602001908152602001600020600082825403925050819055506001600360008473ffffffffffffffffffffffffffffffffffffffff1673ffffffffffffffffffffffffffffffffffffffff16815260200190815260200160002060008282540192505081905550816002600083815260200190815260200160002060006101000a81548173ffffffffffffffffffffffffffffffffffffffff021916908373ffffffffffffffffffffffffffffffffffffffff160217905550808273ffffffffffffffffffffffffffffffffffffffff168473ffffffffffffffffffffffffffffffffffffffff167fddf252ad1be2c89b69c2b068fc378daa952ba7f163c4a11628f55a4df523b3ef60405160405180910390a4611efc8383836001612553565b505050565b611f1b828260405180602001604052806000815250612559565b5050565b60006002600083815260200190815260200160002060009054906101000a900473ffffffffffffffffffffffffffffffffffffffff169050919050565b6000600a60009054906101000a900473ffffffffffffffffffffffffffffffffffffffff16905081600a60006101000a81548173ffffffffffffffffffffffffffffffffffffffff021916908373ffffffffffffffffffffffffffffffffffffffff1602179055508173ffffffffffffffffffffffffffffffffffffffff168173ffffffffffffffffffffffffffffffffffffffff167f8be0079c531659141344cd1fd0a4f28419497f9722a3daafe3b4186f6b6457e060405160405180910390a35050565b8173ffffffffffffffffffffffffffffffffffffffff168373ffffffffffffffffffffffffffffffffffffffff1603612090576040517f08c379a0000000000000000000000000000000000000000000000000000000008152600401612087906141ca565b60405180910390fd5b80600560008573ffffffffffffffffffffffffffffffffffffffff1673ffffffffffffffffffffffffffffffffffffffff16815260200190815260200160002060008473ffffffffffffffffffffffffffffffffffffffff1673ffffffffffffffffffffffffffffffffffffffff16815260200190815260200160002060006101000a81548160ff0219169083151502179055508173ffffffffffffffffffffffffffffffffffffffff168373ffffffffffffffffffffffffffffffffffffffff167f17307eab39ab6107e8899845ad3d59bd9653f200f220920489ca2b5937696c31836040516121819190612e65565b60405180910390a3505050565b612199848484611c08565b6121a5848484846125b4565b6121e4576040517f08c379a00000000000000000000000000000000000000000000000000000000081526004016121db9061425c565b60405180910390fd5b50505050565b60008073ffffffffffffffffffffffffffffffffffffffff1661220c83611f1f565b73ffffffffffffffffffffffffffffffffffffffff1614159050919050565b6060600b805461223a90613591565b80601f016020809104026020016040519081016040528092919081815260200182805461226690613591565b80156122b35780601f10612288576101008083540402835291602001916122b3565b820191906000526020600020905b81548152906001019060200180831161229657829003601f168201915b5050505050905090565b6060600060016122cc8461273b565b01905060008167ffffffffffffffff8111156122eb576122ea61324a565b5b6040519080825280601f01601f19166020018201604052801561231d5781602001600182028036833780820191505090505b509050600082602001820190505b600115612380578080600190039150507f3031323334353637383961626364656600000000000000000000000000000000600a86061a8153600a85816123745761237361387b565b5b0494506000850361232b575b819350505050919050565b60007f01ffc9a7000000000000000000000000000000000000000000000000000000007bffffffffffffffffffffffffffffffffffffffffffffffffffffffff1916827bffffffffffffffffffffffffffffffffffffffffffffffffffffffff1916149050919050565b61240184848484611901565b6001811115612445576040517f08c379a000000000000000000000000000000000000000000000000000000000815260040161243c906142ee565b60405180910390fd5b6000829050600073ffffffffffffffffffffffffffffffffffffffff168573ffffffffffffffffffffffffffffffffffffffff160361248c576124878161288e565b6124cb565b8373ffffffffffffffffffffffffffffffffffffffff168573ffffffffffffffffffffffffffffffffffffffff16146124ca576124c985826128d7565b5b5b600073ffffffffffffffffffffffffffffffffffffffff168473ffffffffffffffffffffffffffffffffffffffff160361250d5761250881612a44565b61254c565b8473ffffffffffffffffffffffffffffffffffffffff168473ffffffffffffffffffffffffffffffffffffffff161461254b5761254a8482612b15565b5b5b5050505050565b50505050565b6125638383612b94565b61257060008484846125b4565b6125af576040517f08c379a00000000000000000000000000000000000000000000000000000000081526004016125a69061425c565b60405180910390fd5b505050565b60006125d58473ffffffffffffffffffffffffffffffffffffffff166118de565b1561272e578373ffffffffffffffffffffffffffffffffffffffff1663150b7a026125fe611ab2565b8786866040518563ffffffff1660e01b81526004016126209493929190614363565b6020604051808303816000875af192505050801561265c57506040513d601f19601f8201168201806040525081019061265991906143c4565b60015b6126de573d806000811461268c576040519150601f19603f3d011682016040523d82523d6000602084013e612691565b606091505b5060008151036126d6576040517f08c379a00000000000000000000000000000000000000000000000000000000081526004016126cd9061425c565b60405180910390fd5b805181602001fd5b63150b7a0260e01b7bffffffffffffffffffffffffffffffffffffffffffffffffffffffff1916817bffffffffffffffffffffffffffffffffffffffffffffffffffffffff191614915050612733565b600190505b949350505050565b600080600090507a184f03e93ff9f4daa797ed6e38ed64bf6a1f0100000000000000008310612799577a184f03e93ff9f4daa797ed6e38ed64bf6a1f010000000000000000838161278f5761278e61387b565b5b0492506040810190505b6d04ee2d6d415b85acef810000000083106127d6576d04ee2d6d415b85acef810000000083816127cc576127cb61387b565b5b0492506020810190505b662386f26fc10000831061280557662386f26fc1000083816127fb576127fa61387b565b5b0492506010810190505b6305f5e100831061282e576305f5e10083816128245761282361387b565b5b0492506008810190505b61271083106128535761271083816128495761284861387b565b5b0492506004810190505b60648310612876576064838161286c5761286b61387b565b5b0492506002810190505b600a8310612885576001810190505b80915050919050565b6008805490506009600083815260200190815260200160002081905550600881908060018154018082558091505060019003906000526020600020016000909190919091505550565b600060016128e48461134f565b6128ee91906143f1565b90506000600760008481526020019081526020016000205490508181146129d3576000600660008673ffffffffffffffffffffffffffffffffffffffff1673ffffffffffffffffffffffffffffffffffffffff168152602001908152602001600020600084815260200190815260200160002054905080600660008773ffffffffffffffffffffffffffffffffffffffff1673ffffffffffffffffffffffffffffffffffffffff168152602001908152602001600020600084815260200190815260200160002081905550816007600083815260200190815260200160002081905550505b6007600084815260200190815260200160002060009055600660008573ffffffffffffffffffffffffffffffffffffffff1673ffffffffffffffffffffffffffffffffffffffff16815260200190815260200160002060008381526020019081526020016000206000905550505050565b60006001600880549050612a5891906143f1565b9050600060096000848152602001908152602001600020549050600060088381548110612a8857612a8761399d565b5b906000526020600020015490508060088381548110612aaa57612aa961399d565b5b906000526020600020018190555081600960008381526020019081526020016000208190555060096000858152602001908152602001600020600090556008805480612af957612af8614425565b5b6001900381819060005260206000200160009055905550505050565b6000612b208361134f565b905081600660008573ffffffffffffffffffffffffffffffffffffffff1673ffffffffffffffffffffffffffffffffffffffff168152602001908152602001600020600083815260200190815260200160002081905550806007600084815260200190815260200160002081905550505050565b600073ffffffffffffffffffffffffffffffffffffffff168273ffffffffffffffffffffffffffffffffffffffff1603612c03576040517f08c379a0000000000000000000000000000000000000000000000000000000008152600401612bfa906144a0565b60405180910390fd5b612c0c816121ea565b15612c4c576040517f08c379a0000000000000000000000000000000000000000000000000000000008152600401612c439061450c565b60405180910390fd5b612c5a6000838360016123f5565b612c63816121ea565b15612ca3576040517f08c379a0000000000000000000000000000000000000000000000000000000008152600401612c9a9061450c565b60405180910390fd5b6001600360008473ffffffffffffffffffffffffffffffffffffffff1673ffffffffffffffffffffffffffffffffffffffff16815260200190815260200160002060008282540192505081905550816002600083815260200190815260200160002060006101000a81548173ffffffffffffffffffffffffffffffffffffffff021916908373ffffffffffffffffffffffffffffffffffffffff160217905550808273ffffffffffffffffffffffffffffffffffffffff16600073ffffffffffffffffffffffffffffffffffffffff167fddf252ad1be2c89b69c2b068fc378daa952ba7f163c4a11628f55a4df523b3ef60405160405180910390a4612dad600083836001612553565b5050565b6000604051905090565b600080fd5b600080fd5b60007fffffffff0000000000000000000000000000000000000000000000000000000082169050919050565b612dfa81612dc5565b8114612e0557600080fd5b50565b600081359050612e1781612df1565b92915050565b600060208284031215612e3357612e32612dbb565b5b6000612e4184828501612e08565b91505092915050565b60008115159050919050565b612e5f81612e4a565b82525050565b6000602082019050612e7a6000830184612e56565b92915050565b612e8981612e4a565b8114612e9457600080fd5b50565b600081359050612ea681612e80565b92915050565b600060208284031215612ec257612ec1612dbb565b5b6000612ed084828501612e97565b91505092915050565b600081519050919050565b600082825260208201905092915050565b60005b83811015612f13578082015181840152602081019050612ef8565b60008484015250505050565b6000601f19601f8301169050919050565b6000612f3b82612ed9565b612f458185612ee4565b9350612f55818560208601612ef5565b612f5e81612f1f565b840191505092915050565b60006020820190508181036000830152612f838184612f30565b905092915050565b6000819050919050565b612f9e81612f8b565b8114612fa957600080fd5b50565b600081359050612fbb81612f95565b92915050565b600060208284031215612fd757612fd6612dbb565b5b6000612fe584828501612fac565b91505092915050565b600073ffffffffffffffffffffffffffffffffffffffff82169050919050565b600061301982612fee565b9050919050565b6130298161300e565b82525050565b60006020820190506130446000830184613020565b92915050565b6130538161300e565b811461305e57600080fd5b50565b6000813590506130708161304a565b92915050565b6000806040838503121561308d5761308c612dbb565b5b600061309b85828601613061565b92505060206130ac85828601612fac565b9150509250929050565b6130bf81612f8b565b82525050565b60006020820190506130da60008301846130b6565b92915050565b6000806000606084860312156130f9576130f8612dbb565b5b600061310786828701613061565b935050602061311886828701613061565b925050604061312986828701612fac565b9150509250925092565b60006020828403121561314957613148612dbb565b5b600061315784828501613061565b91505092915050565b600081519050919050565b600082825260208201905092915050565b6000819050602082019050919050565b61319581612f8b565b82525050565b60006131a7838361318c565b60208301905092915050565b6000602082019050919050565b60006131cb82613160565b6131d5818561316b565b93506131e08361317c565b8060005b838110156132115781516131f8888261319b565b9750613203836131b3565b9250506001810190506131e4565b5085935050505092915050565b6000602082019050818103600083015261323881846131c0565b905092915050565b600080fd5b600080fd5b7f4e487b7100000000000000000000000000000000000000000000000000000000600052604160045260246000fd5b61328282612f1f565b810181811067ffffffffffffffff821117156132a1576132a061324a565b5b80604052505050565b60006132b4612db1565b90506132c08282613279565b919050565b600067ffffffffffffffff8211156132e0576132df61324a565b5b6132e982612f1f565b9050602081019050919050565b82818337600083830152505050565b6000613318613313846132c5565b6132aa565b90508281526020810184848401111561333457613333613245565b5b61333f8482856132f6565b509392505050565b600082601f83011261335c5761335b613240565b5b813561336c848260208601613305565b91505092915050565b60006020828403121561338b5761338a612dbb565b5b600082013567ffffffffffffffff8111156133a9576133a8612dc0565b5b6133b584828501613347565b91505092915050565b600080604083850312156133d5576133d4612dbb565b5b60006133e385828601613061565b92505060206133f485828601612e97565b9150509250929050565b600067ffffffffffffffff8211156134195761341861324a565b5b61342282612f1f565b9050602081019050919050565b600061344261343d846133fe565b6132aa565b90508281526020810184848401111561345e5761345d613245565b5b6134698482856132f6565b509392505050565b600082601f83011261348657613485613240565b5b813561349684826020860161342f565b91505092915050565b600080600080608085870312156134b9576134b8612dbb565b5b60006134c787828801613061565b94505060206134d887828801613061565b93505060406134e987828801612fac565b925050606085013567ffffffffffffffff81111561350a57613509612dc0565b5b61351687828801613471565b91505092959194509250565b6000806040838503121561353957613538612dbb565b5b600061354785828601613061565b925050602061355885828601613061565b9150509250929050565b7f4e487b7100000000000000000000000000000000000000000000000000000000600052602260045260246000fd5b600060028204905060018216806135a957607f821691505b6020821081036135bc576135bb613562565b5b50919050565b7f4552433732313a20617070726f76616c20746f2063757272656e74206f776e6560008201527f7200000000000000000000000000000000000000000000000000000000000000602082015250565b600061361e602183612ee4565b9150613629826135c2565b604082019050919050565b6000602082019050818103600083015261364d81613611565b9050919050565b7f4552433732313a20617070726f76652063616c6c6572206973206e6f7420746f60008201527f6b656e206f776e6572206f7220617070726f76656420666f7220616c6c000000602082015250565b60006136b0603d83612ee4565b91506136bb82613654565b604082019050919050565b600060208201905081810360008301526136df816136a3565b9050919050565b7f4552433732313a2063616c6c6572206973206e6f7420746f6b656e206f776e6560008201527f72206f7220617070726f76656400000000000000000000000000000000000000602082015250565b6000613742602d83612ee4565b915061374d826136e6565b604082019050919050565b6000602082019050818103600083015261377181613735565b9050919050565b7f455243373231456e756d657261626c653a206f776e657220696e646578206f7560008201527f74206f6620626f756e6473000000000000000000000000000000000000000000602082015250565b60006137d4602b83612ee4565b91506137df82613778565b604082019050919050565b60006020820190508181036000830152613803816137c7565b9050919050565b7f4e487b7100000000000000000000000000000000000000000000000000000000600052601160045260246000fd5b600061384482612f8b565b915061384f83612f8b565b925082820261385d81612f8b565b915082820484148315176138745761387361380a565b5b5092915050565b7f4e487b7100000000000000000000000000000000000000000000000000000000600052601260045260246000fd5b60006138b582612f8b565b91506138c083612f8b565b9250826138d0576138cf61387b565b5b828204905092915050565b600081905092915050565b50565b60006138f66000836138db565b9150613901826138e6565b600082019050919050565b6000613917826138e9565b9150819050919050565b600061392c82612f8b565b915061393783612f8b565b925082820190508082111561394f5761394e61380a565b5b92915050565b600061396082612f8b565b91507fffffffffffffffffffffffffffffffffffffffffffffffffffffffffffffffff82036139925761399161380a565b5b600182019050919050565b7f4e487b7100000000000000000000000000000000000000000000000000000000600052603260045260246000fd5b7f455243373231456e756d657261626c653a20676c6f62616c20696e646578206f60008201527f7574206f6620626f756e64730000000000000000000000000000000000000000602082015250565b6000613a28602c83612ee4565b9150613a33826139cc565b604082019050919050565b60006020820190508181036000830152613a5781613a1b565b9050919050565b60008190508160005260206000209050919050565b60006020601f8301049050919050565b600082821b905092915050565b600060088302613ac07fffffffffffffffffffffffffffffffffffffffffffffffffffffffffffffffff82613a83565b613aca8683613a83565b95508019841693508086168417925050509392505050565b6000819050919050565b6000613b07613b02613afd84612f8b565b613ae2565b612f8b565b9050919050565b6000819050919050565b613b2183613aec565b613b35613b2d82613b0e565b848454613a90565b825550505050565b600090565b613b4a613b3d565b613b55818484613b18565b505050565b5b81811015613b7957613b6e600082613b42565b600181019050613b5b565b5050565b601f821115613bbe57613b8f81613a5e565b613b9884613a73565b81016020851015613ba7578190505b613bbb613bb385613a73565b830182613b5a565b50505b505050565b600082821c905092915050565b6000613be160001984600802613bc3565b1980831691505092915050565b6000613bfa8383613bd0565b9150826002028217905092915050565b613c1382612ed9565b67ffffffffffffffff811115613c2c57613c2b61324a565b5b613c368254613591565b613c41828285613b7d565b600060209050601f831160018114613c745760008415613c62578287015190505b613c6c8582613bee565b865550613cd4565b601f198416613c8286613a5e565b60005b82811015613caa57848901518255600182019150602085019450602081019050613c85565b86831015613cc75784890151613cc3601f891682613bd0565b8355505b6001600288020188555050505b505050505050565b7f4552433732313a20696e76616c696420746f6b656e2049440000000000000000600082015250565b6000613d12601883612ee4565b9150613d1d82613cdc565b602082019050919050565b60006020820190508181036000830152613d4181613d05565b9050919050565b7f4552433732313a2061646472657373207a65726f206973206e6f74206120766160008201527f6c6964206f776e65720000000000000000000000000000000000000000000000602082015250565b6000613da4602983612ee4565b9150613daf82613d48565b604082019050919050565b60006020820190508181036000830152613dd381613d97565b9050919050565b7f4552433732314d657461646174613a2055524920717565727920666f72206e6f60008201527f6e6578697374656e7420746f6b656e0000000000000000000000000000000000602082015250565b6000613e36602f83612ee4565b9150613e4182613dda565b604082019050919050565b60006020820190508181036000830152613e6581613e29565b9050919050565b600081905092915050565b6000613e8282612ed9565b613e8c8185613e6c565b9350613e9c818560208601612ef5565b80840191505092915050565b60008154613eb581613591565b613ebf8186613e6c565b94506001821660008114613eda5760018114613eef57613f22565b60ff1983168652811515820286019350613f22565b613ef885613a5e565b60005b83811015613f1a57815481890152600182019150602081019050613efb565b838801955050505b50505092915050565b6000613f378286613e77565b9150613f438285613e77565b9150613f4f8284613ea8565b9150819050949350505050565b7f4f776e61626c653a206e6577206f776e657220697320746865207a65726f206160008201527f6464726573730000000000000000000000000000000000000000000000000000602082015250565b6000613fb8602683612ee4565b9150613fc382613f5c565b604082019050919050565b60006020820190508181036000830152613fe781613fab565b9050919050565b7f4f776e61626c653a2063616c6c6572206973206e6f7420746865206f776e6572600082015250565b6000614024602083612ee4565b915061402f82613fee565b602082019050919050565b6000602082019050818103600083015261405381614017565b9050919050565b7f4552433732313a207472616e736665722066726f6d20696e636f72726563742060008201527f6f776e6572000000000000000000000000000000000000000000000000000000602082015250565b60006140b6602583612ee4565b91506140c18261405a565b604082019050919050565b600060208201905081810360008301526140e5816140a9565b9050919050565b7f4552433732313a207472616e7366657220746f20746865207a65726f2061646460008201527f7265737300000000000000000000000000000000000000000000000000000000602082015250565b6000614148602483612ee4565b9150614153826140ec565b604082019050919050565b600060208201905081810360008301526141778161413b565b9050919050565b7f4552433732313a20617070726f766520746f2063616c6c657200000000000000600082015250565b60006141b4601983612ee4565b91506141bf8261417e565b602082019050919050565b600060208201905081810360008301526141e3816141a7565b9050919050565b7f4552433732313a207472616e7366657220746f206e6f6e20455243373231526560008201527f63656976657220696d706c656d656e7465720000000000000000000000000000602082015250565b6000614246603283612ee4565b9150614251826141ea565b604082019050919050565b6000602082019050818103600083015261427581614239565b9050919050565b7f455243373231456e756d657261626c653a20636f6e736563757469766520747260008201527f616e7366657273206e6f7420737570706f727465640000000000000000000000602082015250565b60006142d8603583612ee4565b91506142e38261427c565b604082019050919050565b60006020820190508181036000830152614307816142cb565b9050919050565b600081519050919050565b600082825260208201905092915050565b60006143358261430e565b61433f8185614319565b935061434f818560208601612ef5565b61435881612f1f565b840191505092915050565b60006080820190506143786000830187613020565b6143856020830186613020565b61439260408301856130b6565b81810360608301526143a4818461432a565b905095945050505050565b6000815190506143be81612df1565b92915050565b6000602082840312156143da576143d9612dbb565b5b60006143e8848285016143af565b91505092915050565b60006143fc82612f8b565b915061440783612f8b565b925082820390508181111561441f5761441e61380a565b5b92915050565b7f4e487b7100000000000000000000000000000000000000000000000000000000600052603160045260246000fd5b7f4552433732313a206d696e7420746f20746865207a65726f2061646472657373600082015250565b600061448a602083612ee4565b915061449582614454565b602082019050919050565b600060208201905081810360008301526144b98161447d565b9050919050565b7f4552433732313a20746f6b656e20616c7265616479206d696e74656400000000600082015250565b60006144f6601c83612ee4565b9150614501826144c0565b602082019050919050565b60006020820190508181036000830152614525816144e9565b905091905056fea264697066735822122009a46a7751d37b4538275236eb7c7416eda4f1f104dc061aa5c9ace8841675e464736f6c63430008120033",
  "linkReferences": {},
  "deployedLinkReferences": {}
}