{"contracts/test/WarriorNft.sol":{"WarriorNft":{"abi":[{"inputs":[{"internalType":"uint256","name":"mintFee","type":"uint256"},{"internalType":"uint256","name":"maxSupply","type":"uint256"},{"internalType":"string","name":"_initNotRevealedUri","type":"string"}],"stateMutability":"nonpayable","type":"constructor"},{"inputs":[],"name":"WarriorNft__InvalidAirdrop","type":"error"},{"inputs":[],"name":"WarriorNft__MaxSupplyReached","type":"error"},{"inputs":[],"name":"WarriorNft__NeedMoreETHSent","type":"error"},{"inputs":[],"name":"WarriorNft__RangeOutOfBounds","type":"error"},{"inputs":[],"name":"WarriorNft__SoldOut","type":"error"},{"inputs":[],"name":"WarriorNft__TransferFailed","type":"error"},{"anonymous":false,"inputs":[{"indexed":true,"internalType":"address","name":"owner","type":"address"},{"indexed":true,"internalType":"address","name":"approved","type":"address"},{"indexed":true,"internalType":"uint256","name":"tokenId","type":"uint256"}],"name":"Approval","type":"event"},{"anonymous":false,"inputs":[{"indexed":true,"internalType":"address","name":"owner","type":"address"},{"indexed":true,"internalType":"address","name":"operator","type":"address"},{"indexed":false,"internalType":"bool","name":"approved","type":"bool"}],"name":"ApprovalForAll","type":"event"},{"anonymous":false,"inputs":[{"indexed":false,"internalType":"uint256","name":"_fromTokenId","type":"uint256"},{"indexed":false,"internalType":"uint256","name":"_toTokenId","type":"uint256"}],"name":"BatchMetadataUpdate","type":"event"},{"anonymous":false,"inputs":[{"indexed":false,"internalType":"uint256","name":"_tokenId","type":"uint256"}],"name":"MetadataUpdate","type":"event"},{"anonymous":false,"inputs":[{"indexed":false,"internalType":"uint256","name":"tokenId","type":"uint256"},{"indexed":false,"internalType":"address","name":"minter","type":"address"}],"name":"NftMinted","type":"event"},{"anonymous":false,"inputs":[{"indexed":true,"internalType":"address","name":"previousOwner","type":"address"},{"indexed":true,"internalType":"address","name":"newOwner","type":"address"}],"name":"OwnershipTransferred","type":"event"},{"anonymous":false,"inputs":[{"indexed":false,"internalType":"uint256","name":"numRecipients","type":"uint256"},{"indexed":false,"internalType":"uint256","name":"numTokens","type":"uint256"}],"name":"TokensAirdropped","type":"event"},{"anonymous":false,"inputs":[{"indexed":true,"internalType":"address","name":"from","type":"address"},{"indexed":true,"internalType":"address","name":"to","type":"address"},{"indexed":true,"internalType":"uint256","name":"tokenId","type":"uint256"}],"name":"Transfer","type":"event"},{"inputs":[{"internalType":"uint64[]","name":"quantity","type":"uint64[]"},{"internalType":"address[]","name":"recipients","type":"address[]"}],"name":"airdropToken","outputs":[],"stateMutability":"nonpayable","type":"function"},{"inputs":[{"internalType":"address","name":"to","type":"address"},{"internalType":"uint256","name":"tokenId","type":"uint256"}],"name":"approve","outputs":[],"stateMutability":"nonpayable","type":"function"},{"inputs":[{"internalType":"address","name":"owner","type":"address"}],"name":"balanceOf","outputs":[{"internalType":"uint256","name":"","type":"uint256"}],"stateMutability":"view","type":"function"},{"inputs":[],"name":"baseExtension","outputs":[{"internalType":"string","name":"","type":"string"}],"stateMutability":"view","type":"function"},{"inputs":[],"name":"baseURI","outputs":[{"internalType":"string","name":"","type":"string"}],"stateMutability":"view","type":"function"},{"inputs":[{"internalType":"uint256","name":"tokenId","type":"uint256"}],"name":"getApproved","outputs":[{"internalType":"address","name":"","type":"address"}],"stateMutability":"view","type":"function"},{"inputs":[],"name":"getInitialized","outputs":[{"internalType":"bool","name":"","type":"bool"}],"stateMutability":"view","type":"function"},{"inputs":[],"name":"getMintFee","outputs":[{"internalType":"uint256","name":"","type":"uint256"}],"stateMutability":"view","type":"function"},{"inputs":[],"name":"getTokenCounter","outputs":[{"internalType":"uint256","name":"","type":"uint256"}],"stateMutability":"view","type":"function"},{"inputs":[{"internalType":"address","name":"owner","type":"address"},{"internalType":"address","name":"operator","type":"address"}],"name":"isApprovedForAll","outputs":[{"internalType":"bool","name":"","type":"bool"}],"stateMutability":"view","type":"function"},{"inputs":[],"name":"mintNft","outputs":[],"stateMutability":"payable","type":"function"},{"inputs":[],"name":"name","outputs":[{"internalType":"string","name":"","type":"string"}],"stateMutability":"view","type":"function"},{"inputs":[],"name":"notRevealedUri","outputs":[{"internalType":"string","name":"","type":"string"}],"stateMutability":"view","type":"function"},{"inputs":[],"name":"owner","outputs":[{"internalType":"address","name":"","type":"address"}],"stateMutability":"view","type":"function"},{"inputs":[{"internalType":"uint256","name":"tokenId","type":"uint256"}],"name":"ownerOf","outputs":[{"internalType":"address","name":"","type":"address"}],"stateMutability":"view","type":"function"},{"inputs":[],"name":"paused","outputs":[{"internalType":"bool","name":"","type":"bool"}],"stateMutability":"view","type":"function"},{"inputs":[],"name":"renounceOwnership","outputs":[],"stateMutability":"nonpayable","type":"function"},{"inputs":[],"name":"revealed","outputs":[{"internalType":"bool","name":"","type":"bool"}],"stateMutability":"view","type":"function"},{"inputs":[{"internalType":"address","name":"from","type":"address"},{"internalType":"address","name":"to","type":"address"},{"internalType":"uint256","name":"tokenId","type":"uint256"}],"name":"safeTransferFrom","outputs":[],"stateMutability":"nonpayable","type":"function"},{"inputs":[{"internalType":"address","name":"from","type":"address"},{"internalType":"address","name":"to","type":"address"},{"internalType":"uint256","name":"tokenId","type":"uint256"},{"internalType":"bytes","name":"data","type":"bytes"}],"name":"safeTransferFrom","outputs":[],"stateMutability":"nonpayable","type":"function"},{"inputs":[{"internalType":"address","name":"operator","type":"address"},{"internalType":"bool","name":"approved","type":"bool"}],"name":"setApprovalForAll","outputs":[],"stateMutability":"nonpayable","type":"function"},{"inputs":[{"internalType":"string","name":"_notRevealedURI","type":"string"}],"name":"setNotRevealedURI","outputs":[],"stateMutability":"nonpayable","type":"function"},{"inputs":[{"internalType":"bytes4","name":"interfaceId","type":"bytes4"}],"name":"supportsInterface","outputs":[{"internalType":"bool","name":"","type":"bool"}],"stateMutability":"view","type":"function"},{"inputs":[],"name":"symbol","outputs":[{"internalType":"string","name":"","type":"string"}],"stateMutability":"view","type":"function"},{"inputs":[{"internalType":"uint256","name":"tokenId","type":"uint256"}],"name":"tokenURI","outputs":[{"internalType":"string","name":"","type":"string"}],"stateMutability":"view","type":"function"},{"inputs":[{"internalType":"address","name":"from","type":"address"},{"internalType":"address","name":"to","type":"address"},{"internalType":"uint256","name":"tokenId","type":"uint256"}],"name":"transferFrom","outputs":[],"stateMutability":"nonpayable","type":"function"},{"inputs":[{"internalType":"address","name":"newOwner","type":"address"}],"name":"transferOwnership","outputs":[],"stateMutability":"nonpayable","type":"function"},{"inputs":[],"name":"withdraw","outputs":[],"stateMutability":"nonpayable","type":"function"}],"devdoc":{"events":{"Approval(address,address,uint256)":{"details":"Emitted when `owner` enables `approved` to manage the `tokenId` token."},"ApprovalForAll(address,address,bool)":{"details":"Emitted when `owner` enables or disables (`approved`) `operator` to manage all of its assets."},"BatchMetadataUpdate(uint256,uint256)":{"details":"This event emits when the metadata of a range of tokens is changed. So that the third-party platforms such as NFT market could timely update the images and related attributes of the NFTs."},"MetadataUpdate(uint256)":{"details":"This event emits when the metadata of a token is changed. So that the third-party platforms such as NFT market could timely update the images and related attributes of the NFT."},"Transfer(address,address,uint256)":{"details":"Emitted when `tokenId` token is transferred from `from` to `to`."}},"kind":"dev","methods":{"approve(address,uint256)":{"details":"See {IERC721-approve}."},"balanceOf(address)":{"details":"See {IERC721-balanceOf}."},"getApproved(uint256)":{"details":"See {IERC721-getApproved}."},"isApprovedForAll(address,address)":{"details":"See {IERC721-isApprovedForAll}."},"name()":{"details":"See {IERC721Metadata-name}."},"owner()":{"details":"Returns the address of the current owner."},"ownerOf(uint256)":{"details":"See {IERC721-ownerOf}."},"renounceOwnership()":{"details":"Leaves the contract without owner. It will not be possible to call `onlyOwner` functions. Can only be called by the current owner. NOTE: Renouncing ownership will leave the contract without an owner, thereby disabling any functionality that is only available to the owner."},"safeTransferFrom(address,address,uint256)":{"details":"See {IERC721-safeTransferFrom}."},"safeTransferFrom(address,address,uint256,bytes)":{"details":"See {IERC721-safeTransferFrom}."},"setApprovalForAll(address,bool)":{"details":"See {IERC721-setApprovalForAll}."},"supportsInterface(bytes4)":{"details":"See {IERC165-supportsInterface}"},"symbol()":{"details":"See {IERC721Metadata-symbol}."},"tokenURI(uint256)":{"details":"See {IERC721Metadata-tokenURI}."},"transferFrom(address,address,uint256)":{"details":"See {IERC721-transferFrom}."},"transferOwnership(address)":{"details":"Transfers ownership of the contract to a new account (`newOwner`). Can only be called by the current owner."}},"version":1},"evm":{"bytecode":{"linkReferences":{},"object":"60c06040526040518060400160405280600581526020017f2e6a736f6e000000000000000000000000000000000000000000000000000000815250600990816200004a9190620005e2565b506000600c60016101000a81548160ff0219169083151502179055506000600c60026101000a81548160ff0219169083151502179055503480156200008e57600080fd5b5060405162004471380380620044718339818101604052810190620000b491906200085e565b6040518060400160405280600781526020017f57617272696f72000000000000000000000000000000000000000000000000008152506040518060400160405280600481526020017f5741494f000000000000000000000000000000000000000000000000000000008152508160009081620001319190620005e2565b508060019081620001439190620005e2565b505050620001666200015a620001ba60201b60201c565b620001c260201b60201c565b62000177816200028860201b60201c565b82608081815250506000600a60006101000a81548167ffffffffffffffff021916908367ffffffffffffffff1602179055508160a081815250505050506200095c565b600033905090565b6000600760009054906101000a900473ffffffffffffffffffffffffffffffffffffffff16905081600760006101000a81548173ffffffffffffffffffffffffffffffffffffffff021916908373ffffffffffffffffffffffffffffffffffffffff1602179055508173ffffffffffffffffffffffffffffffffffffffff168173ffffffffffffffffffffffffffffffffffffffff167f8be0079c531659141344cd1fd0a4f28419497f9722a3daafe3b4186f6b6457e060405160405180910390a35050565b62000298620002ad60201b60201c565b80600d9081620002a99190620005e2565b5050565b620002bd620001ba60201b60201c565b73ffffffffffffffffffffffffffffffffffffffff16620002e36200033e60201b60201c565b73ffffffffffffffffffffffffffffffffffffffff16146200033c576040517f08c379a000000000000000000000000000000000000000000000000000000000815260040162000333906200093a565b60405180910390fd5b565b6000600760009054906101000a900473ffffffffffffffffffffffffffffffffffffffff16905090565b600081519050919050565b7f4e487b7100000000000000000000000000000000000000000000000000000000600052604160045260246000fd5b7f4e487b7100000000000000000000000000000000000000000000000000000000600052602260045260246000fd5b60006002820490506001821680620003ea57607f821691505b6020821081036200040057620003ff620003a2565b5b50919050565b60008190508160005260206000209050919050565b60006020601f8301049050919050565b600082821b905092915050565b6000600883026200046a7fffffffffffffffffffffffffffffffffffffffffffffffffffffffffffffffff826200042b565b6200047686836200042b565b95508019841693508086168417925050509392505050565b6000819050919050565b6000819050919050565b6000620004c3620004bd620004b7846200048e565b62000498565b6200048e565b9050919050565b6000819050919050565b620004df83620004a2565b620004f7620004ee82620004ca565b84845462000438565b825550505050565b600090565b6200050e620004ff565b6200051b818484620004d4565b505050565b5b8181101562000543576200053760008262000504565b60018101905062000521565b5050565b601f82111562000592576200055c8162000406565b62000567846200041b565b8101602085101562000577578190505b6200058f62000586856200041b565b83018262000520565b50505b505050565b600082821c905092915050565b6000620005b76000198460080262000597565b1980831691505092915050565b6000620005d28383620005a4565b9150826002028217905092915050565b620005ed8262000368565b67ffffffffffffffff81111562000609576200060862000373565b5b620006158254620003d1565b6200062282828562000547565b600060209050601f8311600181146200065a576000841562000645578287015190505b620006518582620005c4565b865550620006c1565b601f1984166200066a8662000406565b60005b8281101562000694578489015182556001820191506020850194506020810190506200066d565b86831015620006b45784890151620006b0601f891682620005a4565b8355505b6001600288020188555050505b505050505050565b6000604051905090565b600080fd5b600080fd5b620006e8816200048e565b8114620006f457600080fd5b50565b6000815190506200070881620006dd565b92915050565b600080fd5b600080fd5b6000601f19601f8301169050919050565b620007348262000718565b810181811067ffffffffffffffff8211171562000756576200075562000373565b5b80604052505050565b60006200076b620006c9565b905062000779828262000729565b919050565b600067ffffffffffffffff8211156200079c576200079b62000373565b5b620007a78262000718565b9050602081019050919050565b60005b83811015620007d4578082015181840152602081019050620007b7565b60008484015250505050565b6000620007f7620007f1846200077e565b6200075f565b90508281526020810184848401111562000816576200081562000713565b5b62000823848285620007b4565b509392505050565b600082601f8301126200084357620008426200070e565b5b815162000855848260208601620007e0565b91505092915050565b6000806000606084860312156200087a5762000879620006d3565b5b60006200088a86828701620006f7565b93505060206200089d86828701620006f7565b925050604084015167ffffffffffffffff811115620008c157620008c0620006d8565b5b620008cf868287016200082b565b9150509250925092565b600082825260208201905092915050565b7f4f776e61626c653a2063616c6c6572206973206e6f7420746865206f776e6572600082015250565b600062000922602083620008d9565b91506200092f82620008ea565b602082019050919050565b60006020820190508181036000830152620009558162000913565b9050919050565b60805160a051613ae16200099060003960008181610da80152611029015260008181610cc601526110a20152613ae16000f3fe6080604052600436106101b75760003560e01c8063715018a6116100ec578063c2229fea1161008a578063e985e9c511610064578063e985e9c5146105c9578063ee89dab414610606578063f2c4ce1e14610631578063f2fde38b1461065a576101b7565b8063c2229fea14610557578063c668286214610561578063c87b56dd1461058c576101b7565b80638da5cb5b116100c65780638da5cb5b146104af57806395d89b41146104da578063a22cb46514610505578063b88d4fde1461052e576101b7565b8063715018a6146104445780637a5caab31461045b5780638d22a5ce14610486576101b7565b806342842e0e116101595780636352211e116101335780636352211e146103745780636c0360eb146103b15780636e02007d146103dc57806370a0823114610407576101b7565b806342842e0e146102f5578063518302271461031e5780635c975abb14610349576101b7565b8063081c8c4411610195578063081c8c4414610261578063095ea7b31461028c57806323b872dd146102b55780633ccfd60b146102de576101b7565b806301ffc9a7146101bc57806306fdde03146101f9578063081812fc14610224575b600080fd5b3480156101c857600080fd5b506101e360048036038101906101de91906125dd565b610683565b6040516101f09190612625565b60405180910390f35b34801561020557600080fd5b5061020e6106e4565b60405161021b91906126d0565b60405180910390f35b34801561023057600080fd5b5061024b60048036038101906102469190612728565b610776565b6040516102589190612796565b60405180910390f35b34801561026d57600080fd5b506102766107bc565b60405161028391906126d0565b60405180910390f35b34801561029857600080fd5b506102b360048036038101906102ae91906127dd565b61084a565b005b3480156102c157600080fd5b506102dc60048036038101906102d7919061281d565b610961565b005b3480156102ea57600080fd5b506102f36109c1565b005b34801561030157600080fd5b5061031c6004803603810190610317919061281d565b610a75565b005b34801561032a57600080fd5b50610333610a95565b6040516103409190612625565b60405180910390f35b34801561035557600080fd5b5061035e610aa8565b60405161036b9190612625565b60405180910390f35b34801561038057600080fd5b5061039b60048036038101906103969190612728565b610abb565b6040516103a89190612796565b60405180910390f35b3480156103bd57600080fd5b506103c6610b41565b6040516103d391906126d0565b60405180910390f35b3480156103e857600080fd5b506103f1610bcf565b6040516103fe919061287f565b60405180910390f35b34801561041357600080fd5b5061042e6004803603810190610429919061289a565b610bf7565b60405161043b919061287f565b60405180910390f35b34801561045057600080fd5b50610459610cae565b005b34801561046757600080fd5b50610470610cc2565b60405161047d919061287f565b60405180910390f35b34801561049257600080fd5b506104ad60048036038101906104a89190612982565b610cea565b005b3480156104bb57600080fd5b506104c4610ef3565b6040516104d19190612796565b60405180910390f35b3480156104e657600080fd5b506104ef610f1d565b6040516104fc91906126d0565b60405180910390f35b34801561051157600080fd5b5061052c60048036038101906105279190612a2f565b610faf565b005b34801561053a57600080fd5b5061055560048036038101906105509190612b9f565b610fc5565b005b61055f611027565b005b34801561056d57600080fd5b506105766111b6565b60405161058391906126d0565b60405180910390f35b34801561059857600080fd5b506105b360048036038101906105ae9190612728565b611244565b6040516105c091906126d0565b60405180910390f35b3480156105d557600080fd5b506105f060048036038101906105eb9190612c22565b61139b565b6040516105fd9190612625565b60405180910390f35b34801561061257600080fd5b5061061b61142f565b6040516106289190612625565b60405180910390f35b34801561063d57600080fd5b5061065860048036038101906106539190612d03565b611446565b005b34801561066657600080fd5b50610681600480360381019061067c919061289a565b611461565b005b6000634906490660e01b7bffffffffffffffffffffffffffffffffffffffffffffffffffffffff1916827bffffffffffffffffffffffffffffffffffffffffffffffffffffffff191614806106dd57506106dc826114e4565b5b9050919050565b6060600080546106f390612d7b565b80601f016020809104026020016040519081016040528092919081815260200182805461071f90612d7b565b801561076c5780601f106107415761010080835404028352916020019161076c565b820191906000526020600020905b81548152906001019060200180831161074f57829003601f168201915b5050505050905090565b6000610781826115c6565b6004600083815260200190815260200160002060009054906101000a900473ffffffffffffffffffffffffffffffffffffffff169050919050565b600d80546107c990612d7b565b80601f01602080910402602001604051908101604052809291908181526020018280546107f590612d7b565b80156108425780601f1061081757610100808354040283529160200191610842565b820191906000526020600020905b81548152906001019060200180831161082557829003601f168201915b505050505081565b600061085582610abb565b90508073ffffffffffffffffffffffffffffffffffffffff168373ffffffffffffffffffffffffffffffffffffffff16036108c5576040517f08c379a00000000000000000000000000000000000000000000000000000000081526004016108bc90612e1e565b60405180910390fd5b8073ffffffffffffffffffffffffffffffffffffffff166108e4611611565b73ffffffffffffffffffffffffffffffffffffffff16148061091357506109128161090d611611565b61139b565b5b610952576040517f08c379a000000000000000000000000000000000000000000000000000000000815260040161094990612eb0565b60405180910390fd5b61095c8383611619565b505050565b61097261096c611611565b826116d2565b6109b1576040517f08c379a00000000000000000000000000000000000000000000000000000000081526004016109a890612f42565b60405180910390fd5b6109bc838383611767565b505050565b6109c9611a60565b600047905060003373ffffffffffffffffffffffffffffffffffffffff16826040516109f490612f93565b60006040518083038185875af1925050503d8060008114610a31576040519150601f19603f3d011682016040523d82523d6000602084013e610a36565b606091505b5050905080610a71576040517faa8b9cf700000000000000000000000000000000000000000000000000000000815260040160405180910390fd5b5050565b610a9083838360405180602001604052806000815250610fc5565b505050565b600c60029054906101000a900460ff1681565b600c60019054906101000a900460ff1681565b600080610ac783611ade565b9050600073ffffffffffffffffffffffffffffffffffffffff168173ffffffffffffffffffffffffffffffffffffffff1603610b38576040517f08c379a0000000000000000000000000000000000000000000000000000000008152600401610b2f90612ff4565b60405180910390fd5b80915050919050565b60088054610b4e90612d7b565b80601f0160208091040260200160405190810160405280929190818152602001828054610b7a90612d7b565b8015610bc75780601f10610b9c57610100808354040283529160200191610bc7565b820191906000526020600020905b815481529060010190602001808311610baa57829003601f168201915b505050505081565b6000600a60009054906101000a900467ffffffffffffffff1667ffffffffffffffff16905090565b60008073ffffffffffffffffffffffffffffffffffffffff168273ffffffffffffffffffffffffffffffffffffffff1603610c67576040517f08c379a0000000000000000000000000000000000000000000000000000000008152600401610c5e90613086565b60405180910390fd5b600360008373ffffffffffffffffffffffffffffffffffffffff1673ffffffffffffffffffffffffffffffffffffffff168152602001908152602001600020549050919050565b610cb6611a60565b610cc06000611b1b565b565b60007f0000000000000000000000000000000000000000000000000000000000000000905090565b610cf2611a60565b60008282905090506000858590508214610d38576040517f7ac4bba900000000000000000000000000000000000000000000000000000000815260040160405180910390fd5b60005b82811015610eb15760005b878783818110610d5957610d586130a6565b5b9050602002016020810190610d6e9190613115565b67ffffffffffffffff16811015610ea55760006001600a60009054906101000a900467ffffffffffffffff16610da49190613171565b90507f00000000000000000000000000000000000000000000000000000000000000008167ffffffffffffffff161115610e0a576040517fdd05d6d600000000000000000000000000000000000000000000000000000000815260040160405180910390fd5b80600a60006101000a81548167ffffffffffffffff021916908367ffffffffffffffff160217905550600184610e4091906131ad565b93506000600a60009054906101000a900467ffffffffffffffff1667ffffffffffffffff169050610e98888886818110610e7d57610e7c6130a6565b5b9050602002016020810190610e92919061289a565b82611be1565b8260010192505050610d46565b50806001019050610d3b565b507f71cc7095cc35ed4701c217a8efb440732eb0737da67f6548c008ac26fba954648282604051610ee39291906131e1565b60405180910390a1505050505050565b6000600760009054906101000a900473ffffffffffffffffffffffffffffffffffffffff16905090565b606060018054610f2c90612d7b565b80601f0160208091040260200160405190810160405280929190818152602001828054610f5890612d7b565b8015610fa55780601f10610f7a57610100808354040283529160200191610fa5565b820191906000526020600020905b815481529060010190602001808311610f8857829003601f168201915b5050505050905090565b610fc1610fba611611565b8383611bff565b5050565b610fd6610fd0611611565b836116d2565b611015576040517f08c379a000000000000000000000000000000000000000000000000000000000815260040161100c90612f42565b60405180910390fd5b61102184848484611d6b565b50505050565b7f0000000000000000000000000000000000000000000000000000000000000000600a60009054906101000a900467ffffffffffffffff1667ffffffffffffffff16106110a0576040517fde02aad600000000000000000000000000000000000000000000000000000000815260040160405180910390fd5b7f00000000000000000000000000000000000000000000000000000000000000003410156110fa576040517f44d2294d00000000000000000000000000000000000000000000000000000000815260040160405180910390fd5b60003390506000600a60009054906101000a900467ffffffffffffffff1667ffffffffffffffff1690506001600a60009054906101000a900467ffffffffffffffff166111479190613171565b600a60006101000a81548167ffffffffffffffff021916908367ffffffffffffffff1602179055506111798282611be1565b7f769eff512f395b679667e0062a0e31dad5d22dbc7e6b87f16c3de7e85e66346081836040516111aa92919061320a565b60405180910390a15050565b600980546111c390612d7b565b80601f01602080910402602001604051908101604052809291908181526020018280546111ef90612d7b565b801561123c5780601f106112115761010080835404028352916020019161123c565b820191906000526020600020905b81548152906001019060200180831161121f57829003601f168201915b505050505081565b60606000151561125383611dc7565b15150361128c576040517f4906322a00000000000000000000000000000000000000000000000000000000815260040160405180910390fd5b60001515600c60029054906101000a900460ff1615150361133957600d80546112b490612d7b565b80601f01602080910402602001604051908101604052809291908181526020018280546112e090612d7b565b801561132d5780601f106113025761010080835404028352916020019161132d565b820191906000526020600020905b81548152906001019060200180831161131057829003601f168201915b50505050509050611396565b600061134483611e08565b905060008151116113645760405180602001604052806000815250611392565b8061136e84611eb8565b600960405160200161138293929190613307565b6040516020818303038152906040525b9150505b919050565b6000600560008473ffffffffffffffffffffffffffffffffffffffff1673ffffffffffffffffffffffffffffffffffffffff16815260200190815260200160002060008373ffffffffffffffffffffffffffffffffffffffff1673ffffffffffffffffffffffffffffffffffffffff16815260200190815260200160002060009054906101000a900460ff16905092915050565b6000600c60009054906101000a900460ff16905090565b61144e611a60565b80600d908161145d91906134cf565b5050565b611469611a60565b600073ffffffffffffffffffffffffffffffffffffffff168173ffffffffffffffffffffffffffffffffffffffff16036114d8576040517f08c379a00000000000000000000000000000000000000000000000000000000081526004016114cf90613613565b60405180910390fd5b6114e181611b1b565b50565b60007f80ac58cd000000000000000000000000000000000000000000000000000000007bffffffffffffffffffffffffffffffffffffffffffffffffffffffff1916827bffffffffffffffffffffffffffffffffffffffffffffffffffffffff191614806115af57507f5b5e139f000000000000000000000000000000000000000000000000000000007bffffffffffffffffffffffffffffffffffffffffffffffffffffffff1916827bffffffffffffffffffffffffffffffffffffffffffffffffffffffff1916145b806115bf57506115be82611f86565b5b9050919050565b6115cf81611dc7565b61160e576040517f08c379a000000000000000000000000000000000000000000000000000000000815260040161160590612ff4565b60405180910390fd5b50565b600033905090565b816004600083815260200190815260200160002060006101000a81548173ffffffffffffffffffffffffffffffffffffffff021916908373ffffffffffffffffffffffffffffffffffffffff160217905550808273ffffffffffffffffffffffffffffffffffffffff1661168c83610abb565b73ffffffffffffffffffffffffffffffffffffffff167f8c5be1e5ebec7d5bd14f71427d1e84f3dd0314c0f7b2291e5b200ac8c7c3b92560405160405180910390a45050565b6000806116de83610abb565b90508073ffffffffffffffffffffffffffffffffffffffff168473ffffffffffffffffffffffffffffffffffffffff161480611720575061171f818561139b565b5b8061175e57508373ffffffffffffffffffffffffffffffffffffffff1661174684610776565b73ffffffffffffffffffffffffffffffffffffffff16145b91505092915050565b8273ffffffffffffffffffffffffffffffffffffffff1661178782610abb565b73ffffffffffffffffffffffffffffffffffffffff16146117dd576040517f08c379a00000000000000000000000000000000000000000000000000000000081526004016117d4906136a5565b60405180910390fd5b600073ffffffffffffffffffffffffffffffffffffffff168273ffffffffffffffffffffffffffffffffffffffff160361184c576040517f08c379a000000000000000000000000000000000000000000000000000000000815260040161184390613737565b60405180910390fd5b6118598383836001611ff0565b8273ffffffffffffffffffffffffffffffffffffffff1661187982610abb565b73ffffffffffffffffffffffffffffffffffffffff16146118cf576040517f08c379a00000000000000000000000000000000000000000000000000000000081526004016118c6906136a5565b60405180910390fd5b6004600082815260200190815260200160002060006101000a81549073ffffffffffffffffffffffffffffffffffffffff02191690556001600360008573ffffffffffffffffffffffffffffffffffffffff1673ffffffffffffffffffffffffffffffffffffffff168152602001908152602001600020600082825403925050819055506001600360008473ffffffffffffffffffffffffffffffffffffffff1673ffffffffffffffffffffffffffffffffffffffff16815260200190815260200160002060008282540192505081905550816002600083815260200190815260200160002060006101000a81548173ffffffffffffffffffffffffffffffffffffffff021916908373ffffffffffffffffffffffffffffffffffffffff160217905550808273ffffffffffffffffffffffffffffffffffffffff168473ffffffffffffffffffffffffffffffffffffffff167fddf252ad1be2c89b69c2b068fc378daa952ba7f163c4a11628f55a4df523b3ef60405160405180910390a4611a5b8383836001611ff6565b505050565b611a68611611565b73ffffffffffffffffffffffffffffffffffffffff16611a86610ef3565b73ffffffffffffffffffffffffffffffffffffffff1614611adc576040517f08c379a0000000000000000000000000000000000000000000000000000000008152600401611ad3906137a3565b60405180910390fd5b565b60006002600083815260200190815260200160002060009054906101000a900473ffffffffffffffffffffffffffffffffffffffff169050919050565b6000600760009054906101000a900473ffffffffffffffffffffffffffffffffffffffff16905081600760006101000a81548173ffffffffffffffffffffffffffffffffffffffff021916908373ffffffffffffffffffffffffffffffffffffffff1602179055508173ffffffffffffffffffffffffffffffffffffffff168173ffffffffffffffffffffffffffffffffffffffff167f8be0079c531659141344cd1fd0a4f28419497f9722a3daafe3b4186f6b6457e060405160405180910390a35050565b611bfb828260405180602001604052806000815250611ffc565b5050565b8173ffffffffffffffffffffffffffffffffffffffff168373ffffffffffffffffffffffffffffffffffffffff1603611c6d576040517f08c379a0000000000000000000000000000000000000000000000000000000008152600401611c649061380f565b60405180910390fd5b80600560008573ffffffffffffffffffffffffffffffffffffffff1673ffffffffffffffffffffffffffffffffffffffff16815260200190815260200160002060008473ffffffffffffffffffffffffffffffffffffffff1673ffffffffffffffffffffffffffffffffffffffff16815260200190815260200160002060006101000a81548160ff0219169083151502179055508173ffffffffffffffffffffffffffffffffffffffff168373ffffffffffffffffffffffffffffffffffffffff167f17307eab39ab6107e8899845ad3d59bd9653f200f220920489ca2b5937696c3183604051611d5e9190612625565b60405180910390a3505050565b611d76848484611767565b611d8284848484612057565b611dc1576040517f08c379a0000000000000000000000000000000000000000000000000000000008152600401611db8906138a1565b60405180910390fd5b50505050565b60008073ffffffffffffffffffffffffffffffffffffffff16611de983611ade565b73ffffffffffffffffffffffffffffffffffffffff1614159050919050565b6060600b8281548110611e1e57611e1d6130a6565b5b906000526020600020018054611e3390612d7b565b80601f0160208091040260200160405190810160405280929190818152602001828054611e5f90612d7b565b8015611eac5780601f10611e8157610100808354040283529160200191611eac565b820191906000526020600020905b815481529060010190602001808311611e8f57829003601f168201915b50505050509050919050565b606060006001611ec7846121de565b01905060008167ffffffffffffffff811115611ee657611ee5612a74565b5b6040519080825280601f01601f191660200182016040528015611f185781602001600182028036833780820191505090505b509050600082602001820190505b600115611f7b578080600190039150507f3031323334353637383961626364656600000000000000000000000000000000600a86061a8153600a8581611f6f57611f6e6138c1565b5b04945060008503611f26575b819350505050919050565b60007f01ffc9a7000000000000000000000000000000000000000000000000000000007bffffffffffffffffffffffffffffffffffffffffffffffffffffffff1916827bffffffffffffffffffffffffffffffffffffffffffffffffffffffff1916149050919050565b50505050565b50505050565b6120068383612331565b6120136000848484612057565b612052576040517f08c379a0000000000000000000000000000000000000000000000000000000008152600401612049906138a1565b60405180910390fd5b505050565b60006120788473ffffffffffffffffffffffffffffffffffffffff1661254e565b156121d1578373ffffffffffffffffffffffffffffffffffffffff1663150b7a026120a1611611565b8786866040518563ffffffff1660e01b81526004016120c39493929190613945565b6020604051808303816000875af19250505080156120ff57506040513d601f19601f820116820180604052508101906120fc91906139a6565b60015b612181573d806000811461212f576040519150601f19603f3d011682016040523d82523d6000602084013e612134565b606091505b506000815103612179576040517f08c379a0000000000000000000000000000000000000000000000000000000008152600401612170906138a1565b60405180910390fd5b805181602001fd5b63150b7a0260e01b7bffffffffffffffffffffffffffffffffffffffffffffffffffffffff1916817bffffffffffffffffffffffffffffffffffffffffffffffffffffffff1916149150506121d6565b600190505b949350505050565b600080600090507a184f03e93ff9f4daa797ed6e38ed64bf6a1f010000000000000000831061223c577a184f03e93ff9f4daa797ed6e38ed64bf6a1f0100000000000000008381612232576122316138c1565b5b0492506040810190505b6d04ee2d6d415b85acef81000000008310612279576d04ee2d6d415b85acef8100000000838161226f5761226e6138c1565b5b0492506020810190505b662386f26fc1000083106122a857662386f26fc10000838161229e5761229d6138c1565b5b0492506010810190505b6305f5e10083106122d1576305f5e10083816122c7576122c66138c1565b5b0492506008810190505b61271083106122f65761271083816122ec576122eb6138c1565b5b0492506004810190505b60648310612319576064838161230f5761230e6138c1565b5b0492506002810190505b600a8310612328576001810190505b80915050919050565b600073ffffffffffffffffffffffffffffffffffffffff168273ffffffffffffffffffffffffffffffffffffffff16036123a0576040517f08c379a000000000000000000000000000000000000000000000000000000000815260040161239790613a1f565b60405180910390fd5b6123a981611dc7565b156123e9576040517f08c379a00000000000000000000000000000000000000000000000000000000081526004016123e090613a8b565b60405180910390fd5b6123f7600083836001611ff0565b61240081611dc7565b15612440576040517f08c379a000000000000000000000000000000000000000000000000000000000815260040161243790613a8b565b60405180910390fd5b6001600360008473ffffffffffffffffffffffffffffffffffffffff1673ffffffffffffffffffffffffffffffffffffffff16815260200190815260200160002060008282540192505081905550816002600083815260200190815260200160002060006101000a81548173ffffffffffffffffffffffffffffffffffffffff021916908373ffffffffffffffffffffffffffffffffffffffff160217905550808273ffffffffffffffffffffffffffffffffffffffff16600073ffffffffffffffffffffffffffffffffffffffff167fddf252ad1be2c89b69c2b068fc378daa952ba7f163c4a11628f55a4df523b3ef60405160405180910390a461254a600083836001611ff6565b5050565b6000808273ffffffffffffffffffffffffffffffffffffffff163b119050919050565b6000604051905090565b600080fd5b600080fd5b60007fffffffff0000000000000000000000000000000000000000000000000000000082169050919050565b6125ba81612585565b81146125c557600080fd5b50565b6000813590506125d7816125b1565b92915050565b6000602082840312156125f3576125f261257b565b5b6000612601848285016125c8565b91505092915050565b60008115159050919050565b61261f8161260a565b82525050565b600060208201905061263a6000830184612616565b92915050565b600081519050919050565b600082825260208201905092915050565b60005b8381101561267a57808201518184015260208101905061265f565b60008484015250505050565b6000601f19601f8301169050919050565b60006126a282612640565b6126ac818561264b565b93506126bc81856020860161265c565b6126c581612686565b840191505092915050565b600060208201905081810360008301526126ea8184612697565b905092915050565b6000819050919050565b612705816126f2565b811461271057600080fd5b50565b600081359050612722816126fc565b92915050565b60006020828403121561273e5761273d61257b565b5b600061274c84828501612713565b91505092915050565b600073ffffffffffffffffffffffffffffffffffffffff82169050919050565b600061278082612755565b9050919050565b61279081612775565b82525050565b60006020820190506127ab6000830184612787565b92915050565b6127ba81612775565b81146127c557600080fd5b50565b6000813590506127d7816127b1565b92915050565b600080604083850312156127f4576127f361257b565b5b6000612802858286016127c8565b925050602061281385828601612713565b9150509250929050565b6000806000606084860312156128365761283561257b565b5b6000612844868287016127c8565b9350506020612855868287016127c8565b925050604061286686828701612713565b9150509250925092565b612879816126f2565b82525050565b60006020820190506128946000830184612870565b92915050565b6000602082840312156128b0576128af61257b565b5b60006128be848285016127c8565b91505092915050565b600080fd5b600080fd5b600080fd5b60008083601f8401126128ec576128eb6128c7565b5b8235905067ffffffffffffffff811115612909576129086128cc565b5b602083019150836020820283011115612925576129246128d1565b5b9250929050565b60008083601f840112612942576129416128c7565b5b8235905067ffffffffffffffff81111561295f5761295e6128cc565b5b60208301915083602082028301111561297b5761297a6128d1565b5b9250929050565b6000806000806040858703121561299c5761299b61257b565b5b600085013567ffffffffffffffff8111156129ba576129b9612580565b5b6129c6878288016128d6565b9450945050602085013567ffffffffffffffff8111156129e9576129e8612580565b5b6129f58782880161292c565b925092505092959194509250565b612a0c8161260a565b8114612a1757600080fd5b50565b600081359050612a2981612a03565b92915050565b60008060408385031215612a4657612a4561257b565b5b6000612a54858286016127c8565b9250506020612a6585828601612a1a565b9150509250929050565b600080fd5b7f4e487b7100000000000000000000000000000000000000000000000000000000600052604160045260246000fd5b612aac82612686565b810181811067ffffffffffffffff82111715612acb57612aca612a74565b5b80604052505050565b6000612ade612571565b9050612aea8282612aa3565b919050565b600067ffffffffffffffff821115612b0a57612b09612a74565b5b612b1382612686565b9050602081019050919050565b82818337600083830152505050565b6000612b42612b3d84612aef565b612ad4565b905082815260208101848484011115612b5e57612b5d612a6f565b5b612b69848285612b20565b509392505050565b600082601f830112612b8657612b856128c7565b5b8135612b96848260208601612b2f565b91505092915050565b60008060008060808587031215612bb957612bb861257b565b5b6000612bc7878288016127c8565b9450506020612bd8878288016127c8565b9350506040612be987828801612713565b925050606085013567ffffffffffffffff811115612c0a57612c09612580565b5b612c1687828801612b71565b91505092959194509250565b60008060408385031215612c3957612c3861257b565b5b6000612c47858286016127c8565b9250506020612c58858286016127c8565b9150509250929050565b600067ffffffffffffffff821115612c7d57612c7c612a74565b5b612c8682612686565b9050602081019050919050565b6000612ca6612ca184612c62565b612ad4565b905082815260208101848484011115612cc257612cc1612a6f565b5b612ccd848285612b20565b509392505050565b600082601f830112612cea57612ce96128c7565b5b8135612cfa848260208601612c93565b91505092915050565b600060208284031215612d1957612d1861257b565b5b600082013567ffffffffffffffff811115612d3757612d36612580565b5b612d4384828501612cd5565b91505092915050565b7f4e487b7100000000000000000000000000000000000000000000000000000000600052602260045260246000fd5b60006002820490506001821680612d9357607f821691505b602082108103612da657612da5612d4c565b5b50919050565b7f4552433732313a20617070726f76616c20746f2063757272656e74206f776e6560008201527f7200000000000000000000000000000000000000000000000000000000000000602082015250565b6000612e0860218361264b565b9150612e1382612dac565b604082019050919050565b60006020820190508181036000830152612e3781612dfb565b9050919050565b7f4552433732313a20617070726f76652063616c6c6572206973206e6f7420746f60008201527f6b656e206f776e6572206f7220617070726f76656420666f7220616c6c000000602082015250565b6000612e9a603d8361264b565b9150612ea582612e3e565b604082019050919050565b60006020820190508181036000830152612ec981612e8d565b9050919050565b7f4552433732313a2063616c6c6572206973206e6f7420746f6b656e206f776e6560008201527f72206f7220617070726f76656400000000000000000000000000000000000000602082015250565b6000612f2c602d8361264b565b9150612f3782612ed0565b604082019050919050565b60006020820190508181036000830152612f5b81612f1f565b9050919050565b600081905092915050565b50565b6000612f7d600083612f62565b9150612f8882612f6d565b600082019050919050565b6000612f9e82612f70565b9150819050919050565b7f4552433732313a20696e76616c696420746f6b656e2049440000000000000000600082015250565b6000612fde60188361264b565b9150612fe982612fa8565b602082019050919050565b6000602082019050818103600083015261300d81612fd1565b9050919050565b7f4552433732313a2061646472657373207a65726f206973206e6f74206120766160008201527f6c6964206f776e65720000000000000000000000000000000000000000000000602082015250565b600061307060298361264b565b915061307b82613014565b604082019050919050565b6000602082019050818103600083015261309f81613063565b9050919050565b7f4e487b7100000000000000000000000000000000000000000000000000000000600052603260045260246000fd5b600067ffffffffffffffff82169050919050565b6130f2816130d5565b81146130fd57600080fd5b50565b60008135905061310f816130e9565b92915050565b60006020828403121561312b5761312a61257b565b5b600061313984828501613100565b91505092915050565b7f4e487b7100000000000000000000000000000000000000000000000000000000600052601160045260246000fd5b600061317c826130d5565b9150613187836130d5565b9250828201905067ffffffffffffffff8111156131a7576131a6613142565b5b92915050565b60006131b8826126f2565b91506131c3836126f2565b92508282019050808211156131db576131da613142565b5b92915050565b60006040820190506131f66000830185612870565b6132036020830184612870565b9392505050565b600060408201905061321f6000830185612870565b61322c6020830184612787565b9392505050565b600081905092915050565b600061324982612640565b6132538185613233565b935061326381856020860161265c565b80840191505092915050565b60008190508160005260206000209050919050565b6000815461329181612d7b565b61329b8186613233565b945060018216600081146132b657600181146132cb576132fe565b60ff19831686528115158202860193506132fe565b6132d48561326f565b60005b838110156132f6578154818901526001820191506020810190506132d7565b838801955050505b50505092915050565b6000613313828661323e565b915061331f828561323e565b915061332b8284613284565b9150819050949350505050565b60006020601f8301049050919050565b600082821b905092915050565b6000600883026133857fffffffffffffffffffffffffffffffffffffffffffffffffffffffffffffffff82613348565b61338f8683613348565b95508019841693508086168417925050509392505050565b6000819050919050565b60006133cc6133c76133c2846126f2565b6133a7565b6126f2565b9050919050565b6000819050919050565b6133e6836133b1565b6133fa6133f2826133d3565b848454613355565b825550505050565b600090565b61340f613402565b61341a8184846133dd565b505050565b5b8181101561343e57613433600082613407565b600181019050613420565b5050565b601f821115613483576134548161326f565b61345d84613338565b8101602085101561346c578190505b61348061347885613338565b83018261341f565b50505b505050565b600082821c905092915050565b60006134a660001984600802613488565b1980831691505092915050565b60006134bf8383613495565b9150826002028217905092915050565b6134d882612640565b67ffffffffffffffff8111156134f1576134f0612a74565b5b6134fb8254612d7b565b613506828285613442565b600060209050601f8311600181146135395760008415613527578287015190505b61353185826134b3565b865550613599565b601f1984166135478661326f565b60005b8281101561356f5784890151825560018201915060208501945060208101905061354a565b8683101561358c5784890151613588601f891682613495565b8355505b6001600288020188555050505b505050505050565b7f4f776e61626c653a206e6577206f776e657220697320746865207a65726f206160008201527f6464726573730000000000000000000000000000000000000000000000000000602082015250565b60006135fd60268361264b565b9150613608826135a1565b604082019050919050565b6000602082019050818103600083015261362c816135f0565b9050919050565b7f4552433732313a207472616e736665722066726f6d20696e636f72726563742060008201527f6f776e6572000000000000000000000000000000000000000000000000000000602082015250565b600061368f60258361264b565b915061369a82613633565b604082019050919050565b600060208201905081810360008301526136be81613682565b9050919050565b7f4552433732313a207472616e7366657220746f20746865207a65726f2061646460008201527f7265737300000000000000000000000000000000000000000000000000000000602082015250565b600061372160248361264b565b915061372c826136c5565b604082019050919050565b6000602082019050818103600083015261375081613714565b9050919050565b7f4f776e61626c653a2063616c6c6572206973206e6f7420746865206f776e6572600082015250565b600061378d60208361264b565b915061379882613757565b602082019050919050565b600060208201905081810360008301526137bc81613780565b9050919050565b7f4552433732313a20617070726f766520746f2063616c6c657200000000000000600082015250565b60006137f960198361264b565b9150613804826137c3565b602082019050919050565b60006020820190508181036000830152613828816137ec565b9050919050565b7f4552433732313a207472616e7366657220746f206e6f6e20455243373231526560008201527f63656976657220696d706c656d656e7465720000000000000000000000000000602082015250565b600061388b60328361264b565b91506138968261382f565b604082019050919050565b600060208201905081810360008301526138ba8161387e565b9050919050565b7f4e487b7100000000000000000000000000000000000000000000000000000000600052601260045260246000fd5b600081519050919050565b600082825260208201905092915050565b6000613917826138f0565b61392181856138fb565b935061393181856020860161265c565b61393a81612686565b840191505092915050565b600060808201905061395a6000830187612787565b6139676020830186612787565b6139746040830185612870565b8181036060830152613986818461390c565b905095945050505050565b6000815190506139a0816125b1565b92915050565b6000602082840312156139bc576139bb61257b565b5b60006139ca84828501613991565b91505092915050565b7f4552433732313a206d696e7420746f20746865207a65726f2061646472657373600082015250565b6000613a0960208361264b565b9150613a14826139d3565b602082019050919050565b60006020820190508181036000830152613a38816139fc565b9050919050565b7f4552433732313a20746f6b656e20616c7265616479206d696e74656400000000600082015250565b6000613a75601c8361264b565b9150613a8082613a3f565b602082019050919050565b60006020820190508181036000830152613aa481613a68565b905091905056fea2646970667358221220c67940d67f793add0a9e16305dd7153fadae080676b5e567508022190ef722a964736f6c63430008120033","opcodes":"PUSH1 0xC0 PUSH1 0x40 MSTORE PUSH1 0x40 MLOAD DUP1 PUSH1 0x40 ADD PUSH1 0x40 MSTORE DUP1 PUSH1 0x5 DUP2 MSTORE PUSH1 0x20 ADD PUSH32 0x2E6A736F6E000000000000000000000000000000000000000000000000000000 DUP2 MSTORE POP PUSH1 0x9 SWAP1 DUP2 PUSH3 0x4A SWAP2 SWAP1 PUSH3 0x5E2 JUMP JUMPDEST POP PUSH1 0x0 PUSH1 0xC PUSH1 0x1 PUSH2 0x100 EXP DUP2 SLOAD DUP2 PUSH1 0xFF MUL NOT AND SWAP1 DUP4 ISZERO ISZERO MUL OR SWAP1 SSTORE POP PUSH1 0x0 PUSH1 0xC PUSH1 0x2 PUSH2 0x100 EXP DUP2 SLOAD DUP2 PUSH1 0xFF MUL NOT AND SWAP1 DUP4 ISZERO ISZERO MUL OR SWAP1 SSTORE POP CALLVALUE DUP1 ISZERO PUSH3 0x8E JUMPI PUSH1 0x0 DUP1 REVERT JUMPDEST POP PUSH1 0x40 MLOAD PUSH3 0x4471 CODESIZE SUB DUP1 PUSH3 0x4471 DUP4 CODECOPY DUP2 DUP2 ADD PUSH1 0x40 MSTORE DUP2 ADD SWAP1 PUSH3 0xB4 SWAP2 SWAP1 PUSH3 0x85E JUMP JUMPDEST PUSH1 0x40 MLOAD DUP1 PUSH1 0x40 ADD PUSH1 0x40 MSTORE DUP1 PUSH1 0x7 DUP2 MSTORE PUSH1 0x20 ADD PUSH32 0x57617272696F7200000000000000000000000000000000000000000000000000 DUP2 MSTORE POP PUSH1 0x40 MLOAD DUP1 PUSH1 0x40 ADD PUSH1 0x40 MSTORE DUP1 PUSH1 0x4 DUP2 MSTORE PUSH1 0x20 ADD PUSH32 0x5741494F00000000000000000000000000000000000000000000000000000000 DUP2 MSTORE POP DUP2 PUSH1 0x0 SWAP1 DUP2 PUSH3 0x131 SWAP2 SWAP1 PUSH3 0x5E2 JUMP JUMPDEST POP DUP1 PUSH1 0x1 SWAP1 DUP2 PUSH3 0x143 SWAP2 SWAP1 PUSH3 0x5E2 JUMP JUMPDEST POP POP POP PUSH3 0x166 PUSH3 0x15A PUSH3 0x1BA PUSH1 0x20 SHL PUSH1 0x20 SHR JUMP JUMPDEST PUSH3 0x1C2 PUSH1 0x20 SHL PUSH1 0x20 SHR JUMP JUMPDEST PUSH3 0x177 DUP2 PUSH3 0x288 PUSH1 0x20 SHL PUSH1 0x20 SHR JUMP JUMPDEST DUP3 PUSH1 0x80 DUP2 DUP2 MSTORE POP POP PUSH1 0x0 PUSH1 0xA PUSH1 0x0 PUSH2 0x100 EXP DUP2 SLOAD DUP2 PUSH8 0xFFFFFFFFFFFFFFFF MUL NOT AND SWAP1 DUP4 PUSH8 0xFFFFFFFFFFFFFFFF AND MUL OR SWAP1 SSTORE POP DUP2 PUSH1 0xA0 DUP2 DUP2 MSTORE POP POP POP POP POP PUSH3 0x95C JUMP JUMPDEST PUSH1 0x0 CALLER SWAP1 POP SWAP1 JUMP JUMPDEST PUSH1 0x0 PUSH1 0x7 PUSH1 0x0 SWAP1 SLOAD SWAP1 PUSH2 0x100 EXP SWAP1 DIV PUSH20 0xFFFFFFFFFFFFFFFFFFFFFFFFFFFFFFFFFFFFFFFF AND SWAP1 POP DUP2 PUSH1 0x7 PUSH1 0x0 PUSH2 0x100 EXP DUP2 SLOAD DUP2 PUSH20 0xFFFFFFFFFFFFFFFFFFFFFFFFFFFFFFFFFFFFFFFF MUL NOT AND SWAP1 DUP4 PUSH20 0xFFFFFFFFFFFFFFFFFFFFFFFFFFFFFFFFFFFFFFFF AND MUL OR SWAP1 SSTORE POP DUP2 PUSH20 0xFFFFFFFFFFFFFFFFFFFFFFFFFFFFFFFFFFFFFFFF AND DUP2 PUSH20 0xFFFFFFFFFFFFFFFFFFFFFFFFFFFFFFFFFFFFFFFF AND PUSH32 0x8BE0079C531659141344CD1FD0A4F28419497F9722A3DAAFE3B4186F6B6457E0 PUSH1 0x40 MLOAD PUSH1 0x40 MLOAD DUP1 SWAP2 SUB SWAP1 LOG3 POP POP JUMP JUMPDEST PUSH3 0x298 PUSH3 0x2AD PUSH1 0x20 SHL PUSH1 0x20 SHR JUMP JUMPDEST DUP1 PUSH1 0xD SWAP1 DUP2 PUSH3 0x2A9 SWAP2 SWAP1 PUSH3 0x5E2 JUMP JUMPDEST POP POP JUMP JUMPDEST PUSH3 0x2BD PUSH3 0x1BA PUSH1 0x20 SHL PUSH1 0x20 SHR JUMP JUMPDEST PUSH20 0xFFFFFFFFFFFFFFFFFFFFFFFFFFFFFFFFFFFFFFFF AND PUSH3 0x2E3 PUSH3 0x33E PUSH1 0x20 SHL PUSH1 0x20 SHR JUMP JUMPDEST PUSH20 0xFFFFFFFFFFFFFFFFFFFFFFFFFFFFFFFFFFFFFFFF AND EQ PUSH3 0x33C JUMPI PUSH1 0x40 MLOAD PUSH32 0x8C379A000000000000000000000000000000000000000000000000000000000 DUP2 MSTORE PUSH1 0x4 ADD PUSH3 0x333 SWAP1 PUSH3 0x93A JUMP JUMPDEST PUSH1 0x40 MLOAD DUP1 SWAP2 SUB SWAP1 REVERT JUMPDEST JUMP JUMPDEST PUSH1 0x0 PUSH1 0x7 PUSH1 0x0 SWAP1 SLOAD SWAP1 PUSH2 0x100 EXP SWAP1 DIV PUSH20 0xFFFFFFFFFFFFFFFFFFFFFFFFFFFFFFFFFFFFFFFF AND SWAP1 POP SWAP1 JUMP JUMPDEST PUSH1 0x0 DUP2 MLOAD SWAP1 POP SWAP2 SWAP1 POP JUMP JUMPDEST PUSH32 0x4E487B7100000000000000000000000000000000000000000000000000000000 PUSH1 0x0 MSTORE PUSH1 0x41 PUSH1 0x4 MSTORE PUSH1 0x24 PUSH1 0x0 REVERT JUMPDEST PUSH32 0x4E487B7100000000000000000000000000000000000000000000000000000000 PUSH1 0x0 MSTORE PUSH1 0x22 PUSH1 0x4 MSTORE PUSH1 0x24 PUSH1 0x0 REVERT JUMPDEST PUSH1 0x0 PUSH1 0x2 DUP3 DIV SWAP1 POP PUSH1 0x1 DUP3 AND DUP1 PUSH3 0x3EA JUMPI PUSH1 0x7F DUP3 AND SWAP2 POP JUMPDEST PUSH1 0x20 DUP3 LT DUP2 SUB PUSH3 0x400 JUMPI PUSH3 0x3FF PUSH3 0x3A2 JUMP JUMPDEST JUMPDEST POP SWAP2 SWAP1 POP JUMP JUMPDEST PUSH1 0x0 DUP2 SWAP1 POP DUP2 PUSH1 0x0 MSTORE PUSH1 0x20 PUSH1 0x0 KECCAK256 SWAP1 POP SWAP2 SWAP1 POP JUMP JUMPDEST PUSH1 0x0 PUSH1 0x20 PUSH1 0x1F DUP4 ADD DIV SWAP1 POP SWAP2 SWAP1 POP JUMP JUMPDEST PUSH1 0x0 DUP3 DUP3 SHL SWAP1 POP SWAP3 SWAP2 POP POP JUMP JUMPDEST PUSH1 0x0 PUSH1 0x8 DUP4 MUL PUSH3 0x46A PUSH32 0xFFFFFFFFFFFFFFFFFFFFFFFFFFFFFFFFFFFFFFFFFFFFFFFFFFFFFFFFFFFFFFFF DUP3 PUSH3 0x42B JUMP JUMPDEST PUSH3 0x476 DUP7 DUP4 PUSH3 0x42B JUMP JUMPDEST SWAP6 POP DUP1 NOT DUP5 AND SWAP4 POP DUP1 DUP7 AND DUP5 OR SWAP3 POP POP POP SWAP4 SWAP3 POP POP POP JUMP JUMPDEST PUSH1 0x0 DUP2 SWAP1 POP SWAP2 SWAP1 POP JUMP JUMPDEST PUSH1 0x0 DUP2 SWAP1 POP SWAP2 SWAP1 POP JUMP JUMPDEST PUSH1 0x0 PUSH3 0x4C3 PUSH3 0x4BD PUSH3 0x4B7 DUP5 PUSH3 0x48E JUMP JUMPDEST PUSH3 0x498 JUMP JUMPDEST PUSH3 0x48E JUMP JUMPDEST SWAP1 POP SWAP2 SWAP1 POP JUMP JUMPDEST PUSH1 0x0 DUP2 SWAP1 POP SWAP2 SWAP1 POP JUMP JUMPDEST PUSH3 0x4DF DUP4 PUSH3 0x4A2 JUMP JUMPDEST PUSH3 0x4F7 PUSH3 0x4EE DUP3 PUSH3 0x4CA JUMP JUMPDEST DUP5 DUP5 SLOAD PUSH3 0x438 JUMP JUMPDEST DUP3 SSTORE POP POP POP POP JUMP JUMPDEST PUSH1 0x0 SWAP1 JUMP JUMPDEST PUSH3 0x50E PUSH3 0x4FF JUMP JUMPDEST PUSH3 0x51B DUP2 DUP5 DUP5 PUSH3 0x4D4 JUMP JUMPDEST POP POP POP JUMP JUMPDEST JUMPDEST DUP2 DUP2 LT ISZERO PUSH3 0x543 JUMPI PUSH3 0x537 PUSH1 0x0 DUP3 PUSH3 0x504 JUMP JUMPDEST PUSH1 0x1 DUP2 ADD SWAP1 POP PUSH3 0x521 JUMP JUMPDEST POP POP JUMP JUMPDEST PUSH1 0x1F DUP3 GT ISZERO PUSH3 0x592 JUMPI PUSH3 0x55C DUP2 PUSH3 0x406 JUMP JUMPDEST PUSH3 0x567 DUP5 PUSH3 0x41B JUMP JUMPDEST DUP2 ADD PUSH1 0x20 DUP6 LT ISZERO PUSH3 0x577 JUMPI DUP2 SWAP1 POP JUMPDEST PUSH3 0x58F PUSH3 0x586 DUP6 PUSH3 0x41B JUMP JUMPDEST DUP4 ADD DUP3 PUSH3 0x520 JUMP JUMPDEST POP POP JUMPDEST POP POP POP JUMP JUMPDEST PUSH1 0x0 DUP3 DUP3 SHR SWAP1 POP SWAP3 SWAP2 POP POP JUMP JUMPDEST PUSH1 0x0 PUSH3 0x5B7 PUSH1 0x0 NOT DUP5 PUSH1 0x8 MUL PUSH3 0x597 JUMP JUMPDEST NOT DUP1 DUP4 AND SWAP2 POP POP SWAP3 SWAP2 POP POP JUMP JUMPDEST PUSH1 0x0 PUSH3 0x5D2 DUP4 DUP4 PUSH3 0x5A4 JUMP JUMPDEST SWAP2 POP DUP3 PUSH1 0x2 MUL DUP3 OR SWAP1 POP SWAP3 SWAP2 POP POP JUMP JUMPDEST PUSH3 0x5ED DUP3 PUSH3 0x368 JUMP JUMPDEST PUSH8 0xFFFFFFFFFFFFFFFF DUP2 GT ISZERO PUSH3 0x609 JUMPI PUSH3 0x608 PUSH3 0x373 JUMP JUMPDEST JUMPDEST PUSH3 0x615 DUP3 SLOAD PUSH3 0x3D1 JUMP JUMPDEST PUSH3 0x622 DUP3 DUP3 DUP6 PUSH3 0x547 JUMP JUMPDEST PUSH1 0x0 PUSH1 0x20 SWAP1 POP PUSH1 0x1F DUP4 GT PUSH1 0x1 DUP2 EQ PUSH3 0x65A JUMPI PUSH1 0x0 DUP5 ISZERO PUSH3 0x645 JUMPI DUP3 DUP8 ADD MLOAD SWAP1 POP JUMPDEST PUSH3 0x651 DUP6 DUP3 PUSH3 0x5C4 JUMP JUMPDEST DUP7 SSTORE POP PUSH3 0x6C1 JUMP JUMPDEST PUSH1 0x1F NOT DUP5 AND PUSH3 0x66A DUP7 PUSH3 0x406 JUMP JUMPDEST PUSH1 0x0 JUMPDEST DUP3 DUP2 LT ISZERO PUSH3 0x694 JUMPI DUP5 DUP10 ADD MLOAD DUP3 SSTORE PUSH1 0x1 DUP3 ADD SWAP2 POP PUSH1 0x20 DUP6 ADD SWAP5 POP PUSH1 0x20 DUP2 ADD SWAP1 POP PUSH3 0x66D JUMP JUMPDEST DUP7 DUP4 LT ISZERO PUSH3 0x6B4 JUMPI DUP5 DUP10 ADD MLOAD PUSH3 0x6B0 PUSH1 0x1F DUP10 AND DUP3 PUSH3 0x5A4 JUMP JUMPDEST DUP4 SSTORE POP JUMPDEST PUSH1 0x1 PUSH1 0x2 DUP9 MUL ADD DUP9 SSTORE POP POP POP JUMPDEST POP POP POP POP POP POP JUMP JUMPDEST PUSH1 0x0 PUSH1 0x40 MLOAD SWAP1 POP SWAP1 JUMP JUMPDEST PUSH1 0x0 DUP1 REVERT JUMPDEST PUSH1 0x0 DUP1 REVERT JUMPDEST PUSH3 0x6E8 DUP2 PUSH3 0x48E JUMP JUMPDEST DUP2 EQ PUSH3 0x6F4 JUMPI PUSH1 0x0 DUP1 REVERT JUMPDEST POP JUMP JUMPDEST PUSH1 0x0 DUP2 MLOAD SWAP1 POP PUSH3 0x708 DUP2 PUSH3 0x6DD JUMP JUMPDEST SWAP3 SWAP2 POP POP JUMP JUMPDEST PUSH1 0x0 DUP1 REVERT JUMPDEST PUSH1 0x0 DUP1 REVERT JUMPDEST PUSH1 0x0 PUSH1 0x1F NOT PUSH1 0x1F DUP4 ADD AND SWAP1 POP SWAP2 SWAP1 POP JUMP JUMPDEST PUSH3 0x734 DUP3 PUSH3 0x718 JUMP JUMPDEST DUP2 ADD DUP2 DUP2 LT PUSH8 0xFFFFFFFFFFFFFFFF DUP3 GT OR ISZERO PUSH3 0x756 JUMPI PUSH3 0x755 PUSH3 0x373 JUMP JUMPDEST JUMPDEST DUP1 PUSH1 0x40 MSTORE POP POP POP JUMP JUMPDEST PUSH1 0x0 PUSH3 0x76B PUSH3 0x6C9 JUMP JUMPDEST SWAP1 POP PUSH3 0x779 DUP3 DUP3 PUSH3 0x729 JUMP JUMPDEST SWAP2 SWAP1 POP JUMP JUMPDEST PUSH1 0x0 PUSH8 0xFFFFFFFFFFFFFFFF DUP3 GT ISZERO PUSH3 0x79C JUMPI PUSH3 0x79B PUSH3 0x373 JUMP JUMPDEST JUMPDEST PUSH3 0x7A7 DUP3 PUSH3 0x718 JUMP JUMPDEST SWAP1 POP PUSH1 0x20 DUP2 ADD SWAP1 POP SWAP2 SWAP1 POP JUMP JUMPDEST PUSH1 0x0 JUMPDEST DUP4 DUP2 LT ISZERO PUSH3 0x7D4 JUMPI DUP1 DUP3 ADD MLOAD DUP2 DUP5 ADD MSTORE PUSH1 0x20 DUP2 ADD SWAP1 POP PUSH3 0x7B7 JUMP JUMPDEST PUSH1 0x0 DUP5 DUP5 ADD MSTORE POP POP POP POP JUMP JUMPDEST PUSH1 0x0 PUSH3 0x7F7 PUSH3 0x7F1 DUP5 PUSH3 0x77E JUMP JUMPDEST PUSH3 0x75F JUMP JUMPDEST SWAP1 POP DUP3 DUP2 MSTORE PUSH1 0x20 DUP2 ADD DUP5 DUP5 DUP5 ADD GT ISZERO PUSH3 0x816 JUMPI PUSH3 0x815 PUSH3 0x713 JUMP JUMPDEST JUMPDEST PUSH3 0x823 DUP5 DUP3 DUP6 PUSH3 0x7B4 JUMP JUMPDEST POP SWAP4 SWAP3 POP POP POP JUMP JUMPDEST PUSH1 0x0 DUP3 PUSH1 0x1F DUP4 ADD SLT PUSH3 0x843 JUMPI PUSH3 0x842 PUSH3 0x70E JUMP JUMPDEST JUMPDEST DUP2 MLOAD PUSH3 0x855 DUP5 DUP3 PUSH1 0x20 DUP7 ADD PUSH3 0x7E0 JUMP JUMPDEST SWAP2 POP POP SWAP3 SWAP2 POP POP JUMP JUMPDEST PUSH1 0x0 DUP1 PUSH1 0x0 PUSH1 0x60 DUP5 DUP7 SUB SLT ISZERO PUSH3 0x87A JUMPI PUSH3 0x879 PUSH3 0x6D3 JUMP JUMPDEST JUMPDEST PUSH1 0x0 PUSH3 0x88A DUP7 DUP3 DUP8 ADD PUSH3 0x6F7 JUMP JUMPDEST SWAP4 POP POP PUSH1 0x20 PUSH3 0x89D DUP7 DUP3 DUP8 ADD PUSH3 0x6F7 JUMP JUMPDEST SWAP3 POP POP PUSH1 0x40 DUP5 ADD MLOAD PUSH8 0xFFFFFFFFFFFFFFFF DUP2 GT ISZERO PUSH3 0x8C1 JUMPI PUSH3 0x8C0 PUSH3 0x6D8 JUMP JUMPDEST JUMPDEST PUSH3 0x8CF DUP7 DUP3 DUP8 ADD PUSH3 0x82B JUMP JUMPDEST SWAP2 POP POP SWAP3 POP SWAP3 POP SWAP3 JUMP JUMPDEST PUSH1 0x0 DUP3 DUP3 MSTORE PUSH1 0x20 DUP3 ADD SWAP1 POP SWAP3 SWAP2 POP POP JUMP JUMPDEST PUSH32 0x4F776E61626C653A2063616C6C6572206973206E6F7420746865206F776E6572 PUSH1 0x0 DUP3 ADD MSTORE POP JUMP JUMPDEST PUSH1 0x0 PUSH3 0x922 PUSH1 0x20 DUP4 PUSH3 0x8D9 JUMP JUMPDEST SWAP2 POP PUSH3 0x92F DUP3 PUSH3 0x8EA JUMP JUMPDEST PUSH1 0x20 DUP3 ADD SWAP1 POP SWAP2 SWAP1 POP JUMP JUMPDEST PUSH1 0x0 PUSH1 0x20 DUP3 ADD SWAP1 POP DUP2 DUP2 SUB PUSH1 0x0 DUP4 ADD MSTORE PUSH3 0x955 DUP2 PUSH3 0x913 JUMP JUMPDEST SWAP1 POP SWAP2 SWAP1 POP JUMP JUMPDEST PUSH1 0x80 MLOAD PUSH1 0xA0 MLOAD PUSH2 0x3AE1 PUSH3 0x990 PUSH1 0x0 CODECOPY PUSH1 0x0 DUP2 DUP2 PUSH2 0xDA8 ADD MSTORE PUSH2 0x1029 ADD MSTORE PUSH1 0x0 DUP2 DUP2 PUSH2 0xCC6 ADD MSTORE PUSH2 0x10A2 ADD MSTORE PUSH2 0x3AE1 PUSH1 0x0 RETURN INVALID PUSH1 0x80 PUSH1 0x40 MSTORE PUSH1 0x4 CALLDATASIZE LT PUSH2 0x1B7 JUMPI PUSH1 0x0 CALLDATALOAD PUSH1 0xE0 SHR DUP1 PUSH4 0x715018A6 GT PUSH2 0xEC JUMPI DUP1 PUSH4 0xC2229FEA GT PUSH2 0x8A JUMPI DUP1 PUSH4 0xE985E9C5 GT PUSH2 0x64 JUMPI DUP1 PUSH4 0xE985E9C5 EQ PUSH2 0x5C9 JUMPI DUP1 PUSH4 0xEE89DAB4 EQ PUSH2 0x606 JUMPI DUP1 PUSH4 0xF2C4CE1E EQ PUSH2 0x631 JUMPI DUP1 PUSH4 0xF2FDE38B EQ PUSH2 0x65A JUMPI PUSH2 0x1B7 JUMP JUMPDEST DUP1 PUSH4 0xC2229FEA EQ PUSH2 0x557 JUMPI DUP1 PUSH4 0xC6682862 EQ PUSH2 0x561 JUMPI DUP1 PUSH4 0xC87B56DD EQ PUSH2 0x58C JUMPI PUSH2 0x1B7 JUMP JUMPDEST DUP1 PUSH4 0x8DA5CB5B GT PUSH2 0xC6 JUMPI DUP1 PUSH4 0x8DA5CB5B EQ PUSH2 0x4AF JUMPI DUP1 PUSH4 0x95D89B41 EQ PUSH2 0x4DA JUMPI DUP1 PUSH4 0xA22CB465 EQ PUSH2 0x505 JUMPI DUP1 PUSH4 0xB88D4FDE EQ PUSH2 0x52E JUMPI PUSH2 0x1B7 JUMP JUMPDEST DUP1 PUSH4 0x715018A6 EQ PUSH2 0x444 JUMPI DUP1 PUSH4 0x7A5CAAB3 EQ PUSH2 0x45B JUMPI DUP1 PUSH4 0x8D22A5CE EQ PUSH2 0x486 JUMPI PUSH2 0x1B7 JUMP JUMPDEST DUP1 PUSH4 0x42842E0E GT PUSH2 0x159 JUMPI DUP1 PUSH4 0x6352211E GT PUSH2 0x133 JUMPI DUP1 PUSH4 0x6352211E EQ PUSH2 0x374 JUMPI DUP1 PUSH4 0x6C0360EB EQ PUSH2 0x3B1 JUMPI DUP1 PUSH4 0x6E02007D EQ PUSH2 0x3DC JUMPI DUP1 PUSH4 0x70A08231 EQ PUSH2 0x407 JUMPI PUSH2 0x1B7 JUMP JUMPDEST DUP1 PUSH4 0x42842E0E EQ PUSH2 0x2F5 JUMPI DUP1 PUSH4 0x51830227 EQ PUSH2 0x31E JUMPI DUP1 PUSH4 0x5C975ABB EQ PUSH2 0x349 JUMPI PUSH2 0x1B7 JUMP JUMPDEST DUP1 PUSH4 0x81C8C44 GT PUSH2 0x195 JUMPI DUP1 PUSH4 0x81C8C44 EQ PUSH2 0x261 JUMPI DUP1 PUSH4 0x95EA7B3 EQ PUSH2 0x28C JUMPI DUP1 PUSH4 0x23B872DD EQ PUSH2 0x2B5 JUMPI DUP1 PUSH4 0x3CCFD60B EQ PUSH2 0x2DE JUMPI PUSH2 0x1B7 JUMP JUMPDEST DUP1 PUSH4 0x1FFC9A7 EQ PUSH2 0x1BC JUMPI DUP1 PUSH4 0x6FDDE03 EQ PUSH2 0x1F9 JUMPI DUP1 PUSH4 0x81812FC EQ PUSH2 0x224 JUMPI JUMPDEST PUSH1 0x0 DUP1 REVERT JUMPDEST CALLVALUE DUP1 ISZERO PUSH2 0x1C8 JUMPI PUSH1 0x0 DUP1 REVERT JUMPDEST POP PUSH2 0x1E3 PUSH1 0x4 DUP1 CALLDATASIZE SUB DUP2 ADD SWAP1 PUSH2 0x1DE SWAP2 SWAP1 PUSH2 0x25DD JUMP JUMPDEST PUSH2 0x683 JUMP JUMPDEST PUSH1 0x40 MLOAD PUSH2 0x1F0 SWAP2 SWAP1 PUSH2 0x2625 JUMP JUMPDEST PUSH1 0x40 MLOAD DUP1 SWAP2 SUB SWAP1 RETURN JUMPDEST CALLVALUE DUP1 ISZERO PUSH2 0x205 JUMPI PUSH1 0x0 DUP1 REVERT JUMPDEST POP PUSH2 0x20E PUSH2 0x6E4 JUMP JUMPDEST PUSH1 0x40 MLOAD PUSH2 0x21B SWAP2 SWAP1 PUSH2 0x26D0 JUMP JUMPDEST PUSH1 0x40 MLOAD DUP1 SWAP2 SUB SWAP1 RETURN JUMPDEST CALLVALUE DUP1 ISZERO PUSH2 0x230 JUMPI PUSH1 0x0 DUP1 REVERT JUMPDEST POP PUSH2 0x24B PUSH1 0x4 DUP1 CALLDATASIZE SUB DUP2 ADD SWAP1 PUSH2 0x246 SWAP2 SWAP1 PUSH2 0x2728 JUMP JUMPDEST PUSH2 0x776 JUMP JUMPDEST PUSH1 0x40 MLOAD PUSH2 0x258 SWAP2 SWAP1 PUSH2 0x2796 JUMP JUMPDEST PUSH1 0x40 MLOAD DUP1 SWAP2 SUB SWAP1 RETURN JUMPDEST CALLVALUE DUP1 ISZERO PUSH2 0x26D JUMPI PUSH1 0x0 DUP1 REVERT JUMPDEST POP PUSH2 0x276 PUSH2 0x7BC JUMP JUMPDEST PUSH1 0x40 MLOAD PUSH2 0x283 SWAP2 SWAP1 PUSH2 0x26D0 JUMP JUMPDEST PUSH1 0x40 MLOAD DUP1 SWAP2 SUB SWAP1 RETURN JUMPDEST CALLVALUE DUP1 ISZERO PUSH2 0x298 JUMPI PUSH1 0x0 DUP1 REVERT JUMPDEST POP PUSH2 0x2B3 PUSH1 0x4 DUP1 CALLDATASIZE SUB DUP2 ADD SWAP1 PUSH2 0x2AE SWAP2 SWAP1 PUSH2 0x27DD JUMP JUMPDEST PUSH2 0x84A JUMP JUMPDEST STOP JUMPDEST CALLVALUE DUP1 ISZERO PUSH2 0x2C1 JUMPI PUSH1 0x0 DUP1 REVERT JUMPDEST POP PUSH2 0x2DC PUSH1 0x4 DUP1 CALLDATASIZE SUB DUP2 ADD SWAP1 PUSH2 0x2D7 SWAP2 SWAP1 PUSH2 0x281D JUMP JUMPDEST PUSH2 0x961 JUMP JUMPDEST STOP JUMPDEST CALLVALUE DUP1 ISZERO PUSH2 0x2EA JUMPI PUSH1 0x0 DUP1 REVERT JUMPDEST POP PUSH2 0x2F3 PUSH2 0x9C1 JUMP JUMPDEST STOP JUMPDEST CALLVALUE DUP1 ISZERO PUSH2 0x301 JUMPI PUSH1 0x0 DUP1 REVERT JUMPDEST POP PUSH2 0x31C PUSH1 0x4 DUP1 CALLDATASIZE SUB DUP2 ADD SWAP1 PUSH2 0x317 SWAP2 SWAP1 PUSH2 0x281D JUMP JUMPDEST PUSH2 0xA75 JUMP JUMPDEST STOP JUMPDEST CALLVALUE DUP1 ISZERO PUSH2 0x32A JUMPI PUSH1 0x0 DUP1 REVERT JUMPDEST POP PUSH2 0x333 PUSH2 0xA95 JUMP JUMPDEST PUSH1 0x40 MLOAD PUSH2 0x340 SWAP2 SWAP1 PUSH2 0x2625 JUMP JUMPDEST PUSH1 0x40 MLOAD DUP1 SWAP2 SUB SWAP1 RETURN JUMPDEST CALLVALUE DUP1 ISZERO PUSH2 0x355 JUMPI PUSH1 0x0 DUP1 REVERT JUMPDEST POP PUSH2 0x35E PUSH2 0xAA8 JUMP JUMPDEST PUSH1 0x40 MLOAD PUSH2 0x36B SWAP2 SWAP1 PUSH2 0x2625 JUMP JUMPDEST PUSH1 0x40 MLOAD DUP1 SWAP2 SUB SWAP1 RETURN JUMPDEST CALLVALUE DUP1 ISZERO PUSH2 0x380 JUMPI PUSH1 0x0 DUP1 REVERT JUMPDEST POP PUSH2 0x39B PUSH1 0x4 DUP1 CALLDATASIZE SUB DUP2 ADD SWAP1 PUSH2 0x396 SWAP2 SWAP1 PUSH2 0x2728 JUMP JUMPDEST PUSH2 0xABB JUMP JUMPDEST PUSH1 0x40 MLOAD PUSH2 0x3A8 SWAP2 SWAP1 PUSH2 0x2796 JUMP JUMPDEST PUSH1 0x40 MLOAD DUP1 SWAP2 SUB SWAP1 RETURN JUMPDEST CALLVALUE DUP1 ISZERO PUSH2 0x3BD JUMPI PUSH1 0x0 DUP1 REVERT JUMPDEST POP PUSH2 0x3C6 PUSH2 0xB41 JUMP JUMPDEST PUSH1 0x40 MLOAD PUSH2 0x3D3 SWAP2 SWAP1 PUSH2 0x26D0 JUMP JUMPDEST PUSH1 0x40 MLOAD DUP1 SWAP2 SUB SWAP1 RETURN JUMPDEST CALLVALUE DUP1 ISZERO PUSH2 0x3E8 JUMPI PUSH1 0x0 DUP1 REVERT JUMPDEST POP PUSH2 0x3F1 PUSH2 0xBCF JUMP JUMPDEST PUSH1 0x40 MLOAD PUSH2 0x3FE SWAP2 SWAP1 PUSH2 0x287F JUMP JUMPDEST PUSH1 0x40 MLOAD DUP1 SWAP2 SUB SWAP1 RETURN JUMPDEST CALLVALUE DUP1 ISZERO PUSH2 0x413 JUMPI PUSH1 0x0 DUP1 REVERT JUMPDEST POP PUSH2 0x42E PUSH1 0x4 DUP1 CALLDATASIZE SUB DUP2 ADD SWAP1 PUSH2 0x429 SWAP2 SWAP1 PUSH2 0x289A JUMP JUMPDEST PUSH2 0xBF7 JUMP JUMPDEST PUSH1 0x40 MLOAD PUSH2 0x43B SWAP2 SWAP1 PUSH2 0x287F JUMP JUMPDEST PUSH1 0x40 MLOAD DUP1 SWAP2 SUB SWAP1 RETURN JUMPDEST CALLVALUE DUP1 ISZERO PUSH2 0x450 JUMPI PUSH1 0x0 DUP1 REVERT JUMPDEST POP PUSH2 0x459 PUSH2 0xCAE JUMP JUMPDEST STOP JUMPDEST CALLVALUE DUP1 ISZERO PUSH2 0x467 JUMPI PUSH1 0x0 DUP1 REVERT JUMPDEST POP PUSH2 0x470 PUSH2 0xCC2 JUMP JUMPDEST PUSH1 0x40 MLOAD PUSH2 0x47D SWAP2 SWAP1 PUSH2 0x287F JUMP JUMPDEST PUSH1 0x40 MLOAD DUP1 SWAP2 SUB SWAP1 RETURN JUMPDEST CALLVALUE DUP1 ISZERO PUSH2 0x492 JUMPI PUSH1 0x0 DUP1 REVERT JUMPDEST POP PUSH2 0x4AD PUSH1 0x4 DUP1 CALLDATASIZE SUB DUP2 ADD SWAP1 PUSH2 0x4A8 SWAP2 SWAP1 PUSH2 0x2982 JUMP JUMPDEST PUSH2 0xCEA JUMP JUMPDEST STOP JUMPDEST CALLVALUE DUP1 ISZERO PUSH2 0x4BB JUMPI PUSH1 0x0 DUP1 REVERT JUMPDEST POP PUSH2 0x4C4 PUSH2 0xEF3 JUMP JUMPDEST PUSH1 0x40 MLOAD PUSH2 0x4D1 SWAP2 SWAP1 PUSH2 0x2796 JUMP JUMPDEST PUSH1 0x40 MLOAD DUP1 SWAP2 SUB SWAP1 RETURN JUMPDEST CALLVALUE DUP1 ISZERO PUSH2 0x4E6 JUMPI PUSH1 0x0 DUP1 REVERT JUMPDEST POP PUSH2 0x4EF PUSH2 0xF1D JUMP JUMPDEST PUSH1 0x40 MLOAD PUSH2 0x4FC SWAP2 SWAP1 PUSH2 0x26D0 JUMP JUMPDEST PUSH1 0x40 MLOAD DUP1 SWAP2 SUB SWAP1 RETURN JUMPDEST CALLVALUE DUP1 ISZERO PUSH2 0x511 JUMPI PUSH1 0x0 DUP1 REVERT JUMPDEST POP PUSH2 0x52C PUSH1 0x4 DUP1 CALLDATASIZE SUB DUP2 ADD SWAP1 PUSH2 0x527 SWAP2 SWAP1 PUSH2 0x2A2F JUMP JUMPDEST PUSH2 0xFAF JUMP JUMPDEST STOP JUMPDEST CALLVALUE DUP1 ISZERO PUSH2 0x53A JUMPI PUSH1 0x0 DUP1 REVERT JUMPDEST POP PUSH2 0x555 PUSH1 0x4 DUP1 CALLDATASIZE SUB DUP2 ADD SWAP1 PUSH2 0x550 SWAP2 SWAP1 PUSH2 0x2B9F JUMP JUMPDEST PUSH2 0xFC5 JUMP JUMPDEST STOP JUMPDEST PUSH2 0x55F PUSH2 0x1027 JUMP JUMPDEST STOP JUMPDEST CALLVALUE DUP1 ISZERO PUSH2 0x56D JUMPI PUSH1 0x0 DUP1 REVERT JUMPDEST POP PUSH2 0x576 PUSH2 0x11B6 JUMP JUMPDEST PUSH1 0x40 MLOAD PUSH2 0x583 SWAP2 SWAP1 PUSH2 0x26D0 JUMP JUMPDEST PUSH1 0x40 MLOAD DUP1 SWAP2 SUB SWAP1 RETURN JUMPDEST CALLVALUE DUP1 ISZERO PUSH2 0x598 JUMPI PUSH1 0x0 DUP1 REVERT JUMPDEST POP PUSH2 0x5B3 PUSH1 0x4 DUP1 CALLDATASIZE SUB DUP2 ADD SWAP1 PUSH2 0x5AE SWAP2 SWAP1 PUSH2 0x2728 JUMP JUMPDEST PUSH2 0x1244 JUMP JUMPDEST PUSH1 0x40 MLOAD PUSH2 0x5C0 SWAP2 SWAP1 PUSH2 0x26D0 JUMP JUMPDEST PUSH1 0x40 MLOAD DUP1 SWAP2 SUB SWAP1 RETURN JUMPDEST CALLVALUE DUP1 ISZERO PUSH2 0x5D5 JUMPI PUSH1 0x0 DUP1 REVERT JUMPDEST POP PUSH2 0x5F0 PUSH1 0x4 DUP1 CALLDATASIZE SUB DUP2 ADD SWAP1 PUSH2 0x5EB SWAP2 SWAP1 PUSH2 0x2C22 JUMP JUMPDEST PUSH2 0x139B JUMP JUMPDEST PUSH1 0x40 MLOAD PUSH2 0x5FD SWAP2 SWAP1 PUSH2 0x2625 JUMP JUMPDEST PUSH1 0x40 MLOAD DUP1 SWAP2 SUB SWAP1 RETURN JUMPDEST CALLVALUE DUP1 ISZERO PUSH2 0x612 JUMPI PUSH1 0x0 DUP1 REVERT JUMPDEST POP PUSH2 0x61B PUSH2 0x142F JUMP JUMPDEST PUSH1 0x40 MLOAD PUSH2 0x628 SWAP2 SWAP1 PUSH2 0x2625 JUMP JUMPDEST PUSH1 0x40 MLOAD DUP1 SWAP2 SUB SWAP1 RETURN JUMPDEST CALLVALUE DUP1 ISZERO PUSH2 0x63D JUMPI PUSH1 0x0 DUP1 REVERT JUMPDEST POP PUSH2 0x658 PUSH1 0x4 DUP1 CALLDATASIZE SUB DUP2 ADD SWAP1 PUSH2 0x653 SWAP2 SWAP1 PUSH2 0x2D03 JUMP JUMPDEST PUSH2 0x1446 JUMP JUMPDEST STOP JUMPDEST CALLVALUE DUP1 ISZERO PUSH2 0x666 JUMPI PUSH1 0x0 DUP1 REVERT JUMPDEST POP PUSH2 0x681 PUSH1 0x4 DUP1 CALLDATASIZE SUB DUP2 ADD SWAP1 PUSH2 0x67C SWAP2 SWAP1 PUSH2 0x289A JUMP JUMPDEST PUSH2 0x1461 JUMP JUMPDEST STOP JUMPDEST PUSH1 0x0 PUSH4 0x49064906 PUSH1 0xE0 SHL PUSH28 0xFFFFFFFFFFFFFFFFFFFFFFFFFFFFFFFFFFFFFFFFFFFFFFFFFFFFFFFF NOT AND DUP3 PUSH28 0xFFFFFFFFFFFFFFFFFFFFFFFFFFFFFFFFFFFFFFFFFFFFFFFFFFFFFFFF NOT AND EQ DUP1 PUSH2 0x6DD JUMPI POP PUSH2 0x6DC DUP3 PUSH2 0x14E4 JUMP JUMPDEST JUMPDEST SWAP1 POP SWAP2 SWAP1 POP JUMP JUMPDEST PUSH1 0x60 PUSH1 0x0 DUP1 SLOAD PUSH2 0x6F3 SWAP1 PUSH2 0x2D7B JUMP JUMPDEST DUP1 PUSH1 0x1F ADD PUSH1 0x20 DUP1 SWAP2 DIV MUL PUSH1 0x20 ADD PUSH1 0x40 MLOAD SWAP1 DUP2 ADD PUSH1 0x40 MSTORE DUP1 SWAP3 SWAP2 SWAP1 DUP2 DUP2 MSTORE PUSH1 0x20 ADD DUP3 DUP1 SLOAD PUSH2 0x71F SWAP1 PUSH2 0x2D7B JUMP JUMPDEST DUP1 ISZERO PUSH2 0x76C JUMPI DUP1 PUSH1 0x1F LT PUSH2 0x741 JUMPI PUSH2 0x100 DUP1 DUP4 SLOAD DIV MUL DUP4 MSTORE SWAP2 PUSH1 0x20 ADD SWAP2 PUSH2 0x76C JUMP JUMPDEST DUP3 ADD SWAP2 SWAP1 PUSH1 0x0 MSTORE PUSH1 0x20 PUSH1 0x0 KECCAK256 SWAP1 JUMPDEST DUP2 SLOAD DUP2 MSTORE SWAP1 PUSH1 0x1 ADD SWAP1 PUSH1 0x20 ADD DUP1 DUP4 GT PUSH2 0x74F JUMPI DUP3 SWAP1 SUB PUSH1 0x1F AND DUP3 ADD SWAP2 JUMPDEST POP POP POP POP POP SWAP1 POP SWAP1 JUMP JUMPDEST PUSH1 0x0 PUSH2 0x781 DUP3 PUSH2 0x15C6 JUMP JUMPDEST PUSH1 0x4 PUSH1 0x0 DUP4 DUP2 MSTORE PUSH1 0x20 ADD SWAP1 DUP2 MSTORE PUSH1 0x20 ADD PUSH1 0x0 KECCAK256 PUSH1 0x0 SWAP1 SLOAD SWAP1 PUSH2 0x100 EXP SWAP1 DIV PUSH20 0xFFFFFFFFFFFFFFFFFFFFFFFFFFFFFFFFFFFFFFFF AND SWAP1 POP SWAP2 SWAP1 POP JUMP JUMPDEST PUSH1 0xD DUP1 SLOAD PUSH2 0x7C9 SWAP1 PUSH2 0x2D7B JUMP JUMPDEST DUP1 PUSH1 0x1F ADD PUSH1 0x20 DUP1 SWAP2 DIV MUL PUSH1 0x20 ADD PUSH1 0x40 MLOAD SWAP1 DUP2 ADD PUSH1 0x40 MSTORE DUP1 SWAP3 SWAP2 SWAP1 DUP2 DUP2 MSTORE PUSH1 0x20 ADD DUP3 DUP1 SLOAD PUSH2 0x7F5 SWAP1 PUSH2 0x2D7B JUMP JUMPDEST DUP1 ISZERO PUSH2 0x842 JUMPI DUP1 PUSH1 0x1F LT PUSH2 0x817 JUMPI PUSH2 0x100 DUP1 DUP4 SLOAD DIV MUL DUP4 MSTORE SWAP2 PUSH1 0x20 ADD SWAP2 PUSH2 0x842 JUMP JUMPDEST DUP3 ADD SWAP2 SWAP1 PUSH1 0x0 MSTORE PUSH1 0x20 PUSH1 0x0 KECCAK256 SWAP1 JUMPDEST DUP2 SLOAD DUP2 MSTORE SWAP1 PUSH1 0x1 ADD SWAP1 PUSH1 0x20 ADD DUP1 DUP4 GT PUSH2 0x825 JUMPI DUP3 SWAP1 SUB PUSH1 0x1F AND DUP3 ADD SWAP2 JUMPDEST POP POP POP POP POP DUP2 JUMP JUMPDEST PUSH1 0x0 PUSH2 0x855 DUP3 PUSH2 0xABB JUMP JUMPDEST SWAP1 POP DUP1 PUSH20 0xFFFFFFFFFFFFFFFFFFFFFFFFFFFFFFFFFFFFFFFF AND DUP4 PUSH20 0xFFFFFFFFFFFFFFFFFFFFFFFFFFFFFFFFFFFFFFFF AND SUB PUSH2 0x8C5 JUMPI PUSH1 0x40 MLOAD PUSH32 0x8C379A000000000000000000000000000000000000000000000000000000000 DUP2 MSTORE PUSH1 0x4 ADD PUSH2 0x8BC SWAP1 PUSH2 0x2E1E JUMP JUMPDEST PUSH1 0x40 MLOAD DUP1 SWAP2 SUB SWAP1 REVERT JUMPDEST DUP1 PUSH20 0xFFFFFFFFFFFFFFFFFFFFFFFFFFFFFFFFFFFFFFFF AND PUSH2 0x8E4 PUSH2 0x1611 JUMP JUMPDEST PUSH20 0xFFFFFFFFFFFFFFFFFFFFFFFFFFFFFFFFFFFFFFFF AND EQ DUP1 PUSH2 0x913 JUMPI POP PUSH2 0x912 DUP2 PUSH2 0x90D PUSH2 0x1611 JUMP JUMPDEST PUSH2 0x139B JUMP JUMPDEST JUMPDEST PUSH2 0x952 JUMPI PUSH1 0x40 MLOAD PUSH32 0x8C379A000000000000000000000000000000000000000000000000000000000 DUP2 MSTORE PUSH1 0x4 ADD PUSH2 0x949 SWAP1 PUSH2 0x2EB0 JUMP JUMPDEST PUSH1 0x40 MLOAD DUP1 SWAP2 SUB SWAP1 REVERT JUMPDEST PUSH2 0x95C DUP4 DUP4 PUSH2 0x1619 JUMP JUMPDEST POP POP POP JUMP JUMPDEST PUSH2 0x972 PUSH2 0x96C PUSH2 0x1611 JUMP JUMPDEST DUP3 PUSH2 0x16D2 JUMP JUMPDEST PUSH2 0x9B1 JUMPI PUSH1 0x40 MLOAD PUSH32 0x8C379A000000000000000000000000000000000000000000000000000000000 DUP2 MSTORE PUSH1 0x4 ADD PUSH2 0x9A8 SWAP1 PUSH2 0x2F42 JUMP JUMPDEST PUSH1 0x40 MLOAD DUP1 SWAP2 SUB SWAP1 REVERT JUMPDEST PUSH2 0x9BC DUP4 DUP4 DUP4 PUSH2 0x1767 JUMP JUMPDEST POP POP POP JUMP JUMPDEST PUSH2 0x9C9 PUSH2 0x1A60 JUMP JUMPDEST PUSH1 0x0 SELFBALANCE SWAP1 POP PUSH1 0x0 CALLER PUSH20 0xFFFFFFFFFFFFFFFFFFFFFFFFFFFFFFFFFFFFFFFF AND DUP3 PUSH1 0x40 MLOAD PUSH2 0x9F4 SWAP1 PUSH2 0x2F93 JUMP JUMPDEST PUSH1 0x0 PUSH1 0x40 MLOAD DUP1 DUP4 SUB DUP2 DUP6 DUP8 GAS CALL SWAP3 POP POP POP RETURNDATASIZE DUP1 PUSH1 0x0 DUP2 EQ PUSH2 0xA31 JUMPI PUSH1 0x40 MLOAD SWAP2 POP PUSH1 0x1F NOT PUSH1 0x3F RETURNDATASIZE ADD AND DUP3 ADD PUSH1 0x40 MSTORE RETURNDATASIZE DUP3 MSTORE RETURNDATASIZE PUSH1 0x0 PUSH1 0x20 DUP5 ADD RETURNDATACOPY PUSH2 0xA36 JUMP JUMPDEST PUSH1 0x60 SWAP2 POP JUMPDEST POP POP SWAP1 POP DUP1 PUSH2 0xA71 JUMPI PUSH1 0x40 MLOAD PUSH32 0xAA8B9CF700000000000000000000000000000000000000000000000000000000 DUP2 MSTORE PUSH1 0x4 ADD PUSH1 0x40 MLOAD DUP1 SWAP2 SUB SWAP1 REVERT JUMPDEST POP POP JUMP JUMPDEST PUSH2 0xA90 DUP4 DUP4 DUP4 PUSH1 0x40 MLOAD DUP1 PUSH1 0x20 ADD PUSH1 0x40 MSTORE DUP1 PUSH1 0x0 DUP2 MSTORE POP PUSH2 0xFC5 JUMP JUMPDEST POP POP POP JUMP JUMPDEST PUSH1 0xC PUSH1 0x2 SWAP1 SLOAD SWAP1 PUSH2 0x100 EXP SWAP1 DIV PUSH1 0xFF AND DUP2 JUMP JUMPDEST PUSH1 0xC PUSH1 0x1 SWAP1 SLOAD SWAP1 PUSH2 0x100 EXP SWAP1 DIV PUSH1 0xFF AND DUP2 JUMP JUMPDEST PUSH1 0x0 DUP1 PUSH2 0xAC7 DUP4 PUSH2 0x1ADE JUMP JUMPDEST SWAP1 POP PUSH1 0x0 PUSH20 0xFFFFFFFFFFFFFFFFFFFFFFFFFFFFFFFFFFFFFFFF AND DUP2 PUSH20 0xFFFFFFFFFFFFFFFFFFFFFFFFFFFFFFFFFFFFFFFF AND SUB PUSH2 0xB38 JUMPI PUSH1 0x40 MLOAD PUSH32 0x8C379A000000000000000000000000000000000000000000000000000000000 DUP2 MSTORE PUSH1 0x4 ADD PUSH2 0xB2F SWAP1 PUSH2 0x2FF4 JUMP JUMPDEST PUSH1 0x40 MLOAD DUP1 SWAP2 SUB SWAP1 REVERT JUMPDEST DUP1 SWAP2 POP POP SWAP2 SWAP1 POP JUMP JUMPDEST PUSH1 0x8 DUP1 SLOAD PUSH2 0xB4E SWAP1 PUSH2 0x2D7B JUMP JUMPDEST DUP1 PUSH1 0x1F ADD PUSH1 0x20 DUP1 SWAP2 DIV MUL PUSH1 0x20 ADD PUSH1 0x40 MLOAD SWAP1 DUP2 ADD PUSH1 0x40 MSTORE DUP1 SWAP3 SWAP2 SWAP1 DUP2 DUP2 MSTORE PUSH1 0x20 ADD DUP3 DUP1 SLOAD PUSH2 0xB7A SWAP1 PUSH2 0x2D7B JUMP JUMPDEST DUP1 ISZERO PUSH2 0xBC7 JUMPI DUP1 PUSH1 0x1F LT PUSH2 0xB9C JUMPI PUSH2 0x100 DUP1 DUP4 SLOAD DIV MUL DUP4 MSTORE SWAP2 PUSH1 0x20 ADD SWAP2 PUSH2 0xBC7 JUMP JUMPDEST DUP3 ADD SWAP2 SWAP1 PUSH1 0x0 MSTORE PUSH1 0x20 PUSH1 0x0 KECCAK256 SWAP1 JUMPDEST DUP2 SLOAD DUP2 MSTORE SWAP1 PUSH1 0x1 ADD SWAP1 PUSH1 0x20 ADD DUP1 DUP4 GT PUSH2 0xBAA JUMPI DUP3 SWAP1 SUB PUSH1 0x1F AND DUP3 ADD SWAP2 JUMPDEST POP POP POP POP POP DUP2 JUMP JUMPDEST PUSH1 0x0 PUSH1 0xA PUSH1 0x0 SWAP1 SLOAD SWAP1 PUSH2 0x100 EXP SWAP1 DIV PUSH8 0xFFFFFFFFFFFFFFFF AND PUSH8 0xFFFFFFFFFFFFFFFF AND SWAP1 POP SWAP1 JUMP JUMPDEST PUSH1 0x0 DUP1 PUSH20 0xFFFFFFFFFFFFFFFFFFFFFFFFFFFFFFFFFFFFFFFF AND DUP3 PUSH20 0xFFFFFFFFFFFFFFFFFFFFFFFFFFFFFFFFFFFFFFFF AND SUB PUSH2 0xC67 JUMPI PUSH1 0x40 MLOAD PUSH32 0x8C379A000000000000000000000000000000000000000000000000000000000 DUP2 MSTORE PUSH1 0x4 ADD PUSH2 0xC5E SWAP1 PUSH2 0x3086 JUMP JUMPDEST PUSH1 0x40 MLOAD DUP1 SWAP2 SUB SWAP1 REVERT JUMPDEST PUSH1 0x3 PUSH1 0x0 DUP4 PUSH20 0xFFFFFFFFFFFFFFFFFFFFFFFFFFFFFFFFFFFFFFFF AND PUSH20 0xFFFFFFFFFFFFFFFFFFFFFFFFFFFFFFFFFFFFFFFF AND DUP2 MSTORE PUSH1 0x20 ADD SWAP1 DUP2 MSTORE PUSH1 0x20 ADD PUSH1 0x0 KECCAK256 SLOAD SWAP1 POP SWAP2 SWAP1 POP JUMP JUMPDEST PUSH2 0xCB6 PUSH2 0x1A60 JUMP JUMPDEST PUSH2 0xCC0 PUSH1 0x0 PUSH2 0x1B1B JUMP JUMPDEST JUMP JUMPDEST PUSH1 0x0 PUSH32 0x0 SWAP1 POP SWAP1 JUMP JUMPDEST PUSH2 0xCF2 PUSH2 0x1A60 JUMP JUMPDEST PUSH1 0x0 DUP3 DUP3 SWAP1 POP SWAP1 POP PUSH1 0x0 DUP6 DUP6 SWAP1 POP DUP3 EQ PUSH2 0xD38 JUMPI PUSH1 0x40 MLOAD PUSH32 0x7AC4BBA900000000000000000000000000000000000000000000000000000000 DUP2 MSTORE PUSH1 0x4 ADD PUSH1 0x40 MLOAD DUP1 SWAP2 SUB SWAP1 REVERT JUMPDEST PUSH1 0x0 JUMPDEST DUP3 DUP2 LT ISZERO PUSH2 0xEB1 JUMPI PUSH1 0x0 JUMPDEST DUP8 DUP8 DUP4 DUP2 DUP2 LT PUSH2 0xD59 JUMPI PUSH2 0xD58 PUSH2 0x30A6 JUMP JUMPDEST JUMPDEST SWAP1 POP PUSH1 0x20 MUL ADD PUSH1 0x20 DUP2 ADD SWAP1 PUSH2 0xD6E SWAP2 SWAP1 PUSH2 0x3115 JUMP JUMPDEST PUSH8 0xFFFFFFFFFFFFFFFF AND DUP2 LT ISZERO PUSH2 0xEA5 JUMPI PUSH1 0x0 PUSH1 0x1 PUSH1 0xA PUSH1 0x0 SWAP1 SLOAD SWAP1 PUSH2 0x100 EXP SWAP1 DIV PUSH8 0xFFFFFFFFFFFFFFFF AND PUSH2 0xDA4 SWAP2 SWAP1 PUSH2 0x3171 JUMP JUMPDEST SWAP1 POP PUSH32 0x0 DUP2 PUSH8 0xFFFFFFFFFFFFFFFF AND GT ISZERO PUSH2 0xE0A JUMPI PUSH1 0x40 MLOAD PUSH32 0xDD05D6D600000000000000000000000000000000000000000000000000000000 DUP2 MSTORE PUSH1 0x4 ADD PUSH1 0x40 MLOAD DUP1 SWAP2 SUB SWAP1 REVERT JUMPDEST DUP1 PUSH1 0xA PUSH1 0x0 PUSH2 0x100 EXP DUP2 SLOAD DUP2 PUSH8 0xFFFFFFFFFFFFFFFF MUL NOT AND SWAP1 DUP4 PUSH8 0xFFFFFFFFFFFFFFFF AND MUL OR SWAP1 SSTORE POP PUSH1 0x1 DUP5 PUSH2 0xE40 SWAP2 SWAP1 PUSH2 0x31AD JUMP JUMPDEST SWAP4 POP PUSH1 0x0 PUSH1 0xA PUSH1 0x0 SWAP1 SLOAD SWAP1 PUSH2 0x100 EXP SWAP1 DIV PUSH8 0xFFFFFFFFFFFFFFFF AND PUSH8 0xFFFFFFFFFFFFFFFF AND SWAP1 POP PUSH2 0xE98 DUP9 DUP9 DUP7 DUP2 DUP2 LT PUSH2 0xE7D JUMPI PUSH2 0xE7C PUSH2 0x30A6 JUMP JUMPDEST JUMPDEST SWAP1 POP PUSH1 0x20 MUL ADD PUSH1 0x20 DUP2 ADD SWAP1 PUSH2 0xE92 SWAP2 SWAP1 PUSH2 0x289A JUMP JUMPDEST DUP3 PUSH2 0x1BE1 JUMP JUMPDEST DUP3 PUSH1 0x1 ADD SWAP3 POP POP POP PUSH2 0xD46 JUMP JUMPDEST POP DUP1 PUSH1 0x1 ADD SWAP1 POP PUSH2 0xD3B JUMP JUMPDEST POP PUSH32 0x71CC7095CC35ED4701C217A8EFB440732EB0737DA67F6548C008AC26FBA95464 DUP3 DUP3 PUSH1 0x40 MLOAD PUSH2 0xEE3 SWAP3 SWAP2 SWAP1 PUSH2 0x31E1 JUMP JUMPDEST PUSH1 0x40 MLOAD DUP1 SWAP2 SUB SWAP1 LOG1 POP POP POP POP POP POP JUMP JUMPDEST PUSH1 0x0 PUSH1 0x7 PUSH1 0x0 SWAP1 SLOAD SWAP1 PUSH2 0x100 EXP SWAP1 DIV PUSH20 0xFFFFFFFFFFFFFFFFFFFFFFFFFFFFFFFFFFFFFFFF AND SWAP1 POP SWAP1 JUMP JUMPDEST PUSH1 0x60 PUSH1 0x1 DUP1 SLOAD PUSH2 0xF2C SWAP1 PUSH2 0x2D7B JUMP JUMPDEST DUP1 PUSH1 0x1F ADD PUSH1 0x20 DUP1 SWAP2 DIV MUL PUSH1 0x20 ADD PUSH1 0x40 MLOAD SWAP1 DUP2 ADD PUSH1 0x40 MSTORE DUP1 SWAP3 SWAP2 SWAP1 DUP2 DUP2 MSTORE PUSH1 0x20 ADD DUP3 DUP1 SLOAD PUSH2 0xF58 SWAP1 PUSH2 0x2D7B JUMP JUMPDEST DUP1 ISZERO PUSH2 0xFA5 JUMPI DUP1 PUSH1 0x1F LT PUSH2 0xF7A JUMPI PUSH2 0x100 DUP1 DUP4 SLOAD DIV MUL DUP4 MSTORE SWAP2 PUSH1 0x20 ADD SWAP2 PUSH2 0xFA5 JUMP JUMPDEST DUP3 ADD SWAP2 SWAP1 PUSH1 0x0 MSTORE PUSH1 0x20 PUSH1 0x0 KECCAK256 SWAP1 JUMPDEST DUP2 SLOAD DUP2 MSTORE SWAP1 PUSH1 0x1 ADD SWAP1 PUSH1 0x20 ADD DUP1 DUP4 GT PUSH2 0xF88 JUMPI DUP3 SWAP1 SUB PUSH1 0x1F AND DUP3 ADD SWAP2 JUMPDEST POP POP POP POP POP SWAP1 POP SWAP1 JUMP JUMPDEST PUSH2 0xFC1 PUSH2 0xFBA PUSH2 0x1611 JUMP JUMPDEST DUP4 DUP4 PUSH2 0x1BFF JUMP JUMPDEST POP POP JUMP JUMPDEST PUSH2 0xFD6 PUSH2 0xFD0 PUSH2 0x1611 JUMP JUMPDEST DUP4 PUSH2 0x16D2 JUMP JUMPDEST PUSH2 0x1015 JUMPI PUSH1 0x40 MLOAD PUSH32 0x8C379A000000000000000000000000000000000000000000000000000000000 DUP2 MSTORE PUSH1 0x4 ADD PUSH2 0x100C SWAP1 PUSH2 0x2F42 JUMP JUMPDEST PUSH1 0x40 MLOAD DUP1 SWAP2 SUB SWAP1 REVERT JUMPDEST PUSH2 0x1021 DUP5 DUP5 DUP5 DUP5 PUSH2 0x1D6B JUMP JUMPDEST POP POP POP POP JUMP JUMPDEST PUSH32 0x0 PUSH1 0xA PUSH1 0x0 SWAP1 SLOAD SWAP1 PUSH2 0x100 EXP SWAP1 DIV PUSH8 0xFFFFFFFFFFFFFFFF AND PUSH8 0xFFFFFFFFFFFFFFFF AND LT PUSH2 0x10A0 JUMPI PUSH1 0x40 MLOAD PUSH32 0xDE02AAD600000000000000000000000000000000000000000000000000000000 DUP2 MSTORE PUSH1 0x4 ADD PUSH1 0x40 MLOAD DUP1 SWAP2 SUB SWAP1 REVERT JUMPDEST PUSH32 0x0 CALLVALUE LT ISZERO PUSH2 0x10FA JUMPI PUSH1 0x40 MLOAD PUSH32 0x44D2294D00000000000000000000000000000000000000000000000000000000 DUP2 MSTORE PUSH1 0x4 ADD PUSH1 0x40 MLOAD DUP1 SWAP2 SUB SWAP1 REVERT JUMPDEST PUSH1 0x0 CALLER SWAP1 POP PUSH1 0x0 PUSH1 0xA PUSH1 0x0 SWAP1 SLOAD SWAP1 PUSH2 0x100 EXP SWAP1 DIV PUSH8 0xFFFFFFFFFFFFFFFF AND PUSH8 0xFFFFFFFFFFFFFFFF AND SWAP1 POP PUSH1 0x1 PUSH1 0xA PUSH1 0x0 SWAP1 SLOAD SWAP1 PUSH2 0x100 EXP SWAP1 DIV PUSH8 0xFFFFFFFFFFFFFFFF AND PUSH2 0x1147 SWAP2 SWAP1 PUSH2 0x3171 JUMP JUMPDEST PUSH1 0xA PUSH1 0x0 PUSH2 0x100 EXP DUP2 SLOAD DUP2 PUSH8 0xFFFFFFFFFFFFFFFF MUL NOT AND SWAP1 DUP4 PUSH8 0xFFFFFFFFFFFFFFFF AND MUL OR SWAP1 SSTORE POP PUSH2 0x1179 DUP3 DUP3 PUSH2 0x1BE1 JUMP JUMPDEST PUSH32 0x769EFF512F395B679667E0062A0E31DAD5D22DBC7E6B87F16C3DE7E85E663460 DUP2 DUP4 PUSH1 0x40 MLOAD PUSH2 0x11AA SWAP3 SWAP2 SWAP1 PUSH2 0x320A JUMP JUMPDEST PUSH1 0x40 MLOAD DUP1 SWAP2 SUB SWAP1 LOG1 POP POP JUMP JUMPDEST PUSH1 0x9 DUP1 SLOAD PUSH2 0x11C3 SWAP1 PUSH2 0x2D7B JUMP JUMPDEST DUP1 PUSH1 0x1F ADD PUSH1 0x20 DUP1 SWAP2 DIV MUL PUSH1 0x20 ADD PUSH1 0x40 MLOAD SWAP1 DUP2 ADD PUSH1 0x40 MSTORE DUP1 SWAP3 SWAP2 SWAP1 DUP2 DUP2 MSTORE PUSH1 0x20 ADD DUP3 DUP1 SLOAD PUSH2 0x11EF SWAP1 PUSH2 0x2D7B JUMP JUMPDEST DUP1 ISZERO PUSH2 0x123C JUMPI DUP1 PUSH1 0x1F LT PUSH2 0x1211 JUMPI PUSH2 0x100 DUP1 DUP4 SLOAD DIV MUL DUP4 MSTORE SWAP2 PUSH1 0x20 ADD SWAP2 PUSH2 0x123C JUMP JUMPDEST DUP3 ADD SWAP2 SWAP1 PUSH1 0x0 MSTORE PUSH1 0x20 PUSH1 0x0 KECCAK256 SWAP1 JUMPDEST DUP2 SLOAD DUP2 MSTORE SWAP1 PUSH1 0x1 ADD SWAP1 PUSH1 0x20 ADD DUP1 DUP4 GT PUSH2 0x121F JUMPI DUP3 SWAP1 SUB PUSH1 0x1F AND DUP3 ADD SWAP2 JUMPDEST POP POP POP POP POP DUP2 JUMP JUMPDEST PUSH1 0x60 PUSH1 0x0 ISZERO ISZERO PUSH2 0x1253 DUP4 PUSH2 0x1DC7 JUMP JUMPDEST ISZERO ISZERO SUB PUSH2 0x128C JUMPI PUSH1 0x40 MLOAD PUSH32 0x4906322A00000000000000000000000000000000000000000000000000000000 DUP2 MSTORE PUSH1 0x4 ADD PUSH1 0x40 MLOAD DUP1 SWAP2 SUB SWAP1 REVERT JUMPDEST PUSH1 0x0 ISZERO ISZERO PUSH1 0xC PUSH1 0x2 SWAP1 SLOAD SWAP1 PUSH2 0x100 EXP SWAP1 DIV PUSH1 0xFF AND ISZERO ISZERO SUB PUSH2 0x1339 JUMPI PUSH1 0xD DUP1 SLOAD PUSH2 0x12B4 SWAP1 PUSH2 0x2D7B JUMP JUMPDEST DUP1 PUSH1 0x1F ADD PUSH1 0x20 DUP1 SWAP2 DIV MUL PUSH1 0x20 ADD PUSH1 0x40 MLOAD SWAP1 DUP2 ADD PUSH1 0x40 MSTORE DUP1 SWAP3 SWAP2 SWAP1 DUP2 DUP2 MSTORE PUSH1 0x20 ADD DUP3 DUP1 SLOAD PUSH2 0x12E0 SWAP1 PUSH2 0x2D7B JUMP JUMPDEST DUP1 ISZERO PUSH2 0x132D JUMPI DUP1 PUSH1 0x1F LT PUSH2 0x1302 JUMPI PUSH2 0x100 DUP1 DUP4 SLOAD DIV MUL DUP4 MSTORE SWAP2 PUSH1 0x20 ADD SWAP2 PUSH2 0x132D JUMP JUMPDEST DUP3 ADD SWAP2 SWAP1 PUSH1 0x0 MSTORE PUSH1 0x20 PUSH1 0x0 KECCAK256 SWAP1 JUMPDEST DUP2 SLOAD DUP2 MSTORE SWAP1 PUSH1 0x1 ADD SWAP1 PUSH1 0x20 ADD DUP1 DUP4 GT PUSH2 0x1310 JUMPI DUP3 SWAP1 SUB PUSH1 0x1F AND DUP3 ADD SWAP2 JUMPDEST POP POP POP POP POP SWAP1 POP PUSH2 0x1396 JUMP JUMPDEST PUSH1 0x0 PUSH2 0x1344 DUP4 PUSH2 0x1E08 JUMP JUMPDEST SWAP1 POP PUSH1 0x0 DUP2 MLOAD GT PUSH2 0x1364 JUMPI PUSH1 0x40 MLOAD DUP1 PUSH1 0x20 ADD PUSH1 0x40 MSTORE DUP1 PUSH1 0x0 DUP2 MSTORE POP PUSH2 0x1392 JUMP JUMPDEST DUP1 PUSH2 0x136E DUP5 PUSH2 0x1EB8 JUMP JUMPDEST PUSH1 0x9 PUSH1 0x40 MLOAD PUSH1 0x20 ADD PUSH2 0x1382 SWAP4 SWAP3 SWAP2 SWAP1 PUSH2 0x3307 JUMP JUMPDEST PUSH1 0x40 MLOAD PUSH1 0x20 DUP2 DUP4 SUB SUB DUP2 MSTORE SWAP1 PUSH1 0x40 MSTORE JUMPDEST SWAP2 POP POP JUMPDEST SWAP2 SWAP1 POP JUMP JUMPDEST PUSH1 0x0 PUSH1 0x5 PUSH1 0x0 DUP5 PUSH20 0xFFFFFFFFFFFFFFFFFFFFFFFFFFFFFFFFFFFFFFFF AND PUSH20 0xFFFFFFFFFFFFFFFFFFFFFFFFFFFFFFFFFFFFFFFF AND DUP2 MSTORE PUSH1 0x20 ADD SWAP1 DUP2 MSTORE PUSH1 0x20 ADD PUSH1 0x0 KECCAK256 PUSH1 0x0 DUP4 PUSH20 0xFFFFFFFFFFFFFFFFFFFFFFFFFFFFFFFFFFFFFFFF AND PUSH20 0xFFFFFFFFFFFFFFFFFFFFFFFFFFFFFFFFFFFFFFFF AND DUP2 MSTORE PUSH1 0x20 ADD SWAP1 DUP2 MSTORE PUSH1 0x20 ADD PUSH1 0x0 KECCAK256 PUSH1 0x0 SWAP1 SLOAD SWAP1 PUSH2 0x100 EXP SWAP1 DIV PUSH1 0xFF AND SWAP1 POP SWAP3 SWAP2 POP POP JUMP JUMPDEST PUSH1 0x0 PUSH1 0xC PUSH1 0x0 SWAP1 SLOAD SWAP1 PUSH2 0x100 EXP SWAP1 DIV PUSH1 0xFF AND SWAP1 POP SWAP1 JUMP JUMPDEST PUSH2 0x144E PUSH2 0x1A60 JUMP JUMPDEST DUP1 PUSH1 0xD SWAP1 DUP2 PUSH2 0x145D SWAP2 SWAP1 PUSH2 0x34CF JUMP JUMPDEST POP POP JUMP JUMPDEST PUSH2 0x1469 PUSH2 0x1A60 JUMP JUMPDEST PUSH1 0x0 PUSH20 0xFFFFFFFFFFFFFFFFFFFFFFFFFFFFFFFFFFFFFFFF AND DUP2 PUSH20 0xFFFFFFFFFFFFFFFFFFFFFFFFFFFFFFFFFFFFFFFF AND SUB PUSH2 0x14D8 JUMPI PUSH1 0x40 MLOAD PUSH32 0x8C379A000000000000000000000000000000000000000000000000000000000 DUP2 MSTORE PUSH1 0x4 ADD PUSH2 0x14CF SWAP1 PUSH2 0x3613 JUMP JUMPDEST PUSH1 0x40 MLOAD DUP1 SWAP2 SUB SWAP1 REVERT JUMPDEST PUSH2 0x14E1 DUP2 PUSH2 0x1B1B JUMP JUMPDEST POP JUMP JUMPDEST PUSH1 0x0 PUSH32 0x80AC58CD00000000000000000000000000000000000000000000000000000000 PUSH28 0xFFFFFFFFFFFFFFFFFFFFFFFFFFFFFFFFFFFFFFFFFFFFFFFFFFFFFFFF NOT AND DUP3 PUSH28 0xFFFFFFFFFFFFFFFFFFFFFFFFFFFFFFFFFFFFFFFFFFFFFFFFFFFFFFFF NOT AND EQ DUP1 PUSH2 0x15AF JUMPI POP PUSH32 0x5B5E139F00000000000000000000000000000000000000000000000000000000 PUSH28 0xFFFFFFFFFFFFFFFFFFFFFFFFFFFFFFFFFFFFFFFFFFFFFFFFFFFFFFFF NOT AND DUP3 PUSH28 0xFFFFFFFFFFFFFFFFFFFFFFFFFFFFFFFFFFFFFFFFFFFFFFFFFFFFFFFF NOT AND EQ JUMPDEST DUP1 PUSH2 0x15BF JUMPI POP PUSH2 0x15BE DUP3 PUSH2 0x1F86 JUMP JUMPDEST JUMPDEST SWAP1 POP SWAP2 SWAP1 POP JUMP JUMPDEST PUSH2 0x15CF DUP2 PUSH2 0x1DC7 JUMP JUMPDEST PUSH2 0x160E JUMPI PUSH1 0x40 MLOAD PUSH32 0x8C379A000000000000000000000000000000000000000000000000000000000 DUP2 MSTORE PUSH1 0x4 ADD PUSH2 0x1605 SWAP1 PUSH2 0x2FF4 JUMP JUMPDEST PUSH1 0x40 MLOAD DUP1 SWAP2 SUB SWAP1 REVERT JUMPDEST POP JUMP JUMPDEST PUSH1 0x0 CALLER SWAP1 POP SWAP1 JUMP JUMPDEST DUP2 PUSH1 0x4 PUSH1 0x0 DUP4 DUP2 MSTORE PUSH1 0x20 ADD SWAP1 DUP2 MSTORE PUSH1 0x20 ADD PUSH1 0x0 KECCAK256 PUSH1 0x0 PUSH2 0x100 EXP DUP2 SLOAD DUP2 PUSH20 0xFFFFFFFFFFFFFFFFFFFFFFFFFFFFFFFFFFFFFFFF MUL NOT AND SWAP1 DUP4 PUSH20 0xFFFFFFFFFFFFFFFFFFFFFFFFFFFFFFFFFFFFFFFF AND MUL OR SWAP1 SSTORE POP DUP1 DUP3 PUSH20 0xFFFFFFFFFFFFFFFFFFFFFFFFFFFFFFFFFFFFFFFF AND PUSH2 0x168C DUP4 PUSH2 0xABB JUMP JUMPDEST PUSH20 0xFFFFFFFFFFFFFFFFFFFFFFFFFFFFFFFFFFFFFFFF AND PUSH32 0x8C5BE1E5EBEC7D5BD14F71427D1E84F3DD0314C0F7B2291E5B200AC8C7C3B925 PUSH1 0x40 MLOAD PUSH1 0x40 MLOAD DUP1 SWAP2 SUB SWAP1 LOG4 POP POP JUMP JUMPDEST PUSH1 0x0 DUP1 PUSH2 0x16DE DUP4 PUSH2 0xABB JUMP JUMPDEST SWAP1 POP DUP1 PUSH20 0xFFFFFFFFFFFFFFFFFFFFFFFFFFFFFFFFFFFFFFFF AND DUP5 PUSH20 0xFFFFFFFFFFFFFFFFFFFFFFFFFFFFFFFFFFFFFFFF AND EQ DUP1 PUSH2 0x1720 JUMPI POP PUSH2 0x171F DUP2 DUP6 PUSH2 0x139B JUMP JUMPDEST JUMPDEST DUP1 PUSH2 0x175E JUMPI POP DUP4 PUSH20 0xFFFFFFFFFFFFFFFFFFFFFFFFFFFFFFFFFFFFFFFF AND PUSH2 0x1746 DUP5 PUSH2 0x776 JUMP JUMPDEST PUSH20 0xFFFFFFFFFFFFFFFFFFFFFFFFFFFFFFFFFFFFFFFF AND EQ JUMPDEST SWAP2 POP POP SWAP3 SWAP2 POP POP JUMP JUMPDEST DUP3 PUSH20 0xFFFFFFFFFFFFFFFFFFFFFFFFFFFFFFFFFFFFFFFF AND PUSH2 0x1787 DUP3 PUSH2 0xABB JUMP JUMPDEST PUSH20 0xFFFFFFFFFFFFFFFFFFFFFFFFFFFFFFFFFFFFFFFF AND EQ PUSH2 0x17DD JUMPI PUSH1 0x40 MLOAD PUSH32 0x8C379A000000000000000000000000000000000000000000000000000000000 DUP2 MSTORE PUSH1 0x4 ADD PUSH2 0x17D4 SWAP1 PUSH2 0x36A5 JUMP JUMPDEST PUSH1 0x40 MLOAD DUP1 SWAP2 SUB SWAP1 REVERT JUMPDEST PUSH1 0x0 PUSH20 0xFFFFFFFFFFFFFFFFFFFFFFFFFFFFFFFFFFFFFFFF AND DUP3 PUSH20 0xFFFFFFFFFFFFFFFFFFFFFFFFFFFFFFFFFFFFFFFF AND SUB PUSH2 0x184C JUMPI PUSH1 0x40 MLOAD PUSH32 0x8C379A000000000000000000000000000000000000000000000000000000000 DUP2 MSTORE PUSH1 0x4 ADD PUSH2 0x1843 SWAP1 PUSH2 0x3737 JUMP JUMPDEST PUSH1 0x40 MLOAD DUP1 SWAP2 SUB SWAP1 REVERT JUMPDEST PUSH2 0x1859 DUP4 DUP4 DUP4 PUSH1 0x1 PUSH2 0x1FF0 JUMP JUMPDEST DUP3 PUSH20 0xFFFFFFFFFFFFFFFFFFFFFFFFFFFFFFFFFFFFFFFF AND PUSH2 0x1879 DUP3 PUSH2 0xABB JUMP JUMPDEST PUSH20 0xFFFFFFFFFFFFFFFFFFFFFFFFFFFFFFFFFFFFFFFF AND EQ PUSH2 0x18CF JUMPI PUSH1 0x40 MLOAD PUSH32 0x8C379A000000000000000000000000000000000000000000000000000000000 DUP2 MSTORE PUSH1 0x4 ADD PUSH2 0x18C6 SWAP1 PUSH2 0x36A5 JUMP JUMPDEST PUSH1 0x40 MLOAD DUP1 SWAP2 SUB SWAP1 REVERT JUMPDEST PUSH1 0x4 PUSH1 0x0 DUP3 DUP2 MSTORE PUSH1 0x20 ADD SWAP1 DUP2 MSTORE PUSH1 0x20 ADD PUSH1 0x0 KECCAK256 PUSH1 0x0 PUSH2 0x100 EXP DUP2 SLOAD SWAP1 PUSH20 0xFFFFFFFFFFFFFFFFFFFFFFFFFFFFFFFFFFFFFFFF MUL NOT AND SWAP1 SSTORE PUSH1 0x1 PUSH1 0x3 PUSH1 0x0 DUP6 PUSH20 0xFFFFFFFFFFFFFFFFFFFFFFFFFFFFFFFFFFFFFFFF AND PUSH20 0xFFFFFFFFFFFFFFFFFFFFFFFFFFFFFFFFFFFFFFFF AND DUP2 MSTORE PUSH1 0x20 ADD SWAP1 DUP2 MSTORE PUSH1 0x20 ADD PUSH1 0x0 KECCAK256 PUSH1 0x0 DUP3 DUP3 SLOAD SUB SWAP3 POP POP DUP2 SWAP1 SSTORE POP PUSH1 0x1 PUSH1 0x3 PUSH1 0x0 DUP5 PUSH20 0xFFFFFFFFFFFFFFFFFFFFFFFFFFFFFFFFFFFFFFFF AND PUSH20 0xFFFFFFFFFFFFFFFFFFFFFFFFFFFFFFFFFFFFFFFF AND DUP2 MSTORE PUSH1 0x20 ADD SWAP1 DUP2 MSTORE PUSH1 0x20 ADD PUSH1 0x0 KECCAK256 PUSH1 0x0 DUP3 DUP3 SLOAD ADD SWAP3 POP POP DUP2 SWAP1 SSTORE POP DUP2 PUSH1 0x2 PUSH1 0x0 DUP4 DUP2 MSTORE PUSH1 0x20 ADD SWAP1 DUP2 MSTORE PUSH1 0x20 ADD PUSH1 0x0 KECCAK256 PUSH1 0x0 PUSH2 0x100 EXP DUP2 SLOAD DUP2 PUSH20 0xFFFFFFFFFFFFFFFFFFFFFFFFFFFFFFFFFFFFFFFF MUL NOT AND SWAP1 DUP4 PUSH20 0xFFFFFFFFFFFFFFFFFFFFFFFFFFFFFFFFFFFFFFFF AND MUL OR SWAP1 SSTORE POP DUP1 DUP3 PUSH20 0xFFFFFFFFFFFFFFFFFFFFFFFFFFFFFFFFFFFFFFFF AND DUP5 PUSH20 0xFFFFFFFFFFFFFFFFFFFFFFFFFFFFFFFFFFFFFFFF AND PUSH32 0xDDF252AD1BE2C89B69C2B068FC378DAA952BA7F163C4A11628F55A4DF523B3EF PUSH1 0x40 MLOAD PUSH1 0x40 MLOAD DUP1 SWAP2 SUB SWAP1 LOG4 PUSH2 0x1A5B DUP4 DUP4 DUP4 PUSH1 0x1 PUSH2 0x1FF6 JUMP JUMPDEST POP POP POP JUMP JUMPDEST PUSH2 0x1A68 PUSH2 0x1611 JUMP JUMPDEST PUSH20 0xFFFFFFFFFFFFFFFFFFFFFFFFFFFFFFFFFFFFFFFF AND PUSH2 0x1A86 PUSH2 0xEF3 JUMP JUMPDEST PUSH20 0xFFFFFFFFFFFFFFFFFFFFFFFFFFFFFFFFFFFFFFFF AND EQ PUSH2 0x1ADC JUMPI PUSH1 0x40 MLOAD PUSH32 0x8C379A000000000000000000000000000000000000000000000000000000000 DUP2 MSTORE PUSH1 0x4 ADD PUSH2 0x1AD3 SWAP1 PUSH2 0x37A3 JUMP JUMPDEST PUSH1 0x40 MLOAD DUP1 SWAP2 SUB SWAP1 REVERT JUMPDEST JUMP JUMPDEST PUSH1 0x0 PUSH1 0x2 PUSH1 0x0 DUP4 DUP2 MSTORE PUSH1 0x20 ADD SWAP1 DUP2 MSTORE PUSH1 0x20 ADD PUSH1 0x0 KECCAK256 PUSH1 0x0 SWAP1 SLOAD SWAP1 PUSH2 0x100 EXP SWAP1 DIV PUSH20 0xFFFFFFFFFFFFFFFFFFFFFFFFFFFFFFFFFFFFFFFF AND SWAP1 POP SWAP2 SWAP1 POP JUMP JUMPDEST PUSH1 0x0 PUSH1 0x7 PUSH1 0x0 SWAP1 SLOAD SWAP1 PUSH2 0x100 EXP SWAP1 DIV PUSH20 0xFFFFFFFFFFFFFFFFFFFFFFFFFFFFFFFFFFFFFFFF AND SWAP1 POP DUP2 PUSH1 0x7 PUSH1 0x0 PUSH2 0x100 EXP DUP2 SLOAD DUP2 PUSH20 0xFFFFFFFFFFFFFFFFFFFFFFFFFFFFFFFFFFFFFFFF MUL NOT AND SWAP1 DUP4 PUSH20 0xFFFFFFFFFFFFFFFFFFFFFFFFFFFFFFFFFFFFFFFF AND MUL OR SWAP1 SSTORE POP DUP2 PUSH20 0xFFFFFFFFFFFFFFFFFFFFFFFFFFFFFFFFFFFFFFFF AND DUP2 PUSH20 0xFFFFFFFFFFFFFFFFFFFFFFFFFFFFFFFFFFFFFFFF AND PUSH32 0x8BE0079C531659141344CD1FD0A4F28419497F9722A3DAAFE3B4186F6B6457E0 PUSH1 0x40 MLOAD PUSH1 0x40 MLOAD DUP1 SWAP2 SUB SWAP1 LOG3 POP POP JUMP JUMPDEST PUSH2 0x1BFB DUP3 DUP3 PUSH1 0x40 MLOAD DUP1 PUSH1 0x20 ADD PUSH1 0x40 MSTORE DUP1 PUSH1 0x0 DUP2 MSTORE POP PUSH2 0x1FFC JUMP JUMPDEST POP POP JUMP JUMPDEST DUP2 PUSH20 0xFFFFFFFFFFFFFFFFFFFFFFFFFFFFFFFFFFFFFFFF AND DUP4 PUSH20 0xFFFFFFFFFFFFFFFFFFFFFFFFFFFFFFFFFFFFFFFF AND SUB PUSH2 0x1C6D JUMPI PUSH1 0x40 MLOAD PUSH32 0x8C379A000000000000000000000000000000000000000000000000000000000 DUP2 MSTORE PUSH1 0x4 ADD PUSH2 0x1C64 SWAP1 PUSH2 0x380F JUMP JUMPDEST PUSH1 0x40 MLOAD DUP1 SWAP2 SUB SWAP1 REVERT JUMPDEST DUP1 PUSH1 0x5 PUSH1 0x0 DUP6 PUSH20 0xFFFFFFFFFFFFFFFFFFFFFFFFFFFFFFFFFFFFFFFF AND PUSH20 0xFFFFFFFFFFFFFFFFFFFFFFFFFFFFFFFFFFFFFFFF AND DUP2 MSTORE PUSH1 0x20 ADD SWAP1 DUP2 MSTORE PUSH1 0x20 ADD PUSH1 0x0 KECCAK256 PUSH1 0x0 DUP5 PUSH20 0xFFFFFFFFFFFFFFFFFFFFFFFFFFFFFFFFFFFFFFFF AND PUSH20 0xFFFFFFFFFFFFFFFFFFFFFFFFFFFFFFFFFFFFFFFF AND DUP2 MSTORE PUSH1 0x20 ADD SWAP1 DUP2 MSTORE PUSH1 0x20 ADD PUSH1 0x0 KECCAK256 PUSH1 0x0 PUSH2 0x100 EXP DUP2 SLOAD DUP2 PUSH1 0xFF MUL NOT AND SWAP1 DUP4 ISZERO ISZERO MUL OR SWAP1 SSTORE POP DUP2 PUSH20 0xFFFFFFFFFFFFFFFFFFFFFFFFFFFFFFFFFFFFFFFF AND DUP4 PUSH20 0xFFFFFFFFFFFFFFFFFFFFFFFFFFFFFFFFFFFFFFFF AND PUSH32 0x17307EAB39AB6107E8899845AD3D59BD9653F200F220920489CA2B5937696C31 DUP4 PUSH1 0x40 MLOAD PUSH2 0x1D5E SWAP2 SWAP1 PUSH2 0x2625 JUMP JUMPDEST PUSH1 0x40 MLOAD DUP1 SWAP2 SUB SWAP1 LOG3 POP POP POP JUMP JUMPDEST PUSH2 0x1D76 DUP5 DUP5 DUP5 PUSH2 0x1767 JUMP JUMPDEST PUSH2 0x1D82 DUP5 DUP5 DUP5 DUP5 PUSH2 0x2057 JUMP JUMPDEST PUSH2 0x1DC1 JUMPI PUSH1 0x40 MLOAD PUSH32 0x8C379A000000000000000000000000000000000000000000000000000000000 DUP2 MSTORE PUSH1 0x4 ADD PUSH2 0x1DB8 SWAP1 PUSH2 0x38A1 JUMP JUMPDEST PUSH1 0x40 MLOAD DUP1 SWAP2 SUB SWAP1 REVERT JUMPDEST POP POP POP POP JUMP JUMPDEST PUSH1 0x0 DUP1 PUSH20 0xFFFFFFFFFFFFFFFFFFFFFFFFFFFFFFFFFFFFFFFF AND PUSH2 0x1DE9 DUP4 PUSH2 0x1ADE JUMP JUMPDEST PUSH20 0xFFFFFFFFFFFFFFFFFFFFFFFFFFFFFFFFFFFFFFFF AND EQ ISZERO SWAP1 POP SWAP2 SWAP1 POP JUMP JUMPDEST PUSH1 0x60 PUSH1 0xB DUP3 DUP2 SLOAD DUP2 LT PUSH2 0x1E1E JUMPI PUSH2 0x1E1D PUSH2 0x30A6 JUMP JUMPDEST JUMPDEST SWAP1 PUSH1 0x0 MSTORE PUSH1 0x20 PUSH1 0x0 KECCAK256 ADD DUP1 SLOAD PUSH2 0x1E33 SWAP1 PUSH2 0x2D7B JUMP JUMPDEST DUP1 PUSH1 0x1F ADD PUSH1 0x20 DUP1 SWAP2 DIV MUL PUSH1 0x20 ADD PUSH1 0x40 MLOAD SWAP1 DUP2 ADD PUSH1 0x40 MSTORE DUP1 SWAP3 SWAP2 SWAP1 DUP2 DUP2 MSTORE PUSH1 0x20 ADD DUP3 DUP1 SLOAD PUSH2 0x1E5F SWAP1 PUSH2 0x2D7B JUMP JUMPDEST DUP1 ISZERO PUSH2 0x1EAC JUMPI DUP1 PUSH1 0x1F LT PUSH2 0x1E81 JUMPI PUSH2 0x100 DUP1 DUP4 SLOAD DIV MUL DUP4 MSTORE SWAP2 PUSH1 0x20 ADD SWAP2 PUSH2 0x1EAC JUMP JUMPDEST DUP3 ADD SWAP2 SWAP1 PUSH1 0x0 MSTORE PUSH1 0x20 PUSH1 0x0 KECCAK256 SWAP1 JUMPDEST DUP2 SLOAD DUP2 MSTORE SWAP1 PUSH1 0x1 ADD SWAP1 PUSH1 0x20 ADD DUP1 DUP4 GT PUSH2 0x1E8F JUMPI DUP3 SWAP1 SUB PUSH1 0x1F AND DUP3 ADD SWAP2 JUMPDEST POP POP POP POP POP SWAP1 POP SWAP2 SWAP1 POP JUMP JUMPDEST PUSH1 0x60 PUSH1 0x0 PUSH1 0x1 PUSH2 0x1EC7 DUP5 PUSH2 0x21DE JUMP JUMPDEST ADD SWAP1 POP PUSH1 0x0 DUP2 PUSH8 0xFFFFFFFFFFFFFFFF DUP2 GT ISZERO PUSH2 0x1EE6 JUMPI PUSH2 0x1EE5 PUSH2 0x2A74 JUMP JUMPDEST JUMPDEST PUSH1 0x40 MLOAD SWAP1 DUP1 DUP3 MSTORE DUP1 PUSH1 0x1F ADD PUSH1 0x1F NOT AND PUSH1 0x20 ADD DUP3 ADD PUSH1 0x40 MSTORE DUP1 ISZERO PUSH2 0x1F18 JUMPI DUP2 PUSH1 0x20 ADD PUSH1 0x1 DUP3 MUL DUP1 CALLDATASIZE DUP4 CALLDATACOPY DUP1 DUP3 ADD SWAP2 POP POP SWAP1 POP JUMPDEST POP SWAP1 POP PUSH1 0x0 DUP3 PUSH1 0x20 ADD DUP3 ADD SWAP1 POP JUMPDEST PUSH1 0x1 ISZERO PUSH2 0x1F7B JUMPI DUP1 DUP1 PUSH1 0x1 SWAP1 SUB SWAP2 POP POP PUSH32 0x3031323334353637383961626364656600000000000000000000000000000000 PUSH1 0xA DUP7 MOD BYTE DUP2 MSTORE8 PUSH1 0xA DUP6 DUP2 PUSH2 0x1F6F JUMPI PUSH2 0x1F6E PUSH2 0x38C1 JUMP JUMPDEST JUMPDEST DIV SWAP5 POP PUSH1 0x0 DUP6 SUB PUSH2 0x1F26 JUMPI JUMPDEST DUP2 SWAP4 POP POP POP POP SWAP2 SWAP1 POP JUMP JUMPDEST PUSH1 0x0 PUSH32 0x1FFC9A700000000000000000000000000000000000000000000000000000000 PUSH28 0xFFFFFFFFFFFFFFFFFFFFFFFFFFFFFFFFFFFFFFFFFFFFFFFFFFFFFFFF NOT AND DUP3 PUSH28 0xFFFFFFFFFFFFFFFFFFFFFFFFFFFFFFFFFFFFFFFFFFFFFFFFFFFFFFFF NOT AND EQ SWAP1 POP SWAP2 SWAP1 POP JUMP JUMPDEST POP POP POP POP JUMP JUMPDEST POP POP POP POP JUMP JUMPDEST PUSH2 0x2006 DUP4 DUP4 PUSH2 0x2331 JUMP JUMPDEST PUSH2 0x2013 PUSH1 0x0 DUP5 DUP5 DUP5 PUSH2 0x2057 JUMP JUMPDEST PUSH2 0x2052 JUMPI PUSH1 0x40 MLOAD PUSH32 0x8C379A000000000000000000000000000000000000000000000000000000000 DUP2 MSTORE PUSH1 0x4 ADD PUSH2 0x2049 SWAP1 PUSH2 0x38A1 JUMP JUMPDEST PUSH1 0x40 MLOAD DUP1 SWAP2 SUB SWAP1 REVERT JUMPDEST POP POP POP JUMP JUMPDEST PUSH1 0x0 PUSH2 0x2078 DUP5 PUSH20 0xFFFFFFFFFFFFFFFFFFFFFFFFFFFFFFFFFFFFFFFF AND PUSH2 0x254E JUMP JUMPDEST ISZERO PUSH2 0x21D1 JUMPI DUP4 PUSH20 0xFFFFFFFFFFFFFFFFFFFFFFFFFFFFFFFFFFFFFFFF AND PUSH4 0x150B7A02 PUSH2 0x20A1 PUSH2 0x1611 JUMP JUMPDEST DUP8 DUP7 DUP7 PUSH1 0x40 MLOAD DUP6 PUSH4 0xFFFFFFFF AND PUSH1 0xE0 SHL DUP2 MSTORE PUSH1 0x4 ADD PUSH2 0x20C3 SWAP5 SWAP4 SWAP3 SWAP2 SWAP1 PUSH2 0x3945 JUMP JUMPDEST PUSH1 0x20 PUSH1 0x40 MLOAD DUP1 DUP4 SUB DUP2 PUSH1 0x0 DUP8 GAS CALL SWAP3 POP POP POP DUP1 ISZERO PUSH2 0x20FF JUMPI POP PUSH1 0x40 MLOAD RETURNDATASIZE PUSH1 0x1F NOT PUSH1 0x1F DUP3 ADD AND DUP3 ADD DUP1 PUSH1 0x40 MSTORE POP DUP2 ADD SWAP1 PUSH2 0x20FC SWAP2 SWAP1 PUSH2 0x39A6 JUMP JUMPDEST PUSH1 0x1 JUMPDEST PUSH2 0x2181 JUMPI RETURNDATASIZE DUP1 PUSH1 0x0 DUP2 EQ PUSH2 0x212F JUMPI PUSH1 0x40 MLOAD SWAP2 POP PUSH1 0x1F NOT PUSH1 0x3F RETURNDATASIZE ADD AND DUP3 ADD PUSH1 0x40 MSTORE RETURNDATASIZE DUP3 MSTORE RETURNDATASIZE PUSH1 0x0 PUSH1 0x20 DUP5 ADD RETURNDATACOPY PUSH2 0x2134 JUMP JUMPDEST PUSH1 0x60 SWAP2 POP JUMPDEST POP PUSH1 0x0 DUP2 MLOAD SUB PUSH2 0x2179 JUMPI PUSH1 0x40 MLOAD PUSH32 0x8C379A000000000000000000000000000000000000000000000000000000000 DUP2 MSTORE PUSH1 0x4 ADD PUSH2 0x2170 SWAP1 PUSH2 0x38A1 JUMP JUMPDEST PUSH1 0x40 MLOAD DUP1 SWAP2 SUB SWAP1 REVERT JUMPDEST DUP1 MLOAD DUP2 PUSH1 0x20 ADD REVERT JUMPDEST PUSH4 0x150B7A02 PUSH1 0xE0 SHL PUSH28 0xFFFFFFFFFFFFFFFFFFFFFFFFFFFFFFFFFFFFFFFFFFFFFFFFFFFFFFFF NOT AND DUP2 PUSH28 0xFFFFFFFFFFFFFFFFFFFFFFFFFFFFFFFFFFFFFFFFFFFFFFFFFFFFFFFF NOT AND EQ SWAP2 POP POP PUSH2 0x21D6 JUMP JUMPDEST PUSH1 0x1 SWAP1 POP JUMPDEST SWAP5 SWAP4 POP POP POP POP JUMP JUMPDEST PUSH1 0x0 DUP1 PUSH1 0x0 SWAP1 POP PUSH27 0x184F03E93FF9F4DAA797ED6E38ED64BF6A1F010000000000000000 DUP4 LT PUSH2 0x223C JUMPI PUSH27 0x184F03E93FF9F4DAA797ED6E38ED64BF6A1F010000000000000000 DUP4 DUP2 PUSH2 0x2232 JUMPI PUSH2 0x2231 PUSH2 0x38C1 JUMP JUMPDEST JUMPDEST DIV SWAP3 POP PUSH1 0x40 DUP2 ADD SWAP1 POP JUMPDEST PUSH14 0x4EE2D6D415B85ACEF8100000000 DUP4 LT PUSH2 0x2279 JUMPI PUSH14 0x4EE2D6D415B85ACEF8100000000 DUP4 DUP2 PUSH2 0x226F JUMPI PUSH2 0x226E PUSH2 0x38C1 JUMP JUMPDEST JUMPDEST DIV SWAP3 POP PUSH1 0x20 DUP2 ADD SWAP1 POP JUMPDEST PUSH7 0x2386F26FC10000 DUP4 LT PUSH2 0x22A8 JUMPI PUSH7 0x2386F26FC10000 DUP4 DUP2 PUSH2 0x229E JUMPI PUSH2 0x229D PUSH2 0x38C1 JUMP JUMPDEST JUMPDEST DIV SWAP3 POP PUSH1 0x10 DUP2 ADD SWAP1 POP JUMPDEST PUSH4 0x5F5E100 DUP4 LT PUSH2 0x22D1 JUMPI PUSH4 0x5F5E100 DUP4 DUP2 PUSH2 0x22C7 JUMPI PUSH2 0x22C6 PUSH2 0x38C1 JUMP JUMPDEST JUMPDEST DIV SWAP3 POP PUSH1 0x8 DUP2 ADD SWAP1 POP JUMPDEST PUSH2 0x2710 DUP4 LT PUSH2 0x22F6 JUMPI PUSH2 0x2710 DUP4 DUP2 PUSH2 0x22EC JUMPI PUSH2 0x22EB PUSH2 0x38C1 JUMP JUMPDEST JUMPDEST DIV SWAP3 POP PUSH1 0x4 DUP2 ADD SWAP1 POP JUMPDEST PUSH1 0x64 DUP4 LT PUSH2 0x2319 JUMPI PUSH1 0x64 DUP4 DUP2 PUSH2 0x230F JUMPI PUSH2 0x230E PUSH2 0x38C1 JUMP JUMPDEST JUMPDEST DIV SWAP3 POP PUSH1 0x2 DUP2 ADD SWAP1 POP JUMPDEST PUSH1 0xA DUP4 LT PUSH2 0x2328 JUMPI PUSH1 0x1 DUP2 ADD SWAP1 POP JUMPDEST DUP1 SWAP2 POP POP SWAP2 SWAP1 POP JUMP JUMPDEST PUSH1 0x0 PUSH20 0xFFFFFFFFFFFFFFFFFFFFFFFFFFFFFFFFFFFFFFFF AND DUP3 PUSH20 0xFFFFFFFFFFFFFFFFFFFFFFFFFFFFFFFFFFFFFFFF AND SUB PUSH2 0x23A0 JUMPI PUSH1 0x40 MLOAD PUSH32 0x8C379A000000000000000000000000000000000000000000000000000000000 DUP2 MSTORE PUSH1 0x4 ADD PUSH2 0x2397 SWAP1 PUSH2 0x3A1F JUMP JUMPDEST PUSH1 0x40 MLOAD DUP1 SWAP2 SUB SWAP1 REVERT JUMPDEST PUSH2 0x23A9 DUP2 PUSH2 0x1DC7 JUMP JUMPDEST ISZERO PUSH2 0x23E9 JUMPI PUSH1 0x40 MLOAD PUSH32 0x8C379A000000000000000000000000000000000000000000000000000000000 DUP2 MSTORE PUSH1 0x4 ADD PUSH2 0x23E0 SWAP1 PUSH2 0x3A8B JUMP JUMPDEST PUSH1 0x40 MLOAD DUP1 SWAP2 SUB SWAP1 REVERT JUMPDEST PUSH2 0x23F7 PUSH1 0x0 DUP4 DUP4 PUSH1 0x1 PUSH2 0x1FF0 JUMP JUMPDEST PUSH2 0x2400 DUP2 PUSH2 0x1DC7 JUMP JUMPDEST ISZERO PUSH2 0x2440 JUMPI PUSH1 0x40 MLOAD PUSH32 0x8C379A000000000000000000000000000000000000000000000000000000000 DUP2 MSTORE PUSH1 0x4 ADD PUSH2 0x2437 SWAP1 PUSH2 0x3A8B JUMP JUMPDEST PUSH1 0x40 MLOAD DUP1 SWAP2 SUB SWAP1 REVERT JUMPDEST PUSH1 0x1 PUSH1 0x3 PUSH1 0x0 DUP5 PUSH20 0xFFFFFFFFFFFFFFFFFFFFFFFFFFFFFFFFFFFFFFFF AND PUSH20 0xFFFFFFFFFFFFFFFFFFFFFFFFFFFFFFFFFFFFFFFF AND DUP2 MSTORE PUSH1 0x20 ADD SWAP1 DUP2 MSTORE PUSH1 0x20 ADD PUSH1 0x0 KECCAK256 PUSH1 0x0 DUP3 DUP3 SLOAD ADD SWAP3 POP POP DUP2 SWAP1 SSTORE POP DUP2 PUSH1 0x2 PUSH1 0x0 DUP4 DUP2 MSTORE PUSH1 0x20 ADD SWAP1 DUP2 MSTORE PUSH1 0x20 ADD PUSH1 0x0 KECCAK256 PUSH1 0x0 PUSH2 0x100 EXP DUP2 SLOAD DUP2 PUSH20 0xFFFFFFFFFFFFFFFFFFFFFFFFFFFFFFFFFFFFFFFF MUL NOT AND SWAP1 DUP4 PUSH20 0xFFFFFFFFFFFFFFFFFFFFFFFFFFFFFFFFFFFFFFFF AND MUL OR SWAP1 SSTORE POP DUP1 DUP3 PUSH20 0xFFFFFFFFFFFFFFFFFFFFFFFFFFFFFFFFFFFFFFFF AND PUSH1 0x0 PUSH20 0xFFFFFFFFFFFFFFFFFFFFFFFFFFFFFFFFFFFFFFFF AND PUSH32 0xDDF252AD1BE2C89B69C2B068FC378DAA952BA7F163C4A11628F55A4DF523B3EF PUSH1 0x40 MLOAD PUSH1 0x40 MLOAD DUP1 SWAP2 SUB SWAP1 LOG4 PUSH2 0x254A PUSH1 0x0 DUP4 DUP4 PUSH1 0x1 PUSH2 0x1FF6 JUMP JUMPDEST POP POP JUMP JUMPDEST PUSH1 0x0 DUP1 DUP3 PUSH20 0xFFFFFFFFFFFFFFFFFFFFFFFFFFFFFFFFFFFFFFFF AND EXTCODESIZE GT SWAP1 POP SWAP2 SWAP1 POP JUMP JUMPDEST PUSH1 0x0 PUSH1 0x40 MLOAD SWAP1 POP SWAP1 JUMP JUMPDEST PUSH1 0x0 DUP1 REVERT JUMPDEST PUSH1 0x0 DUP1 REVERT JUMPDEST PUSH1 0x0 PUSH32 0xFFFFFFFF00000000000000000000000000000000000000000000000000000000 DUP3 AND SWAP1 POP SWAP2 SWAP1 POP JUMP JUMPDEST PUSH2 0x25BA DUP2 PUSH2 0x2585 JUMP JUMPDEST DUP2 EQ PUSH2 0x25C5 JUMPI PUSH1 0x0 DUP1 REVERT JUMPDEST POP JUMP JUMPDEST PUSH1 0x0 DUP2 CALLDATALOAD SWAP1 POP PUSH2 0x25D7 DUP2 PUSH2 0x25B1 JUMP JUMPDEST SWAP3 SWAP2 POP POP JUMP JUMPDEST PUSH1 0x0 PUSH1 0x20 DUP3 DUP5 SUB SLT ISZERO PUSH2 0x25F3 JUMPI PUSH2 0x25F2 PUSH2 0x257B JUMP JUMPDEST JUMPDEST PUSH1 0x0 PUSH2 0x2601 DUP5 DUP3 DUP6 ADD PUSH2 0x25C8 JUMP JUMPDEST SWAP2 POP POP SWAP3 SWAP2 POP POP JUMP JUMPDEST PUSH1 0x0 DUP2 ISZERO ISZERO SWAP1 POP SWAP2 SWAP1 POP JUMP JUMPDEST PUSH2 0x261F DUP2 PUSH2 0x260A JUMP JUMPDEST DUP3 MSTORE POP POP JUMP JUMPDEST PUSH1 0x0 PUSH1 0x20 DUP3 ADD SWAP1 POP PUSH2 0x263A PUSH1 0x0 DUP4 ADD DUP5 PUSH2 0x2616 JUMP JUMPDEST SWAP3 SWAP2 POP POP JUMP JUMPDEST PUSH1 0x0 DUP2 MLOAD SWAP1 POP SWAP2 SWAP1 POP JUMP JUMPDEST PUSH1 0x0 DUP3 DUP3 MSTORE PUSH1 0x20 DUP3 ADD SWAP1 POP SWAP3 SWAP2 POP POP JUMP JUMPDEST PUSH1 0x0 JUMPDEST DUP4 DUP2 LT ISZERO PUSH2 0x267A JUMPI DUP1 DUP3 ADD MLOAD DUP2 DUP5 ADD MSTORE PUSH1 0x20 DUP2 ADD SWAP1 POP PUSH2 0x265F JUMP JUMPDEST PUSH1 0x0 DUP5 DUP5 ADD MSTORE POP POP POP POP JUMP JUMPDEST PUSH1 0x0 PUSH1 0x1F NOT PUSH1 0x1F DUP4 ADD AND SWAP1 POP SWAP2 SWAP1 POP JUMP JUMPDEST PUSH1 0x0 PUSH2 0x26A2 DUP3 PUSH2 0x2640 JUMP JUMPDEST PUSH2 0x26AC DUP2 DUP6 PUSH2 0x264B JUMP JUMPDEST SWAP4 POP PUSH2 0x26BC DUP2 DUP6 PUSH1 0x20 DUP7 ADD PUSH2 0x265C JUMP JUMPDEST PUSH2 0x26C5 DUP2 PUSH2 0x2686 JUMP JUMPDEST DUP5 ADD SWAP2 POP POP SWAP3 SWAP2 POP POP JUMP JUMPDEST PUSH1 0x0 PUSH1 0x20 DUP3 ADD SWAP1 POP DUP2 DUP2 SUB PUSH1 0x0 DUP4 ADD MSTORE PUSH2 0x26EA DUP2 DUP5 PUSH2 0x2697 JUMP JUMPDEST SWAP1 POP SWAP3 SWAP2 POP POP JUMP JUMPDEST PUSH1 0x0 DUP2 SWAP1 POP SWAP2 SWAP1 POP JUMP JUMPDEST PUSH2 0x2705 DUP2 PUSH2 0x26F2 JUMP JUMPDEST DUP2 EQ PUSH2 0x2710 JUMPI PUSH1 0x0 DUP1 REVERT JUMPDEST POP JUMP JUMPDEST PUSH1 0x0 DUP2 CALLDATALOAD SWAP1 POP PUSH2 0x2722 DUP2 PUSH2 0x26FC JUMP JUMPDEST SWAP3 SWAP2 POP POP JUMP JUMPDEST PUSH1 0x0 PUSH1 0x20 DUP3 DUP5 SUB SLT ISZERO PUSH2 0x273E JUMPI PUSH2 0x273D PUSH2 0x257B JUMP JUMPDEST JUMPDEST PUSH1 0x0 PUSH2 0x274C DUP5 DUP3 DUP6 ADD PUSH2 0x2713 JUMP JUMPDEST SWAP2 POP POP SWAP3 SWAP2 POP POP JUMP JUMPDEST PUSH1 0x0 PUSH20 0xFFFFFFFFFFFFFFFFFFFFFFFFFFFFFFFFFFFFFFFF DUP3 AND SWAP1 POP SWAP2 SWAP1 POP JUMP JUMPDEST PUSH1 0x0 PUSH2 0x2780 DUP3 PUSH2 0x2755 JUMP JUMPDEST SWAP1 POP SWAP2 SWAP1 POP JUMP JUMPDEST PUSH2 0x2790 DUP2 PUSH2 0x2775 JUMP JUMPDEST DUP3 MSTORE POP POP JUMP JUMPDEST PUSH1 0x0 PUSH1 0x20 DUP3 ADD SWAP1 POP PUSH2 0x27AB PUSH1 0x0 DUP4 ADD DUP5 PUSH2 0x2787 JUMP JUMPDEST SWAP3 SWAP2 POP POP JUMP JUMPDEST PUSH2 0x27BA DUP2 PUSH2 0x2775 JUMP JUMPDEST DUP2 EQ PUSH2 0x27C5 JUMPI PUSH1 0x0 DUP1 REVERT JUMPDEST POP JUMP JUMPDEST PUSH1 0x0 DUP2 CALLDATALOAD SWAP1 POP PUSH2 0x27D7 DUP2 PUSH2 0x27B1 JUMP JUMPDEST SWAP3 SWAP2 POP POP JUMP JUMPDEST PUSH1 0x0 DUP1 PUSH1 0x40 DUP4 DUP6 SUB SLT ISZERO PUSH2 0x27F4 JUMPI PUSH2 0x27F3 PUSH2 0x257B JUMP JUMPDEST JUMPDEST PUSH1 0x0 PUSH2 0x2802 DUP6 DUP3 DUP7 ADD PUSH2 0x27C8 JUMP JUMPDEST SWAP3 POP POP PUSH1 0x20 PUSH2 0x2813 DUP6 DUP3 DUP7 ADD PUSH2 0x2713 JUMP JUMPDEST SWAP2 POP POP SWAP3 POP SWAP3 SWAP1 POP JUMP JUMPDEST PUSH1 0x0 DUP1 PUSH1 0x0 PUSH1 0x60 DUP5 DUP7 SUB SLT ISZERO PUSH2 0x2836 JUMPI PUSH2 0x2835 PUSH2 0x257B JUMP JUMPDEST JUMPDEST PUSH1 0x0 PUSH2 0x2844 DUP7 DUP3 DUP8 ADD PUSH2 0x27C8 JUMP JUMPDEST SWAP4 POP POP PUSH1 0x20 PUSH2 0x2855 DUP7 DUP3 DUP8 ADD PUSH2 0x27C8 JUMP JUMPDEST SWAP3 POP POP PUSH1 0x40 PUSH2 0x2866 DUP7 DUP3 DUP8 ADD PUSH2 0x2713 JUMP JUMPDEST SWAP2 POP POP SWAP3 POP SWAP3 POP SWAP3 JUMP JUMPDEST PUSH2 0x2879 DUP2 PUSH2 0x26F2 JUMP JUMPDEST DUP3 MSTORE POP POP JUMP JUMPDEST PUSH1 0x0 PUSH1 0x20 DUP3 ADD SWAP1 POP PUSH2 0x2894 PUSH1 0x0 DUP4 ADD DUP5 PUSH2 0x2870 JUMP JUMPDEST SWAP3 SWAP2 POP POP JUMP JUMPDEST PUSH1 0x0 PUSH1 0x20 DUP3 DUP5 SUB SLT ISZERO PUSH2 0x28B0 JUMPI PUSH2 0x28AF PUSH2 0x257B JUMP JUMPDEST JUMPDEST PUSH1 0x0 PUSH2 0x28BE DUP5 DUP3 DUP6 ADD PUSH2 0x27C8 JUMP JUMPDEST SWAP2 POP POP SWAP3 SWAP2 POP POP JUMP JUMPDEST PUSH1 0x0 DUP1 REVERT JUMPDEST PUSH1 0x0 DUP1 REVERT JUMPDEST PUSH1 0x0 DUP1 REVERT JUMPDEST PUSH1 0x0 DUP1 DUP4 PUSH1 0x1F DUP5 ADD SLT PUSH2 0x28EC JUMPI PUSH2 0x28EB PUSH2 0x28C7 JUMP JUMPDEST JUMPDEST DUP3 CALLDATALOAD SWAP1 POP PUSH8 0xFFFFFFFFFFFFFFFF DUP2 GT ISZERO PUSH2 0x2909 JUMPI PUSH2 0x2908 PUSH2 0x28CC JUMP JUMPDEST JUMPDEST PUSH1 0x20 DUP4 ADD SWAP2 POP DUP4 PUSH1 0x20 DUP3 MUL DUP4 ADD GT ISZERO PUSH2 0x2925 JUMPI PUSH2 0x2924 PUSH2 0x28D1 JUMP JUMPDEST JUMPDEST SWAP3 POP SWAP3 SWAP1 POP JUMP JUMPDEST PUSH1 0x0 DUP1 DUP4 PUSH1 0x1F DUP5 ADD SLT PUSH2 0x2942 JUMPI PUSH2 0x2941 PUSH2 0x28C7 JUMP JUMPDEST JUMPDEST DUP3 CALLDATALOAD SWAP1 POP PUSH8 0xFFFFFFFFFFFFFFFF DUP2 GT ISZERO PUSH2 0x295F JUMPI PUSH2 0x295E PUSH2 0x28CC JUMP JUMPDEST JUMPDEST PUSH1 0x20 DUP4 ADD SWAP2 POP DUP4 PUSH1 0x20 DUP3 MUL DUP4 ADD GT ISZERO PUSH2 0x297B JUMPI PUSH2 0x297A PUSH2 0x28D1 JUMP JUMPDEST JUMPDEST SWAP3 POP SWAP3 SWAP1 POP JUMP JUMPDEST PUSH1 0x0 DUP1 PUSH1 0x0 DUP1 PUSH1 0x40 DUP6 DUP8 SUB SLT ISZERO PUSH2 0x299C JUMPI PUSH2 0x299B PUSH2 0x257B JUMP JUMPDEST JUMPDEST PUSH1 0x0 DUP6 ADD CALLDATALOAD PUSH8 0xFFFFFFFFFFFFFFFF DUP2 GT ISZERO PUSH2 0x29BA JUMPI PUSH2 0x29B9 PUSH2 0x2580 JUMP JUMPDEST JUMPDEST PUSH2 0x29C6 DUP8 DUP3 DUP9 ADD PUSH2 0x28D6 JUMP JUMPDEST SWAP5 POP SWAP5 POP POP PUSH1 0x20 DUP6 ADD CALLDATALOAD PUSH8 0xFFFFFFFFFFFFFFFF DUP2 GT ISZERO PUSH2 0x29E9 JUMPI PUSH2 0x29E8 PUSH2 0x2580 JUMP JUMPDEST JUMPDEST PUSH2 0x29F5 DUP8 DUP3 DUP9 ADD PUSH2 0x292C JUMP JUMPDEST SWAP3 POP SWAP3 POP POP SWAP3 SWAP6 SWAP2 SWAP5 POP SWAP3 POP JUMP JUMPDEST PUSH2 0x2A0C DUP2 PUSH2 0x260A JUMP JUMPDEST DUP2 EQ PUSH2 0x2A17 JUMPI PUSH1 0x0 DUP1 REVERT JUMPDEST POP JUMP JUMPDEST PUSH1 0x0 DUP2 CALLDATALOAD SWAP1 POP PUSH2 0x2A29 DUP2 PUSH2 0x2A03 JUMP JUMPDEST SWAP3 SWAP2 POP POP JUMP JUMPDEST PUSH1 0x0 DUP1 PUSH1 0x40 DUP4 DUP6 SUB SLT ISZERO PUSH2 0x2A46 JUMPI PUSH2 0x2A45 PUSH2 0x257B JUMP JUMPDEST JUMPDEST PUSH1 0x0 PUSH2 0x2A54 DUP6 DUP3 DUP7 ADD PUSH2 0x27C8 JUMP JUMPDEST SWAP3 POP POP PUSH1 0x20 PUSH2 0x2A65 DUP6 DUP3 DUP7 ADD PUSH2 0x2A1A JUMP JUMPDEST SWAP2 POP POP SWAP3 POP SWAP3 SWAP1 POP JUMP JUMPDEST PUSH1 0x0 DUP1 REVERT JUMPDEST PUSH32 0x4E487B7100000000000000000000000000000000000000000000000000000000 PUSH1 0x0 MSTORE PUSH1 0x41 PUSH1 0x4 MSTORE PUSH1 0x24 PUSH1 0x0 REVERT JUMPDEST PUSH2 0x2AAC DUP3 PUSH2 0x2686 JUMP JUMPDEST DUP2 ADD DUP2 DUP2 LT PUSH8 0xFFFFFFFFFFFFFFFF DUP3 GT OR ISZERO PUSH2 0x2ACB JUMPI PUSH2 0x2ACA PUSH2 0x2A74 JUMP JUMPDEST JUMPDEST DUP1 PUSH1 0x40 MSTORE POP POP POP JUMP JUMPDEST PUSH1 0x0 PUSH2 0x2ADE PUSH2 0x2571 JUMP JUMPDEST SWAP1 POP PUSH2 0x2AEA DUP3 DUP3 PUSH2 0x2AA3 JUMP JUMPDEST SWAP2 SWAP1 POP JUMP JUMPDEST PUSH1 0x0 PUSH8 0xFFFFFFFFFFFFFFFF DUP3 GT ISZERO PUSH2 0x2B0A JUMPI PUSH2 0x2B09 PUSH2 0x2A74 JUMP JUMPDEST JUMPDEST PUSH2 0x2B13 DUP3 PUSH2 0x2686 JUMP JUMPDEST SWAP1 POP PUSH1 0x20 DUP2 ADD SWAP1 POP SWAP2 SWAP1 POP JUMP JUMPDEST DUP3 DUP2 DUP4 CALLDATACOPY PUSH1 0x0 DUP4 DUP4 ADD MSTORE POP POP POP JUMP JUMPDEST PUSH1 0x0 PUSH2 0x2B42 PUSH2 0x2B3D DUP5 PUSH2 0x2AEF JUMP JUMPDEST PUSH2 0x2AD4 JUMP JUMPDEST SWAP1 POP DUP3 DUP2 MSTORE PUSH1 0x20 DUP2 ADD DUP5 DUP5 DUP5 ADD GT ISZERO PUSH2 0x2B5E JUMPI PUSH2 0x2B5D PUSH2 0x2A6F JUMP JUMPDEST JUMPDEST PUSH2 0x2B69 DUP5 DUP3 DUP6 PUSH2 0x2B20 JUMP JUMPDEST POP SWAP4 SWAP3 POP POP POP JUMP JUMPDEST PUSH1 0x0 DUP3 PUSH1 0x1F DUP4 ADD SLT PUSH2 0x2B86 JUMPI PUSH2 0x2B85 PUSH2 0x28C7 JUMP JUMPDEST JUMPDEST DUP2 CALLDATALOAD PUSH2 0x2B96 DUP5 DUP3 PUSH1 0x20 DUP7 ADD PUSH2 0x2B2F JUMP JUMPDEST SWAP2 POP POP SWAP3 SWAP2 POP POP JUMP JUMPDEST PUSH1 0x0 DUP1 PUSH1 0x0 DUP1 PUSH1 0x80 DUP6 DUP8 SUB SLT ISZERO PUSH2 0x2BB9 JUMPI PUSH2 0x2BB8 PUSH2 0x257B JUMP JUMPDEST JUMPDEST PUSH1 0x0 PUSH2 0x2BC7 DUP8 DUP3 DUP9 ADD PUSH2 0x27C8 JUMP JUMPDEST SWAP5 POP POP PUSH1 0x20 PUSH2 0x2BD8 DUP8 DUP3 DUP9 ADD PUSH2 0x27C8 JUMP JUMPDEST SWAP4 POP POP PUSH1 0x40 PUSH2 0x2BE9 DUP8 DUP3 DUP9 ADD PUSH2 0x2713 JUMP JUMPDEST SWAP3 POP POP PUSH1 0x60 DUP6 ADD CALLDATALOAD PUSH8 0xFFFFFFFFFFFFFFFF DUP2 GT ISZERO PUSH2 0x2C0A JUMPI PUSH2 0x2C09 PUSH2 0x2580 JUMP JUMPDEST JUMPDEST PUSH2 0x2C16 DUP8 DUP3 DUP9 ADD PUSH2 0x2B71 JUMP JUMPDEST SWAP2 POP POP SWAP3 SWAP6 SWAP2 SWAP5 POP SWAP3 POP JUMP JUMPDEST PUSH1 0x0 DUP1 PUSH1 0x40 DUP4 DUP6 SUB SLT ISZERO PUSH2 0x2C39 JUMPI PUSH2 0x2C38 PUSH2 0x257B JUMP JUMPDEST JUMPDEST PUSH1 0x0 PUSH2 0x2C47 DUP6 DUP3 DUP7 ADD PUSH2 0x27C8 JUMP JUMPDEST SWAP3 POP POP PUSH1 0x20 PUSH2 0x2C58 DUP6 DUP3 DUP7 ADD PUSH2 0x27C8 JUMP JUMPDEST SWAP2 POP POP SWAP3 POP SWAP3 SWAP1 POP JUMP JUMPDEST PUSH1 0x0 PUSH8 0xFFFFFFFFFFFFFFFF DUP3 GT ISZERO PUSH2 0x2C7D JUMPI PUSH2 0x2C7C PUSH2 0x2A74 JUMP JUMPDEST JUMPDEST PUSH2 0x2C86 DUP3 PUSH2 0x2686 JUMP JUMPDEST SWAP1 POP PUSH1 0x20 DUP2 ADD SWAP1 POP SWAP2 SWAP1 POP JUMP JUMPDEST PUSH1 0x0 PUSH2 0x2CA6 PUSH2 0x2CA1 DUP5 PUSH2 0x2C62 JUMP JUMPDEST PUSH2 0x2AD4 JUMP JUMPDEST SWAP1 POP DUP3 DUP2 MSTORE PUSH1 0x20 DUP2 ADD DUP5 DUP5 DUP5 ADD GT ISZERO PUSH2 0x2CC2 JUMPI PUSH2 0x2CC1 PUSH2 0x2A6F JUMP JUMPDEST JUMPDEST PUSH2 0x2CCD DUP5 DUP3 DUP6 PUSH2 0x2B20 JUMP JUMPDEST POP SWAP4 SWAP3 POP POP POP JUMP JUMPDEST PUSH1 0x0 DUP3 PUSH1 0x1F DUP4 ADD SLT PUSH2 0x2CEA JUMPI PUSH2 0x2CE9 PUSH2 0x28C7 JUMP JUMPDEST JUMPDEST DUP2 CALLDATALOAD PUSH2 0x2CFA DUP5 DUP3 PUSH1 0x20 DUP7 ADD PUSH2 0x2C93 JUMP JUMPDEST SWAP2 POP POP SWAP3 SWAP2 POP POP JUMP JUMPDEST PUSH1 0x0 PUSH1 0x20 DUP3 DUP5 SUB SLT ISZERO PUSH2 0x2D19 JUMPI PUSH2 0x2D18 PUSH2 0x257B JUMP JUMPDEST JUMPDEST PUSH1 0x0 DUP3 ADD CALLDATALOAD PUSH8 0xFFFFFFFFFFFFFFFF DUP2 GT ISZERO PUSH2 0x2D37 JUMPI PUSH2 0x2D36 PUSH2 0x2580 JUMP JUMPDEST JUMPDEST PUSH2 0x2D43 DUP5 DUP3 DUP6 ADD PUSH2 0x2CD5 JUMP JUMPDEST SWAP2 POP POP SWAP3 SWAP2 POP POP JUMP JUMPDEST PUSH32 0x4E487B7100000000000000000000000000000000000000000000000000000000 PUSH1 0x0 MSTORE PUSH1 0x22 PUSH1 0x4 MSTORE PUSH1 0x24 PUSH1 0x0 REVERT JUMPDEST PUSH1 0x0 PUSH1 0x2 DUP3 DIV SWAP1 POP PUSH1 0x1 DUP3 AND DUP1 PUSH2 0x2D93 JUMPI PUSH1 0x7F DUP3 AND SWAP2 POP JUMPDEST PUSH1 0x20 DUP3 LT DUP2 SUB PUSH2 0x2DA6 JUMPI PUSH2 0x2DA5 PUSH2 0x2D4C JUMP JUMPDEST JUMPDEST POP SWAP2 SWAP1 POP JUMP JUMPDEST PUSH32 0x4552433732313A20617070726F76616C20746F2063757272656E74206F776E65 PUSH1 0x0 DUP3 ADD MSTORE PUSH32 0x7200000000000000000000000000000000000000000000000000000000000000 PUSH1 0x20 DUP3 ADD MSTORE POP JUMP JUMPDEST PUSH1 0x0 PUSH2 0x2E08 PUSH1 0x21 DUP4 PUSH2 0x264B JUMP JUMPDEST SWAP2 POP PUSH2 0x2E13 DUP3 PUSH2 0x2DAC JUMP JUMPDEST PUSH1 0x40 DUP3 ADD SWAP1 POP SWAP2 SWAP1 POP JUMP JUMPDEST PUSH1 0x0 PUSH1 0x20 DUP3 ADD SWAP1 POP DUP2 DUP2 SUB PUSH1 0x0 DUP4 ADD MSTORE PUSH2 0x2E37 DUP2 PUSH2 0x2DFB JUMP JUMPDEST SWAP1 POP SWAP2 SWAP1 POP JUMP JUMPDEST PUSH32 0x4552433732313A20617070726F76652063616C6C6572206973206E6F7420746F PUSH1 0x0 DUP3 ADD MSTORE PUSH32 0x6B656E206F776E6572206F7220617070726F76656420666F7220616C6C000000 PUSH1 0x20 DUP3 ADD MSTORE POP JUMP JUMPDEST PUSH1 0x0 PUSH2 0x2E9A PUSH1 0x3D DUP4 PUSH2 0x264B JUMP JUMPDEST SWAP2 POP PUSH2 0x2EA5 DUP3 PUSH2 0x2E3E JUMP JUMPDEST PUSH1 0x40 DUP3 ADD SWAP1 POP SWAP2 SWAP1 POP JUMP JUMPDEST PUSH1 0x0 PUSH1 0x20 DUP3 ADD SWAP1 POP DUP2 DUP2 SUB PUSH1 0x0 DUP4 ADD MSTORE PUSH2 0x2EC9 DUP2 PUSH2 0x2E8D JUMP JUMPDEST SWAP1 POP SWAP2 SWAP1 POP JUMP JUMPDEST PUSH32 0x4552433732313A2063616C6C6572206973206E6F7420746F6B656E206F776E65 PUSH1 0x0 DUP3 ADD MSTORE PUSH32 0x72206F7220617070726F76656400000000000000000000000000000000000000 PUSH1 0x20 DUP3 ADD MSTORE POP JUMP JUMPDEST PUSH1 0x0 PUSH2 0x2F2C PUSH1 0x2D DUP4 PUSH2 0x264B JUMP JUMPDEST SWAP2 POP PUSH2 0x2F37 DUP3 PUSH2 0x2ED0 JUMP JUMPDEST PUSH1 0x40 DUP3 ADD SWAP1 POP SWAP2 SWAP1 POP JUMP JUMPDEST PUSH1 0x0 PUSH1 0x20 DUP3 ADD SWAP1 POP DUP2 DUP2 SUB PUSH1 0x0 DUP4 ADD MSTORE PUSH2 0x2F5B DUP2 PUSH2 0x2F1F JUMP JUMPDEST SWAP1 POP SWAP2 SWAP1 POP JUMP JUMPDEST PUSH1 0x0 DUP2 SWAP1 POP SWAP3 SWAP2 POP POP JUMP JUMPDEST POP JUMP JUMPDEST PUSH1 0x0 PUSH2 0x2F7D PUSH1 0x0 DUP4 PUSH2 0x2F62 JUMP JUMPDEST SWAP2 POP PUSH2 0x2F88 DUP3 PUSH2 0x2F6D JUMP JUMPDEST PUSH1 0x0 DUP3 ADD SWAP1 POP SWAP2 SWAP1 POP JUMP JUMPDEST PUSH1 0x0 PUSH2 0x2F9E DUP3 PUSH2 0x2F70 JUMP JUMPDEST SWAP2 POP DUP2 SWAP1 POP SWAP2 SWAP1 POP JUMP JUMPDEST PUSH32 0x4552433732313A20696E76616C696420746F6B656E2049440000000000000000 PUSH1 0x0 DUP3 ADD MSTORE POP JUMP JUMPDEST PUSH1 0x0 PUSH2 0x2FDE PUSH1 0x18 DUP4 PUSH2 0x264B JUMP JUMPDEST SWAP2 POP PUSH2 0x2FE9 DUP3 PUSH2 0x2FA8 JUMP JUMPDEST PUSH1 0x20 DUP3 ADD SWAP1 POP SWAP2 SWAP1 POP JUMP JUMPDEST PUSH1 0x0 PUSH1 0x20 DUP3 ADD SWAP1 POP DUP2 DUP2 SUB PUSH1 0x0 DUP4 ADD MSTORE PUSH2 0x300D DUP2 PUSH2 0x2FD1 JUMP JUMPDEST SWAP1 POP SWAP2 SWAP1 POP JUMP JUMPDEST PUSH32 0x4552433732313A2061646472657373207A65726F206973206E6F742061207661 PUSH1 0x0 DUP3 ADD MSTORE PUSH32 0x6C6964206F776E65720000000000000000000000000000000000000000000000 PUSH1 0x20 DUP3 ADD MSTORE POP JUMP JUMPDEST PUSH1 0x0 PUSH2 0x3070 PUSH1 0x29 DUP4 PUSH2 0x264B JUMP JUMPDEST SWAP2 POP PUSH2 0x307B DUP3 PUSH2 0x3014 JUMP JUMPDEST PUSH1 0x40 DUP3 ADD SWAP1 POP SWAP2 SWAP1 POP JUMP JUMPDEST PUSH1 0x0 PUSH1 0x20 DUP3 ADD SWAP1 POP DUP2 DUP2 SUB PUSH1 0x0 DUP4 ADD MSTORE PUSH2 0x309F DUP2 PUSH2 0x3063 JUMP JUMPDEST SWAP1 POP SWAP2 SWAP1 POP JUMP JUMPDEST PUSH32 0x4E487B7100000000000000000000000000000000000000000000000000000000 PUSH1 0x0 MSTORE PUSH1 0x32 PUSH1 0x4 MSTORE PUSH1 0x24 PUSH1 0x0 REVERT JUMPDEST PUSH1 0x0 PUSH8 0xFFFFFFFFFFFFFFFF DUP3 AND SWAP1 POP SWAP2 SWAP1 POP JUMP JUMPDEST PUSH2 0x30F2 DUP2 PUSH2 0x30D5 JUMP JUMPDEST DUP2 EQ PUSH2 0x30FD JUMPI PUSH1 0x0 DUP1 REVERT JUMPDEST POP JUMP JUMPDEST PUSH1 0x0 DUP2 CALLDATALOAD SWAP1 POP PUSH2 0x310F DUP2 PUSH2 0x30E9 JUMP JUMPDEST SWAP3 SWAP2 POP POP JUMP JUMPDEST PUSH1 0x0 PUSH1 0x20 DUP3 DUP5 SUB SLT ISZERO PUSH2 0x312B JUMPI PUSH2 0x312A PUSH2 0x257B JUMP JUMPDEST JUMPDEST PUSH1 0x0 PUSH2 0x3139 DUP5 DUP3 DUP6 ADD PUSH2 0x3100 JUMP JUMPDEST SWAP2 POP POP SWAP3 SWAP2 POP POP JUMP JUMPDEST PUSH32 0x4E487B7100000000000000000000000000000000000000000000000000000000 PUSH1 0x0 MSTORE PUSH1 0x11 PUSH1 0x4 MSTORE PUSH1 0x24 PUSH1 0x0 REVERT JUMPDEST PUSH1 0x0 PUSH2 0x317C DUP3 PUSH2 0x30D5 JUMP JUMPDEST SWAP2 POP PUSH2 0x3187 DUP4 PUSH2 0x30D5 JUMP JUMPDEST SWAP3 POP DUP3 DUP3 ADD SWAP1 POP PUSH8 0xFFFFFFFFFFFFFFFF DUP2 GT ISZERO PUSH2 0x31A7 JUMPI PUSH2 0x31A6 PUSH2 0x3142 JUMP JUMPDEST JUMPDEST SWAP3 SWAP2 POP POP JUMP JUMPDEST PUSH1 0x0 PUSH2 0x31B8 DUP3 PUSH2 0x26F2 JUMP JUMPDEST SWAP2 POP PUSH2 0x31C3 DUP4 PUSH2 0x26F2 JUMP JUMPDEST SWAP3 POP DUP3 DUP3 ADD SWAP1 POP DUP1 DUP3 GT ISZERO PUSH2 0x31DB JUMPI PUSH2 0x31DA PUSH2 0x3142 JUMP JUMPDEST JUMPDEST SWAP3 SWAP2 POP POP JUMP JUMPDEST PUSH1 0x0 PUSH1 0x40 DUP3 ADD SWAP1 POP PUSH2 0x31F6 PUSH1 0x0 DUP4 ADD DUP6 PUSH2 0x2870 JUMP JUMPDEST PUSH2 0x3203 PUSH1 0x20 DUP4 ADD DUP5 PUSH2 0x2870 JUMP JUMPDEST SWAP4 SWAP3 POP POP POP JUMP JUMPDEST PUSH1 0x0 PUSH1 0x40 DUP3 ADD SWAP1 POP PUSH2 0x321F PUSH1 0x0 DUP4 ADD DUP6 PUSH2 0x2870 JUMP JUMPDEST PUSH2 0x322C PUSH1 0x20 DUP4 ADD DUP5 PUSH2 0x2787 JUMP JUMPDEST SWAP4 SWAP3 POP POP POP JUMP JUMPDEST PUSH1 0x0 DUP2 SWAP1 POP SWAP3 SWAP2 POP POP JUMP JUMPDEST PUSH1 0x0 PUSH2 0x3249 DUP3 PUSH2 0x2640 JUMP JUMPDEST PUSH2 0x3253 DUP2 DUP6 PUSH2 0x3233 JUMP JUMPDEST SWAP4 POP PUSH2 0x3263 DUP2 DUP6 PUSH1 0x20 DUP7 ADD PUSH2 0x265C JUMP JUMPDEST DUP1 DUP5 ADD SWAP2 POP POP SWAP3 SWAP2 POP POP JUMP JUMPDEST PUSH1 0x0 DUP2 SWAP1 POP DUP2 PUSH1 0x0 MSTORE PUSH1 0x20 PUSH1 0x0 KECCAK256 SWAP1 POP SWAP2 SWAP1 POP JUMP JUMPDEST PUSH1 0x0 DUP2 SLOAD PUSH2 0x3291 DUP2 PUSH2 0x2D7B JUMP JUMPDEST PUSH2 0x329B DUP2 DUP7 PUSH2 0x3233 JUMP JUMPDEST SWAP5 POP PUSH1 0x1 DUP3 AND PUSH1 0x0 DUP2 EQ PUSH2 0x32B6 JUMPI PUSH1 0x1 DUP2 EQ PUSH2 0x32CB JUMPI PUSH2 0x32FE JUMP JUMPDEST PUSH1 0xFF NOT DUP4 AND DUP7 MSTORE DUP2 ISZERO ISZERO DUP3 MUL DUP7 ADD SWAP4 POP PUSH2 0x32FE JUMP JUMPDEST PUSH2 0x32D4 DUP6 PUSH2 0x326F JUMP JUMPDEST PUSH1 0x0 JUMPDEST DUP4 DUP2 LT ISZERO PUSH2 0x32F6 JUMPI DUP2 SLOAD DUP2 DUP10 ADD MSTORE PUSH1 0x1 DUP3 ADD SWAP2 POP PUSH1 0x20 DUP2 ADD SWAP1 POP PUSH2 0x32D7 JUMP JUMPDEST DUP4 DUP9 ADD SWAP6 POP POP POP JUMPDEST POP POP POP SWAP3 SWAP2 POP POP JUMP JUMPDEST PUSH1 0x0 PUSH2 0x3313 DUP3 DUP7 PUSH2 0x323E JUMP JUMPDEST SWAP2 POP PUSH2 0x331F DUP3 DUP6 PUSH2 0x323E JUMP JUMPDEST SWAP2 POP PUSH2 0x332B DUP3 DUP5 PUSH2 0x3284 JUMP JUMPDEST SWAP2 POP DUP2 SWAP1 POP SWAP5 SWAP4 POP POP POP POP JUMP JUMPDEST PUSH1 0x0 PUSH1 0x20 PUSH1 0x1F DUP4 ADD DIV SWAP1 POP SWAP2 SWAP1 POP JUMP JUMPDEST PUSH1 0x0 DUP3 DUP3 SHL SWAP1 POP SWAP3 SWAP2 POP POP JUMP JUMPDEST PUSH1 0x0 PUSH1 0x8 DUP4 MUL PUSH2 0x3385 PUSH32 0xFFFFFFFFFFFFFFFFFFFFFFFFFFFFFFFFFFFFFFFFFFFFFFFFFFFFFFFFFFFFFFFF DUP3 PUSH2 0x3348 JUMP JUMPDEST PUSH2 0x338F DUP7 DUP4 PUSH2 0x3348 JUMP JUMPDEST SWAP6 POP DUP1 NOT DUP5 AND SWAP4 POP DUP1 DUP7 AND DUP5 OR SWAP3 POP POP POP SWAP4 SWAP3 POP POP POP JUMP JUMPDEST PUSH1 0x0 DUP2 SWAP1 POP SWAP2 SWAP1 POP JUMP JUMPDEST PUSH1 0x0 PUSH2 0x33CC PUSH2 0x33C7 PUSH2 0x33C2 DUP5 PUSH2 0x26F2 JUMP JUMPDEST PUSH2 0x33A7 JUMP JUMPDEST PUSH2 0x26F2 JUMP JUMPDEST SWAP1 POP SWAP2 SWAP1 POP JUMP JUMPDEST PUSH1 0x0 DUP2 SWAP1 POP SWAP2 SWAP1 POP JUMP JUMPDEST PUSH2 0x33E6 DUP4 PUSH2 0x33B1 JUMP JUMPDEST PUSH2 0x33FA PUSH2 0x33F2 DUP3 PUSH2 0x33D3 JUMP JUMPDEST DUP5 DUP5 SLOAD PUSH2 0x3355 JUMP JUMPDEST DUP3 SSTORE POP POP POP POP JUMP JUMPDEST PUSH1 0x0 SWAP1 JUMP JUMPDEST PUSH2 0x340F PUSH2 0x3402 JUMP JUMPDEST PUSH2 0x341A DUP2 DUP5 DUP5 PUSH2 0x33DD JUMP JUMPDEST POP POP POP JUMP JUMPDEST JUMPDEST DUP2 DUP2 LT ISZERO PUSH2 0x343E JUMPI PUSH2 0x3433 PUSH1 0x0 DUP3 PUSH2 0x3407 JUMP JUMPDEST PUSH1 0x1 DUP2 ADD SWAP1 POP PUSH2 0x3420 JUMP JUMPDEST POP POP JUMP JUMPDEST PUSH1 0x1F DUP3 GT ISZERO PUSH2 0x3483 JUMPI PUSH2 0x3454 DUP2 PUSH2 0x326F JUMP JUMPDEST PUSH2 0x345D DUP5 PUSH2 0x3338 JUMP JUMPDEST DUP2 ADD PUSH1 0x20 DUP6 LT ISZERO PUSH2 0x346C JUMPI DUP2 SWAP1 POP JUMPDEST PUSH2 0x3480 PUSH2 0x3478 DUP6 PUSH2 0x3338 JUMP JUMPDEST DUP4 ADD DUP3 PUSH2 0x341F JUMP JUMPDEST POP POP JUMPDEST POP POP POP JUMP JUMPDEST PUSH1 0x0 DUP3 DUP3 SHR SWAP1 POP SWAP3 SWAP2 POP POP JUMP JUMPDEST PUSH1 0x0 PUSH2 0x34A6 PUSH1 0x0 NOT DUP5 PUSH1 0x8 MUL PUSH2 0x3488 JUMP JUMPDEST NOT DUP1 DUP4 AND SWAP2 POP POP SWAP3 SWAP2 POP POP JUMP JUMPDEST PUSH1 0x0 PUSH2 0x34BF DUP4 DUP4 PUSH2 0x3495 JUMP JUMPDEST SWAP2 POP DUP3 PUSH1 0x2 MUL DUP3 OR SWAP1 POP SWAP3 SWAP2 POP POP JUMP JUMPDEST PUSH2 0x34D8 DUP3 PUSH2 0x2640 JUMP JUMPDEST PUSH8 0xFFFFFFFFFFFFFFFF DUP2 GT ISZERO PUSH2 0x34F1 JUMPI PUSH2 0x34F0 PUSH2 0x2A74 JUMP JUMPDEST JUMPDEST PUSH2 0x34FB DUP3 SLOAD PUSH2 0x2D7B JUMP JUMPDEST PUSH2 0x3506 DUP3 DUP3 DUP6 PUSH2 0x3442 JUMP JUMPDEST PUSH1 0x0 PUSH1 0x20 SWAP1 POP PUSH1 0x1F DUP4 GT PUSH1 0x1 DUP2 EQ PUSH2 0x3539 JUMPI PUSH1 0x0 DUP5 ISZERO PUSH2 0x3527 JUMPI DUP3 DUP8 ADD MLOAD SWAP1 POP JUMPDEST PUSH2 0x3531 DUP6 DUP3 PUSH2 0x34B3 JUMP JUMPDEST DUP7 SSTORE POP PUSH2 0x3599 JUMP JUMPDEST PUSH1 0x1F NOT DUP5 AND PUSH2 0x3547 DUP7 PUSH2 0x326F JUMP JUMPDEST PUSH1 0x0 JUMPDEST DUP3 DUP2 LT ISZERO PUSH2 0x356F JUMPI DUP5 DUP10 ADD MLOAD DUP3 SSTORE PUSH1 0x1 DUP3 ADD SWAP2 POP PUSH1 0x20 DUP6 ADD SWAP5 POP PUSH1 0x20 DUP2 ADD SWAP1 POP PUSH2 0x354A JUMP JUMPDEST DUP7 DUP4 LT ISZERO PUSH2 0x358C JUMPI DUP5 DUP10 ADD MLOAD PUSH2 0x3588 PUSH1 0x1F DUP10 AND DUP3 PUSH2 0x3495 JUMP JUMPDEST DUP4 SSTORE POP JUMPDEST PUSH1 0x1 PUSH1 0x2 DUP9 MUL ADD DUP9 SSTORE POP POP POP JUMPDEST POP POP POP POP POP POP JUMP JUMPDEST PUSH32 0x4F776E61626C653A206E6577206F776E657220697320746865207A65726F2061 PUSH1 0x0 DUP3 ADD MSTORE PUSH32 0x6464726573730000000000000000000000000000000000000000000000000000 PUSH1 0x20 DUP3 ADD MSTORE POP JUMP JUMPDEST PUSH1 0x0 PUSH2 0x35FD PUSH1 0x26 DUP4 PUSH2 0x264B JUMP JUMPDEST SWAP2 POP PUSH2 0x3608 DUP3 PUSH2 0x35A1 JUMP JUMPDEST PUSH1 0x40 DUP3 ADD SWAP1 POP SWAP2 SWAP1 POP JUMP JUMPDEST PUSH1 0x0 PUSH1 0x20 DUP3 ADD SWAP1 POP DUP2 DUP2 SUB PUSH1 0x0 DUP4 ADD MSTORE PUSH2 0x362C DUP2 PUSH2 0x35F0 JUMP JUMPDEST SWAP1 POP SWAP2 SWAP1 POP JUMP JUMPDEST PUSH32 0x4552433732313A207472616E736665722066726F6D20696E636F727265637420 PUSH1 0x0 DUP3 ADD MSTORE PUSH32 0x6F776E6572000000000000000000000000000000000000000000000000000000 PUSH1 0x20 DUP3 ADD MSTORE POP JUMP JUMPDEST PUSH1 0x0 PUSH2 0x368F PUSH1 0x25 DUP4 PUSH2 0x264B JUMP JUMPDEST SWAP2 POP PUSH2 0x369A DUP3 PUSH2 0x3633 JUMP JUMPDEST PUSH1 0x40 DUP3 ADD SWAP1 POP SWAP2 SWAP1 POP JUMP JUMPDEST PUSH1 0x0 PUSH1 0x20 DUP3 ADD SWAP1 POP DUP2 DUP2 SUB PUSH1 0x0 DUP4 ADD MSTORE PUSH2 0x36BE DUP2 PUSH2 0x3682 JUMP JUMPDEST SWAP1 POP SWAP2 SWAP1 POP JUMP JUMPDEST PUSH32 0x4552433732313A207472616E7366657220746F20746865207A65726F20616464 PUSH1 0x0 DUP3 ADD MSTORE PUSH32 0x7265737300000000000000000000000000000000000000000000000000000000 PUSH1 0x20 DUP3 ADD MSTORE POP JUMP JUMPDEST PUSH1 0x0 PUSH2 0x3721 PUSH1 0x24 DUP4 PUSH2 0x264B JUMP JUMPDEST SWAP2 POP PUSH2 0x372C DUP3 PUSH2 0x36C5 JUMP JUMPDEST PUSH1 0x40 DUP3 ADD SWAP1 POP SWAP2 SWAP1 POP JUMP JUMPDEST PUSH1 0x0 PUSH1 0x20 DUP3 ADD SWAP1 POP DUP2 DUP2 SUB PUSH1 0x0 DUP4 ADD MSTORE PUSH2 0x3750 DUP2 PUSH2 0x3714 JUMP JUMPDEST SWAP1 POP SWAP2 SWAP1 POP JUMP JUMPDEST PUSH32 0x4F776E61626C653A2063616C6C6572206973206E6F7420746865206F776E6572 PUSH1 0x0 DUP3 ADD MSTORE POP JUMP JUMPDEST PUSH1 0x0 PUSH2 0x378D PUSH1 0x20 DUP4 PUSH2 0x264B JUMP JUMPDEST SWAP2 POP PUSH2 0x3798 DUP3 PUSH2 0x3757 JUMP JUMPDEST PUSH1 0x20 DUP3 ADD SWAP1 POP SWAP2 SWAP1 POP JUMP JUMPDEST PUSH1 0x0 PUSH1 0x20 DUP3 ADD SWAP1 POP DUP2 DUP2 SUB PUSH1 0x0 DUP4 ADD MSTORE PUSH2 0x37BC DUP2 PUSH2 0x3780 JUMP JUMPDEST SWAP1 POP SWAP2 SWAP1 POP JUMP JUMPDEST PUSH32 0x4552433732313A20617070726F766520746F2063616C6C657200000000000000 PUSH1 0x0 DUP3 ADD MSTORE POP JUMP JUMPDEST PUSH1 0x0 PUSH2 0x37F9 PUSH1 0x19 DUP4 PUSH2 0x264B JUMP JUMPDEST SWAP2 POP PUSH2 0x3804 DUP3 PUSH2 0x37C3 JUMP JUMPDEST PUSH1 0x20 DUP3 ADD SWAP1 POP SWAP2 SWAP1 POP JUMP JUMPDEST PUSH1 0x0 PUSH1 0x20 DUP3 ADD SWAP1 POP DUP2 DUP2 SUB PUSH1 0x0 DUP4 ADD MSTORE PUSH2 0x3828 DUP2 PUSH2 0x37EC JUMP JUMPDEST SWAP1 POP SWAP2 SWAP1 POP JUMP JUMPDEST PUSH32 0x4552433732313A207472616E7366657220746F206E6F6E204552433732315265 PUSH1 0x0 DUP3 ADD MSTORE PUSH32 0x63656976657220696D706C656D656E7465720000000000000000000000000000 PUSH1 0x20 DUP3 ADD MSTORE POP JUMP JUMPDEST PUSH1 0x0 PUSH2 0x388B PUSH1 0x32 DUP4 PUSH2 0x264B JUMP JUMPDEST SWAP2 POP PUSH2 0x3896 DUP3 PUSH2 0x382F JUMP JUMPDEST PUSH1 0x40 DUP3 ADD SWAP1 POP SWAP2 SWAP1 POP JUMP JUMPDEST PUSH1 0x0 PUSH1 0x20 DUP3 ADD SWAP1 POP DUP2 DUP2 SUB PUSH1 0x0 DUP4 ADD MSTORE PUSH2 0x38BA DUP2 PUSH2 0x387E JUMP JUMPDEST SWAP1 POP SWAP2 SWAP1 POP JUMP JUMPDEST PUSH32 0x4E487B7100000000000000000000000000000000000000000000000000000000 PUSH1 0x0 MSTORE PUSH1 0x12 PUSH1 0x4 MSTORE PUSH1 0x24 PUSH1 0x0 REVERT JUMPDEST PUSH1 0x0 DUP2 MLOAD SWAP1 POP SWAP2 SWAP1 POP JUMP JUMPDEST PUSH1 0x0 DUP3 DUP3 MSTORE PUSH1 0x20 DUP3 ADD SWAP1 POP SWAP3 SWAP2 POP POP JUMP JUMPDEST PUSH1 0x0 PUSH2 0x3917 DUP3 PUSH2 0x38F0 JUMP JUMPDEST PUSH2 0x3921 DUP2 DUP6 PUSH2 0x38FB JUMP JUMPDEST SWAP4 POP PUSH2 0x3931 DUP2 DUP6 PUSH1 0x20 DUP7 ADD PUSH2 0x265C JUMP JUMPDEST PUSH2 0x393A DUP2 PUSH2 0x2686 JUMP JUMPDEST DUP5 ADD SWAP2 POP POP SWAP3 SWAP2 POP POP JUMP JUMPDEST PUSH1 0x0 PUSH1 0x80 DUP3 ADD SWAP1 POP PUSH2 0x395A PUSH1 0x0 DUP4 ADD DUP8 PUSH2 0x2787 JUMP JUMPDEST PUSH2 0x3967 PUSH1 0x20 DUP4 ADD DUP7 PUSH2 0x2787 JUMP JUMPDEST PUSH2 0x3974 PUSH1 0x40 DUP4 ADD DUP6 PUSH2 0x2870 JUMP JUMPDEST DUP2 DUP2 SUB PUSH1 0x60 DUP4 ADD MSTORE PUSH2 0x3986 DUP2 DUP5 PUSH2 0x390C JUMP JUMPDEST SWAP1 POP SWAP6 SWAP5 POP POP POP POP POP JUMP JUMPDEST PUSH1 0x0 DUP2 MLOAD SWAP1 POP PUSH2 0x39A0 DUP2 PUSH2 0x25B1 JUMP JUMPDEST SWAP3 SWAP2 POP POP JUMP JUMPDEST PUSH1 0x0 PUSH1 0x20 DUP3 DUP5 SUB SLT ISZERO PUSH2 0x39BC JUMPI PUSH2 0x39BB PUSH2 0x257B JUMP JUMPDEST JUMPDEST PUSH1 0x0 PUSH2 0x39CA DUP5 DUP3 DUP6 ADD PUSH2 0x3991 JUMP JUMPDEST SWAP2 POP POP SWAP3 SWAP2 POP POP JUMP JUMPDEST PUSH32 0x4552433732313A206D696E7420746F20746865207A65726F2061646472657373 PUSH1 0x0 DUP3 ADD MSTORE POP JUMP JUMPDEST PUSH1 0x0 PUSH2 0x3A09 PUSH1 0x20 DUP4 PUSH2 0x264B JUMP JUMPDEST SWAP2 POP PUSH2 0x3A14 DUP3 PUSH2 0x39D3 JUMP JUMPDEST PUSH1 0x20 DUP3 ADD SWAP1 POP SWAP2 SWAP1 POP JUMP JUMPDEST PUSH1 0x0 PUSH1 0x20 DUP3 ADD SWAP1 POP DUP2 DUP2 SUB PUSH1 0x0 DUP4 ADD MSTORE PUSH2 0x3A38 DUP2 PUSH2 0x39FC JUMP JUMPDEST SWAP1 POP SWAP2 SWAP1 POP JUMP JUMPDEST PUSH32 0x4552433732313A20746F6B656E20616C7265616479206D696E74656400000000 PUSH1 0x0 DUP3 ADD MSTORE POP JUMP JUMPDEST PUSH1 0x0 PUSH2 0x3A75 PUSH1 0x1C DUP4 PUSH2 0x264B JUMP JUMPDEST SWAP2 POP PUSH2 0x3A80 DUP3 PUSH2 0x3A3F JUMP JUMPDEST PUSH1 0x20 DUP3 ADD SWAP1 POP SWAP2 SWAP1 POP JUMP JUMPDEST PUSH1 0x0 PUSH1 0x20 DUP3 ADD SWAP1 POP DUP2 DUP2 SUB PUSH1 0x0 DUP4 ADD MSTORE PUSH2 0x3AA4 DUP2 PUSH2 0x3A68 JUMP JUMPDEST SWAP1 POP SWAP2 SWAP1 POP JUMP INVALID LOG2 PUSH5 0x6970667358 0x22 SLT KECCAK256 0xC6 PUSH26 0x40D67F793ADD0A9E16305DD7153FADAE080676B5E56750802219 0xE 0xF7 0x22 0xA9 PUSH5 0x736F6C6343 STOP ADDMOD SLT STOP CALLER "},"gasEstimates":{"creation":{"codeDepositCost":"3014600","executionCost":"infinite","totalCost":"infinite"},"external":{"airdropToken(uint64[],address[])":"infinite","approve(address,uint256)":"infinite","balanceOf(address)":"2987","baseExtension()":"infinite","baseURI()":"infinite","getApproved(uint256)":"5323","getInitialized()":"2545","getMintFee()":"infinite","getTokenCounter()":"2568","isApprovedForAll(address,address)":"infinite","mintNft()":"infinite","name()":"infinite","notRevealedUri()":"infinite","owner()":"2567","ownerOf(uint256)":"3044","paused()":"2611","renounceOwnership()":"30444","revealed()":"2589","safeTransferFrom(address,address,uint256)":"infinite","safeTransferFrom(address,address,uint256,bytes)":"infinite","setApprovalForAll(address,bool)":"infinite","setNotRevealedURI(string)":"infinite","supportsInterface(bytes4)":"915","symbol()":"infinite","tokenURI(uint256)":"infinite","transferFrom(address,address,uint256)":"infinite","transferOwnership(address)":"30854","withdraw()":"infinite"},"internal":{"_baseURI(uint256)":"infinite","_initializeContract(string memory[10] memory)":"infinite"}},"methodIdentifiers":{"airdropToken(uint64[],address[])":"8d22a5ce","approve(address,uint256)":"095ea7b3","balanceOf(address)":"70a08231","baseExtension()":"c6682862","baseURI()":"6c0360eb","getApproved(uint256)":"081812fc","getInitialized()":"ee89dab4","getMintFee()":"7a5caab3","getTokenCounter()":"6e02007d","isApprovedForAll(address,address)":"e985e9c5","mintNft()":"c2229fea","name()":"06fdde03","notRevealedUri()":"081c8c44","owner()":"8da5cb5b","ownerOf(uint256)":"6352211e","paused()":"5c975abb","renounceOwnership()":"715018a6","revealed()":"51830227","safeTransferFrom(address,address,uint256)":"42842e0e","safeTransferFrom(address,address,uint256,bytes)":"b88d4fde","setApprovalForAll(address,bool)":"a22cb465","setNotRevealedURI(string)":"f2c4ce1e","supportsInterface(bytes4)":"01ffc9a7","symbol()":"95d89b41","tokenURI(uint256)":"c87b56dd","transferFrom(address,address,uint256)":"23b872dd","transferOwnership(address)":"f2fde38b","withdraw()":"3ccfd60b"}},"storageLayout":{"storage":[{"astId":166,"contract":"contracts/test/WarriorNft.sol:WarriorNft","label":"_name","offset":0,"slot":"0","type":"t_string_storage"},{"astId":168,"contract":"contracts/test/WarriorNft.sol:WarriorNft","label":"_symbol","offset":0,"slot":"1","type":"t_string_storage"},{"astId":172,"contract":"contracts/test/WarriorNft.sol:WarriorNft","label":"_owners","offset":0,"slot":"2","type":"t_mapping(t_uint256,t_address)"},{"astId":176,"contract":"contracts/test/WarriorNft.sol:WarriorNft","label":"_balances","offset":0,"slot":"3","type":"t_mapping(t_address,t_uint256)"},{"astId":180,"contract":"contracts/test/WarriorNft.sol:WarriorNft","label":"_tokenApprovals","offset":0,"slot":"4","type":"t_mapping(t_uint256,t_address)"},{"astId":186,"contract":"contracts/test/WarriorNft.sol:WarriorNft","label":"_operatorApprovals","offset":0,"slot":"5","type":"t_mapping(t_address,t_mapping(t_address,t_bool))"},{"astId":1571,"contract":"contracts/test/WarriorNft.sol:WarriorNft","label":"_tokenURIs","offset":0,"slot":"6","type":"t_mapping(t_uint256,t_string_storage)"},{"astId":7,"contract":"contracts/test/WarriorNft.sol:WarriorNft","label":"_owner","offset":0,"slot":"7","type":"t_address"},{"astId":3810,"contract":"contracts/test/WarriorNft.sol:WarriorNft","label":"baseURI","offset":0,"slot":"8","type":"t_string_storage"},{"astId":3813,"contract":"contracts/test/WarriorNft.sol:WarriorNft","label":"baseExtension","offset":0,"slot":"9","type":"t_string_storage"},{"astId":3817,"contract":"contracts/test/WarriorNft.sol:WarriorNft","label":"s_tokenCounter","offset":0,"slot":"10","type":"t_uint64"},{"astId":3825,"contract":"contracts/test/WarriorNft.sol:WarriorNft","label":"s_genTokenUris","offset":0,"slot":"11","type":"t_array(t_string_storage)dyn_storage"},{"astId":3827,"contract":"contracts/test/WarriorNft.sol:WarriorNft","label":"s_initialized","offset":0,"slot":"12","type":"t_bool"},{"astId":3830,"contract":"contracts/test/WarriorNft.sol:WarriorNft","label":"paused","offset":1,"slot":"12","type":"t_bool"},{"astId":3833,"contract":"contracts/test/WarriorNft.sol:WarriorNft","label":"revealed","offset":2,"slot":"12","type":"t_bool"},{"astId":3835,"contract":"contracts/test/WarriorNft.sol:WarriorNft","label":"notRevealedUri","offset":0,"slot":"13","type":"t_string_storage"}],"types":{"t_address":{"encoding":"inplace","label":"address","numberOfBytes":"20"},"t_array(t_string_storage)dyn_storage":{"base":"t_string_storage","encoding":"dynamic_array","label":"string[]","numberOfBytes":"32"},"t_bool":{"encoding":"inplace","label":"bool","numberOfBytes":"1"},"t_mapping(t_address,t_bool)":{"encoding":"mapping","key":"t_address","label":"mapping(address => bool)","numberOfBytes":"32","value":"t_bool"},"t_mapping(t_address,t_mapping(t_address,t_bool))":{"encoding":"mapping","key":"t_address","label":"mapping(address => mapping(address => bool))","numberOfBytes":"32","value":"t_mapping(t_address,t_bool)"},"t_mapping(t_address,t_uint256)":{"encoding":"mapping","key":"t_address","label":"mapping(address => uint256)","numberOfBytes":"32","value":"t_uint256"},"t_mapping(t_uint256,t_address)":{"encoding":"mapping","key":"t_uint256","label":"mapping(uint256 => address)","numberOfBytes":"32","value":"t_address"},"t_mapping(t_uint256,t_string_storage)":{"encoding":"mapping","key":"t_uint256","label":"mapping(uint256 => string)","numberOfBytes":"32","value":"t_string_storage"},"t_string_storage":{"encoding":"bytes","label":"string","numberOfBytes":"32"},"t_uint256":{"encoding":"inplace","label":"uint256","numberOfBytes":"32"},"t_uint64":{"encoding":"inplace","label":"uint64","numberOfBytes":"8"}}},"userdoc":{"kind":"user","methods":{},"version":1}}}}