{"contracts/test/DragonNft.sol":{"DragonNft":{"abi":[{"inputs":[{"internalType":"string","name":"_name","type":"string"},{"internalType":"string","name":"_symbol","type":"string"},{"internalType":"string","name":"_initBaseURI","type":"string"},{"internalType":"string","name":"_initNotRevealedUri","type":"string"}],"stateMutability":"nonpayable","type":"constructor"},{"anonymous":false,"inputs":[{"indexed":true,"internalType":"address","name":"owner","type":"address"},{"indexed":true,"internalType":"address","name":"approved","type":"address"},{"indexed":true,"internalType":"uint256","name":"tokenId","type":"uint256"}],"name":"Approval","type":"event"},{"anonymous":false,"inputs":[{"indexed":true,"internalType":"address","name":"owner","type":"address"},{"indexed":true,"internalType":"address","name":"operator","type":"address"},{"indexed":false,"internalType":"bool","name":"approved","type":"bool"}],"name":"ApprovalForAll","type":"event"},{"anonymous":false,"inputs":[{"indexed":true,"internalType":"address","name":"previousOwner","type":"address"},{"indexed":true,"internalType":"address","name":"newOwner","type":"address"}],"name":"OwnershipTransferred","type":"event"},{"anonymous":false,"inputs":[{"indexed":true,"internalType":"address","name":"from","type":"address"},{"indexed":true,"internalType":"address","name":"to","type":"address"},{"indexed":true,"internalType":"uint256","name":"tokenId","type":"uint256"}],"name":"Transfer","type":"event"},{"inputs":[{"internalType":"address","name":"to","type":"address"},{"internalType":"uint256","name":"tokenId","type":"uint256"}],"name":"approve","outputs":[],"stateMutability":"nonpayable","type":"function"},{"inputs":[{"internalType":"address","name":"owner","type":"address"}],"name":"balanceOf","outputs":[{"internalType":"uint256","name":"","type":"uint256"}],"stateMutability":"view","type":"function"},{"inputs":[],"name":"baseExtension","outputs":[{"internalType":"string","name":"","type":"string"}],"stateMutability":"view","type":"function"},{"inputs":[],"name":"baseURI","outputs":[{"internalType":"string","name":"","type":"string"}],"stateMutability":"view","type":"function"},{"inputs":[],"name":"cost","outputs":[{"internalType":"uint256","name":"","type":"uint256"}],"stateMutability":"view","type":"function"},{"inputs":[{"internalType":"uint256","name":"tokenId","type":"uint256"}],"name":"getApproved","outputs":[{"internalType":"address","name":"","type":"address"}],"stateMutability":"view","type":"function"},{"inputs":[{"internalType":"address","name":"owner","type":"address"},{"internalType":"address","name":"operator","type":"address"}],"name":"isApprovedForAll","outputs":[{"internalType":"bool","name":"","type":"bool"}],"stateMutability":"view","type":"function"},{"inputs":[],"name":"maxMintAmount","outputs":[{"internalType":"uint256","name":"","type":"uint256"}],"stateMutability":"view","type":"function"},{"inputs":[],"name":"maxSupply","outputs":[{"internalType":"uint256","name":"","type":"uint256"}],"stateMutability":"view","type":"function"},{"inputs":[{"internalType":"address","name":"_to","type":"address"},{"internalType":"uint256","name":"_mintAmount","type":"uint256"}],"name":"mint","outputs":[],"stateMutability":"payable","type":"function"},{"inputs":[],"name":"name","outputs":[{"internalType":"string","name":"","type":"string"}],"stateMutability":"view","type":"function"},{"inputs":[],"name":"notRevealedUri","outputs":[{"internalType":"string","name":"","type":"string"}],"stateMutability":"view","type":"function"},{"inputs":[],"name":"owner","outputs":[{"internalType":"address","name":"","type":"address"}],"stateMutability":"view","type":"function"},{"inputs":[{"internalType":"uint256","name":"tokenId","type":"uint256"}],"name":"ownerOf","outputs":[{"internalType":"address","name":"","type":"address"}],"stateMutability":"view","type":"function"},{"inputs":[{"internalType":"bool","name":"_state","type":"bool"}],"name":"pause","outputs":[],"stateMutability":"nonpayable","type":"function"},{"inputs":[],"name":"paused","outputs":[{"internalType":"bool","name":"","type":"bool"}],"stateMutability":"view","type":"function"},{"inputs":[{"internalType":"address","name":"_user","type":"address"}],"name":"removeWhitelistUser","outputs":[],"stateMutability":"nonpayable","type":"function"},{"inputs":[],"name":"renounceOwnership","outputs":[],"stateMutability":"nonpayable","type":"function"},{"inputs":[],"name":"reveal","outputs":[],"stateMutability":"nonpayable","type":"function"},{"inputs":[],"name":"revealed","outputs":[{"internalType":"bool","name":"","type":"bool"}],"stateMutability":"view","type":"function"},{"inputs":[{"internalType":"address","name":"from","type":"address"},{"internalType":"address","name":"to","type":"address"},{"internalType":"uint256","name":"tokenId","type":"uint256"}],"name":"safeTransferFrom","outputs":[],"stateMutability":"nonpayable","type":"function"},{"inputs":[{"internalType":"address","name":"from","type":"address"},{"internalType":"address","name":"to","type":"address"},{"internalType":"uint256","name":"tokenId","type":"uint256"},{"internalType":"bytes","name":"data","type":"bytes"}],"name":"safeTransferFrom","outputs":[],"stateMutability":"nonpayable","type":"function"},{"inputs":[{"internalType":"address","name":"operator","type":"address"},{"internalType":"bool","name":"approved","type":"bool"}],"name":"setApprovalForAll","outputs":[],"stateMutability":"nonpayable","type":"function"},{"inputs":[{"internalType":"string","name":"_newBaseExtension","type":"string"}],"name":"setBaseExtension","outputs":[],"stateMutability":"nonpayable","type":"function"},{"inputs":[{"internalType":"string","name":"_newBaseURI","type":"string"}],"name":"setBaseURI","outputs":[],"stateMutability":"nonpayable","type":"function"},{"inputs":[{"internalType":"uint256","name":"_newCost","type":"uint256"}],"name":"setCost","outputs":[],"stateMutability":"nonpayable","type":"function"},{"inputs":[{"internalType":"string","name":"_notRevealedURI","type":"string"}],"name":"setNotRevealedURI","outputs":[],"stateMutability":"nonpayable","type":"function"},{"inputs":[{"internalType":"uint256","name":"_newmaxMintAmount","type":"uint256"}],"name":"setmaxMintAmount","outputs":[],"stateMutability":"nonpayable","type":"function"},{"inputs":[{"internalType":"bytes4","name":"interfaceId","type":"bytes4"}],"name":"supportsInterface","outputs":[{"internalType":"bool","name":"","type":"bool"}],"stateMutability":"view","type":"function"},{"inputs":[],"name":"symbol","outputs":[{"internalType":"string","name":"","type":"string"}],"stateMutability":"view","type":"function"},{"inputs":[{"internalType":"uint256","name":"index","type":"uint256"}],"name":"tokenByIndex","outputs":[{"internalType":"uint256","name":"","type":"uint256"}],"stateMutability":"view","type":"function"},{"inputs":[{"internalType":"address","name":"owner","type":"address"},{"internalType":"uint256","name":"index","type":"uint256"}],"name":"tokenOfOwnerByIndex","outputs":[{"internalType":"uint256","name":"","type":"uint256"}],"stateMutability":"view","type":"function"},{"inputs":[{"internalType":"uint256","name":"tokenId","type":"uint256"}],"name":"tokenURI","outputs":[{"internalType":"string","name":"","type":"string"}],"stateMutability":"view","type":"function"},{"inputs":[],"name":"totalSupply","outputs":[{"internalType":"uint256","name":"","type":"uint256"}],"stateMutability":"view","type":"function"},{"inputs":[{"internalType":"address","name":"from","type":"address"},{"internalType":"address","name":"to","type":"address"},{"internalType":"uint256","name":"tokenId","type":"uint256"}],"name":"transferFrom","outputs":[],"stateMutability":"nonpayable","type":"function"},{"inputs":[{"internalType":"address","name":"newOwner","type":"address"}],"name":"transferOwnership","outputs":[],"stateMutability":"nonpayable","type":"function"},{"inputs":[{"internalType":"address","name":"_owner","type":"address"}],"name":"walletOfOwner","outputs":[{"internalType":"uint256[]","name":"","type":"uint256[]"}],"stateMutability":"view","type":"function"},{"inputs":[{"internalType":"address","name":"_user","type":"address"}],"name":"whitelistUser","outputs":[],"stateMutability":"nonpayable","type":"function"},{"inputs":[{"internalType":"address","name":"","type":"address"}],"name":"whitelisted","outputs":[{"internalType":"bool","name":"","type":"bool"}],"stateMutability":"view","type":"function"},{"inputs":[],"name":"withdraw","outputs":[],"stateMutability":"payable","type":"function"}],"devdoc":{"events":{"Approval(address,address,uint256)":{"details":"Emitted when `owner` enables `approved` to manage the `tokenId` token."},"ApprovalForAll(address,address,bool)":{"details":"Emitted when `owner` enables or disables (`approved`) `operator` to manage all of its assets."},"Transfer(address,address,uint256)":{"details":"Emitted when `tokenId` token is transferred from `from` to `to`."}},"kind":"dev","methods":{"approve(address,uint256)":{"details":"See {IERC721-approve}."},"balanceOf(address)":{"details":"See {IERC721-balanceOf}."},"getApproved(uint256)":{"details":"See {IERC721-getApproved}."},"isApprovedForAll(address,address)":{"details":"See {IERC721-isApprovedForAll}."},"name()":{"details":"See {IERC721Metadata-name}."},"owner()":{"details":"Returns the address of the current owner."},"ownerOf(uint256)":{"details":"See {IERC721-ownerOf}."},"renounceOwnership()":{"details":"Leaves the contract without owner. It will not be possible to call `onlyOwner` functions. Can only be called by the current owner. NOTE: Renouncing ownership will leave the contract without an owner, thereby disabling any functionality that is only available to the owner."},"safeTransferFrom(address,address,uint256)":{"details":"See {IERC721-safeTransferFrom}."},"safeTransferFrom(address,address,uint256,bytes)":{"details":"See {IERC721-safeTransferFrom}."},"setApprovalForAll(address,bool)":{"details":"See {IERC721-setApprovalForAll}."},"supportsInterface(bytes4)":{"details":"See {IERC165-supportsInterface}."},"symbol()":{"details":"See {IERC721Metadata-symbol}."},"tokenByIndex(uint256)":{"details":"See {IERC721Enumerable-tokenByIndex}."},"tokenOfOwnerByIndex(address,uint256)":{"details":"See {IERC721Enumerable-tokenOfOwnerByIndex}."},"tokenURI(uint256)":{"details":"See {IERC721Metadata-tokenURI}."},"totalSupply()":{"details":"See {IERC721Enumerable-totalSupply}."},"transferFrom(address,address,uint256)":{"details":"See {IERC721-transferFrom}."},"transferOwnership(address)":{"details":"Transfers ownership of the contract to a new account (`newOwner`). Can only be called by the current owner."}},"version":1},"evm":{"bytecode":{"linkReferences":{},"object":"60806040526040518060400160405280600581526020017f2e6a736f6e000000000000000000000000000000000000000000000000000000815250600c90816200004a9190620011ce565b5066b1a2bc2ec50000600d55612710600e556014600f556000601060006101000a81548160ff0219169083151502179055506000601060016101000a81548160ff021916908315150217905550348015620000a457600080fd5b50604051620060d9380380620060d98339818101604052810190620000ca919062001419565b83838160009081620000dd9190620011ce565b508060019081620000ef9190620011ce565b50505062000112620001066200015160201b60201c565b6200015960201b60201c565b62000123826200021f60201b60201c565b62000134816200024460201b60201c565b620001473360146200026960201b60201c565b5050505062001b67565b600033905090565b6000600a60009054906101000a900473ffffffffffffffffffffffffffffffffffffffff16905081600a60006101000a81548173ffffffffffffffffffffffffffffffffffffffff021916908373ffffffffffffffffffffffffffffffffffffffff1602179055508173ffffffffffffffffffffffffffffffffffffffff168173ffffffffffffffffffffffffffffffffffffffff167f8be0079c531659141344cd1fd0a4f28419497f9722a3daafe3b4186f6b6457e060405160405180910390a35050565b6200022f620003d860201b60201c565b80600b9081620002409190620011ce565b5050565b62000254620003d860201b60201c565b8060119081620002659190620011ce565b5050565b60006200027b6200046960201b60201c565b9050601060009054906101000a900460ff16156200029857600080fd5b60008211620002a657600080fd5b600f54821115620002b657600080fd5b600e548282620002c7919062001536565b1115620002d357600080fd5b620002e36200047660201b60201c565b73ffffffffffffffffffffffffffffffffffffffff163373ffffffffffffffffffffffffffffffffffffffff16146200038e5760011515601260003373ffffffffffffffffffffffffffffffffffffffff1673ffffffffffffffffffffffffffffffffffffffff16815260200190815260200160002060009054906101000a900460ff161515146200038d5781600d546200037f919062001571565b3410156200038c57600080fd5b5b5b6000600190505b828111620003d257620003bc848284620003b0919062001536565b620004a060201b60201c565b8080620003c990620015bc565b91505062000395565b50505050565b620003e86200015160201b60201c565b73ffffffffffffffffffffffffffffffffffffffff166200040e6200047660201b60201c565b73ffffffffffffffffffffffffffffffffffffffff161462000467576040517f08c379a00000000000000000000000000000000000000000000000000000000081526004016200045e906200166a565b60405180910390fd5b565b6000600880549050905090565b6000600a60009054906101000a900473ffffffffffffffffffffffffffffffffffffffff16905090565b620004c2828260405180602001604052806000815250620004c660201b60201c565b5050565b620004d883836200053460201b60201c565b620004ed60008484846200077a60201b60201c565b6200052f576040517f08c379a0000000000000000000000000000000000000000000000000000000008152600401620005269062001702565b60405180910390fd5b505050565b600073ffffffffffffffffffffffffffffffffffffffff168273ffffffffffffffffffffffffffffffffffffffff1603620005a6576040517f08c379a00000000000000000000000000000000000000000000000000000000081526004016200059d9062001774565b60405180910390fd5b620005b7816200092360201b60201c565b15620005fa576040517f08c379a0000000000000000000000000000000000000000000000000000000008152600401620005f190620017e6565b60405180910390fd5b620006106000838360016200096c60201b60201c565b62000621816200092360201b60201c565b1562000664576040517f08c379a00000000000000000000000000000000000000000000000000000000081526004016200065b90620017e6565b60405180910390fd5b6001600360008473ffffffffffffffffffffffffffffffffffffffff1673ffffffffffffffffffffffffffffffffffffffff16815260200190815260200160002060008282540192505081905550816002600083815260200190815260200160002060006101000a81548173ffffffffffffffffffffffffffffffffffffffff021916908373ffffffffffffffffffffffffffffffffffffffff160217905550808273ffffffffffffffffffffffffffffffffffffffff16600073ffffffffffffffffffffffffffffffffffffffff167fddf252ad1be2c89b69c2b068fc378daa952ba7f163c4a11628f55a4df523b3ef60405160405180910390a46200077660008383600162000b0060201b60201c565b5050565b6000620007a88473ffffffffffffffffffffffffffffffffffffffff1662000b0660201b620018de1760201c565b1562000916578373ffffffffffffffffffffffffffffffffffffffff1663150b7a02620007da6200015160201b60201c565b8786866040518563ffffffff1660e01b8152600401620007fe9493929190620018bb565b6020604051808303816000875af19250505080156200083d57506040513d601f19601f820116820180604052508101906200083a91906200196c565b60015b620008c5573d806000811462000870576040519150601f19603f3d011682016040523d82523d6000602084013e62000875565b606091505b506000815103620008bd576040517f08c379a0000000000000000000000000000000000000000000000000000000008152600401620008b49062001702565b60405180910390fd5b805181602001fd5b63150b7a0260e01b7bffffffffffffffffffffffffffffffffffffffffffffffffffffffff1916817bffffffffffffffffffffffffffffffffffffffffffffffffffffffff1916149150506200091b565b600190505b949350505050565b60008073ffffffffffffffffffffffffffffffffffffffff166200094d8362000b2960201b60201c565b73ffffffffffffffffffffffffffffffffffffffff1614159050919050565b620009858484848462000b6660201b620019011760201c565b6001811115620009cc576040517f08c379a0000000000000000000000000000000000000000000000000000000008152600401620009c39062001a14565b60405180910390fd5b6000829050600073ffffffffffffffffffffffffffffffffffffffff168573ffffffffffffffffffffffffffffffffffffffff160362000a1d5762000a178162000b6c60201b60201c565b62000a65565b8373ffffffffffffffffffffffffffffffffffffffff168573ffffffffffffffffffffffffffffffffffffffff161462000a645762000a63858262000bb560201b60201c565b5b5b600073ffffffffffffffffffffffffffffffffffffffff168473ffffffffffffffffffffffffffffffffffffffff160362000ab15762000aab8162000d3260201b60201c565b62000af9565b8473ffffffffffffffffffffffffffffffffffffffff168473ffffffffffffffffffffffffffffffffffffffff161462000af85762000af7848262000e0e60201b60201c565b5b5b5050505050565b50505050565b6000808273ffffffffffffffffffffffffffffffffffffffff163b119050919050565b60006002600083815260200190815260200160002060009054906101000a900473ffffffffffffffffffffffffffffffffffffffff169050919050565b50505050565b6008805490506009600083815260200190815260200160002081905550600881908060018154018082558091505060019003906000526020600020016000909190919091505550565b6000600162000bcf8462000e9a60201b6200134f1760201c565b62000bdb919062001a36565b905060006007600084815260200190815260200160002054905081811462000cc1576000600660008673ffffffffffffffffffffffffffffffffffffffff1673ffffffffffffffffffffffffffffffffffffffff168152602001908152602001600020600084815260200190815260200160002054905080600660008773ffffffffffffffffffffffffffffffffffffffff1673ffffffffffffffffffffffffffffffffffffffff168152602001908152602001600020600084815260200190815260200160002081905550816007600083815260200190815260200160002081905550505b6007600084815260200190815260200160002060009055600660008573ffffffffffffffffffffffffffffffffffffffff1673ffffffffffffffffffffffffffffffffffffffff16815260200190815260200160002060008381526020019081526020016000206000905550505050565b6000600160088054905062000d48919062001a36565b905060006009600084815260200190815260200160002054905060006008838154811062000d7b5762000d7a62001a71565b5b90600052602060002001549050806008838154811062000da05762000d9f62001a71565b5b90600052602060002001819055508160096000838152602001908152602001600020819055506009600085815260200190815260200160002060009055600880548062000df25762000df162001aa0565b5b6001900381819060005260206000200160009055905550505050565b600062000e268362000e9a60201b6200134f1760201c565b905081600660008573ffffffffffffffffffffffffffffffffffffffff1673ffffffffffffffffffffffffffffffffffffffff168152602001908152602001600020600083815260200190815260200160002081905550806007600084815260200190815260200160002081905550505050565b60008073ffffffffffffffffffffffffffffffffffffffff168273ffffffffffffffffffffffffffffffffffffffff160362000f0d576040517f08c379a000000000000000000000000000000000000000000000000000000000815260040162000f049062001b45565b60405180910390fd5b600360008373ffffffffffffffffffffffffffffffffffffffff1673ffffffffffffffffffffffffffffffffffffffff168152602001908152602001600020549050919050565b600081519050919050565b7f4e487b7100000000000000000000000000000000000000000000000000000000600052604160045260246000fd5b7f4e487b7100000000000000000000000000000000000000000000000000000000600052602260045260246000fd5b6000600282049050600182168062000fd657607f821691505b60208210810362000fec5762000feb62000f8e565b5b50919050565b60008190508160005260206000209050919050565b60006020601f8301049050919050565b600082821b905092915050565b600060088302620010567fffffffffffffffffffffffffffffffffffffffffffffffffffffffffffffffff8262001017565b62001062868362001017565b95508019841693508086168417925050509392505050565b6000819050919050565b6000819050919050565b6000620010af620010a9620010a3846200107a565b62001084565b6200107a565b9050919050565b6000819050919050565b620010cb836200108e565b620010e3620010da82620010b6565b84845462001024565b825550505050565b600090565b620010fa620010eb565b62001107818484620010c0565b505050565b5b818110156200112f5762001123600082620010f0565b6001810190506200110d565b5050565b601f8211156200117e57620011488162000ff2565b620011538462001007565b8101602085101562001163578190505b6200117b620011728562001007565b8301826200110c565b50505b505050565b600082821c905092915050565b6000620011a36000198460080262001183565b1980831691505092915050565b6000620011be838362001190565b9150826002028217905092915050565b620011d98262000f54565b67ffffffffffffffff811115620011f557620011f462000f5f565b5b62001201825462000fbd565b6200120e82828562001133565b600060209050601f83116001811462001246576000841562001231578287015190505b6200123d8582620011b0565b865550620012ad565b601f198416620012568662000ff2565b60005b82811015620012805784890151825560018201915060208501945060208101905062001259565b86831015620012a057848901516200129c601f89168262001190565b8355505b6001600288020188555050505b505050505050565b6000604051905090565b600080fd5b600080fd5b600080fd5b600080fd5b6000601f19601f8301169050919050565b620012ef82620012d3565b810181811067ffffffffffffffff8211171562001311576200131062000f5f565b5b80604052505050565b600062001326620012b5565b9050620013348282620012e4565b919050565b600067ffffffffffffffff82111562001357576200135662000f5f565b5b6200136282620012d3565b9050602081019050919050565b60005b838110156200138f57808201518184015260208101905062001372565b60008484015250505050565b6000620013b2620013ac8462001339565b6200131a565b905082815260208101848484011115620013d157620013d0620012ce565b5b620013de8482856200136f565b509392505050565b600082601f830112620013fe57620013fd620012c9565b5b8151620014108482602086016200139b565b91505092915050565b60008060008060808587031215620014365762001435620012bf565b5b600085015167ffffffffffffffff811115620014575762001456620012c4565b5b6200146587828801620013e6565b945050602085015167ffffffffffffffff811115620014895762001488620012c4565b5b6200149787828801620013e6565b935050604085015167ffffffffffffffff811115620014bb57620014ba620012c4565b5b620014c987828801620013e6565b925050606085015167ffffffffffffffff811115620014ed57620014ec620012c4565b5b620014fb87828801620013e6565b91505092959194509250565b7f4e487b7100000000000000000000000000000000000000000000000000000000600052601160045260246000fd5b600062001543826200107a565b915062001550836200107a565b92508282019050808211156200156b576200156a62001507565b5b92915050565b60006200157e826200107a565b91506200158b836200107a565b92508282026200159b816200107a565b91508282048414831517620015b557620015b462001507565b5b5092915050565b6000620015c9826200107a565b91507fffffffffffffffffffffffffffffffffffffffffffffffffffffffffffffffff8203620015fe57620015fd62001507565b5b600182019050919050565b600082825260208201905092915050565b7f4f776e61626c653a2063616c6c6572206973206e6f7420746865206f776e6572600082015250565b60006200165260208362001609565b91506200165f826200161a565b602082019050919050565b60006020820190508181036000830152620016858162001643565b9050919050565b7f4552433732313a207472616e7366657220746f206e6f6e20455243373231526560008201527f63656976657220696d706c656d656e7465720000000000000000000000000000602082015250565b6000620016ea60328362001609565b9150620016f7826200168c565b604082019050919050565b600060208201905081810360008301526200171d81620016db565b9050919050565b7f4552433732313a206d696e7420746f20746865207a65726f2061646472657373600082015250565b60006200175c60208362001609565b9150620017698262001724565b602082019050919050565b600060208201905081810360008301526200178f816200174d565b9050919050565b7f4552433732313a20746f6b656e20616c7265616479206d696e74656400000000600082015250565b6000620017ce601c8362001609565b9150620017db8262001796565b602082019050919050565b600060208201905081810360008301526200180181620017bf565b9050919050565b600073ffffffffffffffffffffffffffffffffffffffff82169050919050565b6000620018358262001808565b9050919050565b620018478162001828565b82525050565b62001858816200107a565b82525050565b600081519050919050565b600082825260208201905092915050565b600062001887826200185e565b62001893818562001869565b9350620018a58185602086016200136f565b620018b081620012d3565b840191505092915050565b6000608082019050620018d260008301876200183c565b620018e160208301866200183c565b620018f060408301856200184d565b81810360608301526200190481846200187a565b905095945050505050565b60007fffffffff0000000000000000000000000000000000000000000000000000000082169050919050565b62001946816200190f565b81146200195257600080fd5b50565b60008151905062001966816200193b565b92915050565b600060208284031215620019855762001984620012bf565b5b6000620019958482850162001955565b91505092915050565b7f455243373231456e756d657261626c653a20636f6e736563757469766520747260008201527f616e7366657273206e6f7420737570706f727465640000000000000000000000602082015250565b6000620019fc60358362001609565b915062001a09826200199e565b604082019050919050565b6000602082019050818103600083015262001a2f81620019ed565b9050919050565b600062001a43826200107a565b915062001a50836200107a565b925082820390508181111562001a6b5762001a6a62001507565b5b92915050565b7f4e487b7100000000000000000000000000000000000000000000000000000000600052603260045260246000fd5b7f4e487b7100000000000000000000000000000000000000000000000000000000600052603160045260246000fd5b7f4552433732313a2061646472657373207a65726f206973206e6f74206120766160008201527f6c6964206f776e65720000000000000000000000000000000000000000000000602082015250565b600062001b2d60298362001609565b915062001b3a8262001acf565b604082019050919050565b6000602082019050818103600083015262001b608162001b1e565b9050919050565b6145628062001b776000396000f3fe60806040526004361061023b5760003560e01c806355f804b31161012e578063a475b5dd116100ab578063d936547e1161006f578063d936547e14610843578063da3ef23f14610880578063e985e9c5146108a9578063f2c4ce1e146108e6578063f2fde38b1461090f5761023b565b8063a475b5dd14610770578063b88d4fde14610787578063c6682862146107b0578063c87b56dd146107db578063d5abeb01146108185761023b565b8063715018a6116100f2578063715018a6146106b15780637f00c7a6146106c85780638da5cb5b146106f157806395d89b411461071c578063a22cb465146107475761023b565b806355f804b3146105b85780635c975abb146105e15780636352211e1461060c5780636c0360eb1461064957806370a08231146106745761023b565b80632f745c59116101bc578063438b630011610180578063438b6300146104c157806344a0d68a146104fe5780634a4c560d146105275780634f6ccce714610550578063518302271461058d5761023b565b80632f745c591461040c57806330cc7ae0146104495780633ccfd60b1461047257806340c10f191461047c57806342842e0e146104985761023b565b8063095ea7b311610203578063095ea7b31461033957806313faede61461036257806318160ddd1461038d578063239c70ae146103b857806323b872dd146103e35761023b565b806301ffc9a71461024057806302329a291461027d57806306fdde03146102a6578063081812fc146102d1578063081c8c441461030e575b600080fd5b34801561024c57600080fd5b5061026760048036038101906102629190612e1d565b610938565b6040516102749190612e65565b60405180910390f35b34801561028957600080fd5b506102a4600480360381019061029f9190612eac565b6109b2565b005b3480156102b257600080fd5b506102bb6109d7565b6040516102c89190612f69565b60405180910390f35b3480156102dd57600080fd5b506102f860048036038101906102f39190612fc1565b610a69565b604051610305919061302f565b60405180910390f35b34801561031a57600080fd5b50610323610aaf565b6040516103309190612f69565b60405180910390f35b34801561034557600080fd5b50610360600480360381019061035b9190613076565b610b3d565b005b34801561036e57600080fd5b50610377610c54565b60405161038491906130c5565b60405180910390f35b34801561039957600080fd5b506103a2610c5a565b6040516103af91906130c5565b60405180910390f35b3480156103c457600080fd5b506103cd610c67565b6040516103da91906130c5565b60405180910390f35b3480156103ef57600080fd5b5061040a600480360381019061040591906130e0565b610c6d565b005b34801561041857600080fd5b50610433600480360381019061042e9190613076565b610ccd565b60405161044091906130c5565b60405180910390f35b34801561045557600080fd5b50610470600480360381019061046b9190613133565b610d72565b005b61047a610dd5565b005b61049660048036038101906104919190613076565b610f00565b005b3480156104a457600080fd5b506104bf60048036038101906104ba91906130e0565b611046565b005b3480156104cd57600080fd5b506104e860048036038101906104e39190613133565b611066565b6040516104f5919061321e565b60405180910390f35b34801561050a57600080fd5b5061052560048036038101906105209190612fc1565b611114565b005b34801561053357600080fd5b5061054e60048036038101906105499190613133565b611126565b005b34801561055c57600080fd5b5061057760048036038101906105729190612fc1565b611189565b60405161058491906130c5565b60405180910390f35b34801561059957600080fd5b506105a26111fa565b6040516105af9190612e65565b60405180910390f35b3480156105c457600080fd5b506105df60048036038101906105da9190613375565b61120d565b005b3480156105ed57600080fd5b506105f6611228565b6040516106039190612e65565b60405180910390f35b34801561061857600080fd5b50610633600480360381019061062e9190612fc1565b61123b565b604051610640919061302f565b60405180910390f35b34801561065557600080fd5b5061065e6112c1565b60405161066b9190612f69565b60405180910390f35b34801561068057600080fd5b5061069b60048036038101906106969190613133565b61134f565b6040516106a891906130c5565b60405180910390f35b3480156106bd57600080fd5b506106c6611406565b005b3480156106d457600080fd5b506106ef60048036038101906106ea9190612fc1565b61141a565b005b3480156106fd57600080fd5b5061070661142c565b604051610713919061302f565b60405180910390f35b34801561072857600080fd5b50610731611456565b60405161073e9190612f69565b60405180910390f35b34801561075357600080fd5b5061076e600480360381019061076991906133be565b6114e8565b005b34801561077c57600080fd5b506107856114fe565b005b34801561079357600080fd5b506107ae60048036038101906107a9919061349f565b611523565b005b3480156107bc57600080fd5b506107c5611585565b6040516107d29190612f69565b60405180910390f35b3480156107e757600080fd5b5061080260048036038101906107fd9190612fc1565b611613565b60405161080f9190612f69565b60405180910390f35b34801561082457600080fd5b5061082d61176b565b60405161083a91906130c5565b60405180910390f35b34801561084f57600080fd5b5061086a60048036038101906108659190613133565b611771565b6040516108779190612e65565b60405180910390f35b34801561088c57600080fd5b506108a760048036038101906108a29190613375565b611791565b005b3480156108b557600080fd5b506108d060048036038101906108cb9190613522565b6117ac565b6040516108dd9190612e65565b60405180910390f35b3480156108f257600080fd5b5061090d60048036038101906109089190613375565b611840565b005b34801561091b57600080fd5b5061093660048036038101906109319190613133565b61185b565b005b60007f780e9d63000000000000000000000000000000000000000000000000000000007bffffffffffffffffffffffffffffffffffffffffffffffffffffffff1916827bffffffffffffffffffffffffffffffffffffffffffffffffffffffff191614806109ab57506109aa82611907565b5b9050919050565b6109ba6119e9565b80601060006101000a81548160ff02191690831515021790555050565b6060600080546109e690613591565b80601f0160208091040260200160405190810160405280929190818152602001828054610a1290613591565b8015610a5f5780601f10610a3457610100808354040283529160200191610a5f565b820191906000526020600020905b815481529060010190602001808311610a4257829003601f168201915b5050505050905090565b6000610a7482611a67565b6004600083815260200190815260200160002060009054906101000a900473ffffffffffffffffffffffffffffffffffffffff169050919050565b60118054610abc90613591565b80601f0160208091040260200160405190810160405280929190818152602001828054610ae890613591565b8015610b355780601f10610b0a57610100808354040283529160200191610b35565b820191906000526020600020905b815481529060010190602001808311610b1857829003601f168201915b505050505081565b6000610b488261123b565b90508073ffffffffffffffffffffffffffffffffffffffff168373ffffffffffffffffffffffffffffffffffffffff1603610bb8576040517f08c379a0000000000000000000000000000000000000000000000000000000008152600401610baf90613634565b60405180910390fd5b8073ffffffffffffffffffffffffffffffffffffffff16610bd7611ab2565b73ffffffffffffffffffffffffffffffffffffffff161480610c065750610c0581610c00611ab2565b6117ac565b5b610c45576040517f08c379a0000000000000000000000000000000000000000000000000000000008152600401610c3c906136c6565b60405180910390fd5b610c4f8383611aba565b505050565b600d5481565b6000600880549050905090565b600f5481565b610c7e610c78611ab2565b82611b73565b610cbd576040517f08c379a0000000000000000000000000000000000000000000000000000000008152600401610cb490613758565b60405180910390fd5b610cc8838383611c08565b505050565b6000610cd88361134f565b8210610d19576040517f08c379a0000000000000000000000000000000000000000000000000000000008152600401610d10906137ea565b60405180910390fd5b600660008473ffffffffffffffffffffffffffffffffffffffff1673ffffffffffffffffffffffffffffffffffffffff168152602001908152602001600020600083815260200190815260200160002054905092915050565b610d7a6119e9565b6000601260008373ffffffffffffffffffffffffffffffffffffffff1673ffffffffffffffffffffffffffffffffffffffff16815260200190815260200160002060006101000a81548160ff02191690831515021790555050565b610ddd6119e9565b600073943590a42c27d08e3744202c4ae5ed55c2de240d73ffffffffffffffffffffffffffffffffffffffff166064600547610e199190613839565b610e2391906138aa565b604051610e2f9061390c565b60006040518083038185875af1925050503d8060008114610e6c576040519150601f19603f3d011682016040523d82523d6000602084013e610e71565b606091505b5050905080610e7f57600080fd5b6000610e8961142c565b73ffffffffffffffffffffffffffffffffffffffff1647604051610eac9061390c565b60006040518083038185875af1925050503d8060008114610ee9576040519150601f19603f3d011682016040523d82523d6000602084013e610eee565b606091505b5050905080610efc57600080fd5b5050565b6000610f0a610c5a565b9050601060009054906101000a900460ff1615610f2657600080fd5b60008211610f3357600080fd5b600f54821115610f4257600080fd5b600e548282610f519190613921565b1115610f5c57600080fd5b610f6461142c565b73ffffffffffffffffffffffffffffffffffffffff163373ffffffffffffffffffffffffffffffffffffffff161461100a5760011515601260003373ffffffffffffffffffffffffffffffffffffffff1673ffffffffffffffffffffffffffffffffffffffff16815260200190815260200160002060009054906101000a900460ff161515146110095781600d54610ffc9190613839565b34101561100857600080fd5b5b5b6000600190505b8281116110405761102d8482846110289190613921565b611f01565b808061103890613955565b915050611011565b50505050565b61106183838360405180602001604052806000815250611523565b505050565b606060006110738361134f565b905060008167ffffffffffffffff8111156110915761109061324a565b5b6040519080825280602002602001820160405280156110bf5781602001602082028036833780820191505090505b50905060005b82811015611109576110d78582610ccd565b8282815181106110ea576110e961399d565b5b602002602001018181525050808061110190613955565b9150506110c5565b508092505050919050565b61111c6119e9565b80600d8190555050565b61112e6119e9565b6001601260008373ffffffffffffffffffffffffffffffffffffffff1673ffffffffffffffffffffffffffffffffffffffff16815260200190815260200160002060006101000a81548160ff02191690831515021790555050565b6000611193610c5a565b82106111d4576040517f08c379a00000000000000000000000000000000000000000000000000000000081526004016111cb90613a3e565b60405180910390fd5b600882815481106111e8576111e761399d565b5b90600052602060002001549050919050565b601060019054906101000a900460ff1681565b6112156119e9565b80600b90816112249190613c0a565b5050565b601060009054906101000a900460ff1681565b60008061124783611f1f565b9050600073ffffffffffffffffffffffffffffffffffffffff168173ffffffffffffffffffffffffffffffffffffffff16036112b8576040517f08c379a00000000000000000000000000000000000000000000000000000000081526004016112af90613d28565b60405180910390fd5b80915050919050565b600b80546112ce90613591565b80601f01602080910402602001604051908101604052809291908181526020018280546112fa90613591565b80156113475780601f1061131c57610100808354040283529160200191611347565b820191906000526020600020905b81548152906001019060200180831161132a57829003601f168201915b505050505081565b60008073ffffffffffffffffffffffffffffffffffffffff168273ffffffffffffffffffffffffffffffffffffffff16036113bf576040517f08c379a00000000000000000000000000000000000000000000000000000000081526004016113b690613dba565b60405180910390fd5b600360008373ffffffffffffffffffffffffffffffffffffffff1673ffffffffffffffffffffffffffffffffffffffff168152602001908152602001600020549050919050565b61140e6119e9565b6114186000611f5c565b565b6114226119e9565b80600f8190555050565b6000600a60009054906101000a900473ffffffffffffffffffffffffffffffffffffffff16905090565b60606001805461146590613591565b80601f016020809104026020016040519081016040528092919081815260200182805461149190613591565b80156114de5780601f106114b3576101008083540402835291602001916114de565b820191906000526020600020905b8154815290600101906020018083116114c157829003601f168201915b5050505050905090565b6114fa6114f3611ab2565b8383612022565b5050565b6115066119e9565b6001601060016101000a81548160ff021916908315150217905550565b61153461152e611ab2565b83611b73565b611573576040517f08c379a000000000000000000000000000000000000000000000000000000000815260040161156a90613758565b60405180910390fd5b61157f8484848461218e565b50505050565b600c805461159290613591565b80601f01602080910402602001604051908101604052809291908181526020018280546115be90613591565b801561160b5780601f106115e05761010080835404028352916020019161160b565b820191906000526020600020905b8154815290600101906020018083116115ee57829003601f168201915b505050505081565b606061161e826121ea565b61165d576040517f08c379a000000000000000000000000000000000000000000000000000000000815260040161165490613e4c565b60405180910390fd5b60001515601060019054906101000a900460ff1615150361170a576011805461168590613591565b80601f01602080910402602001604051908101604052809291908181526020018280546116b190613591565b80156116fe5780601f106116d3576101008083540402835291602001916116fe565b820191906000526020600020905b8154815290600101906020018083116116e157829003601f168201915b50505050509050611766565b600061171461222b565b905060008151116117345760405180602001604052806000815250611762565b8061173e846122bd565b600c60405160200161175293929190613f2b565b6040516020818303038152906040525b9150505b919050565b600e5481565b60126020528060005260406000206000915054906101000a900460ff1681565b6117996119e9565b80600c90816117a89190613c0a565b5050565b6000600560008473ffffffffffffffffffffffffffffffffffffffff1673ffffffffffffffffffffffffffffffffffffffff16815260200190815260200160002060008373ffffffffffffffffffffffffffffffffffffffff1673ffffffffffffffffffffffffffffffffffffffff16815260200190815260200160002060009054906101000a900460ff16905092915050565b6118486119e9565b80601190816118579190613c0a565b5050565b6118636119e9565b600073ffffffffffffffffffffffffffffffffffffffff168173ffffffffffffffffffffffffffffffffffffffff16036118d2576040517f08c379a00000000000000000000000000000000000000000000000000000000081526004016118c990613fce565b60405180910390fd5b6118db81611f5c565b50565b6000808273ffffffffffffffffffffffffffffffffffffffff163b119050919050565b50505050565b60007f80ac58cd000000000000000000000000000000000000000000000000000000007bffffffffffffffffffffffffffffffffffffffffffffffffffffffff1916827bffffffffffffffffffffffffffffffffffffffffffffffffffffffff191614806119d257507f5b5e139f000000000000000000000000000000000000000000000000000000007bffffffffffffffffffffffffffffffffffffffffffffffffffffffff1916827bffffffffffffffffffffffffffffffffffffffffffffffffffffffff1916145b806119e257506119e18261238b565b5b9050919050565b6119f1611ab2565b73ffffffffffffffffffffffffffffffffffffffff16611a0f61142c565b73ffffffffffffffffffffffffffffffffffffffff1614611a65576040517f08c379a0000000000000000000000000000000000000000000000000000000008152600401611a5c9061403a565b60405180910390fd5b565b611a70816121ea565b611aaf576040517f08c379a0000000000000000000000000000000000000000000000000000000008152600401611aa690613d28565b60405180910390fd5b50565b600033905090565b816004600083815260200190815260200160002060006101000a81548173ffffffffffffffffffffffffffffffffffffffff021916908373ffffffffffffffffffffffffffffffffffffffff160217905550808273ffffffffffffffffffffffffffffffffffffffff16611b2d8361123b565b73ffffffffffffffffffffffffffffffffffffffff167f8c5be1e5ebec7d5bd14f71427d1e84f3dd0314c0f7b2291e5b200ac8c7c3b92560405160405180910390a45050565b600080611b7f8361123b565b90508073ffffffffffffffffffffffffffffffffffffffff168473ffffffffffffffffffffffffffffffffffffffff161480611bc15750611bc081856117ac565b5b80611bff57508373ffffffffffffffffffffffffffffffffffffffff16611be784610a69565b73ffffffffffffffffffffffffffffffffffffffff16145b91505092915050565b8273ffffffffffffffffffffffffffffffffffffffff16611c288261123b565b73ffffffffffffffffffffffffffffffffffffffff1614611c7e576040517f08c379a0000000000000000000000000000000000000000000000000000000008152600401611c75906140cc565b60405180910390fd5b600073ffffffffffffffffffffffffffffffffffffffff168273ffffffffffffffffffffffffffffffffffffffff1603611ced576040517f08c379a0000000000000000000000000000000000000000000000000000000008152600401611ce49061415e565b60405180910390fd5b611cfa83838360016123f5565b8273ffffffffffffffffffffffffffffffffffffffff16611d1a8261123b565b73ffffffffffffffffffffffffffffffffffffffff1614611d70576040517f08c379a0000000000000000000000000000000000000000000000000000000008152600401611d67906140cc565b60405180910390fd5b6004600082815260200190815260200160002060006101000a81549073ffffffffffffffffffffffffffffffffffffffff02191690556001600360008573ffffffffffffffffffffffffffffffffffffffff1673ffffffffffffffffffffffffffffffffffffffff168152602001908152602001600020600082825403925050819055506001600360008473ffffffffffffffffffffffffffffffffffffffff1673ffffffffffffffffffffffffffffffffffffffff16815260200190815260200160002060008282540192505081905550816002600083815260200190815260200160002060006101000a81548173ffffffffffffffffffffffffffffffffffffffff021916908373ffffffffffffffffffffffffffffffffffffffff160217905550808273ffffffffffffffffffffffffffffffffffffffff168473ffffffffffffffffffffffffffffffffffffffff167fddf252ad1be2c89b69c2b068fc378daa952ba7f163c4a11628f55a4df523b3ef60405160405180910390a4611efc8383836001612553565b505050565b611f1b828260405180602001604052806000815250612559565b5050565b60006002600083815260200190815260200160002060009054906101000a900473ffffffffffffffffffffffffffffffffffffffff169050919050565b6000600a60009054906101000a900473ffffffffffffffffffffffffffffffffffffffff16905081600a60006101000a81548173ffffffffffffffffffffffffffffffffffffffff021916908373ffffffffffffffffffffffffffffffffffffffff1602179055508173ffffffffffffffffffffffffffffffffffffffff168173ffffffffffffffffffffffffffffffffffffffff167f8be0079c531659141344cd1fd0a4f28419497f9722a3daafe3b4186f6b6457e060405160405180910390a35050565b8173ffffffffffffffffffffffffffffffffffffffff168373ffffffffffffffffffffffffffffffffffffffff1603612090576040517f08c379a0000000000000000000000000000000000000000000000000000000008152600401612087906141ca565b60405180910390fd5b80600560008573ffffffffffffffffffffffffffffffffffffffff1673ffffffffffffffffffffffffffffffffffffffff16815260200190815260200160002060008473ffffffffffffffffffffffffffffffffffffffff1673ffffffffffffffffffffffffffffffffffffffff16815260200190815260200160002060006101000a81548160ff0219169083151502179055508173ffffffffffffffffffffffffffffffffffffffff168373ffffffffffffffffffffffffffffffffffffffff167f17307eab39ab6107e8899845ad3d59bd9653f200f220920489ca2b5937696c31836040516121819190612e65565b60405180910390a3505050565b612199848484611c08565b6121a5848484846125b4565b6121e4576040517f08c379a00000000000000000000000000000000000000000000000000000000081526004016121db9061425c565b60405180910390fd5b50505050565b60008073ffffffffffffffffffffffffffffffffffffffff1661220c83611f1f565b73ffffffffffffffffffffffffffffffffffffffff1614159050919050565b6060600b805461223a90613591565b80601f016020809104026020016040519081016040528092919081815260200182805461226690613591565b80156122b35780601f10612288576101008083540402835291602001916122b3565b820191906000526020600020905b81548152906001019060200180831161229657829003601f168201915b5050505050905090565b6060600060016122cc8461273b565b01905060008167ffffffffffffffff8111156122eb576122ea61324a565b5b6040519080825280601f01601f19166020018201604052801561231d5781602001600182028036833780820191505090505b509050600082602001820190505b600115612380578080600190039150507f3031323334353637383961626364656600000000000000000000000000000000600a86061a8153600a85816123745761237361387b565b5b0494506000850361232b575b819350505050919050565b60007f01ffc9a7000000000000000000000000000000000000000000000000000000007bffffffffffffffffffffffffffffffffffffffffffffffffffffffff1916827bffffffffffffffffffffffffffffffffffffffffffffffffffffffff1916149050919050565b61240184848484611901565b6001811115612445576040517f08c379a000000000000000000000000000000000000000000000000000000000815260040161243c906142ee565b60405180910390fd5b6000829050600073ffffffffffffffffffffffffffffffffffffffff168573ffffffffffffffffffffffffffffffffffffffff160361248c576124878161288e565b6124cb565b8373ffffffffffffffffffffffffffffffffffffffff168573ffffffffffffffffffffffffffffffffffffffff16146124ca576124c985826128d7565b5b5b600073ffffffffffffffffffffffffffffffffffffffff168473ffffffffffffffffffffffffffffffffffffffff160361250d5761250881612a44565b61254c565b8473ffffffffffffffffffffffffffffffffffffffff168473ffffffffffffffffffffffffffffffffffffffff161461254b5761254a8482612b15565b5b5b5050505050565b50505050565b6125638383612b94565b61257060008484846125b4565b6125af576040517f08c379a00000000000000000000000000000000000000000000000000000000081526004016125a69061425c565b60405180910390fd5b505050565b60006125d58473ffffffffffffffffffffffffffffffffffffffff166118de565b1561272e578373ffffffffffffffffffffffffffffffffffffffff1663150b7a026125fe611ab2565b8786866040518563ffffffff1660e01b81526004016126209493929190614363565b6020604051808303816000875af192505050801561265c57506040513d601f19601f8201168201806040525081019061265991906143c4565b60015b6126de573d806000811461268c576040519150601f19603f3d011682016040523d82523d6000602084013e612691565b606091505b5060008151036126d6576040517f08c379a00000000000000000000000000000000000000000000000000000000081526004016126cd9061425c565b60405180910390fd5b805181602001fd5b63150b7a0260e01b7bffffffffffffffffffffffffffffffffffffffffffffffffffffffff1916817bffffffffffffffffffffffffffffffffffffffffffffffffffffffff191614915050612733565b600190505b949350505050565b600080600090507a184f03e93ff9f4daa797ed6e38ed64bf6a1f0100000000000000008310612799577a184f03e93ff9f4daa797ed6e38ed64bf6a1f010000000000000000838161278f5761278e61387b565b5b0492506040810190505b6d04ee2d6d415b85acef810000000083106127d6576d04ee2d6d415b85acef810000000083816127cc576127cb61387b565b5b0492506020810190505b662386f26fc10000831061280557662386f26fc1000083816127fb576127fa61387b565b5b0492506010810190505b6305f5e100831061282e576305f5e10083816128245761282361387b565b5b0492506008810190505b61271083106128535761271083816128495761284861387b565b5b0492506004810190505b60648310612876576064838161286c5761286b61387b565b5b0492506002810190505b600a8310612885576001810190505b80915050919050565b6008805490506009600083815260200190815260200160002081905550600881908060018154018082558091505060019003906000526020600020016000909190919091505550565b600060016128e48461134f565b6128ee91906143f1565b90506000600760008481526020019081526020016000205490508181146129d3576000600660008673ffffffffffffffffffffffffffffffffffffffff1673ffffffffffffffffffffffffffffffffffffffff168152602001908152602001600020600084815260200190815260200160002054905080600660008773ffffffffffffffffffffffffffffffffffffffff1673ffffffffffffffffffffffffffffffffffffffff168152602001908152602001600020600084815260200190815260200160002081905550816007600083815260200190815260200160002081905550505b6007600084815260200190815260200160002060009055600660008573ffffffffffffffffffffffffffffffffffffffff1673ffffffffffffffffffffffffffffffffffffffff16815260200190815260200160002060008381526020019081526020016000206000905550505050565b60006001600880549050612a5891906143f1565b9050600060096000848152602001908152602001600020549050600060088381548110612a8857612a8761399d565b5b906000526020600020015490508060088381548110612aaa57612aa961399d565b5b906000526020600020018190555081600960008381526020019081526020016000208190555060096000858152602001908152602001600020600090556008805480612af957612af8614425565b5b6001900381819060005260206000200160009055905550505050565b6000612b208361134f565b905081600660008573ffffffffffffffffffffffffffffffffffffffff1673ffffffffffffffffffffffffffffffffffffffff168152602001908152602001600020600083815260200190815260200160002081905550806007600084815260200190815260200160002081905550505050565b600073ffffffffffffffffffffffffffffffffffffffff168273ffffffffffffffffffffffffffffffffffffffff1603612c03576040517f08c379a0000000000000000000000000000000000000000000000000000000008152600401612bfa906144a0565b60405180910390fd5b612c0c816121ea565b15612c4c576040517f08c379a0000000000000000000000000000000000000000000000000000000008152600401612c439061450c565b60405180910390fd5b612c5a6000838360016123f5565b612c63816121ea565b15612ca3576040517f08c379a0000000000000000000000000000000000000000000000000000000008152600401612c9a9061450c565b60405180910390fd5b6001600360008473ffffffffffffffffffffffffffffffffffffffff1673ffffffffffffffffffffffffffffffffffffffff16815260200190815260200160002060008282540192505081905550816002600083815260200190815260200160002060006101000a81548173ffffffffffffffffffffffffffffffffffffffff021916908373ffffffffffffffffffffffffffffffffffffffff160217905550808273ffffffffffffffffffffffffffffffffffffffff16600073ffffffffffffffffffffffffffffffffffffffff167fddf252ad1be2c89b69c2b068fc378daa952ba7f163c4a11628f55a4df523b3ef60405160405180910390a4612dad600083836001612553565b5050565b6000604051905090565b600080fd5b600080fd5b60007fffffffff0000000000000000000000000000000000000000000000000000000082169050919050565b612dfa81612dc5565b8114612e0557600080fd5b50565b600081359050612e1781612df1565b92915050565b600060208284031215612e3357612e32612dbb565b5b6000612e4184828501612e08565b91505092915050565b60008115159050919050565b612e5f81612e4a565b82525050565b6000602082019050612e7a6000830184612e56565b92915050565b612e8981612e4a565b8114612e9457600080fd5b50565b600081359050612ea681612e80565b92915050565b600060208284031215612ec257612ec1612dbb565b5b6000612ed084828501612e97565b91505092915050565b600081519050919050565b600082825260208201905092915050565b60005b83811015612f13578082015181840152602081019050612ef8565b60008484015250505050565b6000601f19601f8301169050919050565b6000612f3b82612ed9565b612f458185612ee4565b9350612f55818560208601612ef5565b612f5e81612f1f565b840191505092915050565b60006020820190508181036000830152612f838184612f30565b905092915050565b6000819050919050565b612f9e81612f8b565b8114612fa957600080fd5b50565b600081359050612fbb81612f95565b92915050565b600060208284031215612fd757612fd6612dbb565b5b6000612fe584828501612fac565b91505092915050565b600073ffffffffffffffffffffffffffffffffffffffff82169050919050565b600061301982612fee565b9050919050565b6130298161300e565b82525050565b60006020820190506130446000830184613020565b92915050565b6130538161300e565b811461305e57600080fd5b50565b6000813590506130708161304a565b92915050565b6000806040838503121561308d5761308c612dbb565b5b600061309b85828601613061565b92505060206130ac85828601612fac565b9150509250929050565b6130bf81612f8b565b82525050565b60006020820190506130da60008301846130b6565b92915050565b6000806000606084860312156130f9576130f8612dbb565b5b600061310786828701613061565b935050602061311886828701613061565b925050604061312986828701612fac565b9150509250925092565b60006020828403121561314957613148612dbb565b5b600061315784828501613061565b91505092915050565b600081519050919050565b600082825260208201905092915050565b6000819050602082019050919050565b61319581612f8b565b82525050565b60006131a7838361318c565b60208301905092915050565b6000602082019050919050565b60006131cb82613160565b6131d5818561316b565b93506131e08361317c565b8060005b838110156132115781516131f8888261319b565b9750613203836131b3565b9250506001810190506131e4565b5085935050505092915050565b6000602082019050818103600083015261323881846131c0565b905092915050565b600080fd5b600080fd5b7f4e487b7100000000000000000000000000000000000000000000000000000000600052604160045260246000fd5b61328282612f1f565b810181811067ffffffffffffffff821117156132a1576132a061324a565b5b80604052505050565b60006132b4612db1565b90506132c08282613279565b919050565b600067ffffffffffffffff8211156132e0576132df61324a565b5b6132e982612f1f565b9050602081019050919050565b82818337600083830152505050565b6000613318613313846132c5565b6132aa565b90508281526020810184848401111561333457613333613245565b5b61333f8482856132f6565b509392505050565b600082601f83011261335c5761335b613240565b5b813561336c848260208601613305565b91505092915050565b60006020828403121561338b5761338a612dbb565b5b600082013567ffffffffffffffff8111156133a9576133a8612dc0565b5b6133b584828501613347565b91505092915050565b600080604083850312156133d5576133d4612dbb565b5b60006133e385828601613061565b92505060206133f485828601612e97565b9150509250929050565b600067ffffffffffffffff8211156134195761341861324a565b5b61342282612f1f565b9050602081019050919050565b600061344261343d846133fe565b6132aa565b90508281526020810184848401111561345e5761345d613245565b5b6134698482856132f6565b509392505050565b600082601f83011261348657613485613240565b5b813561349684826020860161342f565b91505092915050565b600080600080608085870312156134b9576134b8612dbb565b5b60006134c787828801613061565b94505060206134d887828801613061565b93505060406134e987828801612fac565b925050606085013567ffffffffffffffff81111561350a57613509612dc0565b5b61351687828801613471565b91505092959194509250565b6000806040838503121561353957613538612dbb565b5b600061354785828601613061565b925050602061355885828601613061565b9150509250929050565b7f4e487b7100000000000000000000000000000000000000000000000000000000600052602260045260246000fd5b600060028204905060018216806135a957607f821691505b6020821081036135bc576135bb613562565b5b50919050565b7f4552433732313a20617070726f76616c20746f2063757272656e74206f776e6560008201527f7200000000000000000000000000000000000000000000000000000000000000602082015250565b600061361e602183612ee4565b9150613629826135c2565b604082019050919050565b6000602082019050818103600083015261364d81613611565b9050919050565b7f4552433732313a20617070726f76652063616c6c6572206973206e6f7420746f60008201527f6b656e206f776e6572206f7220617070726f76656420666f7220616c6c000000602082015250565b60006136b0603d83612ee4565b91506136bb82613654565b604082019050919050565b600060208201905081810360008301526136df816136a3565b9050919050565b7f4552433732313a2063616c6c6572206973206e6f7420746f6b656e206f776e6560008201527f72206f7220617070726f76656400000000000000000000000000000000000000602082015250565b6000613742602d83612ee4565b915061374d826136e6565b604082019050919050565b6000602082019050818103600083015261377181613735565b9050919050565b7f455243373231456e756d657261626c653a206f776e657220696e646578206f7560008201527f74206f6620626f756e6473000000000000000000000000000000000000000000602082015250565b60006137d4602b83612ee4565b91506137df82613778565b604082019050919050565b60006020820190508181036000830152613803816137c7565b9050919050565b7f4e487b7100000000000000000000000000000000000000000000000000000000600052601160045260246000fd5b600061384482612f8b565b915061384f83612f8b565b925082820261385d81612f8b565b915082820484148315176138745761387361380a565b5b5092915050565b7f4e487b7100000000000000000000000000000000000000000000000000000000600052601260045260246000fd5b60006138b582612f8b565b91506138c083612f8b565b9250826138d0576138cf61387b565b5b828204905092915050565b600081905092915050565b50565b60006138f66000836138db565b9150613901826138e6565b600082019050919050565b6000613917826138e9565b9150819050919050565b600061392c82612f8b565b915061393783612f8b565b925082820190508082111561394f5761394e61380a565b5b92915050565b600061396082612f8b565b91507fffffffffffffffffffffffffffffffffffffffffffffffffffffffffffffffff82036139925761399161380a565b5b600182019050919050565b7f4e487b7100000000000000000000000000000000000000000000000000000000600052603260045260246000fd5b7f455243373231456e756d657261626c653a20676c6f62616c20696e646578206f60008201527f7574206f6620626f756e64730000000000000000000000000000000000000000602082015250565b6000613a28602c83612ee4565b9150613a33826139cc565b604082019050919050565b60006020820190508181036000830152613a5781613a1b565b9050919050565b60008190508160005260206000209050919050565b60006020601f8301049050919050565b600082821b905092915050565b600060088302613ac07fffffffffffffffffffffffffffffffffffffffffffffffffffffffffffffffff82613a83565b613aca8683613a83565b95508019841693508086168417925050509392505050565b6000819050919050565b6000613b07613b02613afd84612f8b565b613ae2565b612f8b565b9050919050565b6000819050919050565b613b2183613aec565b613b35613b2d82613b0e565b848454613a90565b825550505050565b600090565b613b4a613b3d565b613b55818484613b18565b505050565b5b81811015613b7957613b6e600082613b42565b600181019050613b5b565b5050565b601f821115613bbe57613b8f81613a5e565b613b9884613a73565b81016020851015613ba7578190505b613bbb613bb385613a73565b830182613b5a565b50505b505050565b600082821c905092915050565b6000613be160001984600802613bc3565b1980831691505092915050565b6000613bfa8383613bd0565b9150826002028217905092915050565b613c1382612ed9565b67ffffffffffffffff811115613c2c57613c2b61324a565b5b613c368254613591565b613c41828285613b7d565b600060209050601f831160018114613c745760008415613c62578287015190505b613c6c8582613bee565b865550613cd4565b601f198416613c8286613a5e565b60005b82811015613caa57848901518255600182019150602085019450602081019050613c85565b86831015613cc75784890151613cc3601f891682613bd0565b8355505b6001600288020188555050505b505050505050565b7f4552433732313a20696e76616c696420746f6b656e2049440000000000000000600082015250565b6000613d12601883612ee4565b9150613d1d82613cdc565b602082019050919050565b60006020820190508181036000830152613d4181613d05565b9050919050565b7f4552433732313a2061646472657373207a65726f206973206e6f74206120766160008201527f6c6964206f776e65720000000000000000000000000000000000000000000000602082015250565b6000613da4602983612ee4565b9150613daf82613d48565b604082019050919050565b60006020820190508181036000830152613dd381613d97565b9050919050565b7f4552433732314d657461646174613a2055524920717565727920666f72206e6f60008201527f6e6578697374656e7420746f6b656e0000000000000000000000000000000000602082015250565b6000613e36602f83612ee4565b9150613e4182613dda565b604082019050919050565b60006020820190508181036000830152613e6581613e29565b9050919050565b600081905092915050565b6000613e8282612ed9565b613e8c8185613e6c565b9350613e9c818560208601612ef5565b80840191505092915050565b60008154613eb581613591565b613ebf8186613e6c565b94506001821660008114613eda5760018114613eef57613f22565b60ff1983168652811515820286019350613f22565b613ef885613a5e565b60005b83811015613f1a57815481890152600182019150602081019050613efb565b838801955050505b50505092915050565b6000613f378286613e77565b9150613f438285613e77565b9150613f4f8284613ea8565b9150819050949350505050565b7f4f776e61626c653a206e6577206f776e657220697320746865207a65726f206160008201527f6464726573730000000000000000000000000000000000000000000000000000602082015250565b6000613fb8602683612ee4565b9150613fc382613f5c565b604082019050919050565b60006020820190508181036000830152613fe781613fab565b9050919050565b7f4f776e61626c653a2063616c6c6572206973206e6f7420746865206f776e6572600082015250565b6000614024602083612ee4565b915061402f82613fee565b602082019050919050565b6000602082019050818103600083015261405381614017565b9050919050565b7f4552433732313a207472616e736665722066726f6d20696e636f72726563742060008201527f6f776e6572000000000000000000000000000000000000000000000000000000602082015250565b60006140b6602583612ee4565b91506140c18261405a565b604082019050919050565b600060208201905081810360008301526140e5816140a9565b9050919050565b7f4552433732313a207472616e7366657220746f20746865207a65726f2061646460008201527f7265737300000000000000000000000000000000000000000000000000000000602082015250565b6000614148602483612ee4565b9150614153826140ec565b604082019050919050565b600060208201905081810360008301526141778161413b565b9050919050565b7f4552433732313a20617070726f766520746f2063616c6c657200000000000000600082015250565b60006141b4601983612ee4565b91506141bf8261417e565b602082019050919050565b600060208201905081810360008301526141e3816141a7565b9050919050565b7f4552433732313a207472616e7366657220746f206e6f6e20455243373231526560008201527f63656976657220696d706c656d656e7465720000000000000000000000000000602082015250565b6000614246603283612ee4565b9150614251826141ea565b604082019050919050565b6000602082019050818103600083015261427581614239565b9050919050565b7f455243373231456e756d657261626c653a20636f6e736563757469766520747260008201527f616e7366657273206e6f7420737570706f727465640000000000000000000000602082015250565b60006142d8603583612ee4565b91506142e38261427c565b604082019050919050565b60006020820190508181036000830152614307816142cb565b9050919050565b600081519050919050565b600082825260208201905092915050565b60006143358261430e565b61433f8185614319565b935061434f818560208601612ef5565b61435881612f1f565b840191505092915050565b60006080820190506143786000830187613020565b6143856020830186613020565b61439260408301856130b6565b81810360608301526143a4818461432a565b905095945050505050565b6000815190506143be81612df1565b92915050565b6000602082840312156143da576143d9612dbb565b5b60006143e8848285016143af565b91505092915050565b60006143fc82612f8b565b915061440783612f8b565b925082820390508181111561441f5761441e61380a565b5b92915050565b7f4e487b7100000000000000000000000000000000000000000000000000000000600052603160045260246000fd5b7f4552433732313a206d696e7420746f20746865207a65726f2061646472657373600082015250565b600061448a602083612ee4565b915061449582614454565b602082019050919050565b600060208201905081810360008301526144b98161447d565b9050919050565b7f4552433732313a20746f6b656e20616c7265616479206d696e74656400000000600082015250565b60006144f6601c83612ee4565b9150614501826144c0565b602082019050919050565b60006020820190508181036000830152614525816144e9565b905091905056fea264697066735822122009a46a7751d37b4538275236eb7c7416eda4f1f104dc061aa5c9ace8841675e464736f6c63430008120033","opcodes":"PUSH1 0x80 PUSH1 0x40 MSTORE PUSH1 0x40 MLOAD DUP1 PUSH1 0x40 ADD PUSH1 0x40 MSTORE DUP1 PUSH1 0x5 DUP2 MSTORE PUSH1 0x20 ADD PUSH32 0x2E6A736F6E000000000000000000000000000000000000000000000000000000 DUP2 MSTORE POP PUSH1 0xC SWAP1 DUP2 PUSH3 0x4A SWAP2 SWAP1 PUSH3 0x11CE JUMP JUMPDEST POP PUSH7 0xB1A2BC2EC50000 PUSH1 0xD SSTORE PUSH2 0x2710 PUSH1 0xE SSTORE PUSH1 0x14 PUSH1 0xF SSTORE PUSH1 0x0 PUSH1 0x10 PUSH1 0x0 PUSH2 0x100 EXP DUP2 SLOAD DUP2 PUSH1 0xFF MUL NOT AND SWAP1 DUP4 ISZERO ISZERO MUL OR SWAP1 SSTORE POP PUSH1 0x0 PUSH1 0x10 PUSH1 0x1 PUSH2 0x100 EXP DUP2 SLOAD DUP2 PUSH1 0xFF MUL NOT AND SWAP1 DUP4 ISZERO ISZERO MUL OR SWAP1 SSTORE POP CALLVALUE DUP1 ISZERO PUSH3 0xA4 JUMPI PUSH1 0x0 DUP1 REVERT JUMPDEST POP PUSH1 0x40 MLOAD PUSH3 0x60D9 CODESIZE SUB DUP1 PUSH3 0x60D9 DUP4 CODECOPY DUP2 DUP2 ADD PUSH1 0x40 MSTORE DUP2 ADD SWAP1 PUSH3 0xCA SWAP2 SWAP1 PUSH3 0x1419 JUMP JUMPDEST DUP4 DUP4 DUP2 PUSH1 0x0 SWAP1 DUP2 PUSH3 0xDD SWAP2 SWAP1 PUSH3 0x11CE JUMP JUMPDEST POP DUP1 PUSH1 0x1 SWAP1 DUP2 PUSH3 0xEF SWAP2 SWAP1 PUSH3 0x11CE JUMP JUMPDEST POP POP POP PUSH3 0x112 PUSH3 0x106 PUSH3 0x151 PUSH1 0x20 SHL PUSH1 0x20 SHR JUMP JUMPDEST PUSH3 0x159 PUSH1 0x20 SHL PUSH1 0x20 SHR JUMP JUMPDEST PUSH3 0x123 DUP3 PUSH3 0x21F PUSH1 0x20 SHL PUSH1 0x20 SHR JUMP JUMPDEST PUSH3 0x134 DUP2 PUSH3 0x244 PUSH1 0x20 SHL PUSH1 0x20 SHR JUMP JUMPDEST PUSH3 0x147 CALLER PUSH1 0x14 PUSH3 0x269 PUSH1 0x20 SHL PUSH1 0x20 SHR JUMP JUMPDEST POP POP POP POP PUSH3 0x1B67 JUMP JUMPDEST PUSH1 0x0 CALLER SWAP1 POP SWAP1 JUMP JUMPDEST PUSH1 0x0 PUSH1 0xA PUSH1 0x0 SWAP1 SLOAD SWAP1 PUSH2 0x100 EXP SWAP1 DIV PUSH20 0xFFFFFFFFFFFFFFFFFFFFFFFFFFFFFFFFFFFFFFFF AND SWAP1 POP DUP2 PUSH1 0xA PUSH1 0x0 PUSH2 0x100 EXP DUP2 SLOAD DUP2 PUSH20 0xFFFFFFFFFFFFFFFFFFFFFFFFFFFFFFFFFFFFFFFF MUL NOT AND SWAP1 DUP4 PUSH20 0xFFFFFFFFFFFFFFFFFFFFFFFFFFFFFFFFFFFFFFFF AND MUL OR SWAP1 SSTORE POP DUP2 PUSH20 0xFFFFFFFFFFFFFFFFFFFFFFFFFFFFFFFFFFFFFFFF AND DUP2 PUSH20 0xFFFFFFFFFFFFFFFFFFFFFFFFFFFFFFFFFFFFFFFF AND PUSH32 0x8BE0079C531659141344CD1FD0A4F28419497F9722A3DAAFE3B4186F6B6457E0 PUSH1 0x40 MLOAD PUSH1 0x40 MLOAD DUP1 SWAP2 SUB SWAP1 LOG3 POP POP JUMP JUMPDEST PUSH3 0x22F PUSH3 0x3D8 PUSH1 0x20 SHL PUSH1 0x20 SHR JUMP JUMPDEST DUP1 PUSH1 0xB SWAP1 DUP2 PUSH3 0x240 SWAP2 SWAP1 PUSH3 0x11CE JUMP JUMPDEST POP POP JUMP JUMPDEST PUSH3 0x254 PUSH3 0x3D8 PUSH1 0x20 SHL PUSH1 0x20 SHR JUMP JUMPDEST DUP1 PUSH1 0x11 SWAP1 DUP2 PUSH3 0x265 SWAP2 SWAP1 PUSH3 0x11CE JUMP JUMPDEST POP POP JUMP JUMPDEST PUSH1 0x0 PUSH3 0x27B PUSH3 0x469 PUSH1 0x20 SHL PUSH1 0x20 SHR JUMP JUMPDEST SWAP1 POP PUSH1 0x10 PUSH1 0x0 SWAP1 SLOAD SWAP1 PUSH2 0x100 EXP SWAP1 DIV PUSH1 0xFF AND ISZERO PUSH3 0x298 JUMPI PUSH1 0x0 DUP1 REVERT JUMPDEST PUSH1 0x0 DUP3 GT PUSH3 0x2A6 JUMPI PUSH1 0x0 DUP1 REVERT JUMPDEST PUSH1 0xF SLOAD DUP3 GT ISZERO PUSH3 0x2B6 JUMPI PUSH1 0x0 DUP1 REVERT JUMPDEST PUSH1 0xE SLOAD DUP3 DUP3 PUSH3 0x2C7 SWAP2 SWAP1 PUSH3 0x1536 JUMP JUMPDEST GT ISZERO PUSH3 0x2D3 JUMPI PUSH1 0x0 DUP1 REVERT JUMPDEST PUSH3 0x2E3 PUSH3 0x476 PUSH1 0x20 SHL PUSH1 0x20 SHR JUMP JUMPDEST PUSH20 0xFFFFFFFFFFFFFFFFFFFFFFFFFFFFFFFFFFFFFFFF AND CALLER PUSH20 0xFFFFFFFFFFFFFFFFFFFFFFFFFFFFFFFFFFFFFFFF AND EQ PUSH3 0x38E JUMPI PUSH1 0x1 ISZERO ISZERO PUSH1 0x12 PUSH1 0x0 CALLER PUSH20 0xFFFFFFFFFFFFFFFFFFFFFFFFFFFFFFFFFFFFFFFF AND PUSH20 0xFFFFFFFFFFFFFFFFFFFFFFFFFFFFFFFFFFFFFFFF AND DUP2 MSTORE PUSH1 0x20 ADD SWAP1 DUP2 MSTORE PUSH1 0x20 ADD PUSH1 0x0 KECCAK256 PUSH1 0x0 SWAP1 SLOAD SWAP1 PUSH2 0x100 EXP SWAP1 DIV PUSH1 0xFF AND ISZERO ISZERO EQ PUSH3 0x38D JUMPI DUP2 PUSH1 0xD SLOAD PUSH3 0x37F SWAP2 SWAP1 PUSH3 0x1571 JUMP JUMPDEST CALLVALUE LT ISZERO PUSH3 0x38C JUMPI PUSH1 0x0 DUP1 REVERT JUMPDEST JUMPDEST JUMPDEST PUSH1 0x0 PUSH1 0x1 SWAP1 POP JUMPDEST DUP3 DUP2 GT PUSH3 0x3D2 JUMPI PUSH3 0x3BC DUP5 DUP3 DUP5 PUSH3 0x3B0 SWAP2 SWAP1 PUSH3 0x1536 JUMP JUMPDEST PUSH3 0x4A0 PUSH1 0x20 SHL PUSH1 0x20 SHR JUMP JUMPDEST DUP1 DUP1 PUSH3 0x3C9 SWAP1 PUSH3 0x15BC JUMP JUMPDEST SWAP2 POP POP PUSH3 0x395 JUMP JUMPDEST POP POP POP POP JUMP JUMPDEST PUSH3 0x3E8 PUSH3 0x151 PUSH1 0x20 SHL PUSH1 0x20 SHR JUMP JUMPDEST PUSH20 0xFFFFFFFFFFFFFFFFFFFFFFFFFFFFFFFFFFFFFFFF AND PUSH3 0x40E PUSH3 0x476 PUSH1 0x20 SHL PUSH1 0x20 SHR JUMP JUMPDEST PUSH20 0xFFFFFFFFFFFFFFFFFFFFFFFFFFFFFFFFFFFFFFFF AND EQ PUSH3 0x467 JUMPI PUSH1 0x40 MLOAD PUSH32 0x8C379A000000000000000000000000000000000000000000000000000000000 DUP2 MSTORE PUSH1 0x4 ADD PUSH3 0x45E SWAP1 PUSH3 0x166A JUMP JUMPDEST PUSH1 0x40 MLOAD DUP1 SWAP2 SUB SWAP1 REVERT JUMPDEST JUMP JUMPDEST PUSH1 0x0 PUSH1 0x8 DUP1 SLOAD SWAP1 POP SWAP1 POP SWAP1 JUMP JUMPDEST PUSH1 0x0 PUSH1 0xA PUSH1 0x0 SWAP1 SLOAD SWAP1 PUSH2 0x100 EXP SWAP1 DIV PUSH20 0xFFFFFFFFFFFFFFFFFFFFFFFFFFFFFFFFFFFFFFFF AND SWAP1 POP SWAP1 JUMP JUMPDEST PUSH3 0x4C2 DUP3 DUP3 PUSH1 0x40 MLOAD DUP1 PUSH1 0x20 ADD PUSH1 0x40 MSTORE DUP1 PUSH1 0x0 DUP2 MSTORE POP PUSH3 0x4C6 PUSH1 0x20 SHL PUSH1 0x20 SHR JUMP JUMPDEST POP POP JUMP JUMPDEST PUSH3 0x4D8 DUP4 DUP4 PUSH3 0x534 PUSH1 0x20 SHL PUSH1 0x20 SHR JUMP JUMPDEST PUSH3 0x4ED PUSH1 0x0 DUP5 DUP5 DUP5 PUSH3 0x77A PUSH1 0x20 SHL PUSH1 0x20 SHR JUMP JUMPDEST PUSH3 0x52F JUMPI PUSH1 0x40 MLOAD PUSH32 0x8C379A000000000000000000000000000000000000000000000000000000000 DUP2 MSTORE PUSH1 0x4 ADD PUSH3 0x526 SWAP1 PUSH3 0x1702 JUMP JUMPDEST PUSH1 0x40 MLOAD DUP1 SWAP2 SUB SWAP1 REVERT JUMPDEST POP POP POP JUMP JUMPDEST PUSH1 0x0 PUSH20 0xFFFFFFFFFFFFFFFFFFFFFFFFFFFFFFFFFFFFFFFF AND DUP3 PUSH20 0xFFFFFFFFFFFFFFFFFFFFFFFFFFFFFFFFFFFFFFFF AND SUB PUSH3 0x5A6 JUMPI PUSH1 0x40 MLOAD PUSH32 0x8C379A000000000000000000000000000000000000000000000000000000000 DUP2 MSTORE PUSH1 0x4 ADD PUSH3 0x59D SWAP1 PUSH3 0x1774 JUMP JUMPDEST PUSH1 0x40 MLOAD DUP1 SWAP2 SUB SWAP1 REVERT JUMPDEST PUSH3 0x5B7 DUP2 PUSH3 0x923 PUSH1 0x20 SHL PUSH1 0x20 SHR JUMP JUMPDEST ISZERO PUSH3 0x5FA JUMPI PUSH1 0x40 MLOAD PUSH32 0x8C379A000000000000000000000000000000000000000000000000000000000 DUP2 MSTORE PUSH1 0x4 ADD PUSH3 0x5F1 SWAP1 PUSH3 0x17E6 JUMP JUMPDEST PUSH1 0x40 MLOAD DUP1 SWAP2 SUB SWAP1 REVERT JUMPDEST PUSH3 0x610 PUSH1 0x0 DUP4 DUP4 PUSH1 0x1 PUSH3 0x96C PUSH1 0x20 SHL PUSH1 0x20 SHR JUMP JUMPDEST PUSH3 0x621 DUP2 PUSH3 0x923 PUSH1 0x20 SHL PUSH1 0x20 SHR JUMP JUMPDEST ISZERO PUSH3 0x664 JUMPI PUSH1 0x40 MLOAD PUSH32 0x8C379A000000000000000000000000000000000000000000000000000000000 DUP2 MSTORE PUSH1 0x4 ADD PUSH3 0x65B SWAP1 PUSH3 0x17E6 JUMP JUMPDEST PUSH1 0x40 MLOAD DUP1 SWAP2 SUB SWAP1 REVERT JUMPDEST PUSH1 0x1 PUSH1 0x3 PUSH1 0x0 DUP5 PUSH20 0xFFFFFFFFFFFFFFFFFFFFFFFFFFFFFFFFFFFFFFFF AND PUSH20 0xFFFFFFFFFFFFFFFFFFFFFFFFFFFFFFFFFFFFFFFF AND DUP2 MSTORE PUSH1 0x20 ADD SWAP1 DUP2 MSTORE PUSH1 0x20 ADD PUSH1 0x0 KECCAK256 PUSH1 0x0 DUP3 DUP3 SLOAD ADD SWAP3 POP POP DUP2 SWAP1 SSTORE POP DUP2 PUSH1 0x2 PUSH1 0x0 DUP4 DUP2 MSTORE PUSH1 0x20 ADD SWAP1 DUP2 MSTORE PUSH1 0x20 ADD PUSH1 0x0 KECCAK256 PUSH1 0x0 PUSH2 0x100 EXP DUP2 SLOAD DUP2 PUSH20 0xFFFFFFFFFFFFFFFFFFFFFFFFFFFFFFFFFFFFFFFF MUL NOT AND SWAP1 DUP4 PUSH20 0xFFFFFFFFFFFFFFFFFFFFFFFFFFFFFFFFFFFFFFFF AND MUL OR SWAP1 SSTORE POP DUP1 DUP3 PUSH20 0xFFFFFFFFFFFFFFFFFFFFFFFFFFFFFFFFFFFFFFFF AND PUSH1 0x0 PUSH20 0xFFFFFFFFFFFFFFFFFFFFFFFFFFFFFFFFFFFFFFFF AND PUSH32 0xDDF252AD1BE2C89B69C2B068FC378DAA952BA7F163C4A11628F55A4DF523B3EF PUSH1 0x40 MLOAD PUSH1 0x40 MLOAD DUP1 SWAP2 SUB SWAP1 LOG4 PUSH3 0x776 PUSH1 0x0 DUP4 DUP4 PUSH1 0x1 PUSH3 0xB00 PUSH1 0x20 SHL PUSH1 0x20 SHR JUMP JUMPDEST POP POP JUMP JUMPDEST PUSH1 0x0 PUSH3 0x7A8 DUP5 PUSH20 0xFFFFFFFFFFFFFFFFFFFFFFFFFFFFFFFFFFFFFFFF AND PUSH3 0xB06 PUSH1 0x20 SHL PUSH3 0x18DE OR PUSH1 0x20 SHR JUMP JUMPDEST ISZERO PUSH3 0x916 JUMPI DUP4 PUSH20 0xFFFFFFFFFFFFFFFFFFFFFFFFFFFFFFFFFFFFFFFF AND PUSH4 0x150B7A02 PUSH3 0x7DA PUSH3 0x151 PUSH1 0x20 SHL PUSH1 0x20 SHR JUMP JUMPDEST DUP8 DUP7 DUP7 PUSH1 0x40 MLOAD DUP6 PUSH4 0xFFFFFFFF AND PUSH1 0xE0 SHL DUP2 MSTORE PUSH1 0x4 ADD PUSH3 0x7FE SWAP5 SWAP4 SWAP3 SWAP2 SWAP1 PUSH3 0x18BB JUMP JUMPDEST PUSH1 0x20 PUSH1 0x40 MLOAD DUP1 DUP4 SUB DUP2 PUSH1 0x0 DUP8 GAS CALL SWAP3 POP POP POP DUP1 ISZERO PUSH3 0x83D JUMPI POP PUSH1 0x40 MLOAD RETURNDATASIZE PUSH1 0x1F NOT PUSH1 0x1F DUP3 ADD AND DUP3 ADD DUP1 PUSH1 0x40 MSTORE POP DUP2 ADD SWAP1 PUSH3 0x83A SWAP2 SWAP1 PUSH3 0x196C JUMP JUMPDEST PUSH1 0x1 JUMPDEST PUSH3 0x8C5 JUMPI RETURNDATASIZE DUP1 PUSH1 0x0 DUP2 EQ PUSH3 0x870 JUMPI PUSH1 0x40 MLOAD SWAP2 POP PUSH1 0x1F NOT PUSH1 0x3F RETURNDATASIZE ADD AND DUP3 ADD PUSH1 0x40 MSTORE RETURNDATASIZE DUP3 MSTORE RETURNDATASIZE PUSH1 0x0 PUSH1 0x20 DUP5 ADD RETURNDATACOPY PUSH3 0x875 JUMP JUMPDEST PUSH1 0x60 SWAP2 POP JUMPDEST POP PUSH1 0x0 DUP2 MLOAD SUB PUSH3 0x8BD JUMPI PUSH1 0x40 MLOAD PUSH32 0x8C379A000000000000000000000000000000000000000000000000000000000 DUP2 MSTORE PUSH1 0x4 ADD PUSH3 0x8B4 SWAP1 PUSH3 0x1702 JUMP JUMPDEST PUSH1 0x40 MLOAD DUP1 SWAP2 SUB SWAP1 REVERT JUMPDEST DUP1 MLOAD DUP2 PUSH1 0x20 ADD REVERT JUMPDEST PUSH4 0x150B7A02 PUSH1 0xE0 SHL PUSH28 0xFFFFFFFFFFFFFFFFFFFFFFFFFFFFFFFFFFFFFFFFFFFFFFFFFFFFFFFF NOT AND DUP2 PUSH28 0xFFFFFFFFFFFFFFFFFFFFFFFFFFFFFFFFFFFFFFFFFFFFFFFFFFFFFFFF NOT AND EQ SWAP2 POP POP PUSH3 0x91B JUMP JUMPDEST PUSH1 0x1 SWAP1 POP JUMPDEST SWAP5 SWAP4 POP POP POP POP JUMP JUMPDEST PUSH1 0x0 DUP1 PUSH20 0xFFFFFFFFFFFFFFFFFFFFFFFFFFFFFFFFFFFFFFFF AND PUSH3 0x94D DUP4 PUSH3 0xB29 PUSH1 0x20 SHL PUSH1 0x20 SHR JUMP JUMPDEST PUSH20 0xFFFFFFFFFFFFFFFFFFFFFFFFFFFFFFFFFFFFFFFF AND EQ ISZERO SWAP1 POP SWAP2 SWAP1 POP JUMP JUMPDEST PUSH3 0x985 DUP5 DUP5 DUP5 DUP5 PUSH3 0xB66 PUSH1 0x20 SHL PUSH3 0x1901 OR PUSH1 0x20 SHR JUMP JUMPDEST PUSH1 0x1 DUP2 GT ISZERO PUSH3 0x9CC JUMPI PUSH1 0x40 MLOAD PUSH32 0x8C379A000000000000000000000000000000000000000000000000000000000 DUP2 MSTORE PUSH1 0x4 ADD PUSH3 0x9C3 SWAP1 PUSH3 0x1A14 JUMP JUMPDEST PUSH1 0x40 MLOAD DUP1 SWAP2 SUB SWAP1 REVERT JUMPDEST PUSH1 0x0 DUP3 SWAP1 POP PUSH1 0x0 PUSH20 0xFFFFFFFFFFFFFFFFFFFFFFFFFFFFFFFFFFFFFFFF AND DUP6 PUSH20 0xFFFFFFFFFFFFFFFFFFFFFFFFFFFFFFFFFFFFFFFF AND SUB PUSH3 0xA1D JUMPI PUSH3 0xA17 DUP2 PUSH3 0xB6C PUSH1 0x20 SHL PUSH1 0x20 SHR JUMP JUMPDEST PUSH3 0xA65 JUMP JUMPDEST DUP4 PUSH20 0xFFFFFFFFFFFFFFFFFFFFFFFFFFFFFFFFFFFFFFFF AND DUP6 PUSH20 0xFFFFFFFFFFFFFFFFFFFFFFFFFFFFFFFFFFFFFFFF AND EQ PUSH3 0xA64 JUMPI PUSH3 0xA63 DUP6 DUP3 PUSH3 0xBB5 PUSH1 0x20 SHL PUSH1 0x20 SHR JUMP JUMPDEST JUMPDEST JUMPDEST PUSH1 0x0 PUSH20 0xFFFFFFFFFFFFFFFFFFFFFFFFFFFFFFFFFFFFFFFF AND DUP5 PUSH20 0xFFFFFFFFFFFFFFFFFFFFFFFFFFFFFFFFFFFFFFFF AND SUB PUSH3 0xAB1 JUMPI PUSH3 0xAAB DUP2 PUSH3 0xD32 PUSH1 0x20 SHL PUSH1 0x20 SHR JUMP JUMPDEST PUSH3 0xAF9 JUMP JUMPDEST DUP5 PUSH20 0xFFFFFFFFFFFFFFFFFFFFFFFFFFFFFFFFFFFFFFFF AND DUP5 PUSH20 0xFFFFFFFFFFFFFFFFFFFFFFFFFFFFFFFFFFFFFFFF AND EQ PUSH3 0xAF8 JUMPI PUSH3 0xAF7 DUP5 DUP3 PUSH3 0xE0E PUSH1 0x20 SHL PUSH1 0x20 SHR JUMP JUMPDEST JUMPDEST JUMPDEST POP POP POP POP POP JUMP JUMPDEST POP POP POP POP JUMP JUMPDEST PUSH1 0x0 DUP1 DUP3 PUSH20 0xFFFFFFFFFFFFFFFFFFFFFFFFFFFFFFFFFFFFFFFF AND EXTCODESIZE GT SWAP1 POP SWAP2 SWAP1 POP JUMP JUMPDEST PUSH1 0x0 PUSH1 0x2 PUSH1 0x0 DUP4 DUP2 MSTORE PUSH1 0x20 ADD SWAP1 DUP2 MSTORE PUSH1 0x20 ADD PUSH1 0x0 KECCAK256 PUSH1 0x0 SWAP1 SLOAD SWAP1 PUSH2 0x100 EXP SWAP1 DIV PUSH20 0xFFFFFFFFFFFFFFFFFFFFFFFFFFFFFFFFFFFFFFFF AND SWAP1 POP SWAP2 SWAP1 POP JUMP JUMPDEST POP POP POP POP JUMP JUMPDEST PUSH1 0x8 DUP1 SLOAD SWAP1 POP PUSH1 0x9 PUSH1 0x0 DUP4 DUP2 MSTORE PUSH1 0x20 ADD SWAP1 DUP2 MSTORE PUSH1 0x20 ADD PUSH1 0x0 KECCAK256 DUP2 SWAP1 SSTORE POP PUSH1 0x8 DUP2 SWAP1 DUP1 PUSH1 0x1 DUP2 SLOAD ADD DUP1 DUP3 SSTORE DUP1 SWAP2 POP POP PUSH1 0x1 SWAP1 SUB SWAP1 PUSH1 0x0 MSTORE PUSH1 0x20 PUSH1 0x0 KECCAK256 ADD PUSH1 0x0 SWAP1 SWAP2 SWAP1 SWAP2 SWAP1 SWAP2 POP SSTORE POP JUMP JUMPDEST PUSH1 0x0 PUSH1 0x1 PUSH3 0xBCF DUP5 PUSH3 0xE9A PUSH1 0x20 SHL PUSH3 0x134F OR PUSH1 0x20 SHR JUMP JUMPDEST PUSH3 0xBDB SWAP2 SWAP1 PUSH3 0x1A36 JUMP JUMPDEST SWAP1 POP PUSH1 0x0 PUSH1 0x7 PUSH1 0x0 DUP5 DUP2 MSTORE PUSH1 0x20 ADD SWAP1 DUP2 MSTORE PUSH1 0x20 ADD PUSH1 0x0 KECCAK256 SLOAD SWAP1 POP DUP2 DUP2 EQ PUSH3 0xCC1 JUMPI PUSH1 0x0 PUSH1 0x6 PUSH1 0x0 DUP7 PUSH20 0xFFFFFFFFFFFFFFFFFFFFFFFFFFFFFFFFFFFFFFFF AND PUSH20 0xFFFFFFFFFFFFFFFFFFFFFFFFFFFFFFFFFFFFFFFF AND DUP2 MSTORE PUSH1 0x20 ADD SWAP1 DUP2 MSTORE PUSH1 0x20 ADD PUSH1 0x0 KECCAK256 PUSH1 0x0 DUP5 DUP2 MSTORE PUSH1 0x20 ADD SWAP1 DUP2 MSTORE PUSH1 0x20 ADD PUSH1 0x0 KECCAK256 SLOAD SWAP1 POP DUP1 PUSH1 0x6 PUSH1 0x0 DUP8 PUSH20 0xFFFFFFFFFFFFFFFFFFFFFFFFFFFFFFFFFFFFFFFF AND PUSH20 0xFFFFFFFFFFFFFFFFFFFFFFFFFFFFFFFFFFFFFFFF AND DUP2 MSTORE PUSH1 0x20 ADD SWAP1 DUP2 MSTORE PUSH1 0x20 ADD PUSH1 0x0 KECCAK256 PUSH1 0x0 DUP5 DUP2 MSTORE PUSH1 0x20 ADD SWAP1 DUP2 MSTORE PUSH1 0x20 ADD PUSH1 0x0 KECCAK256 DUP2 SWAP1 SSTORE POP DUP2 PUSH1 0x7 PUSH1 0x0 DUP4 DUP2 MSTORE PUSH1 0x20 ADD SWAP1 DUP2 MSTORE PUSH1 0x20 ADD PUSH1 0x0 KECCAK256 DUP2 SWAP1 SSTORE POP POP JUMPDEST PUSH1 0x7 PUSH1 0x0 DUP5 DUP2 MSTORE PUSH1 0x20 ADD SWAP1 DUP2 MSTORE PUSH1 0x20 ADD PUSH1 0x0 KECCAK256 PUSH1 0x0 SWAP1 SSTORE PUSH1 0x6 PUSH1 0x0 DUP6 PUSH20 0xFFFFFFFFFFFFFFFFFFFFFFFFFFFFFFFFFFFFFFFF AND PUSH20 0xFFFFFFFFFFFFFFFFFFFFFFFFFFFFFFFFFFFFFFFF AND DUP2 MSTORE PUSH1 0x20 ADD SWAP1 DUP2 MSTORE PUSH1 0x20 ADD PUSH1 0x0 KECCAK256 PUSH1 0x0 DUP4 DUP2 MSTORE PUSH1 0x20 ADD SWAP1 DUP2 MSTORE PUSH1 0x20 ADD PUSH1 0x0 KECCAK256 PUSH1 0x0 SWAP1 SSTORE POP POP POP POP JUMP JUMPDEST PUSH1 0x0 PUSH1 0x1 PUSH1 0x8 DUP1 SLOAD SWAP1 POP PUSH3 0xD48 SWAP2 SWAP1 PUSH3 0x1A36 JUMP JUMPDEST SWAP1 POP PUSH1 0x0 PUSH1 0x9 PUSH1 0x0 DUP5 DUP2 MSTORE PUSH1 0x20 ADD SWAP1 DUP2 MSTORE PUSH1 0x20 ADD PUSH1 0x0 KECCAK256 SLOAD SWAP1 POP PUSH1 0x0 PUSH1 0x8 DUP4 DUP2 SLOAD DUP2 LT PUSH3 0xD7B JUMPI PUSH3 0xD7A PUSH3 0x1A71 JUMP JUMPDEST JUMPDEST SWAP1 PUSH1 0x0 MSTORE PUSH1 0x20 PUSH1 0x0 KECCAK256 ADD SLOAD SWAP1 POP DUP1 PUSH1 0x8 DUP4 DUP2 SLOAD DUP2 LT PUSH3 0xDA0 JUMPI PUSH3 0xD9F PUSH3 0x1A71 JUMP JUMPDEST JUMPDEST SWAP1 PUSH1 0x0 MSTORE PUSH1 0x20 PUSH1 0x0 KECCAK256 ADD DUP2 SWAP1 SSTORE POP DUP2 PUSH1 0x9 PUSH1 0x0 DUP4 DUP2 MSTORE PUSH1 0x20 ADD SWAP1 DUP2 MSTORE PUSH1 0x20 ADD PUSH1 0x0 KECCAK256 DUP2 SWAP1 SSTORE POP PUSH1 0x9 PUSH1 0x0 DUP6 DUP2 MSTORE PUSH1 0x20 ADD SWAP1 DUP2 MSTORE PUSH1 0x20 ADD PUSH1 0x0 KECCAK256 PUSH1 0x0 SWAP1 SSTORE PUSH1 0x8 DUP1 SLOAD DUP1 PUSH3 0xDF2 JUMPI PUSH3 0xDF1 PUSH3 0x1AA0 JUMP JUMPDEST JUMPDEST PUSH1 0x1 SWAP1 SUB DUP2 DUP2 SWAP1 PUSH1 0x0 MSTORE PUSH1 0x20 PUSH1 0x0 KECCAK256 ADD PUSH1 0x0 SWAP1 SSTORE SWAP1 SSTORE POP POP POP POP JUMP JUMPDEST PUSH1 0x0 PUSH3 0xE26 DUP4 PUSH3 0xE9A PUSH1 0x20 SHL PUSH3 0x134F OR PUSH1 0x20 SHR JUMP JUMPDEST SWAP1 POP DUP2 PUSH1 0x6 PUSH1 0x0 DUP6 PUSH20 0xFFFFFFFFFFFFFFFFFFFFFFFFFFFFFFFFFFFFFFFF AND PUSH20 0xFFFFFFFFFFFFFFFFFFFFFFFFFFFFFFFFFFFFFFFF AND DUP2 MSTORE PUSH1 0x20 ADD SWAP1 DUP2 MSTORE PUSH1 0x20 ADD PUSH1 0x0 KECCAK256 PUSH1 0x0 DUP4 DUP2 MSTORE PUSH1 0x20 ADD SWAP1 DUP2 MSTORE PUSH1 0x20 ADD PUSH1 0x0 KECCAK256 DUP2 SWAP1 SSTORE POP DUP1 PUSH1 0x7 PUSH1 0x0 DUP5 DUP2 MSTORE PUSH1 0x20 ADD SWAP1 DUP2 MSTORE PUSH1 0x20 ADD PUSH1 0x0 KECCAK256 DUP2 SWAP1 SSTORE POP POP POP POP JUMP JUMPDEST PUSH1 0x0 DUP1 PUSH20 0xFFFFFFFFFFFFFFFFFFFFFFFFFFFFFFFFFFFFFFFF AND DUP3 PUSH20 0xFFFFFFFFFFFFFFFFFFFFFFFFFFFFFFFFFFFFFFFF AND SUB PUSH3 0xF0D JUMPI PUSH1 0x40 MLOAD PUSH32 0x8C379A000000000000000000000000000000000000000000000000000000000 DUP2 MSTORE PUSH1 0x4 ADD PUSH3 0xF04 SWAP1 PUSH3 0x1B45 JUMP JUMPDEST PUSH1 0x40 MLOAD DUP1 SWAP2 SUB SWAP1 REVERT JUMPDEST PUSH1 0x3 PUSH1 0x0 DUP4 PUSH20 0xFFFFFFFFFFFFFFFFFFFFFFFFFFFFFFFFFFFFFFFF AND PUSH20 0xFFFFFFFFFFFFFFFFFFFFFFFFFFFFFFFFFFFFFFFF AND DUP2 MSTORE PUSH1 0x20 ADD SWAP1 DUP2 MSTORE PUSH1 0x20 ADD PUSH1 0x0 KECCAK256 SLOAD SWAP1 POP SWAP2 SWAP1 POP JUMP JUMPDEST PUSH1 0x0 DUP2 MLOAD SWAP1 POP SWAP2 SWAP1 POP JUMP JUMPDEST PUSH32 0x4E487B7100000000000000000000000000000000000000000000000000000000 PUSH1 0x0 MSTORE PUSH1 0x41 PUSH1 0x4 MSTORE PUSH1 0x24 PUSH1 0x0 REVERT JUMPDEST PUSH32 0x4E487B7100000000000000000000000000000000000000000000000000000000 PUSH1 0x0 MSTORE PUSH1 0x22 PUSH1 0x4 MSTORE PUSH1 0x24 PUSH1 0x0 REVERT JUMPDEST PUSH1 0x0 PUSH1 0x2 DUP3 DIV SWAP1 POP PUSH1 0x1 DUP3 AND DUP1 PUSH3 0xFD6 JUMPI PUSH1 0x7F DUP3 AND SWAP2 POP JUMPDEST PUSH1 0x20 DUP3 LT DUP2 SUB PUSH3 0xFEC JUMPI PUSH3 0xFEB PUSH3 0xF8E JUMP JUMPDEST JUMPDEST POP SWAP2 SWAP1 POP JUMP JUMPDEST PUSH1 0x0 DUP2 SWAP1 POP DUP2 PUSH1 0x0 MSTORE PUSH1 0x20 PUSH1 0x0 KECCAK256 SWAP1 POP SWAP2 SWAP1 POP JUMP JUMPDEST PUSH1 0x0 PUSH1 0x20 PUSH1 0x1F DUP4 ADD DIV SWAP1 POP SWAP2 SWAP1 POP JUMP JUMPDEST PUSH1 0x0 DUP3 DUP3 SHL SWAP1 POP SWAP3 SWAP2 POP POP JUMP JUMPDEST PUSH1 0x0 PUSH1 0x8 DUP4 MUL PUSH3 0x1056 PUSH32 0xFFFFFFFFFFFFFFFFFFFFFFFFFFFFFFFFFFFFFFFFFFFFFFFFFFFFFFFFFFFFFFFF DUP3 PUSH3 0x1017 JUMP JUMPDEST PUSH3 0x1062 DUP7 DUP4 PUSH3 0x1017 JUMP JUMPDEST SWAP6 POP DUP1 NOT DUP5 AND SWAP4 POP DUP1 DUP7 AND DUP5 OR SWAP3 POP POP POP SWAP4 SWAP3 POP POP POP JUMP JUMPDEST PUSH1 0x0 DUP2 SWAP1 POP SWAP2 SWAP1 POP JUMP JUMPDEST PUSH1 0x0 DUP2 SWAP1 POP SWAP2 SWAP1 POP JUMP JUMPDEST PUSH1 0x0 PUSH3 0x10AF PUSH3 0x10A9 PUSH3 0x10A3 DUP5 PUSH3 0x107A JUMP JUMPDEST PUSH3 0x1084 JUMP JUMPDEST PUSH3 0x107A JUMP JUMPDEST SWAP1 POP SWAP2 SWAP1 POP JUMP JUMPDEST PUSH1 0x0 DUP2 SWAP1 POP SWAP2 SWAP1 POP JUMP JUMPDEST PUSH3 0x10CB DUP4 PUSH3 0x108E JUMP JUMPDEST PUSH3 0x10E3 PUSH3 0x10DA DUP3 PUSH3 0x10B6 JUMP JUMPDEST DUP5 DUP5 SLOAD PUSH3 0x1024 JUMP JUMPDEST DUP3 SSTORE POP POP POP POP JUMP JUMPDEST PUSH1 0x0 SWAP1 JUMP JUMPDEST PUSH3 0x10FA PUSH3 0x10EB JUMP JUMPDEST PUSH3 0x1107 DUP2 DUP5 DUP5 PUSH3 0x10C0 JUMP JUMPDEST POP POP POP JUMP JUMPDEST JUMPDEST DUP2 DUP2 LT ISZERO PUSH3 0x112F JUMPI PUSH3 0x1123 PUSH1 0x0 DUP3 PUSH3 0x10F0 JUMP JUMPDEST PUSH1 0x1 DUP2 ADD SWAP1 POP PUSH3 0x110D JUMP JUMPDEST POP POP JUMP JUMPDEST PUSH1 0x1F DUP3 GT ISZERO PUSH3 0x117E JUMPI PUSH3 0x1148 DUP2 PUSH3 0xFF2 JUMP JUMPDEST PUSH3 0x1153 DUP5 PUSH3 0x1007 JUMP JUMPDEST DUP2 ADD PUSH1 0x20 DUP6 LT ISZERO PUSH3 0x1163 JUMPI DUP2 SWAP1 POP JUMPDEST PUSH3 0x117B PUSH3 0x1172 DUP6 PUSH3 0x1007 JUMP JUMPDEST DUP4 ADD DUP3 PUSH3 0x110C JUMP JUMPDEST POP POP JUMPDEST POP POP POP JUMP JUMPDEST PUSH1 0x0 DUP3 DUP3 SHR SWAP1 POP SWAP3 SWAP2 POP POP JUMP JUMPDEST PUSH1 0x0 PUSH3 0x11A3 PUSH1 0x0 NOT DUP5 PUSH1 0x8 MUL PUSH3 0x1183 JUMP JUMPDEST NOT DUP1 DUP4 AND SWAP2 POP POP SWAP3 SWAP2 POP POP JUMP JUMPDEST PUSH1 0x0 PUSH3 0x11BE DUP4 DUP4 PUSH3 0x1190 JUMP JUMPDEST SWAP2 POP DUP3 PUSH1 0x2 MUL DUP3 OR SWAP1 POP SWAP3 SWAP2 POP POP JUMP JUMPDEST PUSH3 0x11D9 DUP3 PUSH3 0xF54 JUMP JUMPDEST PUSH8 0xFFFFFFFFFFFFFFFF DUP2 GT ISZERO PUSH3 0x11F5 JUMPI PUSH3 0x11F4 PUSH3 0xF5F JUMP JUMPDEST JUMPDEST PUSH3 0x1201 DUP3 SLOAD PUSH3 0xFBD JUMP JUMPDEST PUSH3 0x120E DUP3 DUP3 DUP6 PUSH3 0x1133 JUMP JUMPDEST PUSH1 0x0 PUSH1 0x20 SWAP1 POP PUSH1 0x1F DUP4 GT PUSH1 0x1 DUP2 EQ PUSH3 0x1246 JUMPI PUSH1 0x0 DUP5 ISZERO PUSH3 0x1231 JUMPI DUP3 DUP8 ADD MLOAD SWAP1 POP JUMPDEST PUSH3 0x123D DUP6 DUP3 PUSH3 0x11B0 JUMP JUMPDEST DUP7 SSTORE POP PUSH3 0x12AD JUMP JUMPDEST PUSH1 0x1F NOT DUP5 AND PUSH3 0x1256 DUP7 PUSH3 0xFF2 JUMP JUMPDEST PUSH1 0x0 JUMPDEST DUP3 DUP2 LT ISZERO PUSH3 0x1280 JUMPI DUP5 DUP10 ADD MLOAD DUP3 SSTORE PUSH1 0x1 DUP3 ADD SWAP2 POP PUSH1 0x20 DUP6 ADD SWAP5 POP PUSH1 0x20 DUP2 ADD SWAP1 POP PUSH3 0x1259 JUMP JUMPDEST DUP7 DUP4 LT ISZERO PUSH3 0x12A0 JUMPI DUP5 DUP10 ADD MLOAD PUSH3 0x129C PUSH1 0x1F DUP10 AND DUP3 PUSH3 0x1190 JUMP JUMPDEST DUP4 SSTORE POP JUMPDEST PUSH1 0x1 PUSH1 0x2 DUP9 MUL ADD DUP9 SSTORE POP POP POP JUMPDEST POP POP POP POP POP POP JUMP JUMPDEST PUSH1 0x0 PUSH1 0x40 MLOAD SWAP1 POP SWAP1 JUMP JUMPDEST PUSH1 0x0 DUP1 REVERT JUMPDEST PUSH1 0x0 DUP1 REVERT JUMPDEST PUSH1 0x0 DUP1 REVERT JUMPDEST PUSH1 0x0 DUP1 REVERT JUMPDEST PUSH1 0x0 PUSH1 0x1F NOT PUSH1 0x1F DUP4 ADD AND SWAP1 POP SWAP2 SWAP1 POP JUMP JUMPDEST PUSH3 0x12EF DUP3 PUSH3 0x12D3 JUMP JUMPDEST DUP2 ADD DUP2 DUP2 LT PUSH8 0xFFFFFFFFFFFFFFFF DUP3 GT OR ISZERO PUSH3 0x1311 JUMPI PUSH3 0x1310 PUSH3 0xF5F JUMP JUMPDEST JUMPDEST DUP1 PUSH1 0x40 MSTORE POP POP POP JUMP JUMPDEST PUSH1 0x0 PUSH3 0x1326 PUSH3 0x12B5 JUMP JUMPDEST SWAP1 POP PUSH3 0x1334 DUP3 DUP3 PUSH3 0x12E4 JUMP JUMPDEST SWAP2 SWAP1 POP JUMP JUMPDEST PUSH1 0x0 PUSH8 0xFFFFFFFFFFFFFFFF DUP3 GT ISZERO PUSH3 0x1357 JUMPI PUSH3 0x1356 PUSH3 0xF5F JUMP JUMPDEST JUMPDEST PUSH3 0x1362 DUP3 PUSH3 0x12D3 JUMP JUMPDEST SWAP1 POP PUSH1 0x20 DUP2 ADD SWAP1 POP SWAP2 SWAP1 POP JUMP JUMPDEST PUSH1 0x0 JUMPDEST DUP4 DUP2 LT ISZERO PUSH3 0x138F JUMPI DUP1 DUP3 ADD MLOAD DUP2 DUP5 ADD MSTORE PUSH1 0x20 DUP2 ADD SWAP1 POP PUSH3 0x1372 JUMP JUMPDEST PUSH1 0x0 DUP5 DUP5 ADD MSTORE POP POP POP POP JUMP JUMPDEST PUSH1 0x0 PUSH3 0x13B2 PUSH3 0x13AC DUP5 PUSH3 0x1339 JUMP JUMPDEST PUSH3 0x131A JUMP JUMPDEST SWAP1 POP DUP3 DUP2 MSTORE PUSH1 0x20 DUP2 ADD DUP5 DUP5 DUP5 ADD GT ISZERO PUSH3 0x13D1 JUMPI PUSH3 0x13D0 PUSH3 0x12CE JUMP JUMPDEST JUMPDEST PUSH3 0x13DE DUP5 DUP3 DUP6 PUSH3 0x136F JUMP JUMPDEST POP SWAP4 SWAP3 POP POP POP JUMP JUMPDEST PUSH1 0x0 DUP3 PUSH1 0x1F DUP4 ADD SLT PUSH3 0x13FE JUMPI PUSH3 0x13FD PUSH3 0x12C9 JUMP JUMPDEST JUMPDEST DUP2 MLOAD PUSH3 0x1410 DUP5 DUP3 PUSH1 0x20 DUP7 ADD PUSH3 0x139B JUMP JUMPDEST SWAP2 POP POP SWAP3 SWAP2 POP POP JUMP JUMPDEST PUSH1 0x0 DUP1 PUSH1 0x0 DUP1 PUSH1 0x80 DUP6 DUP8 SUB SLT ISZERO PUSH3 0x1436 JUMPI PUSH3 0x1435 PUSH3 0x12BF JUMP JUMPDEST JUMPDEST PUSH1 0x0 DUP6 ADD MLOAD PUSH8 0xFFFFFFFFFFFFFFFF DUP2 GT ISZERO PUSH3 0x1457 JUMPI PUSH3 0x1456 PUSH3 0x12C4 JUMP JUMPDEST JUMPDEST PUSH3 0x1465 DUP8 DUP3 DUP9 ADD PUSH3 0x13E6 JUMP JUMPDEST SWAP5 POP POP PUSH1 0x20 DUP6 ADD MLOAD PUSH8 0xFFFFFFFFFFFFFFFF DUP2 GT ISZERO PUSH3 0x1489 JUMPI PUSH3 0x1488 PUSH3 0x12C4 JUMP JUMPDEST JUMPDEST PUSH3 0x1497 DUP8 DUP3 DUP9 ADD PUSH3 0x13E6 JUMP JUMPDEST SWAP4 POP POP PUSH1 0x40 DUP6 ADD MLOAD PUSH8 0xFFFFFFFFFFFFFFFF DUP2 GT ISZERO PUSH3 0x14BB JUMPI PUSH3 0x14BA PUSH3 0x12C4 JUMP JUMPDEST JUMPDEST PUSH3 0x14C9 DUP8 DUP3 DUP9 ADD PUSH3 0x13E6 JUMP JUMPDEST SWAP3 POP POP PUSH1 0x60 DUP6 ADD MLOAD PUSH8 0xFFFFFFFFFFFFFFFF DUP2 GT ISZERO PUSH3 0x14ED JUMPI PUSH3 0x14EC PUSH3 0x12C4 JUMP JUMPDEST JUMPDEST PUSH3 0x14FB DUP8 DUP3 DUP9 ADD PUSH3 0x13E6 JUMP JUMPDEST SWAP2 POP POP SWAP3 SWAP6 SWAP2 SWAP5 POP SWAP3 POP JUMP JUMPDEST PUSH32 0x4E487B7100000000000000000000000000000000000000000000000000000000 PUSH1 0x0 MSTORE PUSH1 0x11 PUSH1 0x4 MSTORE PUSH1 0x24 PUSH1 0x0 REVERT JUMPDEST PUSH1 0x0 PUSH3 0x1543 DUP3 PUSH3 0x107A JUMP JUMPDEST SWAP2 POP PUSH3 0x1550 DUP4 PUSH3 0x107A JUMP JUMPDEST SWAP3 POP DUP3 DUP3 ADD SWAP1 POP DUP1 DUP3 GT ISZERO PUSH3 0x156B JUMPI PUSH3 0x156A PUSH3 0x1507 JUMP JUMPDEST JUMPDEST SWAP3 SWAP2 POP POP JUMP JUMPDEST PUSH1 0x0 PUSH3 0x157E DUP3 PUSH3 0x107A JUMP JUMPDEST SWAP2 POP PUSH3 0x158B DUP4 PUSH3 0x107A JUMP JUMPDEST SWAP3 POP DUP3 DUP3 MUL PUSH3 0x159B DUP2 PUSH3 0x107A JUMP JUMPDEST SWAP2 POP DUP3 DUP3 DIV DUP5 EQ DUP4 ISZERO OR PUSH3 0x15B5 JUMPI PUSH3 0x15B4 PUSH3 0x1507 JUMP JUMPDEST JUMPDEST POP SWAP3 SWAP2 POP POP JUMP JUMPDEST PUSH1 0x0 PUSH3 0x15C9 DUP3 PUSH3 0x107A JUMP JUMPDEST SWAP2 POP PUSH32 0xFFFFFFFFFFFFFFFFFFFFFFFFFFFFFFFFFFFFFFFFFFFFFFFFFFFFFFFFFFFFFFFF DUP3 SUB PUSH3 0x15FE JUMPI PUSH3 0x15FD PUSH3 0x1507 JUMP JUMPDEST JUMPDEST PUSH1 0x1 DUP3 ADD SWAP1 POP SWAP2 SWAP1 POP JUMP JUMPDEST PUSH1 0x0 DUP3 DUP3 MSTORE PUSH1 0x20 DUP3 ADD SWAP1 POP SWAP3 SWAP2 POP POP JUMP JUMPDEST PUSH32 0x4F776E61626C653A2063616C6C6572206973206E6F7420746865206F776E6572 PUSH1 0x0 DUP3 ADD MSTORE POP JUMP JUMPDEST PUSH1 0x0 PUSH3 0x1652 PUSH1 0x20 DUP4 PUSH3 0x1609 JUMP JUMPDEST SWAP2 POP PUSH3 0x165F DUP3 PUSH3 0x161A JUMP JUMPDEST PUSH1 0x20 DUP3 ADD SWAP1 POP SWAP2 SWAP1 POP JUMP JUMPDEST PUSH1 0x0 PUSH1 0x20 DUP3 ADD SWAP1 POP DUP2 DUP2 SUB PUSH1 0x0 DUP4 ADD MSTORE PUSH3 0x1685 DUP2 PUSH3 0x1643 JUMP JUMPDEST SWAP1 POP SWAP2 SWAP1 POP JUMP JUMPDEST PUSH32 0x4552433732313A207472616E7366657220746F206E6F6E204552433732315265 PUSH1 0x0 DUP3 ADD MSTORE PUSH32 0x63656976657220696D706C656D656E7465720000000000000000000000000000 PUSH1 0x20 DUP3 ADD MSTORE POP JUMP JUMPDEST PUSH1 0x0 PUSH3 0x16EA PUSH1 0x32 DUP4 PUSH3 0x1609 JUMP JUMPDEST SWAP2 POP PUSH3 0x16F7 DUP3 PUSH3 0x168C JUMP JUMPDEST PUSH1 0x40 DUP3 ADD SWAP1 POP SWAP2 SWAP1 POP JUMP JUMPDEST PUSH1 0x0 PUSH1 0x20 DUP3 ADD SWAP1 POP DUP2 DUP2 SUB PUSH1 0x0 DUP4 ADD MSTORE PUSH3 0x171D DUP2 PUSH3 0x16DB JUMP JUMPDEST SWAP1 POP SWAP2 SWAP1 POP JUMP JUMPDEST PUSH32 0x4552433732313A206D696E7420746F20746865207A65726F2061646472657373 PUSH1 0x0 DUP3 ADD MSTORE POP JUMP JUMPDEST PUSH1 0x0 PUSH3 0x175C PUSH1 0x20 DUP4 PUSH3 0x1609 JUMP JUMPDEST SWAP2 POP PUSH3 0x1769 DUP3 PUSH3 0x1724 JUMP JUMPDEST PUSH1 0x20 DUP3 ADD SWAP1 POP SWAP2 SWAP1 POP JUMP JUMPDEST PUSH1 0x0 PUSH1 0x20 DUP3 ADD SWAP1 POP DUP2 DUP2 SUB PUSH1 0x0 DUP4 ADD MSTORE PUSH3 0x178F DUP2 PUSH3 0x174D JUMP JUMPDEST SWAP1 POP SWAP2 SWAP1 POP JUMP JUMPDEST PUSH32 0x4552433732313A20746F6B656E20616C7265616479206D696E74656400000000 PUSH1 0x0 DUP3 ADD MSTORE POP JUMP JUMPDEST PUSH1 0x0 PUSH3 0x17CE PUSH1 0x1C DUP4 PUSH3 0x1609 JUMP JUMPDEST SWAP2 POP PUSH3 0x17DB DUP3 PUSH3 0x1796 JUMP JUMPDEST PUSH1 0x20 DUP3 ADD SWAP1 POP SWAP2 SWAP1 POP JUMP JUMPDEST PUSH1 0x0 PUSH1 0x20 DUP3 ADD SWAP1 POP DUP2 DUP2 SUB PUSH1 0x0 DUP4 ADD MSTORE PUSH3 0x1801 DUP2 PUSH3 0x17BF JUMP JUMPDEST SWAP1 POP SWAP2 SWAP1 POP JUMP JUMPDEST PUSH1 0x0 PUSH20 0xFFFFFFFFFFFFFFFFFFFFFFFFFFFFFFFFFFFFFFFF DUP3 AND SWAP1 POP SWAP2 SWAP1 POP JUMP JUMPDEST PUSH1 0x0 PUSH3 0x1835 DUP3 PUSH3 0x1808 JUMP JUMPDEST SWAP1 POP SWAP2 SWAP1 POP JUMP JUMPDEST PUSH3 0x1847 DUP2 PUSH3 0x1828 JUMP JUMPDEST DUP3 MSTORE POP POP JUMP JUMPDEST PUSH3 0x1858 DUP2 PUSH3 0x107A JUMP JUMPDEST DUP3 MSTORE POP POP JUMP JUMPDEST PUSH1 0x0 DUP2 MLOAD SWAP1 POP SWAP2 SWAP1 POP JUMP JUMPDEST PUSH1 0x0 DUP3 DUP3 MSTORE PUSH1 0x20 DUP3 ADD SWAP1 POP SWAP3 SWAP2 POP POP JUMP JUMPDEST PUSH1 0x0 PUSH3 0x1887 DUP3 PUSH3 0x185E JUMP JUMPDEST PUSH3 0x1893 DUP2 DUP6 PUSH3 0x1869 JUMP JUMPDEST SWAP4 POP PUSH3 0x18A5 DUP2 DUP6 PUSH1 0x20 DUP7 ADD PUSH3 0x136F JUMP JUMPDEST PUSH3 0x18B0 DUP2 PUSH3 0x12D3 JUMP JUMPDEST DUP5 ADD SWAP2 POP POP SWAP3 SWAP2 POP POP JUMP JUMPDEST PUSH1 0x0 PUSH1 0x80 DUP3 ADD SWAP1 POP PUSH3 0x18D2 PUSH1 0x0 DUP4 ADD DUP8 PUSH3 0x183C JUMP JUMPDEST PUSH3 0x18E1 PUSH1 0x20 DUP4 ADD DUP7 PUSH3 0x183C JUMP JUMPDEST PUSH3 0x18F0 PUSH1 0x40 DUP4 ADD DUP6 PUSH3 0x184D JUMP JUMPDEST DUP2 DUP2 SUB PUSH1 0x60 DUP4 ADD MSTORE PUSH3 0x1904 DUP2 DUP5 PUSH3 0x187A JUMP JUMPDEST SWAP1 POP SWAP6 SWAP5 POP POP POP POP POP JUMP JUMPDEST PUSH1 0x0 PUSH32 0xFFFFFFFF00000000000000000000000000000000000000000000000000000000 DUP3 AND SWAP1 POP SWAP2 SWAP1 POP JUMP JUMPDEST PUSH3 0x1946 DUP2 PUSH3 0x190F JUMP JUMPDEST DUP2 EQ PUSH3 0x1952 JUMPI PUSH1 0x0 DUP1 REVERT JUMPDEST POP JUMP JUMPDEST PUSH1 0x0 DUP2 MLOAD SWAP1 POP PUSH3 0x1966 DUP2 PUSH3 0x193B JUMP JUMPDEST SWAP3 SWAP2 POP POP JUMP JUMPDEST PUSH1 0x0 PUSH1 0x20 DUP3 DUP5 SUB SLT ISZERO PUSH3 0x1985 JUMPI PUSH3 0x1984 PUSH3 0x12BF JUMP JUMPDEST JUMPDEST PUSH1 0x0 PUSH3 0x1995 DUP5 DUP3 DUP6 ADD PUSH3 0x1955 JUMP JUMPDEST SWAP2 POP POP SWAP3 SWAP2 POP POP JUMP JUMPDEST PUSH32 0x455243373231456E756D657261626C653A20636F6E7365637574697665207472 PUSH1 0x0 DUP3 ADD MSTORE PUSH32 0x616E7366657273206E6F7420737570706F727465640000000000000000000000 PUSH1 0x20 DUP3 ADD MSTORE POP JUMP JUMPDEST PUSH1 0x0 PUSH3 0x19FC PUSH1 0x35 DUP4 PUSH3 0x1609 JUMP JUMPDEST SWAP2 POP PUSH3 0x1A09 DUP3 PUSH3 0x199E JUMP JUMPDEST PUSH1 0x40 DUP3 ADD SWAP1 POP SWAP2 SWAP1 POP JUMP JUMPDEST PUSH1 0x0 PUSH1 0x20 DUP3 ADD SWAP1 POP DUP2 DUP2 SUB PUSH1 0x0 DUP4 ADD MSTORE PUSH3 0x1A2F DUP2 PUSH3 0x19ED JUMP JUMPDEST SWAP1 POP SWAP2 SWAP1 POP JUMP JUMPDEST PUSH1 0x0 PUSH3 0x1A43 DUP3 PUSH3 0x107A JUMP JUMPDEST SWAP2 POP PUSH3 0x1A50 DUP4 PUSH3 0x107A JUMP JUMPDEST SWAP3 POP DUP3 DUP3 SUB SWAP1 POP DUP2 DUP2 GT ISZERO PUSH3 0x1A6B JUMPI PUSH3 0x1A6A PUSH3 0x1507 JUMP JUMPDEST JUMPDEST SWAP3 SWAP2 POP POP JUMP JUMPDEST PUSH32 0x4E487B7100000000000000000000000000000000000000000000000000000000 PUSH1 0x0 MSTORE PUSH1 0x32 PUSH1 0x4 MSTORE PUSH1 0x24 PUSH1 0x0 REVERT JUMPDEST PUSH32 0x4E487B7100000000000000000000000000000000000000000000000000000000 PUSH1 0x0 MSTORE PUSH1 0x31 PUSH1 0x4 MSTORE PUSH1 0x24 PUSH1 0x0 REVERT JUMPDEST PUSH32 0x4552433732313A2061646472657373207A65726F206973206E6F742061207661 PUSH1 0x0 DUP3 ADD MSTORE PUSH32 0x6C6964206F776E65720000000000000000000000000000000000000000000000 PUSH1 0x20 DUP3 ADD MSTORE POP JUMP JUMPDEST PUSH1 0x0 PUSH3 0x1B2D PUSH1 0x29 DUP4 PUSH3 0x1609 JUMP JUMPDEST SWAP2 POP PUSH3 0x1B3A DUP3 PUSH3 0x1ACF JUMP JUMPDEST PUSH1 0x40 DUP3 ADD SWAP1 POP SWAP2 SWAP1 POP JUMP JUMPDEST PUSH1 0x0 PUSH1 0x20 DUP3 ADD SWAP1 POP DUP2 DUP2 SUB PUSH1 0x0 DUP4 ADD MSTORE PUSH3 0x1B60 DUP2 PUSH3 0x1B1E JUMP JUMPDEST SWAP1 POP SWAP2 SWAP1 POP JUMP JUMPDEST PUSH2 0x4562 DUP1 PUSH3 0x1B77 PUSH1 0x0 CODECOPY PUSH1 0x0 RETURN INVALID PUSH1 0x80 PUSH1 0x40 MSTORE PUSH1 0x4 CALLDATASIZE LT PUSH2 0x23B JUMPI PUSH1 0x0 CALLDATALOAD PUSH1 0xE0 SHR DUP1 PUSH4 0x55F804B3 GT PUSH2 0x12E JUMPI DUP1 PUSH4 0xA475B5DD GT PUSH2 0xAB JUMPI DUP1 PUSH4 0xD936547E GT PUSH2 0x6F JUMPI DUP1 PUSH4 0xD936547E EQ PUSH2 0x843 JUMPI DUP1 PUSH4 0xDA3EF23F EQ PUSH2 0x880 JUMPI DUP1 PUSH4 0xE985E9C5 EQ PUSH2 0x8A9 JUMPI DUP1 PUSH4 0xF2C4CE1E EQ PUSH2 0x8E6 JUMPI DUP1 PUSH4 0xF2FDE38B EQ PUSH2 0x90F JUMPI PUSH2 0x23B JUMP JUMPDEST DUP1 PUSH4 0xA475B5DD EQ PUSH2 0x770 JUMPI DUP1 PUSH4 0xB88D4FDE EQ PUSH2 0x787 JUMPI DUP1 PUSH4 0xC6682862 EQ PUSH2 0x7B0 JUMPI DUP1 PUSH4 0xC87B56DD EQ PUSH2 0x7DB JUMPI DUP1 PUSH4 0xD5ABEB01 EQ PUSH2 0x818 JUMPI PUSH2 0x23B JUMP JUMPDEST DUP1 PUSH4 0x715018A6 GT PUSH2 0xF2 JUMPI DUP1 PUSH4 0x715018A6 EQ PUSH2 0x6B1 JUMPI DUP1 PUSH4 0x7F00C7A6 EQ PUSH2 0x6C8 JUMPI DUP1 PUSH4 0x8DA5CB5B EQ PUSH2 0x6F1 JUMPI DUP1 PUSH4 0x95D89B41 EQ PUSH2 0x71C JUMPI DUP1 PUSH4 0xA22CB465 EQ PUSH2 0x747 JUMPI PUSH2 0x23B JUMP JUMPDEST DUP1 PUSH4 0x55F804B3 EQ PUSH2 0x5B8 JUMPI DUP1 PUSH4 0x5C975ABB EQ PUSH2 0x5E1 JUMPI DUP1 PUSH4 0x6352211E EQ PUSH2 0x60C JUMPI DUP1 PUSH4 0x6C0360EB EQ PUSH2 0x649 JUMPI DUP1 PUSH4 0x70A08231 EQ PUSH2 0x674 JUMPI PUSH2 0x23B JUMP JUMPDEST DUP1 PUSH4 0x2F745C59 GT PUSH2 0x1BC JUMPI DUP1 PUSH4 0x438B6300 GT PUSH2 0x180 JUMPI DUP1 PUSH4 0x438B6300 EQ PUSH2 0x4C1 JUMPI DUP1 PUSH4 0x44A0D68A EQ PUSH2 0x4FE JUMPI DUP1 PUSH4 0x4A4C560D EQ PUSH2 0x527 JUMPI DUP1 PUSH4 0x4F6CCCE7 EQ PUSH2 0x550 JUMPI DUP1 PUSH4 0x51830227 EQ PUSH2 0x58D JUMPI PUSH2 0x23B JUMP JUMPDEST DUP1 PUSH4 0x2F745C59 EQ PUSH2 0x40C JUMPI DUP1 PUSH4 0x30CC7AE0 EQ PUSH2 0x449 JUMPI DUP1 PUSH4 0x3CCFD60B EQ PUSH2 0x472 JUMPI DUP1 PUSH4 0x40C10F19 EQ PUSH2 0x47C JUMPI DUP1 PUSH4 0x42842E0E EQ PUSH2 0x498 JUMPI PUSH2 0x23B JUMP JUMPDEST DUP1 PUSH4 0x95EA7B3 GT PUSH2 0x203 JUMPI DUP1 PUSH4 0x95EA7B3 EQ PUSH2 0x339 JUMPI DUP1 PUSH4 0x13FAEDE6 EQ PUSH2 0x362 JUMPI DUP1 PUSH4 0x18160DDD EQ PUSH2 0x38D JUMPI DUP1 PUSH4 0x239C70AE EQ PUSH2 0x3B8 JUMPI DUP1 PUSH4 0x23B872DD EQ PUSH2 0x3E3 JUMPI PUSH2 0x23B JUMP JUMPDEST DUP1 PUSH4 0x1FFC9A7 EQ PUSH2 0x240 JUMPI DUP1 PUSH4 0x2329A29 EQ PUSH2 0x27D JUMPI DUP1 PUSH4 0x6FDDE03 EQ PUSH2 0x2A6 JUMPI DUP1 PUSH4 0x81812FC EQ PUSH2 0x2D1 JUMPI DUP1 PUSH4 0x81C8C44 EQ PUSH2 0x30E JUMPI JUMPDEST PUSH1 0x0 DUP1 REVERT JUMPDEST CALLVALUE DUP1 ISZERO PUSH2 0x24C JUMPI PUSH1 0x0 DUP1 REVERT JUMPDEST POP PUSH2 0x267 PUSH1 0x4 DUP1 CALLDATASIZE SUB DUP2 ADD SWAP1 PUSH2 0x262 SWAP2 SWAP1 PUSH2 0x2E1D JUMP JUMPDEST PUSH2 0x938 JUMP JUMPDEST PUSH1 0x40 MLOAD PUSH2 0x274 SWAP2 SWAP1 PUSH2 0x2E65 JUMP JUMPDEST PUSH1 0x40 MLOAD DUP1 SWAP2 SUB SWAP1 RETURN JUMPDEST CALLVALUE DUP1 ISZERO PUSH2 0x289 JUMPI PUSH1 0x0 DUP1 REVERT JUMPDEST POP PUSH2 0x2A4 PUSH1 0x4 DUP1 CALLDATASIZE SUB DUP2 ADD SWAP1 PUSH2 0x29F SWAP2 SWAP1 PUSH2 0x2EAC JUMP JUMPDEST PUSH2 0x9B2 JUMP JUMPDEST STOP JUMPDEST CALLVALUE DUP1 ISZERO PUSH2 0x2B2 JUMPI PUSH1 0x0 DUP1 REVERT JUMPDEST POP PUSH2 0x2BB PUSH2 0x9D7 JUMP JUMPDEST PUSH1 0x40 MLOAD PUSH2 0x2C8 SWAP2 SWAP1 PUSH2 0x2F69 JUMP JUMPDEST PUSH1 0x40 MLOAD DUP1 SWAP2 SUB SWAP1 RETURN JUMPDEST CALLVALUE DUP1 ISZERO PUSH2 0x2DD JUMPI PUSH1 0x0 DUP1 REVERT JUMPDEST POP PUSH2 0x2F8 PUSH1 0x4 DUP1 CALLDATASIZE SUB DUP2 ADD SWAP1 PUSH2 0x2F3 SWAP2 SWAP1 PUSH2 0x2FC1 JUMP JUMPDEST PUSH2 0xA69 JUMP JUMPDEST PUSH1 0x40 MLOAD PUSH2 0x305 SWAP2 SWAP1 PUSH2 0x302F JUMP JUMPDEST PUSH1 0x40 MLOAD DUP1 SWAP2 SUB SWAP1 RETURN JUMPDEST CALLVALUE DUP1 ISZERO PUSH2 0x31A JUMPI PUSH1 0x0 DUP1 REVERT JUMPDEST POP PUSH2 0x323 PUSH2 0xAAF JUMP JUMPDEST PUSH1 0x40 MLOAD PUSH2 0x330 SWAP2 SWAP1 PUSH2 0x2F69 JUMP JUMPDEST PUSH1 0x40 MLOAD DUP1 SWAP2 SUB SWAP1 RETURN JUMPDEST CALLVALUE DUP1 ISZERO PUSH2 0x345 JUMPI PUSH1 0x0 DUP1 REVERT JUMPDEST POP PUSH2 0x360 PUSH1 0x4 DUP1 CALLDATASIZE SUB DUP2 ADD SWAP1 PUSH2 0x35B SWAP2 SWAP1 PUSH2 0x3076 JUMP JUMPDEST PUSH2 0xB3D JUMP JUMPDEST STOP JUMPDEST CALLVALUE DUP1 ISZERO PUSH2 0x36E JUMPI PUSH1 0x0 DUP1 REVERT JUMPDEST POP PUSH2 0x377 PUSH2 0xC54 JUMP JUMPDEST PUSH1 0x40 MLOAD PUSH2 0x384 SWAP2 SWAP1 PUSH2 0x30C5 JUMP JUMPDEST PUSH1 0x40 MLOAD DUP1 SWAP2 SUB SWAP1 RETURN JUMPDEST CALLVALUE DUP1 ISZERO PUSH2 0x399 JUMPI PUSH1 0x0 DUP1 REVERT JUMPDEST POP PUSH2 0x3A2 PUSH2 0xC5A JUMP JUMPDEST PUSH1 0x40 MLOAD PUSH2 0x3AF SWAP2 SWAP1 PUSH2 0x30C5 JUMP JUMPDEST PUSH1 0x40 MLOAD DUP1 SWAP2 SUB SWAP1 RETURN JUMPDEST CALLVALUE DUP1 ISZERO PUSH2 0x3C4 JUMPI PUSH1 0x0 DUP1 REVERT JUMPDEST POP PUSH2 0x3CD PUSH2 0xC67 JUMP JUMPDEST PUSH1 0x40 MLOAD PUSH2 0x3DA SWAP2 SWAP1 PUSH2 0x30C5 JUMP JUMPDEST PUSH1 0x40 MLOAD DUP1 SWAP2 SUB SWAP1 RETURN JUMPDEST CALLVALUE DUP1 ISZERO PUSH2 0x3EF JUMPI PUSH1 0x0 DUP1 REVERT JUMPDEST POP PUSH2 0x40A PUSH1 0x4 DUP1 CALLDATASIZE SUB DUP2 ADD SWAP1 PUSH2 0x405 SWAP2 SWAP1 PUSH2 0x30E0 JUMP JUMPDEST PUSH2 0xC6D JUMP JUMPDEST STOP JUMPDEST CALLVALUE DUP1 ISZERO PUSH2 0x418 JUMPI PUSH1 0x0 DUP1 REVERT JUMPDEST POP PUSH2 0x433 PUSH1 0x4 DUP1 CALLDATASIZE SUB DUP2 ADD SWAP1 PUSH2 0x42E SWAP2 SWAP1 PUSH2 0x3076 JUMP JUMPDEST PUSH2 0xCCD JUMP JUMPDEST PUSH1 0x40 MLOAD PUSH2 0x440 SWAP2 SWAP1 PUSH2 0x30C5 JUMP JUMPDEST PUSH1 0x40 MLOAD DUP1 SWAP2 SUB SWAP1 RETURN JUMPDEST CALLVALUE DUP1 ISZERO PUSH2 0x455 JUMPI PUSH1 0x0 DUP1 REVERT JUMPDEST POP PUSH2 0x470 PUSH1 0x4 DUP1 CALLDATASIZE SUB DUP2 ADD SWAP1 PUSH2 0x46B SWAP2 SWAP1 PUSH2 0x3133 JUMP JUMPDEST PUSH2 0xD72 JUMP JUMPDEST STOP JUMPDEST PUSH2 0x47A PUSH2 0xDD5 JUMP JUMPDEST STOP JUMPDEST PUSH2 0x496 PUSH1 0x4 DUP1 CALLDATASIZE SUB DUP2 ADD SWAP1 PUSH2 0x491 SWAP2 SWAP1 PUSH2 0x3076 JUMP JUMPDEST PUSH2 0xF00 JUMP JUMPDEST STOP JUMPDEST CALLVALUE DUP1 ISZERO PUSH2 0x4A4 JUMPI PUSH1 0x0 DUP1 REVERT JUMPDEST POP PUSH2 0x4BF PUSH1 0x4 DUP1 CALLDATASIZE SUB DUP2 ADD SWAP1 PUSH2 0x4BA SWAP2 SWAP1 PUSH2 0x30E0 JUMP JUMPDEST PUSH2 0x1046 JUMP JUMPDEST STOP JUMPDEST CALLVALUE DUP1 ISZERO PUSH2 0x4CD JUMPI PUSH1 0x0 DUP1 REVERT JUMPDEST POP PUSH2 0x4E8 PUSH1 0x4 DUP1 CALLDATASIZE SUB DUP2 ADD SWAP1 PUSH2 0x4E3 SWAP2 SWAP1 PUSH2 0x3133 JUMP JUMPDEST PUSH2 0x1066 JUMP JUMPDEST PUSH1 0x40 MLOAD PUSH2 0x4F5 SWAP2 SWAP1 PUSH2 0x321E JUMP JUMPDEST PUSH1 0x40 MLOAD DUP1 SWAP2 SUB SWAP1 RETURN JUMPDEST CALLVALUE DUP1 ISZERO PUSH2 0x50A JUMPI PUSH1 0x0 DUP1 REVERT JUMPDEST POP PUSH2 0x525 PUSH1 0x4 DUP1 CALLDATASIZE SUB DUP2 ADD SWAP1 PUSH2 0x520 SWAP2 SWAP1 PUSH2 0x2FC1 JUMP JUMPDEST PUSH2 0x1114 JUMP JUMPDEST STOP JUMPDEST CALLVALUE DUP1 ISZERO PUSH2 0x533 JUMPI PUSH1 0x0 DUP1 REVERT JUMPDEST POP PUSH2 0x54E PUSH1 0x4 DUP1 CALLDATASIZE SUB DUP2 ADD SWAP1 PUSH2 0x549 SWAP2 SWAP1 PUSH2 0x3133 JUMP JUMPDEST PUSH2 0x1126 JUMP JUMPDEST STOP JUMPDEST CALLVALUE DUP1 ISZERO PUSH2 0x55C JUMPI PUSH1 0x0 DUP1 REVERT JUMPDEST POP PUSH2 0x577 PUSH1 0x4 DUP1 CALLDATASIZE SUB DUP2 ADD SWAP1 PUSH2 0x572 SWAP2 SWAP1 PUSH2 0x2FC1 JUMP JUMPDEST PUSH2 0x1189 JUMP JUMPDEST PUSH1 0x40 MLOAD PUSH2 0x584 SWAP2 SWAP1 PUSH2 0x30C5 JUMP JUMPDEST PUSH1 0x40 MLOAD DUP1 SWAP2 SUB SWAP1 RETURN JUMPDEST CALLVALUE DUP1 ISZERO PUSH2 0x599 JUMPI PUSH1 0x0 DUP1 REVERT JUMPDEST POP PUSH2 0x5A2 PUSH2 0x11FA JUMP JUMPDEST PUSH1 0x40 MLOAD PUSH2 0x5AF SWAP2 SWAP1 PUSH2 0x2E65 JUMP JUMPDEST PUSH1 0x40 MLOAD DUP1 SWAP2 SUB SWAP1 RETURN JUMPDEST CALLVALUE DUP1 ISZERO PUSH2 0x5C4 JUMPI PUSH1 0x0 DUP1 REVERT JUMPDEST POP PUSH2 0x5DF PUSH1 0x4 DUP1 CALLDATASIZE SUB DUP2 ADD SWAP1 PUSH2 0x5DA SWAP2 SWAP1 PUSH2 0x3375 JUMP JUMPDEST PUSH2 0x120D JUMP JUMPDEST STOP JUMPDEST CALLVALUE DUP1 ISZERO PUSH2 0x5ED JUMPI PUSH1 0x0 DUP1 REVERT JUMPDEST POP PUSH2 0x5F6 PUSH2 0x1228 JUMP JUMPDEST PUSH1 0x40 MLOAD PUSH2 0x603 SWAP2 SWAP1 PUSH2 0x2E65 JUMP JUMPDEST PUSH1 0x40 MLOAD DUP1 SWAP2 SUB SWAP1 RETURN JUMPDEST CALLVALUE DUP1 ISZERO PUSH2 0x618 JUMPI PUSH1 0x0 DUP1 REVERT JUMPDEST POP PUSH2 0x633 PUSH1 0x4 DUP1 CALLDATASIZE SUB DUP2 ADD SWAP1 PUSH2 0x62E SWAP2 SWAP1 PUSH2 0x2FC1 JUMP JUMPDEST PUSH2 0x123B JUMP JUMPDEST PUSH1 0x40 MLOAD PUSH2 0x640 SWAP2 SWAP1 PUSH2 0x302F JUMP JUMPDEST PUSH1 0x40 MLOAD DUP1 SWAP2 SUB SWAP1 RETURN JUMPDEST CALLVALUE DUP1 ISZERO PUSH2 0x655 JUMPI PUSH1 0x0 DUP1 REVERT JUMPDEST POP PUSH2 0x65E PUSH2 0x12C1 JUMP JUMPDEST PUSH1 0x40 MLOAD PUSH2 0x66B SWAP2 SWAP1 PUSH2 0x2F69 JUMP JUMPDEST PUSH1 0x40 MLOAD DUP1 SWAP2 SUB SWAP1 RETURN JUMPDEST CALLVALUE DUP1 ISZERO PUSH2 0x680 JUMPI PUSH1 0x0 DUP1 REVERT JUMPDEST POP PUSH2 0x69B PUSH1 0x4 DUP1 CALLDATASIZE SUB DUP2 ADD SWAP1 PUSH2 0x696 SWAP2 SWAP1 PUSH2 0x3133 JUMP JUMPDEST PUSH2 0x134F JUMP JUMPDEST PUSH1 0x40 MLOAD PUSH2 0x6A8 SWAP2 SWAP1 PUSH2 0x30C5 JUMP JUMPDEST PUSH1 0x40 MLOAD DUP1 SWAP2 SUB SWAP1 RETURN JUMPDEST CALLVALUE DUP1 ISZERO PUSH2 0x6BD JUMPI PUSH1 0x0 DUP1 REVERT JUMPDEST POP PUSH2 0x6C6 PUSH2 0x1406 JUMP JUMPDEST STOP JUMPDEST CALLVALUE DUP1 ISZERO PUSH2 0x6D4 JUMPI PUSH1 0x0 DUP1 REVERT JUMPDEST POP PUSH2 0x6EF PUSH1 0x4 DUP1 CALLDATASIZE SUB DUP2 ADD SWAP1 PUSH2 0x6EA SWAP2 SWAP1 PUSH2 0x2FC1 JUMP JUMPDEST PUSH2 0x141A JUMP JUMPDEST STOP JUMPDEST CALLVALUE DUP1 ISZERO PUSH2 0x6FD JUMPI PUSH1 0x0 DUP1 REVERT JUMPDEST POP PUSH2 0x706 PUSH2 0x142C JUMP JUMPDEST PUSH1 0x40 MLOAD PUSH2 0x713 SWAP2 SWAP1 PUSH2 0x302F JUMP JUMPDEST PUSH1 0x40 MLOAD DUP1 SWAP2 SUB SWAP1 RETURN JUMPDEST CALLVALUE DUP1 ISZERO PUSH2 0x728 JUMPI PUSH1 0x0 DUP1 REVERT JUMPDEST POP PUSH2 0x731 PUSH2 0x1456 JUMP JUMPDEST PUSH1 0x40 MLOAD PUSH2 0x73E SWAP2 SWAP1 PUSH2 0x2F69 JUMP JUMPDEST PUSH1 0x40 MLOAD DUP1 SWAP2 SUB SWAP1 RETURN JUMPDEST CALLVALUE DUP1 ISZERO PUSH2 0x753 JUMPI PUSH1 0x0 DUP1 REVERT JUMPDEST POP PUSH2 0x76E PUSH1 0x4 DUP1 CALLDATASIZE SUB DUP2 ADD SWAP1 PUSH2 0x769 SWAP2 SWAP1 PUSH2 0x33BE JUMP JUMPDEST PUSH2 0x14E8 JUMP JUMPDEST STOP JUMPDEST CALLVALUE DUP1 ISZERO PUSH2 0x77C JUMPI PUSH1 0x0 DUP1 REVERT JUMPDEST POP PUSH2 0x785 PUSH2 0x14FE JUMP JUMPDEST STOP JUMPDEST CALLVALUE DUP1 ISZERO PUSH2 0x793 JUMPI PUSH1 0x0 DUP1 REVERT JUMPDEST POP PUSH2 0x7AE PUSH1 0x4 DUP1 CALLDATASIZE SUB DUP2 ADD SWAP1 PUSH2 0x7A9 SWAP2 SWAP1 PUSH2 0x349F JUMP JUMPDEST PUSH2 0x1523 JUMP JUMPDEST STOP JUMPDEST CALLVALUE DUP1 ISZERO PUSH2 0x7BC JUMPI PUSH1 0x0 DUP1 REVERT JUMPDEST POP PUSH2 0x7C5 PUSH2 0x1585 JUMP JUMPDEST PUSH1 0x40 MLOAD PUSH2 0x7D2 SWAP2 SWAP1 PUSH2 0x2F69 JUMP JUMPDEST PUSH1 0x40 MLOAD DUP1 SWAP2 SUB SWAP1 RETURN JUMPDEST CALLVALUE DUP1 ISZERO PUSH2 0x7E7 JUMPI PUSH1 0x0 DUP1 REVERT JUMPDEST POP PUSH2 0x802 PUSH1 0x4 DUP1 CALLDATASIZE SUB DUP2 ADD SWAP1 PUSH2 0x7FD SWAP2 SWAP1 PUSH2 0x2FC1 JUMP JUMPDEST PUSH2 0x1613 JUMP JUMPDEST PUSH1 0x40 MLOAD PUSH2 0x80F SWAP2 SWAP1 PUSH2 0x2F69 JUMP JUMPDEST PUSH1 0x40 MLOAD DUP1 SWAP2 SUB SWAP1 RETURN JUMPDEST CALLVALUE DUP1 ISZERO PUSH2 0x824 JUMPI PUSH1 0x0 DUP1 REVERT JUMPDEST POP PUSH2 0x82D PUSH2 0x176B JUMP JUMPDEST PUSH1 0x40 MLOAD PUSH2 0x83A SWAP2 SWAP1 PUSH2 0x30C5 JUMP JUMPDEST PUSH1 0x40 MLOAD DUP1 SWAP2 SUB SWAP1 RETURN JUMPDEST CALLVALUE DUP1 ISZERO PUSH2 0x84F JUMPI PUSH1 0x0 DUP1 REVERT JUMPDEST POP PUSH2 0x86A PUSH1 0x4 DUP1 CALLDATASIZE SUB DUP2 ADD SWAP1 PUSH2 0x865 SWAP2 SWAP1 PUSH2 0x3133 JUMP JUMPDEST PUSH2 0x1771 JUMP JUMPDEST PUSH1 0x40 MLOAD PUSH2 0x877 SWAP2 SWAP1 PUSH2 0x2E65 JUMP JUMPDEST PUSH1 0x40 MLOAD DUP1 SWAP2 SUB SWAP1 RETURN JUMPDEST CALLVALUE DUP1 ISZERO PUSH2 0x88C JUMPI PUSH1 0x0 DUP1 REVERT JUMPDEST POP PUSH2 0x8A7 PUSH1 0x4 DUP1 CALLDATASIZE SUB DUP2 ADD SWAP1 PUSH2 0x8A2 SWAP2 SWAP1 PUSH2 0x3375 JUMP JUMPDEST PUSH2 0x1791 JUMP JUMPDEST STOP JUMPDEST CALLVALUE DUP1 ISZERO PUSH2 0x8B5 JUMPI PUSH1 0x0 DUP1 REVERT JUMPDEST POP PUSH2 0x8D0 PUSH1 0x4 DUP1 CALLDATASIZE SUB DUP2 ADD SWAP1 PUSH2 0x8CB SWAP2 SWAP1 PUSH2 0x3522 JUMP JUMPDEST PUSH2 0x17AC JUMP JUMPDEST PUSH1 0x40 MLOAD PUSH2 0x8DD SWAP2 SWAP1 PUSH2 0x2E65 JUMP JUMPDEST PUSH1 0x40 MLOAD DUP1 SWAP2 SUB SWAP1 RETURN JUMPDEST CALLVALUE DUP1 ISZERO PUSH2 0x8F2 JUMPI PUSH1 0x0 DUP1 REVERT JUMPDEST POP PUSH2 0x90D PUSH1 0x4 DUP1 CALLDATASIZE SUB DUP2 ADD SWAP1 PUSH2 0x908 SWAP2 SWAP1 PUSH2 0x3375 JUMP JUMPDEST PUSH2 0x1840 JUMP JUMPDEST STOP JUMPDEST CALLVALUE DUP1 ISZERO PUSH2 0x91B JUMPI PUSH1 0x0 DUP1 REVERT JUMPDEST POP PUSH2 0x936 PUSH1 0x4 DUP1 CALLDATASIZE SUB DUP2 ADD SWAP1 PUSH2 0x931 SWAP2 SWAP1 PUSH2 0x3133 JUMP JUMPDEST PUSH2 0x185B JUMP JUMPDEST STOP JUMPDEST PUSH1 0x0 PUSH32 0x780E9D6300000000000000000000000000000000000000000000000000000000 PUSH28 0xFFFFFFFFFFFFFFFFFFFFFFFFFFFFFFFFFFFFFFFFFFFFFFFFFFFFFFFF NOT AND DUP3 PUSH28 0xFFFFFFFFFFFFFFFFFFFFFFFFFFFFFFFFFFFFFFFFFFFFFFFFFFFFFFFF NOT AND EQ DUP1 PUSH2 0x9AB JUMPI POP PUSH2 0x9AA DUP3 PUSH2 0x1907 JUMP JUMPDEST JUMPDEST SWAP1 POP SWAP2 SWAP1 POP JUMP JUMPDEST PUSH2 0x9BA PUSH2 0x19E9 JUMP JUMPDEST DUP1 PUSH1 0x10 PUSH1 0x0 PUSH2 0x100 EXP DUP2 SLOAD DUP2 PUSH1 0xFF MUL NOT AND SWAP1 DUP4 ISZERO ISZERO MUL OR SWAP1 SSTORE POP POP JUMP JUMPDEST PUSH1 0x60 PUSH1 0x0 DUP1 SLOAD PUSH2 0x9E6 SWAP1 PUSH2 0x3591 JUMP JUMPDEST DUP1 PUSH1 0x1F ADD PUSH1 0x20 DUP1 SWAP2 DIV MUL PUSH1 0x20 ADD PUSH1 0x40 MLOAD SWAP1 DUP2 ADD PUSH1 0x40 MSTORE DUP1 SWAP3 SWAP2 SWAP1 DUP2 DUP2 MSTORE PUSH1 0x20 ADD DUP3 DUP1 SLOAD PUSH2 0xA12 SWAP1 PUSH2 0x3591 JUMP JUMPDEST DUP1 ISZERO PUSH2 0xA5F JUMPI DUP1 PUSH1 0x1F LT PUSH2 0xA34 JUMPI PUSH2 0x100 DUP1 DUP4 SLOAD DIV MUL DUP4 MSTORE SWAP2 PUSH1 0x20 ADD SWAP2 PUSH2 0xA5F JUMP JUMPDEST DUP3 ADD SWAP2 SWAP1 PUSH1 0x0 MSTORE PUSH1 0x20 PUSH1 0x0 KECCAK256 SWAP1 JUMPDEST DUP2 SLOAD DUP2 MSTORE SWAP1 PUSH1 0x1 ADD SWAP1 PUSH1 0x20 ADD DUP1 DUP4 GT PUSH2 0xA42 JUMPI DUP3 SWAP1 SUB PUSH1 0x1F AND DUP3 ADD SWAP2 JUMPDEST POP POP POP POP POP SWAP1 POP SWAP1 JUMP JUMPDEST PUSH1 0x0 PUSH2 0xA74 DUP3 PUSH2 0x1A67 JUMP JUMPDEST PUSH1 0x4 PUSH1 0x0 DUP4 DUP2 MSTORE PUSH1 0x20 ADD SWAP1 DUP2 MSTORE PUSH1 0x20 ADD PUSH1 0x0 KECCAK256 PUSH1 0x0 SWAP1 SLOAD SWAP1 PUSH2 0x100 EXP SWAP1 DIV PUSH20 0xFFFFFFFFFFFFFFFFFFFFFFFFFFFFFFFFFFFFFFFF AND SWAP1 POP SWAP2 SWAP1 POP JUMP JUMPDEST PUSH1 0x11 DUP1 SLOAD PUSH2 0xABC SWAP1 PUSH2 0x3591 JUMP JUMPDEST DUP1 PUSH1 0x1F ADD PUSH1 0x20 DUP1 SWAP2 DIV MUL PUSH1 0x20 ADD PUSH1 0x40 MLOAD SWAP1 DUP2 ADD PUSH1 0x40 MSTORE DUP1 SWAP3 SWAP2 SWAP1 DUP2 DUP2 MSTORE PUSH1 0x20 ADD DUP3 DUP1 SLOAD PUSH2 0xAE8 SWAP1 PUSH2 0x3591 JUMP JUMPDEST DUP1 ISZERO PUSH2 0xB35 JUMPI DUP1 PUSH1 0x1F LT PUSH2 0xB0A JUMPI PUSH2 0x100 DUP1 DUP4 SLOAD DIV MUL DUP4 MSTORE SWAP2 PUSH1 0x20 ADD SWAP2 PUSH2 0xB35 JUMP JUMPDEST DUP3 ADD SWAP2 SWAP1 PUSH1 0x0 MSTORE PUSH1 0x20 PUSH1 0x0 KECCAK256 SWAP1 JUMPDEST DUP2 SLOAD DUP2 MSTORE SWAP1 PUSH1 0x1 ADD SWAP1 PUSH1 0x20 ADD DUP1 DUP4 GT PUSH2 0xB18 JUMPI DUP3 SWAP1 SUB PUSH1 0x1F AND DUP3 ADD SWAP2 JUMPDEST POP POP POP POP POP DUP2 JUMP JUMPDEST PUSH1 0x0 PUSH2 0xB48 DUP3 PUSH2 0x123B JUMP JUMPDEST SWAP1 POP DUP1 PUSH20 0xFFFFFFFFFFFFFFFFFFFFFFFFFFFFFFFFFFFFFFFF AND DUP4 PUSH20 0xFFFFFFFFFFFFFFFFFFFFFFFFFFFFFFFFFFFFFFFF AND SUB PUSH2 0xBB8 JUMPI PUSH1 0x40 MLOAD PUSH32 0x8C379A000000000000000000000000000000000000000000000000000000000 DUP2 MSTORE PUSH1 0x4 ADD PUSH2 0xBAF SWAP1 PUSH2 0x3634 JUMP JUMPDEST PUSH1 0x40 MLOAD DUP1 SWAP2 SUB SWAP1 REVERT JUMPDEST DUP1 PUSH20 0xFFFFFFFFFFFFFFFFFFFFFFFFFFFFFFFFFFFFFFFF AND PUSH2 0xBD7 PUSH2 0x1AB2 JUMP JUMPDEST PUSH20 0xFFFFFFFFFFFFFFFFFFFFFFFFFFFFFFFFFFFFFFFF AND EQ DUP1 PUSH2 0xC06 JUMPI POP PUSH2 0xC05 DUP2 PUSH2 0xC00 PUSH2 0x1AB2 JUMP JUMPDEST PUSH2 0x17AC JUMP JUMPDEST JUMPDEST PUSH2 0xC45 JUMPI PUSH1 0x40 MLOAD PUSH32 0x8C379A000000000000000000000000000000000000000000000000000000000 DUP2 MSTORE PUSH1 0x4 ADD PUSH2 0xC3C SWAP1 PUSH2 0x36C6 JUMP JUMPDEST PUSH1 0x40 MLOAD DUP1 SWAP2 SUB SWAP1 REVERT JUMPDEST PUSH2 0xC4F DUP4 DUP4 PUSH2 0x1ABA JUMP JUMPDEST POP POP POP JUMP JUMPDEST PUSH1 0xD SLOAD DUP2 JUMP JUMPDEST PUSH1 0x0 PUSH1 0x8 DUP1 SLOAD SWAP1 POP SWAP1 POP SWAP1 JUMP JUMPDEST PUSH1 0xF SLOAD DUP2 JUMP JUMPDEST PUSH2 0xC7E PUSH2 0xC78 PUSH2 0x1AB2 JUMP JUMPDEST DUP3 PUSH2 0x1B73 JUMP JUMPDEST PUSH2 0xCBD JUMPI PUSH1 0x40 MLOAD PUSH32 0x8C379A000000000000000000000000000000000000000000000000000000000 DUP2 MSTORE PUSH1 0x4 ADD PUSH2 0xCB4 SWAP1 PUSH2 0x3758 JUMP JUMPDEST PUSH1 0x40 MLOAD DUP1 SWAP2 SUB SWAP1 REVERT JUMPDEST PUSH2 0xCC8 DUP4 DUP4 DUP4 PUSH2 0x1C08 JUMP JUMPDEST POP POP POP JUMP JUMPDEST PUSH1 0x0 PUSH2 0xCD8 DUP4 PUSH2 0x134F JUMP JUMPDEST DUP3 LT PUSH2 0xD19 JUMPI PUSH1 0x40 MLOAD PUSH32 0x8C379A000000000000000000000000000000000000000000000000000000000 DUP2 MSTORE PUSH1 0x4 ADD PUSH2 0xD10 SWAP1 PUSH2 0x37EA JUMP JUMPDEST PUSH1 0x40 MLOAD DUP1 SWAP2 SUB SWAP1 REVERT JUMPDEST PUSH1 0x6 PUSH1 0x0 DUP5 PUSH20 0xFFFFFFFFFFFFFFFFFFFFFFFFFFFFFFFFFFFFFFFF AND PUSH20 0xFFFFFFFFFFFFFFFFFFFFFFFFFFFFFFFFFFFFFFFF AND DUP2 MSTORE PUSH1 0x20 ADD SWAP1 DUP2 MSTORE PUSH1 0x20 ADD PUSH1 0x0 KECCAK256 PUSH1 0x0 DUP4 DUP2 MSTORE PUSH1 0x20 ADD SWAP1 DUP2 MSTORE PUSH1 0x20 ADD PUSH1 0x0 KECCAK256 SLOAD SWAP1 POP SWAP3 SWAP2 POP POP JUMP JUMPDEST PUSH2 0xD7A PUSH2 0x19E9 JUMP JUMPDEST PUSH1 0x0 PUSH1 0x12 PUSH1 0x0 DUP4 PUSH20 0xFFFFFFFFFFFFFFFFFFFFFFFFFFFFFFFFFFFFFFFF AND PUSH20 0xFFFFFFFFFFFFFFFFFFFFFFFFFFFFFFFFFFFFFFFF AND DUP2 MSTORE PUSH1 0x20 ADD SWAP1 DUP2 MSTORE PUSH1 0x20 ADD PUSH1 0x0 KECCAK256 PUSH1 0x0 PUSH2 0x100 EXP DUP2 SLOAD DUP2 PUSH1 0xFF MUL NOT AND SWAP1 DUP4 ISZERO ISZERO MUL OR SWAP1 SSTORE POP POP JUMP JUMPDEST PUSH2 0xDDD PUSH2 0x19E9 JUMP JUMPDEST PUSH1 0x0 PUSH20 0x943590A42C27D08E3744202C4AE5ED55C2DE240D PUSH20 0xFFFFFFFFFFFFFFFFFFFFFFFFFFFFFFFFFFFFFFFF AND PUSH1 0x64 PUSH1 0x5 SELFBALANCE PUSH2 0xE19 SWAP2 SWAP1 PUSH2 0x3839 JUMP JUMPDEST PUSH2 0xE23 SWAP2 SWAP1 PUSH2 0x38AA JUMP JUMPDEST PUSH1 0x40 MLOAD PUSH2 0xE2F SWAP1 PUSH2 0x390C JUMP JUMPDEST PUSH1 0x0 PUSH1 0x40 MLOAD DUP1 DUP4 SUB DUP2 DUP6 DUP8 GAS CALL SWAP3 POP POP POP RETURNDATASIZE DUP1 PUSH1 0x0 DUP2 EQ PUSH2 0xE6C JUMPI PUSH1 0x40 MLOAD SWAP2 POP PUSH1 0x1F NOT PUSH1 0x3F RETURNDATASIZE ADD AND DUP3 ADD PUSH1 0x40 MSTORE RETURNDATASIZE DUP3 MSTORE RETURNDATASIZE PUSH1 0x0 PUSH1 0x20 DUP5 ADD RETURNDATACOPY PUSH2 0xE71 JUMP JUMPDEST PUSH1 0x60 SWAP2 POP JUMPDEST POP POP SWAP1 POP DUP1 PUSH2 0xE7F JUMPI PUSH1 0x0 DUP1 REVERT JUMPDEST PUSH1 0x0 PUSH2 0xE89 PUSH2 0x142C JUMP JUMPDEST PUSH20 0xFFFFFFFFFFFFFFFFFFFFFFFFFFFFFFFFFFFFFFFF AND SELFBALANCE PUSH1 0x40 MLOAD PUSH2 0xEAC SWAP1 PUSH2 0x390C JUMP JUMPDEST PUSH1 0x0 PUSH1 0x40 MLOAD DUP1 DUP4 SUB DUP2 DUP6 DUP8 GAS CALL SWAP3 POP POP POP RETURNDATASIZE DUP1 PUSH1 0x0 DUP2 EQ PUSH2 0xEE9 JUMPI PUSH1 0x40 MLOAD SWAP2 POP PUSH1 0x1F NOT PUSH1 0x3F RETURNDATASIZE ADD AND DUP3 ADD PUSH1 0x40 MSTORE RETURNDATASIZE DUP3 MSTORE RETURNDATASIZE PUSH1 0x0 PUSH1 0x20 DUP5 ADD RETURNDATACOPY PUSH2 0xEEE JUMP JUMPDEST PUSH1 0x60 SWAP2 POP JUMPDEST POP POP SWAP1 POP DUP1 PUSH2 0xEFC JUMPI PUSH1 0x0 DUP1 REVERT JUMPDEST POP POP JUMP JUMPDEST PUSH1 0x0 PUSH2 0xF0A PUSH2 0xC5A JUMP JUMPDEST SWAP1 POP PUSH1 0x10 PUSH1 0x0 SWAP1 SLOAD SWAP1 PUSH2 0x100 EXP SWAP1 DIV PUSH1 0xFF AND ISZERO PUSH2 0xF26 JUMPI PUSH1 0x0 DUP1 REVERT JUMPDEST PUSH1 0x0 DUP3 GT PUSH2 0xF33 JUMPI PUSH1 0x0 DUP1 REVERT JUMPDEST PUSH1 0xF SLOAD DUP3 GT ISZERO PUSH2 0xF42 JUMPI PUSH1 0x0 DUP1 REVERT JUMPDEST PUSH1 0xE SLOAD DUP3 DUP3 PUSH2 0xF51 SWAP2 SWAP1 PUSH2 0x3921 JUMP JUMPDEST GT ISZERO PUSH2 0xF5C JUMPI PUSH1 0x0 DUP1 REVERT JUMPDEST PUSH2 0xF64 PUSH2 0x142C JUMP JUMPDEST PUSH20 0xFFFFFFFFFFFFFFFFFFFFFFFFFFFFFFFFFFFFFFFF AND CALLER PUSH20 0xFFFFFFFFFFFFFFFFFFFFFFFFFFFFFFFFFFFFFFFF AND EQ PUSH2 0x100A JUMPI PUSH1 0x1 ISZERO ISZERO PUSH1 0x12 PUSH1 0x0 CALLER PUSH20 0xFFFFFFFFFFFFFFFFFFFFFFFFFFFFFFFFFFFFFFFF AND PUSH20 0xFFFFFFFFFFFFFFFFFFFFFFFFFFFFFFFFFFFFFFFF AND DUP2 MSTORE PUSH1 0x20 ADD SWAP1 DUP2 MSTORE PUSH1 0x20 ADD PUSH1 0x0 KECCAK256 PUSH1 0x0 SWAP1 SLOAD SWAP1 PUSH2 0x100 EXP SWAP1 DIV PUSH1 0xFF AND ISZERO ISZERO EQ PUSH2 0x1009 JUMPI DUP2 PUSH1 0xD SLOAD PUSH2 0xFFC SWAP2 SWAP1 PUSH2 0x3839 JUMP JUMPDEST CALLVALUE LT ISZERO PUSH2 0x1008 JUMPI PUSH1 0x0 DUP1 REVERT JUMPDEST JUMPDEST JUMPDEST PUSH1 0x0 PUSH1 0x1 SWAP1 POP JUMPDEST DUP3 DUP2 GT PUSH2 0x1040 JUMPI PUSH2 0x102D DUP5 DUP3 DUP5 PUSH2 0x1028 SWAP2 SWAP1 PUSH2 0x3921 JUMP JUMPDEST PUSH2 0x1F01 JUMP JUMPDEST DUP1 DUP1 PUSH2 0x1038 SWAP1 PUSH2 0x3955 JUMP JUMPDEST SWAP2 POP POP PUSH2 0x1011 JUMP JUMPDEST POP POP POP POP JUMP JUMPDEST PUSH2 0x1061 DUP4 DUP4 DUP4 PUSH1 0x40 MLOAD DUP1 PUSH1 0x20 ADD PUSH1 0x40 MSTORE DUP1 PUSH1 0x0 DUP2 MSTORE POP PUSH2 0x1523 JUMP JUMPDEST POP POP POP JUMP JUMPDEST PUSH1 0x60 PUSH1 0x0 PUSH2 0x1073 DUP4 PUSH2 0x134F JUMP JUMPDEST SWAP1 POP PUSH1 0x0 DUP2 PUSH8 0xFFFFFFFFFFFFFFFF DUP2 GT ISZERO PUSH2 0x1091 JUMPI PUSH2 0x1090 PUSH2 0x324A JUMP JUMPDEST JUMPDEST PUSH1 0x40 MLOAD SWAP1 DUP1 DUP3 MSTORE DUP1 PUSH1 0x20 MUL PUSH1 0x20 ADD DUP3 ADD PUSH1 0x40 MSTORE DUP1 ISZERO PUSH2 0x10BF JUMPI DUP2 PUSH1 0x20 ADD PUSH1 0x20 DUP3 MUL DUP1 CALLDATASIZE DUP4 CALLDATACOPY DUP1 DUP3 ADD SWAP2 POP POP SWAP1 POP JUMPDEST POP SWAP1 POP PUSH1 0x0 JUMPDEST DUP3 DUP2 LT ISZERO PUSH2 0x1109 JUMPI PUSH2 0x10D7 DUP6 DUP3 PUSH2 0xCCD JUMP JUMPDEST DUP3 DUP3 DUP2 MLOAD DUP2 LT PUSH2 0x10EA JUMPI PUSH2 0x10E9 PUSH2 0x399D JUMP JUMPDEST JUMPDEST PUSH1 0x20 MUL PUSH1 0x20 ADD ADD DUP2 DUP2 MSTORE POP POP DUP1 DUP1 PUSH2 0x1101 SWAP1 PUSH2 0x3955 JUMP JUMPDEST SWAP2 POP POP PUSH2 0x10C5 JUMP JUMPDEST POP DUP1 SWAP3 POP POP POP SWAP2 SWAP1 POP JUMP JUMPDEST PUSH2 0x111C PUSH2 0x19E9 JUMP JUMPDEST DUP1 PUSH1 0xD DUP2 SWAP1 SSTORE POP POP JUMP JUMPDEST PUSH2 0x112E PUSH2 0x19E9 JUMP JUMPDEST PUSH1 0x1 PUSH1 0x12 PUSH1 0x0 DUP4 PUSH20 0xFFFFFFFFFFFFFFFFFFFFFFFFFFFFFFFFFFFFFFFF AND PUSH20 0xFFFFFFFFFFFFFFFFFFFFFFFFFFFFFFFFFFFFFFFF AND DUP2 MSTORE PUSH1 0x20 ADD SWAP1 DUP2 MSTORE PUSH1 0x20 ADD PUSH1 0x0 KECCAK256 PUSH1 0x0 PUSH2 0x100 EXP DUP2 SLOAD DUP2 PUSH1 0xFF MUL NOT AND SWAP1 DUP4 ISZERO ISZERO MUL OR SWAP1 SSTORE POP POP JUMP JUMPDEST PUSH1 0x0 PUSH2 0x1193 PUSH2 0xC5A JUMP JUMPDEST DUP3 LT PUSH2 0x11D4 JUMPI PUSH1 0x40 MLOAD PUSH32 0x8C379A000000000000000000000000000000000000000000000000000000000 DUP2 MSTORE PUSH1 0x4 ADD PUSH2 0x11CB SWAP1 PUSH2 0x3A3E JUMP JUMPDEST PUSH1 0x40 MLOAD DUP1 SWAP2 SUB SWAP1 REVERT JUMPDEST PUSH1 0x8 DUP3 DUP2 SLOAD DUP2 LT PUSH2 0x11E8 JUMPI PUSH2 0x11E7 PUSH2 0x399D JUMP JUMPDEST JUMPDEST SWAP1 PUSH1 0x0 MSTORE PUSH1 0x20 PUSH1 0x0 KECCAK256 ADD SLOAD SWAP1 POP SWAP2 SWAP1 POP JUMP JUMPDEST PUSH1 0x10 PUSH1 0x1 SWAP1 SLOAD SWAP1 PUSH2 0x100 EXP SWAP1 DIV PUSH1 0xFF AND DUP2 JUMP JUMPDEST PUSH2 0x1215 PUSH2 0x19E9 JUMP JUMPDEST DUP1 PUSH1 0xB SWAP1 DUP2 PUSH2 0x1224 SWAP2 SWAP1 PUSH2 0x3C0A JUMP JUMPDEST POP POP JUMP JUMPDEST PUSH1 0x10 PUSH1 0x0 SWAP1 SLOAD SWAP1 PUSH2 0x100 EXP SWAP1 DIV PUSH1 0xFF AND DUP2 JUMP JUMPDEST PUSH1 0x0 DUP1 PUSH2 0x1247 DUP4 PUSH2 0x1F1F JUMP JUMPDEST SWAP1 POP PUSH1 0x0 PUSH20 0xFFFFFFFFFFFFFFFFFFFFFFFFFFFFFFFFFFFFFFFF AND DUP2 PUSH20 0xFFFFFFFFFFFFFFFFFFFFFFFFFFFFFFFFFFFFFFFF AND SUB PUSH2 0x12B8 JUMPI PUSH1 0x40 MLOAD PUSH32 0x8C379A000000000000000000000000000000000000000000000000000000000 DUP2 MSTORE PUSH1 0x4 ADD PUSH2 0x12AF SWAP1 PUSH2 0x3D28 JUMP JUMPDEST PUSH1 0x40 MLOAD DUP1 SWAP2 SUB SWAP1 REVERT JUMPDEST DUP1 SWAP2 POP POP SWAP2 SWAP1 POP JUMP JUMPDEST PUSH1 0xB DUP1 SLOAD PUSH2 0x12CE SWAP1 PUSH2 0x3591 JUMP JUMPDEST DUP1 PUSH1 0x1F ADD PUSH1 0x20 DUP1 SWAP2 DIV MUL PUSH1 0x20 ADD PUSH1 0x40 MLOAD SWAP1 DUP2 ADD PUSH1 0x40 MSTORE DUP1 SWAP3 SWAP2 SWAP1 DUP2 DUP2 MSTORE PUSH1 0x20 ADD DUP3 DUP1 SLOAD PUSH2 0x12FA SWAP1 PUSH2 0x3591 JUMP JUMPDEST DUP1 ISZERO PUSH2 0x1347 JUMPI DUP1 PUSH1 0x1F LT PUSH2 0x131C JUMPI PUSH2 0x100 DUP1 DUP4 SLOAD DIV MUL DUP4 MSTORE SWAP2 PUSH1 0x20 ADD SWAP2 PUSH2 0x1347 JUMP JUMPDEST DUP3 ADD SWAP2 SWAP1 PUSH1 0x0 MSTORE PUSH1 0x20 PUSH1 0x0 KECCAK256 SWAP1 JUMPDEST DUP2 SLOAD DUP2 MSTORE SWAP1 PUSH1 0x1 ADD SWAP1 PUSH1 0x20 ADD DUP1 DUP4 GT PUSH2 0x132A JUMPI DUP3 SWAP1 SUB PUSH1 0x1F AND DUP3 ADD SWAP2 JUMPDEST POP POP POP POP POP DUP2 JUMP JUMPDEST PUSH1 0x0 DUP1 PUSH20 0xFFFFFFFFFFFFFFFFFFFFFFFFFFFFFFFFFFFFFFFF AND DUP3 PUSH20 0xFFFFFFFFFFFFFFFFFFFFFFFFFFFFFFFFFFFFFFFF AND SUB PUSH2 0x13BF JUMPI PUSH1 0x40 MLOAD PUSH32 0x8C379A000000000000000000000000000000000000000000000000000000000 DUP2 MSTORE PUSH1 0x4 ADD PUSH2 0x13B6 SWAP1 PUSH2 0x3DBA JUMP JUMPDEST PUSH1 0x40 MLOAD DUP1 SWAP2 SUB SWAP1 REVERT JUMPDEST PUSH1 0x3 PUSH1 0x0 DUP4 PUSH20 0xFFFFFFFFFFFFFFFFFFFFFFFFFFFFFFFFFFFFFFFF AND PUSH20 0xFFFFFFFFFFFFFFFFFFFFFFFFFFFFFFFFFFFFFFFF AND DUP2 MSTORE PUSH1 0x20 ADD SWAP1 DUP2 MSTORE PUSH1 0x20 ADD PUSH1 0x0 KECCAK256 SLOAD SWAP1 POP SWAP2 SWAP1 POP JUMP JUMPDEST PUSH2 0x140E PUSH2 0x19E9 JUMP JUMPDEST PUSH2 0x1418 PUSH1 0x0 PUSH2 0x1F5C JUMP JUMPDEST JUMP JUMPDEST PUSH2 0x1422 PUSH2 0x19E9 JUMP JUMPDEST DUP1 PUSH1 0xF DUP2 SWAP1 SSTORE POP POP JUMP JUMPDEST PUSH1 0x0 PUSH1 0xA PUSH1 0x0 SWAP1 SLOAD SWAP1 PUSH2 0x100 EXP SWAP1 DIV PUSH20 0xFFFFFFFFFFFFFFFFFFFFFFFFFFFFFFFFFFFFFFFF AND SWAP1 POP SWAP1 JUMP JUMPDEST PUSH1 0x60 PUSH1 0x1 DUP1 SLOAD PUSH2 0x1465 SWAP1 PUSH2 0x3591 JUMP JUMPDEST DUP1 PUSH1 0x1F ADD PUSH1 0x20 DUP1 SWAP2 DIV MUL PUSH1 0x20 ADD PUSH1 0x40 MLOAD SWAP1 DUP2 ADD PUSH1 0x40 MSTORE DUP1 SWAP3 SWAP2 SWAP1 DUP2 DUP2 MSTORE PUSH1 0x20 ADD DUP3 DUP1 SLOAD PUSH2 0x1491 SWAP1 PUSH2 0x3591 JUMP JUMPDEST DUP1 ISZERO PUSH2 0x14DE JUMPI DUP1 PUSH1 0x1F LT PUSH2 0x14B3 JUMPI PUSH2 0x100 DUP1 DUP4 SLOAD DIV MUL DUP4 MSTORE SWAP2 PUSH1 0x20 ADD SWAP2 PUSH2 0x14DE JUMP JUMPDEST DUP3 ADD SWAP2 SWAP1 PUSH1 0x0 MSTORE PUSH1 0x20 PUSH1 0x0 KECCAK256 SWAP1 JUMPDEST DUP2 SLOAD DUP2 MSTORE SWAP1 PUSH1 0x1 ADD SWAP1 PUSH1 0x20 ADD DUP1 DUP4 GT PUSH2 0x14C1 JUMPI DUP3 SWAP1 SUB PUSH1 0x1F AND DUP3 ADD SWAP2 JUMPDEST POP POP POP POP POP SWAP1 POP SWAP1 JUMP JUMPDEST PUSH2 0x14FA PUSH2 0x14F3 PUSH2 0x1AB2 JUMP JUMPDEST DUP4 DUP4 PUSH2 0x2022 JUMP JUMPDEST POP POP JUMP JUMPDEST PUSH2 0x1506 PUSH2 0x19E9 JUMP JUMPDEST PUSH1 0x1 PUSH1 0x10 PUSH1 0x1 PUSH2 0x100 EXP DUP2 SLOAD DUP2 PUSH1 0xFF MUL NOT AND SWAP1 DUP4 ISZERO ISZERO MUL OR SWAP1 SSTORE POP JUMP JUMPDEST PUSH2 0x1534 PUSH2 0x152E PUSH2 0x1AB2 JUMP JUMPDEST DUP4 PUSH2 0x1B73 JUMP JUMPDEST PUSH2 0x1573 JUMPI PUSH1 0x40 MLOAD PUSH32 0x8C379A000000000000000000000000000000000000000000000000000000000 DUP2 MSTORE PUSH1 0x4 ADD PUSH2 0x156A SWAP1 PUSH2 0x3758 JUMP JUMPDEST PUSH1 0x40 MLOAD DUP1 SWAP2 SUB SWAP1 REVERT JUMPDEST PUSH2 0x157F DUP5 DUP5 DUP5 DUP5 PUSH2 0x218E JUMP JUMPDEST POP POP POP POP JUMP JUMPDEST PUSH1 0xC DUP1 SLOAD PUSH2 0x1592 SWAP1 PUSH2 0x3591 JUMP JUMPDEST DUP1 PUSH1 0x1F ADD PUSH1 0x20 DUP1 SWAP2 DIV MUL PUSH1 0x20 ADD PUSH1 0x40 MLOAD SWAP1 DUP2 ADD PUSH1 0x40 MSTORE DUP1 SWAP3 SWAP2 SWAP1 DUP2 DUP2 MSTORE PUSH1 0x20 ADD DUP3 DUP1 SLOAD PUSH2 0x15BE SWAP1 PUSH2 0x3591 JUMP JUMPDEST DUP1 ISZERO PUSH2 0x160B JUMPI DUP1 PUSH1 0x1F LT PUSH2 0x15E0 JUMPI PUSH2 0x100 DUP1 DUP4 SLOAD DIV MUL DUP4 MSTORE SWAP2 PUSH1 0x20 ADD SWAP2 PUSH2 0x160B JUMP JUMPDEST DUP3 ADD SWAP2 SWAP1 PUSH1 0x0 MSTORE PUSH1 0x20 PUSH1 0x0 KECCAK256 SWAP1 JUMPDEST DUP2 SLOAD DUP2 MSTORE SWAP1 PUSH1 0x1 ADD SWAP1 PUSH1 0x20 ADD DUP1 DUP4 GT PUSH2 0x15EE JUMPI DUP3 SWAP1 SUB PUSH1 0x1F AND DUP3 ADD SWAP2 JUMPDEST POP POP POP POP POP DUP2 JUMP JUMPDEST PUSH1 0x60 PUSH2 0x161E DUP3 PUSH2 0x21EA JUMP JUMPDEST PUSH2 0x165D JUMPI PUSH1 0x40 MLOAD PUSH32 0x8C379A000000000000000000000000000000000000000000000000000000000 DUP2 MSTORE PUSH1 0x4 ADD PUSH2 0x1654 SWAP1 PUSH2 0x3E4C JUMP JUMPDEST PUSH1 0x40 MLOAD DUP1 SWAP2 SUB SWAP1 REVERT JUMPDEST PUSH1 0x0 ISZERO ISZERO PUSH1 0x10 PUSH1 0x1 SWAP1 SLOAD SWAP1 PUSH2 0x100 EXP SWAP1 DIV PUSH1 0xFF AND ISZERO ISZERO SUB PUSH2 0x170A JUMPI PUSH1 0x11 DUP1 SLOAD PUSH2 0x1685 SWAP1 PUSH2 0x3591 JUMP JUMPDEST DUP1 PUSH1 0x1F ADD PUSH1 0x20 DUP1 SWAP2 DIV MUL PUSH1 0x20 ADD PUSH1 0x40 MLOAD SWAP1 DUP2 ADD PUSH1 0x40 MSTORE DUP1 SWAP3 SWAP2 SWAP1 DUP2 DUP2 MSTORE PUSH1 0x20 ADD DUP3 DUP1 SLOAD PUSH2 0x16B1 SWAP1 PUSH2 0x3591 JUMP JUMPDEST DUP1 ISZERO PUSH2 0x16FE JUMPI DUP1 PUSH1 0x1F LT PUSH2 0x16D3 JUMPI PUSH2 0x100 DUP1 DUP4 SLOAD DIV MUL DUP4 MSTORE SWAP2 PUSH1 0x20 ADD SWAP2 PUSH2 0x16FE JUMP JUMPDEST DUP3 ADD SWAP2 SWAP1 PUSH1 0x0 MSTORE PUSH1 0x20 PUSH1 0x0 KECCAK256 SWAP1 JUMPDEST DUP2 SLOAD DUP2 MSTORE SWAP1 PUSH1 0x1 ADD SWAP1 PUSH1 0x20 ADD DUP1 DUP4 GT PUSH2 0x16E1 JUMPI DUP3 SWAP1 SUB PUSH1 0x1F AND DUP3 ADD SWAP2 JUMPDEST POP POP POP POP POP SWAP1 POP PUSH2 0x1766 JUMP JUMPDEST PUSH1 0x0 PUSH2 0x1714 PUSH2 0x222B JUMP JUMPDEST SWAP1 POP PUSH1 0x0 DUP2 MLOAD GT PUSH2 0x1734 JUMPI PUSH1 0x40 MLOAD DUP1 PUSH1 0x20 ADD PUSH1 0x40 MSTORE DUP1 PUSH1 0x0 DUP2 MSTORE POP PUSH2 0x1762 JUMP JUMPDEST DUP1 PUSH2 0x173E DUP5 PUSH2 0x22BD JUMP JUMPDEST PUSH1 0xC PUSH1 0x40 MLOAD PUSH1 0x20 ADD PUSH2 0x1752 SWAP4 SWAP3 SWAP2 SWAP1 PUSH2 0x3F2B JUMP JUMPDEST PUSH1 0x40 MLOAD PUSH1 0x20 DUP2 DUP4 SUB SUB DUP2 MSTORE SWAP1 PUSH1 0x40 MSTORE JUMPDEST SWAP2 POP POP JUMPDEST SWAP2 SWAP1 POP JUMP JUMPDEST PUSH1 0xE SLOAD DUP2 JUMP JUMPDEST PUSH1 0x12 PUSH1 0x20 MSTORE DUP1 PUSH1 0x0 MSTORE PUSH1 0x40 PUSH1 0x0 KECCAK256 PUSH1 0x0 SWAP2 POP SLOAD SWAP1 PUSH2 0x100 EXP SWAP1 DIV PUSH1 0xFF AND DUP2 JUMP JUMPDEST PUSH2 0x1799 PUSH2 0x19E9 JUMP JUMPDEST DUP1 PUSH1 0xC SWAP1 DUP2 PUSH2 0x17A8 SWAP2 SWAP1 PUSH2 0x3C0A JUMP JUMPDEST POP POP JUMP JUMPDEST PUSH1 0x0 PUSH1 0x5 PUSH1 0x0 DUP5 PUSH20 0xFFFFFFFFFFFFFFFFFFFFFFFFFFFFFFFFFFFFFFFF AND PUSH20 0xFFFFFFFFFFFFFFFFFFFFFFFFFFFFFFFFFFFFFFFF AND DUP2 MSTORE PUSH1 0x20 ADD SWAP1 DUP2 MSTORE PUSH1 0x20 ADD PUSH1 0x0 KECCAK256 PUSH1 0x0 DUP4 PUSH20 0xFFFFFFFFFFFFFFFFFFFFFFFFFFFFFFFFFFFFFFFF AND PUSH20 0xFFFFFFFFFFFFFFFFFFFFFFFFFFFFFFFFFFFFFFFF AND DUP2 MSTORE PUSH1 0x20 ADD SWAP1 DUP2 MSTORE PUSH1 0x20 ADD PUSH1 0x0 KECCAK256 PUSH1 0x0 SWAP1 SLOAD SWAP1 PUSH2 0x100 EXP SWAP1 DIV PUSH1 0xFF AND SWAP1 POP SWAP3 SWAP2 POP POP JUMP JUMPDEST PUSH2 0x1848 PUSH2 0x19E9 JUMP JUMPDEST DUP1 PUSH1 0x11 SWAP1 DUP2 PUSH2 0x1857 SWAP2 SWAP1 PUSH2 0x3C0A JUMP JUMPDEST POP POP JUMP JUMPDEST PUSH2 0x1863 PUSH2 0x19E9 JUMP JUMPDEST PUSH1 0x0 PUSH20 0xFFFFFFFFFFFFFFFFFFFFFFFFFFFFFFFFFFFFFFFF AND DUP2 PUSH20 0xFFFFFFFFFFFFFFFFFFFFFFFFFFFFFFFFFFFFFFFF AND SUB PUSH2 0x18D2 JUMPI PUSH1 0x40 MLOAD PUSH32 0x8C379A000000000000000000000000000000000000000000000000000000000 DUP2 MSTORE PUSH1 0x4 ADD PUSH2 0x18C9 SWAP1 PUSH2 0x3FCE JUMP JUMPDEST PUSH1 0x40 MLOAD DUP1 SWAP2 SUB SWAP1 REVERT JUMPDEST PUSH2 0x18DB DUP2 PUSH2 0x1F5C JUMP JUMPDEST POP JUMP JUMPDEST PUSH1 0x0 DUP1 DUP3 PUSH20 0xFFFFFFFFFFFFFFFFFFFFFFFFFFFFFFFFFFFFFFFF AND EXTCODESIZE GT SWAP1 POP SWAP2 SWAP1 POP JUMP JUMPDEST POP POP POP POP JUMP JUMPDEST PUSH1 0x0 PUSH32 0x80AC58CD00000000000000000000000000000000000000000000000000000000 PUSH28 0xFFFFFFFFFFFFFFFFFFFFFFFFFFFFFFFFFFFFFFFFFFFFFFFFFFFFFFFF NOT AND DUP3 PUSH28 0xFFFFFFFFFFFFFFFFFFFFFFFFFFFFFFFFFFFFFFFFFFFFFFFFFFFFFFFF NOT AND EQ DUP1 PUSH2 0x19D2 JUMPI POP PUSH32 0x5B5E139F00000000000000000000000000000000000000000000000000000000 PUSH28 0xFFFFFFFFFFFFFFFFFFFFFFFFFFFFFFFFFFFFFFFFFFFFFFFFFFFFFFFF NOT AND DUP3 PUSH28 0xFFFFFFFFFFFFFFFFFFFFFFFFFFFFFFFFFFFFFFFFFFFFFFFFFFFFFFFF NOT AND EQ JUMPDEST DUP1 PUSH2 0x19E2 JUMPI POP PUSH2 0x19E1 DUP3 PUSH2 0x238B JUMP JUMPDEST JUMPDEST SWAP1 POP SWAP2 SWAP1 POP JUMP JUMPDEST PUSH2 0x19F1 PUSH2 0x1AB2 JUMP JUMPDEST PUSH20 0xFFFFFFFFFFFFFFFFFFFFFFFFFFFFFFFFFFFFFFFF AND PUSH2 0x1A0F PUSH2 0x142C JUMP JUMPDEST PUSH20 0xFFFFFFFFFFFFFFFFFFFFFFFFFFFFFFFFFFFFFFFF AND EQ PUSH2 0x1A65 JUMPI PUSH1 0x40 MLOAD PUSH32 0x8C379A000000000000000000000000000000000000000000000000000000000 DUP2 MSTORE PUSH1 0x4 ADD PUSH2 0x1A5C SWAP1 PUSH2 0x403A JUMP JUMPDEST PUSH1 0x40 MLOAD DUP1 SWAP2 SUB SWAP1 REVERT JUMPDEST JUMP JUMPDEST PUSH2 0x1A70 DUP2 PUSH2 0x21EA JUMP JUMPDEST PUSH2 0x1AAF JUMPI PUSH1 0x40 MLOAD PUSH32 0x8C379A000000000000000000000000000000000000000000000000000000000 DUP2 MSTORE PUSH1 0x4 ADD PUSH2 0x1AA6 SWAP1 PUSH2 0x3D28 JUMP JUMPDEST PUSH1 0x40 MLOAD DUP1 SWAP2 SUB SWAP1 REVERT JUMPDEST POP JUMP JUMPDEST PUSH1 0x0 CALLER SWAP1 POP SWAP1 JUMP JUMPDEST DUP2 PUSH1 0x4 PUSH1 0x0 DUP4 DUP2 MSTORE PUSH1 0x20 ADD SWAP1 DUP2 MSTORE PUSH1 0x20 ADD PUSH1 0x0 KECCAK256 PUSH1 0x0 PUSH2 0x100 EXP DUP2 SLOAD DUP2 PUSH20 0xFFFFFFFFFFFFFFFFFFFFFFFFFFFFFFFFFFFFFFFF MUL NOT AND SWAP1 DUP4 PUSH20 0xFFFFFFFFFFFFFFFFFFFFFFFFFFFFFFFFFFFFFFFF AND MUL OR SWAP1 SSTORE POP DUP1 DUP3 PUSH20 0xFFFFFFFFFFFFFFFFFFFFFFFFFFFFFFFFFFFFFFFF AND PUSH2 0x1B2D DUP4 PUSH2 0x123B JUMP JUMPDEST PUSH20 0xFFFFFFFFFFFFFFFFFFFFFFFFFFFFFFFFFFFFFFFF AND PUSH32 0x8C5BE1E5EBEC7D5BD14F71427D1E84F3DD0314C0F7B2291E5B200AC8C7C3B925 PUSH1 0x40 MLOAD PUSH1 0x40 MLOAD DUP1 SWAP2 SUB SWAP1 LOG4 POP POP JUMP JUMPDEST PUSH1 0x0 DUP1 PUSH2 0x1B7F DUP4 PUSH2 0x123B JUMP JUMPDEST SWAP1 POP DUP1 PUSH20 0xFFFFFFFFFFFFFFFFFFFFFFFFFFFFFFFFFFFFFFFF AND DUP5 PUSH20 0xFFFFFFFFFFFFFFFFFFFFFFFFFFFFFFFFFFFFFFFF AND EQ DUP1 PUSH2 0x1BC1 JUMPI POP PUSH2 0x1BC0 DUP2 DUP6 PUSH2 0x17AC JUMP JUMPDEST JUMPDEST DUP1 PUSH2 0x1BFF JUMPI POP DUP4 PUSH20 0xFFFFFFFFFFFFFFFFFFFFFFFFFFFFFFFFFFFFFFFF AND PUSH2 0x1BE7 DUP5 PUSH2 0xA69 JUMP JUMPDEST PUSH20 0xFFFFFFFFFFFFFFFFFFFFFFFFFFFFFFFFFFFFFFFF AND EQ JUMPDEST SWAP2 POP POP SWAP3 SWAP2 POP POP JUMP JUMPDEST DUP3 PUSH20 0xFFFFFFFFFFFFFFFFFFFFFFFFFFFFFFFFFFFFFFFF AND PUSH2 0x1C28 DUP3 PUSH2 0x123B JUMP JUMPDEST PUSH20 0xFFFFFFFFFFFFFFFFFFFFFFFFFFFFFFFFFFFFFFFF AND EQ PUSH2 0x1C7E JUMPI PUSH1 0x40 MLOAD PUSH32 0x8C379A000000000000000000000000000000000000000000000000000000000 DUP2 MSTORE PUSH1 0x4 ADD PUSH2 0x1C75 SWAP1 PUSH2 0x40CC JUMP JUMPDEST PUSH1 0x40 MLOAD DUP1 SWAP2 SUB SWAP1 REVERT JUMPDEST PUSH1 0x0 PUSH20 0xFFFFFFFFFFFFFFFFFFFFFFFFFFFFFFFFFFFFFFFF AND DUP3 PUSH20 0xFFFFFFFFFFFFFFFFFFFFFFFFFFFFFFFFFFFFFFFF AND SUB PUSH2 0x1CED JUMPI PUSH1 0x40 MLOAD PUSH32 0x8C379A000000000000000000000000000000000000000000000000000000000 DUP2 MSTORE PUSH1 0x4 ADD PUSH2 0x1CE4 SWAP1 PUSH2 0x415E JUMP JUMPDEST PUSH1 0x40 MLOAD DUP1 SWAP2 SUB SWAP1 REVERT JUMPDEST PUSH2 0x1CFA DUP4 DUP4 DUP4 PUSH1 0x1 PUSH2 0x23F5 JUMP JUMPDEST DUP3 PUSH20 0xFFFFFFFFFFFFFFFFFFFFFFFFFFFFFFFFFFFFFFFF AND PUSH2 0x1D1A DUP3 PUSH2 0x123B JUMP JUMPDEST PUSH20 0xFFFFFFFFFFFFFFFFFFFFFFFFFFFFFFFFFFFFFFFF AND EQ PUSH2 0x1D70 JUMPI PUSH1 0x40 MLOAD PUSH32 0x8C379A000000000000000000000000000000000000000000000000000000000 DUP2 MSTORE PUSH1 0x4 ADD PUSH2 0x1D67 SWAP1 PUSH2 0x40CC JUMP JUMPDEST PUSH1 0x40 MLOAD DUP1 SWAP2 SUB SWAP1 REVERT JUMPDEST PUSH1 0x4 PUSH1 0x0 DUP3 DUP2 MSTORE PUSH1 0x20 ADD SWAP1 DUP2 MSTORE PUSH1 0x20 ADD PUSH1 0x0 KECCAK256 PUSH1 0x0 PUSH2 0x100 EXP DUP2 SLOAD SWAP1 PUSH20 0xFFFFFFFFFFFFFFFFFFFFFFFFFFFFFFFFFFFFFFFF MUL NOT AND SWAP1 SSTORE PUSH1 0x1 PUSH1 0x3 PUSH1 0x0 DUP6 PUSH20 0xFFFFFFFFFFFFFFFFFFFFFFFFFFFFFFFFFFFFFFFF AND PUSH20 0xFFFFFFFFFFFFFFFFFFFFFFFFFFFFFFFFFFFFFFFF AND DUP2 MSTORE PUSH1 0x20 ADD SWAP1 DUP2 MSTORE PUSH1 0x20 ADD PUSH1 0x0 KECCAK256 PUSH1 0x0 DUP3 DUP3 SLOAD SUB SWAP3 POP POP DUP2 SWAP1 SSTORE POP PUSH1 0x1 PUSH1 0x3 PUSH1 0x0 DUP5 PUSH20 0xFFFFFFFFFFFFFFFFFFFFFFFFFFFFFFFFFFFFFFFF AND PUSH20 0xFFFFFFFFFFFFFFFFFFFFFFFFFFFFFFFFFFFFFFFF AND DUP2 MSTORE PUSH1 0x20 ADD SWAP1 DUP2 MSTORE PUSH1 0x20 ADD PUSH1 0x0 KECCAK256 PUSH1 0x0 DUP3 DUP3 SLOAD ADD SWAP3 POP POP DUP2 SWAP1 SSTORE POP DUP2 PUSH1 0x2 PUSH1 0x0 DUP4 DUP2 MSTORE PUSH1 0x20 ADD SWAP1 DUP2 MSTORE PUSH1 0x20 ADD PUSH1 0x0 KECCAK256 PUSH1 0x0 PUSH2 0x100 EXP DUP2 SLOAD DUP2 PUSH20 0xFFFFFFFFFFFFFFFFFFFFFFFFFFFFFFFFFFFFFFFF MUL NOT AND SWAP1 DUP4 PUSH20 0xFFFFFFFFFFFFFFFFFFFFFFFFFFFFFFFFFFFFFFFF AND MUL OR SWAP1 SSTORE POP DUP1 DUP3 PUSH20 0xFFFFFFFFFFFFFFFFFFFFFFFFFFFFFFFFFFFFFFFF AND DUP5 PUSH20 0xFFFFFFFFFFFFFFFFFFFFFFFFFFFFFFFFFFFFFFFF AND PUSH32 0xDDF252AD1BE2C89B69C2B068FC378DAA952BA7F163C4A11628F55A4DF523B3EF PUSH1 0x40 MLOAD PUSH1 0x40 MLOAD DUP1 SWAP2 SUB SWAP1 LOG4 PUSH2 0x1EFC DUP4 DUP4 DUP4 PUSH1 0x1 PUSH2 0x2553 JUMP JUMPDEST POP POP POP JUMP JUMPDEST PUSH2 0x1F1B DUP3 DUP3 PUSH1 0x40 MLOAD DUP1 PUSH1 0x20 ADD PUSH1 0x40 MSTORE DUP1 PUSH1 0x0 DUP2 MSTORE POP PUSH2 0x2559 JUMP JUMPDEST POP POP JUMP JUMPDEST PUSH1 0x0 PUSH1 0x2 PUSH1 0x0 DUP4 DUP2 MSTORE PUSH1 0x20 ADD SWAP1 DUP2 MSTORE PUSH1 0x20 ADD PUSH1 0x0 KECCAK256 PUSH1 0x0 SWAP1 SLOAD SWAP1 PUSH2 0x100 EXP SWAP1 DIV PUSH20 0xFFFFFFFFFFFFFFFFFFFFFFFFFFFFFFFFFFFFFFFF AND SWAP1 POP SWAP2 SWAP1 POP JUMP JUMPDEST PUSH1 0x0 PUSH1 0xA PUSH1 0x0 SWAP1 SLOAD SWAP1 PUSH2 0x100 EXP SWAP1 DIV PUSH20 0xFFFFFFFFFFFFFFFFFFFFFFFFFFFFFFFFFFFFFFFF AND SWAP1 POP DUP2 PUSH1 0xA PUSH1 0x0 PUSH2 0x100 EXP DUP2 SLOAD DUP2 PUSH20 0xFFFFFFFFFFFFFFFFFFFFFFFFFFFFFFFFFFFFFFFF MUL NOT AND SWAP1 DUP4 PUSH20 0xFFFFFFFFFFFFFFFFFFFFFFFFFFFFFFFFFFFFFFFF AND MUL OR SWAP1 SSTORE POP DUP2 PUSH20 0xFFFFFFFFFFFFFFFFFFFFFFFFFFFFFFFFFFFFFFFF AND DUP2 PUSH20 0xFFFFFFFFFFFFFFFFFFFFFFFFFFFFFFFFFFFFFFFF AND PUSH32 0x8BE0079C531659141344CD1FD0A4F28419497F9722A3DAAFE3B4186F6B6457E0 PUSH1 0x40 MLOAD PUSH1 0x40 MLOAD DUP1 SWAP2 SUB SWAP1 LOG3 POP POP JUMP JUMPDEST DUP2 PUSH20 0xFFFFFFFFFFFFFFFFFFFFFFFFFFFFFFFFFFFFFFFF AND DUP4 PUSH20 0xFFFFFFFFFFFFFFFFFFFFFFFFFFFFFFFFFFFFFFFF AND SUB PUSH2 0x2090 JUMPI PUSH1 0x40 MLOAD PUSH32 0x8C379A000000000000000000000000000000000000000000000000000000000 DUP2 MSTORE PUSH1 0x4 ADD PUSH2 0x2087 SWAP1 PUSH2 0x41CA JUMP JUMPDEST PUSH1 0x40 MLOAD DUP1 SWAP2 SUB SWAP1 REVERT JUMPDEST DUP1 PUSH1 0x5 PUSH1 0x0 DUP6 PUSH20 0xFFFFFFFFFFFFFFFFFFFFFFFFFFFFFFFFFFFFFFFF AND PUSH20 0xFFFFFFFFFFFFFFFFFFFFFFFFFFFFFFFFFFFFFFFF AND DUP2 MSTORE PUSH1 0x20 ADD SWAP1 DUP2 MSTORE PUSH1 0x20 ADD PUSH1 0x0 KECCAK256 PUSH1 0x0 DUP5 PUSH20 0xFFFFFFFFFFFFFFFFFFFFFFFFFFFFFFFFFFFFFFFF AND PUSH20 0xFFFFFFFFFFFFFFFFFFFFFFFFFFFFFFFFFFFFFFFF AND DUP2 MSTORE PUSH1 0x20 ADD SWAP1 DUP2 MSTORE PUSH1 0x20 ADD PUSH1 0x0 KECCAK256 PUSH1 0x0 PUSH2 0x100 EXP DUP2 SLOAD DUP2 PUSH1 0xFF MUL NOT AND SWAP1 DUP4 ISZERO ISZERO MUL OR SWAP1 SSTORE POP DUP2 PUSH20 0xFFFFFFFFFFFFFFFFFFFFFFFFFFFFFFFFFFFFFFFF AND DUP4 PUSH20 0xFFFFFFFFFFFFFFFFFFFFFFFFFFFFFFFFFFFFFFFF AND PUSH32 0x17307EAB39AB6107E8899845AD3D59BD9653F200F220920489CA2B5937696C31 DUP4 PUSH1 0x40 MLOAD PUSH2 0x2181 SWAP2 SWAP1 PUSH2 0x2E65 JUMP JUMPDEST PUSH1 0x40 MLOAD DUP1 SWAP2 SUB SWAP1 LOG3 POP POP POP JUMP JUMPDEST PUSH2 0x2199 DUP5 DUP5 DUP5 PUSH2 0x1C08 JUMP JUMPDEST PUSH2 0x21A5 DUP5 DUP5 DUP5 DUP5 PUSH2 0x25B4 JUMP JUMPDEST PUSH2 0x21E4 JUMPI PUSH1 0x40 MLOAD PUSH32 0x8C379A000000000000000000000000000000000000000000000000000000000 DUP2 MSTORE PUSH1 0x4 ADD PUSH2 0x21DB SWAP1 PUSH2 0x425C JUMP JUMPDEST PUSH1 0x40 MLOAD DUP1 SWAP2 SUB SWAP1 REVERT JUMPDEST POP POP POP POP JUMP JUMPDEST PUSH1 0x0 DUP1 PUSH20 0xFFFFFFFFFFFFFFFFFFFFFFFFFFFFFFFFFFFFFFFF AND PUSH2 0x220C DUP4 PUSH2 0x1F1F JUMP JUMPDEST PUSH20 0xFFFFFFFFFFFFFFFFFFFFFFFFFFFFFFFFFFFFFFFF AND EQ ISZERO SWAP1 POP SWAP2 SWAP1 POP JUMP JUMPDEST PUSH1 0x60 PUSH1 0xB DUP1 SLOAD PUSH2 0x223A SWAP1 PUSH2 0x3591 JUMP JUMPDEST DUP1 PUSH1 0x1F ADD PUSH1 0x20 DUP1 SWAP2 DIV MUL PUSH1 0x20 ADD PUSH1 0x40 MLOAD SWAP1 DUP2 ADD PUSH1 0x40 MSTORE DUP1 SWAP3 SWAP2 SWAP1 DUP2 DUP2 MSTORE PUSH1 0x20 ADD DUP3 DUP1 SLOAD PUSH2 0x2266 SWAP1 PUSH2 0x3591 JUMP JUMPDEST DUP1 ISZERO PUSH2 0x22B3 JUMPI DUP1 PUSH1 0x1F LT PUSH2 0x2288 JUMPI PUSH2 0x100 DUP1 DUP4 SLOAD DIV MUL DUP4 MSTORE SWAP2 PUSH1 0x20 ADD SWAP2 PUSH2 0x22B3 JUMP JUMPDEST DUP3 ADD SWAP2 SWAP1 PUSH1 0x0 MSTORE PUSH1 0x20 PUSH1 0x0 KECCAK256 SWAP1 JUMPDEST DUP2 SLOAD DUP2 MSTORE SWAP1 PUSH1 0x1 ADD SWAP1 PUSH1 0x20 ADD DUP1 DUP4 GT PUSH2 0x2296 JUMPI DUP3 SWAP1 SUB PUSH1 0x1F AND DUP3 ADD SWAP2 JUMPDEST POP POP POP POP POP SWAP1 POP SWAP1 JUMP JUMPDEST PUSH1 0x60 PUSH1 0x0 PUSH1 0x1 PUSH2 0x22CC DUP5 PUSH2 0x273B JUMP JUMPDEST ADD SWAP1 POP PUSH1 0x0 DUP2 PUSH8 0xFFFFFFFFFFFFFFFF DUP2 GT ISZERO PUSH2 0x22EB JUMPI PUSH2 0x22EA PUSH2 0x324A JUMP JUMPDEST JUMPDEST PUSH1 0x40 MLOAD SWAP1 DUP1 DUP3 MSTORE DUP1 PUSH1 0x1F ADD PUSH1 0x1F NOT AND PUSH1 0x20 ADD DUP3 ADD PUSH1 0x40 MSTORE DUP1 ISZERO PUSH2 0x231D JUMPI DUP2 PUSH1 0x20 ADD PUSH1 0x1 DUP3 MUL DUP1 CALLDATASIZE DUP4 CALLDATACOPY DUP1 DUP3 ADD SWAP2 POP POP SWAP1 POP JUMPDEST POP SWAP1 POP PUSH1 0x0 DUP3 PUSH1 0x20 ADD DUP3 ADD SWAP1 POP JUMPDEST PUSH1 0x1 ISZERO PUSH2 0x2380 JUMPI DUP1 DUP1 PUSH1 0x1 SWAP1 SUB SWAP2 POP POP PUSH32 0x3031323334353637383961626364656600000000000000000000000000000000 PUSH1 0xA DUP7 MOD BYTE DUP2 MSTORE8 PUSH1 0xA DUP6 DUP2 PUSH2 0x2374 JUMPI PUSH2 0x2373 PUSH2 0x387B JUMP JUMPDEST JUMPDEST DIV SWAP5 POP PUSH1 0x0 DUP6 SUB PUSH2 0x232B JUMPI JUMPDEST DUP2 SWAP4 POP POP POP POP SWAP2 SWAP1 POP JUMP JUMPDEST PUSH1 0x0 PUSH32 0x1FFC9A700000000000000000000000000000000000000000000000000000000 PUSH28 0xFFFFFFFFFFFFFFFFFFFFFFFFFFFFFFFFFFFFFFFFFFFFFFFFFFFFFFFF NOT AND DUP3 PUSH28 0xFFFFFFFFFFFFFFFFFFFFFFFFFFFFFFFFFFFFFFFFFFFFFFFFFFFFFFFF NOT AND EQ SWAP1 POP SWAP2 SWAP1 POP JUMP JUMPDEST PUSH2 0x2401 DUP5 DUP5 DUP5 DUP5 PUSH2 0x1901 JUMP JUMPDEST PUSH1 0x1 DUP2 GT ISZERO PUSH2 0x2445 JUMPI PUSH1 0x40 MLOAD PUSH32 0x8C379A000000000000000000000000000000000000000000000000000000000 DUP2 MSTORE PUSH1 0x4 ADD PUSH2 0x243C SWAP1 PUSH2 0x42EE JUMP JUMPDEST PUSH1 0x40 MLOAD DUP1 SWAP2 SUB SWAP1 REVERT JUMPDEST PUSH1 0x0 DUP3 SWAP1 POP PUSH1 0x0 PUSH20 0xFFFFFFFFFFFFFFFFFFFFFFFFFFFFFFFFFFFFFFFF AND DUP6 PUSH20 0xFFFFFFFFFFFFFFFFFFFFFFFFFFFFFFFFFFFFFFFF AND SUB PUSH2 0x248C JUMPI PUSH2 0x2487 DUP2 PUSH2 0x288E JUMP JUMPDEST PUSH2 0x24CB JUMP JUMPDEST DUP4 PUSH20 0xFFFFFFFFFFFFFFFFFFFFFFFFFFFFFFFFFFFFFFFF AND DUP6 PUSH20 0xFFFFFFFFFFFFFFFFFFFFFFFFFFFFFFFFFFFFFFFF AND EQ PUSH2 0x24CA JUMPI PUSH2 0x24C9 DUP6 DUP3 PUSH2 0x28D7 JUMP JUMPDEST JUMPDEST JUMPDEST PUSH1 0x0 PUSH20 0xFFFFFFFFFFFFFFFFFFFFFFFFFFFFFFFFFFFFFFFF AND DUP5 PUSH20 0xFFFFFFFFFFFFFFFFFFFFFFFFFFFFFFFFFFFFFFFF AND SUB PUSH2 0x250D JUMPI PUSH2 0x2508 DUP2 PUSH2 0x2A44 JUMP JUMPDEST PUSH2 0x254C JUMP JUMPDEST DUP5 PUSH20 0xFFFFFFFFFFFFFFFFFFFFFFFFFFFFFFFFFFFFFFFF AND DUP5 PUSH20 0xFFFFFFFFFFFFFFFFFFFFFFFFFFFFFFFFFFFFFFFF AND EQ PUSH2 0x254B JUMPI PUSH2 0x254A DUP5 DUP3 PUSH2 0x2B15 JUMP JUMPDEST JUMPDEST JUMPDEST POP POP POP POP POP JUMP JUMPDEST POP POP POP POP JUMP JUMPDEST PUSH2 0x2563 DUP4 DUP4 PUSH2 0x2B94 JUMP JUMPDEST PUSH2 0x2570 PUSH1 0x0 DUP5 DUP5 DUP5 PUSH2 0x25B4 JUMP JUMPDEST PUSH2 0x25AF JUMPI PUSH1 0x40 MLOAD PUSH32 0x8C379A000000000000000000000000000000000000000000000000000000000 DUP2 MSTORE PUSH1 0x4 ADD PUSH2 0x25A6 SWAP1 PUSH2 0x425C JUMP JUMPDEST PUSH1 0x40 MLOAD DUP1 SWAP2 SUB SWAP1 REVERT JUMPDEST POP POP POP JUMP JUMPDEST PUSH1 0x0 PUSH2 0x25D5 DUP5 PUSH20 0xFFFFFFFFFFFFFFFFFFFFFFFFFFFFFFFFFFFFFFFF AND PUSH2 0x18DE JUMP JUMPDEST ISZERO PUSH2 0x272E JUMPI DUP4 PUSH20 0xFFFFFFFFFFFFFFFFFFFFFFFFFFFFFFFFFFFFFFFF AND PUSH4 0x150B7A02 PUSH2 0x25FE PUSH2 0x1AB2 JUMP JUMPDEST DUP8 DUP7 DUP7 PUSH1 0x40 MLOAD DUP6 PUSH4 0xFFFFFFFF AND PUSH1 0xE0 SHL DUP2 MSTORE PUSH1 0x4 ADD PUSH2 0x2620 SWAP5 SWAP4 SWAP3 SWAP2 SWAP1 PUSH2 0x4363 JUMP JUMPDEST PUSH1 0x20 PUSH1 0x40 MLOAD DUP1 DUP4 SUB DUP2 PUSH1 0x0 DUP8 GAS CALL SWAP3 POP POP POP DUP1 ISZERO PUSH2 0x265C JUMPI POP PUSH1 0x40 MLOAD RETURNDATASIZE PUSH1 0x1F NOT PUSH1 0x1F DUP3 ADD AND DUP3 ADD DUP1 PUSH1 0x40 MSTORE POP DUP2 ADD SWAP1 PUSH2 0x2659 SWAP2 SWAP1 PUSH2 0x43C4 JUMP JUMPDEST PUSH1 0x1 JUMPDEST PUSH2 0x26DE JUMPI RETURNDATASIZE DUP1 PUSH1 0x0 DUP2 EQ PUSH2 0x268C JUMPI PUSH1 0x40 MLOAD SWAP2 POP PUSH1 0x1F NOT PUSH1 0x3F RETURNDATASIZE ADD AND DUP3 ADD PUSH1 0x40 MSTORE RETURNDATASIZE DUP3 MSTORE RETURNDATASIZE PUSH1 0x0 PUSH1 0x20 DUP5 ADD RETURNDATACOPY PUSH2 0x2691 JUMP JUMPDEST PUSH1 0x60 SWAP2 POP JUMPDEST POP PUSH1 0x0 DUP2 MLOAD SUB PUSH2 0x26D6 JUMPI PUSH1 0x40 MLOAD PUSH32 0x8C379A000000000000000000000000000000000000000000000000000000000 DUP2 MSTORE PUSH1 0x4 ADD PUSH2 0x26CD SWAP1 PUSH2 0x425C JUMP JUMPDEST PUSH1 0x40 MLOAD DUP1 SWAP2 SUB SWAP1 REVERT JUMPDEST DUP1 MLOAD DUP2 PUSH1 0x20 ADD REVERT JUMPDEST PUSH4 0x150B7A02 PUSH1 0xE0 SHL PUSH28 0xFFFFFFFFFFFFFFFFFFFFFFFFFFFFFFFFFFFFFFFFFFFFFFFFFFFFFFFF NOT AND DUP2 PUSH28 0xFFFFFFFFFFFFFFFFFFFFFFFFFFFFFFFFFFFFFFFFFFFFFFFFFFFFFFFF NOT AND EQ SWAP2 POP POP PUSH2 0x2733 JUMP JUMPDEST PUSH1 0x1 SWAP1 POP JUMPDEST SWAP5 SWAP4 POP POP POP POP JUMP JUMPDEST PUSH1 0x0 DUP1 PUSH1 0x0 SWAP1 POP PUSH27 0x184F03E93FF9F4DAA797ED6E38ED64BF6A1F010000000000000000 DUP4 LT PUSH2 0x2799 JUMPI PUSH27 0x184F03E93FF9F4DAA797ED6E38ED64BF6A1F010000000000000000 DUP4 DUP2 PUSH2 0x278F JUMPI PUSH2 0x278E PUSH2 0x387B JUMP JUMPDEST JUMPDEST DIV SWAP3 POP PUSH1 0x40 DUP2 ADD SWAP1 POP JUMPDEST PUSH14 0x4EE2D6D415B85ACEF8100000000 DUP4 LT PUSH2 0x27D6 JUMPI PUSH14 0x4EE2D6D415B85ACEF8100000000 DUP4 DUP2 PUSH2 0x27CC JUMPI PUSH2 0x27CB PUSH2 0x387B JUMP JUMPDEST JUMPDEST DIV SWAP3 POP PUSH1 0x20 DUP2 ADD SWAP1 POP JUMPDEST PUSH7 0x2386F26FC10000 DUP4 LT PUSH2 0x2805 JUMPI PUSH7 0x2386F26FC10000 DUP4 DUP2 PUSH2 0x27FB JUMPI PUSH2 0x27FA PUSH2 0x387B JUMP JUMPDEST JUMPDEST DIV SWAP3 POP PUSH1 0x10 DUP2 ADD SWAP1 POP JUMPDEST PUSH4 0x5F5E100 DUP4 LT PUSH2 0x282E JUMPI PUSH4 0x5F5E100 DUP4 DUP2 PUSH2 0x2824 JUMPI PUSH2 0x2823 PUSH2 0x387B JUMP JUMPDEST JUMPDEST DIV SWAP3 POP PUSH1 0x8 DUP2 ADD SWAP1 POP JUMPDEST PUSH2 0x2710 DUP4 LT PUSH2 0x2853 JUMPI PUSH2 0x2710 DUP4 DUP2 PUSH2 0x2849 JUMPI PUSH2 0x2848 PUSH2 0x387B JUMP JUMPDEST JUMPDEST DIV SWAP3 POP PUSH1 0x4 DUP2 ADD SWAP1 POP JUMPDEST PUSH1 0x64 DUP4 LT PUSH2 0x2876 JUMPI PUSH1 0x64 DUP4 DUP2 PUSH2 0x286C JUMPI PUSH2 0x286B PUSH2 0x387B JUMP JUMPDEST JUMPDEST DIV SWAP3 POP PUSH1 0x2 DUP2 ADD SWAP1 POP JUMPDEST PUSH1 0xA DUP4 LT PUSH2 0x2885 JUMPI PUSH1 0x1 DUP2 ADD SWAP1 POP JUMPDEST DUP1 SWAP2 POP POP SWAP2 SWAP1 POP JUMP JUMPDEST PUSH1 0x8 DUP1 SLOAD SWAP1 POP PUSH1 0x9 PUSH1 0x0 DUP4 DUP2 MSTORE PUSH1 0x20 ADD SWAP1 DUP2 MSTORE PUSH1 0x20 ADD PUSH1 0x0 KECCAK256 DUP2 SWAP1 SSTORE POP PUSH1 0x8 DUP2 SWAP1 DUP1 PUSH1 0x1 DUP2 SLOAD ADD DUP1 DUP3 SSTORE DUP1 SWAP2 POP POP PUSH1 0x1 SWAP1 SUB SWAP1 PUSH1 0x0 MSTORE PUSH1 0x20 PUSH1 0x0 KECCAK256 ADD PUSH1 0x0 SWAP1 SWAP2 SWAP1 SWAP2 SWAP1 SWAP2 POP SSTORE POP JUMP JUMPDEST PUSH1 0x0 PUSH1 0x1 PUSH2 0x28E4 DUP5 PUSH2 0x134F JUMP JUMPDEST PUSH2 0x28EE SWAP2 SWAP1 PUSH2 0x43F1 JUMP JUMPDEST SWAP1 POP PUSH1 0x0 PUSH1 0x7 PUSH1 0x0 DUP5 DUP2 MSTORE PUSH1 0x20 ADD SWAP1 DUP2 MSTORE PUSH1 0x20 ADD PUSH1 0x0 KECCAK256 SLOAD SWAP1 POP DUP2 DUP2 EQ PUSH2 0x29D3 JUMPI PUSH1 0x0 PUSH1 0x6 PUSH1 0x0 DUP7 PUSH20 0xFFFFFFFFFFFFFFFFFFFFFFFFFFFFFFFFFFFFFFFF AND PUSH20 0xFFFFFFFFFFFFFFFFFFFFFFFFFFFFFFFFFFFFFFFF AND DUP2 MSTORE PUSH1 0x20 ADD SWAP1 DUP2 MSTORE PUSH1 0x20 ADD PUSH1 0x0 KECCAK256 PUSH1 0x0 DUP5 DUP2 MSTORE PUSH1 0x20 ADD SWAP1 DUP2 MSTORE PUSH1 0x20 ADD PUSH1 0x0 KECCAK256 SLOAD SWAP1 POP DUP1 PUSH1 0x6 PUSH1 0x0 DUP8 PUSH20 0xFFFFFFFFFFFFFFFFFFFFFFFFFFFFFFFFFFFFFFFF AND PUSH20 0xFFFFFFFFFFFFFFFFFFFFFFFFFFFFFFFFFFFFFFFF AND DUP2 MSTORE PUSH1 0x20 ADD SWAP1 DUP2 MSTORE PUSH1 0x20 ADD PUSH1 0x0 KECCAK256 PUSH1 0x0 DUP5 DUP2 MSTORE PUSH1 0x20 ADD SWAP1 DUP2 MSTORE PUSH1 0x20 ADD PUSH1 0x0 KECCAK256 DUP2 SWAP1 SSTORE POP DUP2 PUSH1 0x7 PUSH1 0x0 DUP4 DUP2 MSTORE PUSH1 0x20 ADD SWAP1 DUP2 MSTORE PUSH1 0x20 ADD PUSH1 0x0 KECCAK256 DUP2 SWAP1 SSTORE POP POP JUMPDEST PUSH1 0x7 PUSH1 0x0 DUP5 DUP2 MSTORE PUSH1 0x20 ADD SWAP1 DUP2 MSTORE PUSH1 0x20 ADD PUSH1 0x0 KECCAK256 PUSH1 0x0 SWAP1 SSTORE PUSH1 0x6 PUSH1 0x0 DUP6 PUSH20 0xFFFFFFFFFFFFFFFFFFFFFFFFFFFFFFFFFFFFFFFF AND PUSH20 0xFFFFFFFFFFFFFFFFFFFFFFFFFFFFFFFFFFFFFFFF AND DUP2 MSTORE PUSH1 0x20 ADD SWAP1 DUP2 MSTORE PUSH1 0x20 ADD PUSH1 0x0 KECCAK256 PUSH1 0x0 DUP4 DUP2 MSTORE PUSH1 0x20 ADD SWAP1 DUP2 MSTORE PUSH1 0x20 ADD PUSH1 0x0 KECCAK256 PUSH1 0x0 SWAP1 SSTORE POP POP POP POP JUMP JUMPDEST PUSH1 0x0 PUSH1 0x1 PUSH1 0x8 DUP1 SLOAD SWAP1 POP PUSH2 0x2A58 SWAP2 SWAP1 PUSH2 0x43F1 JUMP JUMPDEST SWAP1 POP PUSH1 0x0 PUSH1 0x9 PUSH1 0x0 DUP5 DUP2 MSTORE PUSH1 0x20 ADD SWAP1 DUP2 MSTORE PUSH1 0x20 ADD PUSH1 0x0 KECCAK256 SLOAD SWAP1 POP PUSH1 0x0 PUSH1 0x8 DUP4 DUP2 SLOAD DUP2 LT PUSH2 0x2A88 JUMPI PUSH2 0x2A87 PUSH2 0x399D JUMP JUMPDEST JUMPDEST SWAP1 PUSH1 0x0 MSTORE PUSH1 0x20 PUSH1 0x0 KECCAK256 ADD SLOAD SWAP1 POP DUP1 PUSH1 0x8 DUP4 DUP2 SLOAD DUP2 LT PUSH2 0x2AAA JUMPI PUSH2 0x2AA9 PUSH2 0x399D JUMP JUMPDEST JUMPDEST SWAP1 PUSH1 0x0 MSTORE PUSH1 0x20 PUSH1 0x0 KECCAK256 ADD DUP2 SWAP1 SSTORE POP DUP2 PUSH1 0x9 PUSH1 0x0 DUP4 DUP2 MSTORE PUSH1 0x20 ADD SWAP1 DUP2 MSTORE PUSH1 0x20 ADD PUSH1 0x0 KECCAK256 DUP2 SWAP1 SSTORE POP PUSH1 0x9 PUSH1 0x0 DUP6 DUP2 MSTORE PUSH1 0x20 ADD SWAP1 DUP2 MSTORE PUSH1 0x20 ADD PUSH1 0x0 KECCAK256 PUSH1 0x0 SWAP1 SSTORE PUSH1 0x8 DUP1 SLOAD DUP1 PUSH2 0x2AF9 JUMPI PUSH2 0x2AF8 PUSH2 0x4425 JUMP JUMPDEST JUMPDEST PUSH1 0x1 SWAP1 SUB DUP2 DUP2 SWAP1 PUSH1 0x0 MSTORE PUSH1 0x20 PUSH1 0x0 KECCAK256 ADD PUSH1 0x0 SWAP1 SSTORE SWAP1 SSTORE POP POP POP POP JUMP JUMPDEST PUSH1 0x0 PUSH2 0x2B20 DUP4 PUSH2 0x134F JUMP JUMPDEST SWAP1 POP DUP2 PUSH1 0x6 PUSH1 0x0 DUP6 PUSH20 0xFFFFFFFFFFFFFFFFFFFFFFFFFFFFFFFFFFFFFFFF AND PUSH20 0xFFFFFFFFFFFFFFFFFFFFFFFFFFFFFFFFFFFFFFFF AND DUP2 MSTORE PUSH1 0x20 ADD SWAP1 DUP2 MSTORE PUSH1 0x20 ADD PUSH1 0x0 KECCAK256 PUSH1 0x0 DUP4 DUP2 MSTORE PUSH1 0x20 ADD SWAP1 DUP2 MSTORE PUSH1 0x20 ADD PUSH1 0x0 KECCAK256 DUP2 SWAP1 SSTORE POP DUP1 PUSH1 0x7 PUSH1 0x0 DUP5 DUP2 MSTORE PUSH1 0x20 ADD SWAP1 DUP2 MSTORE PUSH1 0x20 ADD PUSH1 0x0 KECCAK256 DUP2 SWAP1 SSTORE POP POP POP POP JUMP JUMPDEST PUSH1 0x0 PUSH20 0xFFFFFFFFFFFFFFFFFFFFFFFFFFFFFFFFFFFFFFFF AND DUP3 PUSH20 0xFFFFFFFFFFFFFFFFFFFFFFFFFFFFFFFFFFFFFFFF AND SUB PUSH2 0x2C03 JUMPI PUSH1 0x40 MLOAD PUSH32 0x8C379A000000000000000000000000000000000000000000000000000000000 DUP2 MSTORE PUSH1 0x4 ADD PUSH2 0x2BFA SWAP1 PUSH2 0x44A0 JUMP JUMPDEST PUSH1 0x40 MLOAD DUP1 SWAP2 SUB SWAP1 REVERT JUMPDEST PUSH2 0x2C0C DUP2 PUSH2 0x21EA JUMP JUMPDEST ISZERO PUSH2 0x2C4C JUMPI PUSH1 0x40 MLOAD PUSH32 0x8C379A000000000000000000000000000000000000000000000000000000000 DUP2 MSTORE PUSH1 0x4 ADD PUSH2 0x2C43 SWAP1 PUSH2 0x450C JUMP JUMPDEST PUSH1 0x40 MLOAD DUP1 SWAP2 SUB SWAP1 REVERT JUMPDEST PUSH2 0x2C5A PUSH1 0x0 DUP4 DUP4 PUSH1 0x1 PUSH2 0x23F5 JUMP JUMPDEST PUSH2 0x2C63 DUP2 PUSH2 0x21EA JUMP JUMPDEST ISZERO PUSH2 0x2CA3 JUMPI PUSH1 0x40 MLOAD PUSH32 0x8C379A000000000000000000000000000000000000000000000000000000000 DUP2 MSTORE PUSH1 0x4 ADD PUSH2 0x2C9A SWAP1 PUSH2 0x450C JUMP JUMPDEST PUSH1 0x40 MLOAD DUP1 SWAP2 SUB SWAP1 REVERT JUMPDEST PUSH1 0x1 PUSH1 0x3 PUSH1 0x0 DUP5 PUSH20 0xFFFFFFFFFFFFFFFFFFFFFFFFFFFFFFFFFFFFFFFF AND PUSH20 0xFFFFFFFFFFFFFFFFFFFFFFFFFFFFFFFFFFFFFFFF AND DUP2 MSTORE PUSH1 0x20 ADD SWAP1 DUP2 MSTORE PUSH1 0x20 ADD PUSH1 0x0 KECCAK256 PUSH1 0x0 DUP3 DUP3 SLOAD ADD SWAP3 POP POP DUP2 SWAP1 SSTORE POP DUP2 PUSH1 0x2 PUSH1 0x0 DUP4 DUP2 MSTORE PUSH1 0x20 ADD SWAP1 DUP2 MSTORE PUSH1 0x20 ADD PUSH1 0x0 KECCAK256 PUSH1 0x0 PUSH2 0x100 EXP DUP2 SLOAD DUP2 PUSH20 0xFFFFFFFFFFFFFFFFFFFFFFFFFFFFFFFFFFFFFFFF MUL NOT AND SWAP1 DUP4 PUSH20 0xFFFFFFFFFFFFFFFFFFFFFFFFFFFFFFFFFFFFFFFF AND MUL OR SWAP1 SSTORE POP DUP1 DUP3 PUSH20 0xFFFFFFFFFFFFFFFFFFFFFFFFFFFFFFFFFFFFFFFF AND PUSH1 0x0 PUSH20 0xFFFFFFFFFFFFFFFFFFFFFFFFFFFFFFFFFFFFFFFF AND PUSH32 0xDDF252AD1BE2C89B69C2B068FC378DAA952BA7F163C4A11628F55A4DF523B3EF PUSH1 0x40 MLOAD PUSH1 0x40 MLOAD DUP1 SWAP2 SUB SWAP1 LOG4 PUSH2 0x2DAD PUSH1 0x0 DUP4 DUP4 PUSH1 0x1 PUSH2 0x2553 JUMP JUMPDEST POP POP JUMP JUMPDEST PUSH1 0x0 PUSH1 0x40 MLOAD SWAP1 POP SWAP1 JUMP JUMPDEST PUSH1 0x0 DUP1 REVERT JUMPDEST PUSH1 0x0 DUP1 REVERT JUMPDEST PUSH1 0x0 PUSH32 0xFFFFFFFF00000000000000000000000000000000000000000000000000000000 DUP3 AND SWAP1 POP SWAP2 SWAP1 POP JUMP JUMPDEST PUSH2 0x2DFA DUP2 PUSH2 0x2DC5 JUMP JUMPDEST DUP2 EQ PUSH2 0x2E05 JUMPI PUSH1 0x0 DUP1 REVERT JUMPDEST POP JUMP JUMPDEST PUSH1 0x0 DUP2 CALLDATALOAD SWAP1 POP PUSH2 0x2E17 DUP2 PUSH2 0x2DF1 JUMP JUMPDEST SWAP3 SWAP2 POP POP JUMP JUMPDEST PUSH1 0x0 PUSH1 0x20 DUP3 DUP5 SUB SLT ISZERO PUSH2 0x2E33 JUMPI PUSH2 0x2E32 PUSH2 0x2DBB JUMP JUMPDEST JUMPDEST PUSH1 0x0 PUSH2 0x2E41 DUP5 DUP3 DUP6 ADD PUSH2 0x2E08 JUMP JUMPDEST SWAP2 POP POP SWAP3 SWAP2 POP POP JUMP JUMPDEST PUSH1 0x0 DUP2 ISZERO ISZERO SWAP1 POP SWAP2 SWAP1 POP JUMP JUMPDEST PUSH2 0x2E5F DUP2 PUSH2 0x2E4A JUMP JUMPDEST DUP3 MSTORE POP POP JUMP JUMPDEST PUSH1 0x0 PUSH1 0x20 DUP3 ADD SWAP1 POP PUSH2 0x2E7A PUSH1 0x0 DUP4 ADD DUP5 PUSH2 0x2E56 JUMP JUMPDEST SWAP3 SWAP2 POP POP JUMP JUMPDEST PUSH2 0x2E89 DUP2 PUSH2 0x2E4A JUMP JUMPDEST DUP2 EQ PUSH2 0x2E94 JUMPI PUSH1 0x0 DUP1 REVERT JUMPDEST POP JUMP JUMPDEST PUSH1 0x0 DUP2 CALLDATALOAD SWAP1 POP PUSH2 0x2EA6 DUP2 PUSH2 0x2E80 JUMP JUMPDEST SWAP3 SWAP2 POP POP JUMP JUMPDEST PUSH1 0x0 PUSH1 0x20 DUP3 DUP5 SUB SLT ISZERO PUSH2 0x2EC2 JUMPI PUSH2 0x2EC1 PUSH2 0x2DBB JUMP JUMPDEST JUMPDEST PUSH1 0x0 PUSH2 0x2ED0 DUP5 DUP3 DUP6 ADD PUSH2 0x2E97 JUMP JUMPDEST SWAP2 POP POP SWAP3 SWAP2 POP POP JUMP JUMPDEST PUSH1 0x0 DUP2 MLOAD SWAP1 POP SWAP2 SWAP1 POP JUMP JUMPDEST PUSH1 0x0 DUP3 DUP3 MSTORE PUSH1 0x20 DUP3 ADD SWAP1 POP SWAP3 SWAP2 POP POP JUMP JUMPDEST PUSH1 0x0 JUMPDEST DUP4 DUP2 LT ISZERO PUSH2 0x2F13 JUMPI DUP1 DUP3 ADD MLOAD DUP2 DUP5 ADD MSTORE PUSH1 0x20 DUP2 ADD SWAP1 POP PUSH2 0x2EF8 JUMP JUMPDEST PUSH1 0x0 DUP5 DUP5 ADD MSTORE POP POP POP POP JUMP JUMPDEST PUSH1 0x0 PUSH1 0x1F NOT PUSH1 0x1F DUP4 ADD AND SWAP1 POP SWAP2 SWAP1 POP JUMP JUMPDEST PUSH1 0x0 PUSH2 0x2F3B DUP3 PUSH2 0x2ED9 JUMP JUMPDEST PUSH2 0x2F45 DUP2 DUP6 PUSH2 0x2EE4 JUMP JUMPDEST SWAP4 POP PUSH2 0x2F55 DUP2 DUP6 PUSH1 0x20 DUP7 ADD PUSH2 0x2EF5 JUMP JUMPDEST PUSH2 0x2F5E DUP2 PUSH2 0x2F1F JUMP JUMPDEST DUP5 ADD SWAP2 POP POP SWAP3 SWAP2 POP POP JUMP JUMPDEST PUSH1 0x0 PUSH1 0x20 DUP3 ADD SWAP1 POP DUP2 DUP2 SUB PUSH1 0x0 DUP4 ADD MSTORE PUSH2 0x2F83 DUP2 DUP5 PUSH2 0x2F30 JUMP JUMPDEST SWAP1 POP SWAP3 SWAP2 POP POP JUMP JUMPDEST PUSH1 0x0 DUP2 SWAP1 POP SWAP2 SWAP1 POP JUMP JUMPDEST PUSH2 0x2F9E DUP2 PUSH2 0x2F8B JUMP JUMPDEST DUP2 EQ PUSH2 0x2FA9 JUMPI PUSH1 0x0 DUP1 REVERT JUMPDEST POP JUMP JUMPDEST PUSH1 0x0 DUP2 CALLDATALOAD SWAP1 POP PUSH2 0x2FBB DUP2 PUSH2 0x2F95 JUMP JUMPDEST SWAP3 SWAP2 POP POP JUMP JUMPDEST PUSH1 0x0 PUSH1 0x20 DUP3 DUP5 SUB SLT ISZERO PUSH2 0x2FD7 JUMPI PUSH2 0x2FD6 PUSH2 0x2DBB JUMP JUMPDEST JUMPDEST PUSH1 0x0 PUSH2 0x2FE5 DUP5 DUP3 DUP6 ADD PUSH2 0x2FAC JUMP JUMPDEST SWAP2 POP POP SWAP3 SWAP2 POP POP JUMP JUMPDEST PUSH1 0x0 PUSH20 0xFFFFFFFFFFFFFFFFFFFFFFFFFFFFFFFFFFFFFFFF DUP3 AND SWAP1 POP SWAP2 SWAP1 POP JUMP JUMPDEST PUSH1 0x0 PUSH2 0x3019 DUP3 PUSH2 0x2FEE JUMP JUMPDEST SWAP1 POP SWAP2 SWAP1 POP JUMP JUMPDEST PUSH2 0x3029 DUP2 PUSH2 0x300E JUMP JUMPDEST DUP3 MSTORE POP POP JUMP JUMPDEST PUSH1 0x0 PUSH1 0x20 DUP3 ADD SWAP1 POP PUSH2 0x3044 PUSH1 0x0 DUP4 ADD DUP5 PUSH2 0x3020 JUMP JUMPDEST SWAP3 SWAP2 POP POP JUMP JUMPDEST PUSH2 0x3053 DUP2 PUSH2 0x300E JUMP JUMPDEST DUP2 EQ PUSH2 0x305E JUMPI PUSH1 0x0 DUP1 REVERT JUMPDEST POP JUMP JUMPDEST PUSH1 0x0 DUP2 CALLDATALOAD SWAP1 POP PUSH2 0x3070 DUP2 PUSH2 0x304A JUMP JUMPDEST SWAP3 SWAP2 POP POP JUMP JUMPDEST PUSH1 0x0 DUP1 PUSH1 0x40 DUP4 DUP6 SUB SLT ISZERO PUSH2 0x308D JUMPI PUSH2 0x308C PUSH2 0x2DBB JUMP JUMPDEST JUMPDEST PUSH1 0x0 PUSH2 0x309B DUP6 DUP3 DUP7 ADD PUSH2 0x3061 JUMP JUMPDEST SWAP3 POP POP PUSH1 0x20 PUSH2 0x30AC DUP6 DUP3 DUP7 ADD PUSH2 0x2FAC JUMP JUMPDEST SWAP2 POP POP SWAP3 POP SWAP3 SWAP1 POP JUMP JUMPDEST PUSH2 0x30BF DUP2 PUSH2 0x2F8B JUMP JUMPDEST DUP3 MSTORE POP POP JUMP JUMPDEST PUSH1 0x0 PUSH1 0x20 DUP3 ADD SWAP1 POP PUSH2 0x30DA PUSH1 0x0 DUP4 ADD DUP5 PUSH2 0x30B6 JUMP JUMPDEST SWAP3 SWAP2 POP POP JUMP JUMPDEST PUSH1 0x0 DUP1 PUSH1 0x0 PUSH1 0x60 DUP5 DUP7 SUB SLT ISZERO PUSH2 0x30F9 JUMPI PUSH2 0x30F8 PUSH2 0x2DBB JUMP JUMPDEST JUMPDEST PUSH1 0x0 PUSH2 0x3107 DUP7 DUP3 DUP8 ADD PUSH2 0x3061 JUMP JUMPDEST SWAP4 POP POP PUSH1 0x20 PUSH2 0x3118 DUP7 DUP3 DUP8 ADD PUSH2 0x3061 JUMP JUMPDEST SWAP3 POP POP PUSH1 0x40 PUSH2 0x3129 DUP7 DUP3 DUP8 ADD PUSH2 0x2FAC JUMP JUMPDEST SWAP2 POP POP SWAP3 POP SWAP3 POP SWAP3 JUMP JUMPDEST PUSH1 0x0 PUSH1 0x20 DUP3 DUP5 SUB SLT ISZERO PUSH2 0x3149 JUMPI PUSH2 0x3148 PUSH2 0x2DBB JUMP JUMPDEST JUMPDEST PUSH1 0x0 PUSH2 0x3157 DUP5 DUP3 DUP6 ADD PUSH2 0x3061 JUMP JUMPDEST SWAP2 POP POP SWAP3 SWAP2 POP POP JUMP JUMPDEST PUSH1 0x0 DUP2 MLOAD SWAP1 POP SWAP2 SWAP1 POP JUMP JUMPDEST PUSH1 0x0 DUP3 DUP3 MSTORE PUSH1 0x20 DUP3 ADD SWAP1 POP SWAP3 SWAP2 POP POP JUMP JUMPDEST PUSH1 0x0 DUP2 SWAP1 POP PUSH1 0x20 DUP3 ADD SWAP1 POP SWAP2 SWAP1 POP JUMP JUMPDEST PUSH2 0x3195 DUP2 PUSH2 0x2F8B JUMP JUMPDEST DUP3 MSTORE POP POP JUMP JUMPDEST PUSH1 0x0 PUSH2 0x31A7 DUP4 DUP4 PUSH2 0x318C JUMP JUMPDEST PUSH1 0x20 DUP4 ADD SWAP1 POP SWAP3 SWAP2 POP POP JUMP JUMPDEST PUSH1 0x0 PUSH1 0x20 DUP3 ADD SWAP1 POP SWAP2 SWAP1 POP JUMP JUMPDEST PUSH1 0x0 PUSH2 0x31CB DUP3 PUSH2 0x3160 JUMP JUMPDEST PUSH2 0x31D5 DUP2 DUP6 PUSH2 0x316B JUMP JUMPDEST SWAP4 POP PUSH2 0x31E0 DUP4 PUSH2 0x317C JUMP JUMPDEST DUP1 PUSH1 0x0 JUMPDEST DUP4 DUP2 LT ISZERO PUSH2 0x3211 JUMPI DUP2 MLOAD PUSH2 0x31F8 DUP9 DUP3 PUSH2 0x319B JUMP JUMPDEST SWAP8 POP PUSH2 0x3203 DUP4 PUSH2 0x31B3 JUMP JUMPDEST SWAP3 POP POP PUSH1 0x1 DUP2 ADD SWAP1 POP PUSH2 0x31E4 JUMP JUMPDEST POP DUP6 SWAP4 POP POP POP POP SWAP3 SWAP2 POP POP JUMP JUMPDEST PUSH1 0x0 PUSH1 0x20 DUP3 ADD SWAP1 POP DUP2 DUP2 SUB PUSH1 0x0 DUP4 ADD MSTORE PUSH2 0x3238 DUP2 DUP5 PUSH2 0x31C0 JUMP JUMPDEST SWAP1 POP SWAP3 SWAP2 POP POP JUMP JUMPDEST PUSH1 0x0 DUP1 REVERT JUMPDEST PUSH1 0x0 DUP1 REVERT JUMPDEST PUSH32 0x4E487B7100000000000000000000000000000000000000000000000000000000 PUSH1 0x0 MSTORE PUSH1 0x41 PUSH1 0x4 MSTORE PUSH1 0x24 PUSH1 0x0 REVERT JUMPDEST PUSH2 0x3282 DUP3 PUSH2 0x2F1F JUMP JUMPDEST DUP2 ADD DUP2 DUP2 LT PUSH8 0xFFFFFFFFFFFFFFFF DUP3 GT OR ISZERO PUSH2 0x32A1 JUMPI PUSH2 0x32A0 PUSH2 0x324A JUMP JUMPDEST JUMPDEST DUP1 PUSH1 0x40 MSTORE POP POP POP JUMP JUMPDEST PUSH1 0x0 PUSH2 0x32B4 PUSH2 0x2DB1 JUMP JUMPDEST SWAP1 POP PUSH2 0x32C0 DUP3 DUP3 PUSH2 0x3279 JUMP JUMPDEST SWAP2 SWAP1 POP JUMP JUMPDEST PUSH1 0x0 PUSH8 0xFFFFFFFFFFFFFFFF DUP3 GT ISZERO PUSH2 0x32E0 JUMPI PUSH2 0x32DF PUSH2 0x324A JUMP JUMPDEST JUMPDEST PUSH2 0x32E9 DUP3 PUSH2 0x2F1F JUMP JUMPDEST SWAP1 POP PUSH1 0x20 DUP2 ADD SWAP1 POP SWAP2 SWAP1 POP JUMP JUMPDEST DUP3 DUP2 DUP4 CALLDATACOPY PUSH1 0x0 DUP4 DUP4 ADD MSTORE POP POP POP JUMP JUMPDEST PUSH1 0x0 PUSH2 0x3318 PUSH2 0x3313 DUP5 PUSH2 0x32C5 JUMP JUMPDEST PUSH2 0x32AA JUMP JUMPDEST SWAP1 POP DUP3 DUP2 MSTORE PUSH1 0x20 DUP2 ADD DUP5 DUP5 DUP5 ADD GT ISZERO PUSH2 0x3334 JUMPI PUSH2 0x3333 PUSH2 0x3245 JUMP JUMPDEST JUMPDEST PUSH2 0x333F DUP5 DUP3 DUP6 PUSH2 0x32F6 JUMP JUMPDEST POP SWAP4 SWAP3 POP POP POP JUMP JUMPDEST PUSH1 0x0 DUP3 PUSH1 0x1F DUP4 ADD SLT PUSH2 0x335C JUMPI PUSH2 0x335B PUSH2 0x3240 JUMP JUMPDEST JUMPDEST DUP2 CALLDATALOAD PUSH2 0x336C DUP5 DUP3 PUSH1 0x20 DUP7 ADD PUSH2 0x3305 JUMP JUMPDEST SWAP2 POP POP SWAP3 SWAP2 POP POP JUMP JUMPDEST PUSH1 0x0 PUSH1 0x20 DUP3 DUP5 SUB SLT ISZERO PUSH2 0x338B JUMPI PUSH2 0x338A PUSH2 0x2DBB JUMP JUMPDEST JUMPDEST PUSH1 0x0 DUP3 ADD CALLDATALOAD PUSH8 0xFFFFFFFFFFFFFFFF DUP2 GT ISZERO PUSH2 0x33A9 JUMPI PUSH2 0x33A8 PUSH2 0x2DC0 JUMP JUMPDEST JUMPDEST PUSH2 0x33B5 DUP5 DUP3 DUP6 ADD PUSH2 0x3347 JUMP JUMPDEST SWAP2 POP POP SWAP3 SWAP2 POP POP JUMP JUMPDEST PUSH1 0x0 DUP1 PUSH1 0x40 DUP4 DUP6 SUB SLT ISZERO PUSH2 0x33D5 JUMPI PUSH2 0x33D4 PUSH2 0x2DBB JUMP JUMPDEST JUMPDEST PUSH1 0x0 PUSH2 0x33E3 DUP6 DUP3 DUP7 ADD PUSH2 0x3061 JUMP JUMPDEST SWAP3 POP POP PUSH1 0x20 PUSH2 0x33F4 DUP6 DUP3 DUP7 ADD PUSH2 0x2E97 JUMP JUMPDEST SWAP2 POP POP SWAP3 POP SWAP3 SWAP1 POP JUMP JUMPDEST PUSH1 0x0 PUSH8 0xFFFFFFFFFFFFFFFF DUP3 GT ISZERO PUSH2 0x3419 JUMPI PUSH2 0x3418 PUSH2 0x324A JUMP JUMPDEST JUMPDEST PUSH2 0x3422 DUP3 PUSH2 0x2F1F JUMP JUMPDEST SWAP1 POP PUSH1 0x20 DUP2 ADD SWAP1 POP SWAP2 SWAP1 POP JUMP JUMPDEST PUSH1 0x0 PUSH2 0x3442 PUSH2 0x343D DUP5 PUSH2 0x33FE JUMP JUMPDEST PUSH2 0x32AA JUMP JUMPDEST SWAP1 POP DUP3 DUP2 MSTORE PUSH1 0x20 DUP2 ADD DUP5 DUP5 DUP5 ADD GT ISZERO PUSH2 0x345E JUMPI PUSH2 0x345D PUSH2 0x3245 JUMP JUMPDEST JUMPDEST PUSH2 0x3469 DUP5 DUP3 DUP6 PUSH2 0x32F6 JUMP JUMPDEST POP SWAP4 SWAP3 POP POP POP JUMP JUMPDEST PUSH1 0x0 DUP3 PUSH1 0x1F DUP4 ADD SLT PUSH2 0x3486 JUMPI PUSH2 0x3485 PUSH2 0x3240 JUMP JUMPDEST JUMPDEST DUP2 CALLDATALOAD PUSH2 0x3496 DUP5 DUP3 PUSH1 0x20 DUP7 ADD PUSH2 0x342F JUMP JUMPDEST SWAP2 POP POP SWAP3 SWAP2 POP POP JUMP JUMPDEST PUSH1 0x0 DUP1 PUSH1 0x0 DUP1 PUSH1 0x80 DUP6 DUP8 SUB SLT ISZERO PUSH2 0x34B9 JUMPI PUSH2 0x34B8 PUSH2 0x2DBB JUMP JUMPDEST JUMPDEST PUSH1 0x0 PUSH2 0x34C7 DUP8 DUP3 DUP9 ADD PUSH2 0x3061 JUMP JUMPDEST SWAP5 POP POP PUSH1 0x20 PUSH2 0x34D8 DUP8 DUP3 DUP9 ADD PUSH2 0x3061 JUMP JUMPDEST SWAP4 POP POP PUSH1 0x40 PUSH2 0x34E9 DUP8 DUP3 DUP9 ADD PUSH2 0x2FAC JUMP JUMPDEST SWAP3 POP POP PUSH1 0x60 DUP6 ADD CALLDATALOAD PUSH8 0xFFFFFFFFFFFFFFFF DUP2 GT ISZERO PUSH2 0x350A JUMPI PUSH2 0x3509 PUSH2 0x2DC0 JUMP JUMPDEST JUMPDEST PUSH2 0x3516 DUP8 DUP3 DUP9 ADD PUSH2 0x3471 JUMP JUMPDEST SWAP2 POP POP SWAP3 SWAP6 SWAP2 SWAP5 POP SWAP3 POP JUMP JUMPDEST PUSH1 0x0 DUP1 PUSH1 0x40 DUP4 DUP6 SUB SLT ISZERO PUSH2 0x3539 JUMPI PUSH2 0x3538 PUSH2 0x2DBB JUMP JUMPDEST JUMPDEST PUSH1 0x0 PUSH2 0x3547 DUP6 DUP3 DUP7 ADD PUSH2 0x3061 JUMP JUMPDEST SWAP3 POP POP PUSH1 0x20 PUSH2 0x3558 DUP6 DUP3 DUP7 ADD PUSH2 0x3061 JUMP JUMPDEST SWAP2 POP POP SWAP3 POP SWAP3 SWAP1 POP JUMP JUMPDEST PUSH32 0x4E487B7100000000000000000000000000000000000000000000000000000000 PUSH1 0x0 MSTORE PUSH1 0x22 PUSH1 0x4 MSTORE PUSH1 0x24 PUSH1 0x0 REVERT JUMPDEST PUSH1 0x0 PUSH1 0x2 DUP3 DIV SWAP1 POP PUSH1 0x1 DUP3 AND DUP1 PUSH2 0x35A9 JUMPI PUSH1 0x7F DUP3 AND SWAP2 POP JUMPDEST PUSH1 0x20 DUP3 LT DUP2 SUB PUSH2 0x35BC JUMPI PUSH2 0x35BB PUSH2 0x3562 JUMP JUMPDEST JUMPDEST POP SWAP2 SWAP1 POP JUMP JUMPDEST PUSH32 0x4552433732313A20617070726F76616C20746F2063757272656E74206F776E65 PUSH1 0x0 DUP3 ADD MSTORE PUSH32 0x7200000000000000000000000000000000000000000000000000000000000000 PUSH1 0x20 DUP3 ADD MSTORE POP JUMP JUMPDEST PUSH1 0x0 PUSH2 0x361E PUSH1 0x21 DUP4 PUSH2 0x2EE4 JUMP JUMPDEST SWAP2 POP PUSH2 0x3629 DUP3 PUSH2 0x35C2 JUMP JUMPDEST PUSH1 0x40 DUP3 ADD SWAP1 POP SWAP2 SWAP1 POP JUMP JUMPDEST PUSH1 0x0 PUSH1 0x20 DUP3 ADD SWAP1 POP DUP2 DUP2 SUB PUSH1 0x0 DUP4 ADD MSTORE PUSH2 0x364D DUP2 PUSH2 0x3611 JUMP JUMPDEST SWAP1 POP SWAP2 SWAP1 POP JUMP JUMPDEST PUSH32 0x4552433732313A20617070726F76652063616C6C6572206973206E6F7420746F PUSH1 0x0 DUP3 ADD MSTORE PUSH32 0x6B656E206F776E6572206F7220617070726F76656420666F7220616C6C000000 PUSH1 0x20 DUP3 ADD MSTORE POP JUMP JUMPDEST PUSH1 0x0 PUSH2 0x36B0 PUSH1 0x3D DUP4 PUSH2 0x2EE4 JUMP JUMPDEST SWAP2 POP PUSH2 0x36BB DUP3 PUSH2 0x3654 JUMP JUMPDEST PUSH1 0x40 DUP3 ADD SWAP1 POP SWAP2 SWAP1 POP JUMP JUMPDEST PUSH1 0x0 PUSH1 0x20 DUP3 ADD SWAP1 POP DUP2 DUP2 SUB PUSH1 0x0 DUP4 ADD MSTORE PUSH2 0x36DF DUP2 PUSH2 0x36A3 JUMP JUMPDEST SWAP1 POP SWAP2 SWAP1 POP JUMP JUMPDEST PUSH32 0x4552433732313A2063616C6C6572206973206E6F7420746F6B656E206F776E65 PUSH1 0x0 DUP3 ADD MSTORE PUSH32 0x72206F7220617070726F76656400000000000000000000000000000000000000 PUSH1 0x20 DUP3 ADD MSTORE POP JUMP JUMPDEST PUSH1 0x0 PUSH2 0x3742 PUSH1 0x2D DUP4 PUSH2 0x2EE4 JUMP JUMPDEST SWAP2 POP PUSH2 0x374D DUP3 PUSH2 0x36E6 JUMP JUMPDEST PUSH1 0x40 DUP3 ADD SWAP1 POP SWAP2 SWAP1 POP JUMP JUMPDEST PUSH1 0x0 PUSH1 0x20 DUP3 ADD SWAP1 POP DUP2 DUP2 SUB PUSH1 0x0 DUP4 ADD MSTORE PUSH2 0x3771 DUP2 PUSH2 0x3735 JUMP JUMPDEST SWAP1 POP SWAP2 SWAP1 POP JUMP JUMPDEST PUSH32 0x455243373231456E756D657261626C653A206F776E657220696E646578206F75 PUSH1 0x0 DUP3 ADD MSTORE PUSH32 0x74206F6620626F756E6473000000000000000000000000000000000000000000 PUSH1 0x20 DUP3 ADD MSTORE POP JUMP JUMPDEST PUSH1 0x0 PUSH2 0x37D4 PUSH1 0x2B DUP4 PUSH2 0x2EE4 JUMP JUMPDEST SWAP2 POP PUSH2 0x37DF DUP3 PUSH2 0x3778 JUMP JUMPDEST PUSH1 0x40 DUP3 ADD SWAP1 POP SWAP2 SWAP1 POP JUMP JUMPDEST PUSH1 0x0 PUSH1 0x20 DUP3 ADD SWAP1 POP DUP2 DUP2 SUB PUSH1 0x0 DUP4 ADD MSTORE PUSH2 0x3803 DUP2 PUSH2 0x37C7 JUMP JUMPDEST SWAP1 POP SWAP2 SWAP1 POP JUMP JUMPDEST PUSH32 0x4E487B7100000000000000000000000000000000000000000000000000000000 PUSH1 0x0 MSTORE PUSH1 0x11 PUSH1 0x4 MSTORE PUSH1 0x24 PUSH1 0x0 REVERT JUMPDEST PUSH1 0x0 PUSH2 0x3844 DUP3 PUSH2 0x2F8B JUMP JUMPDEST SWAP2 POP PUSH2 0x384F DUP4 PUSH2 0x2F8B JUMP JUMPDEST SWAP3 POP DUP3 DUP3 MUL PUSH2 0x385D DUP2 PUSH2 0x2F8B JUMP JUMPDEST SWAP2 POP DUP3 DUP3 DIV DUP5 EQ DUP4 ISZERO OR PUSH2 0x3874 JUMPI PUSH2 0x3873 PUSH2 0x380A JUMP JUMPDEST JUMPDEST POP SWAP3 SWAP2 POP POP JUMP JUMPDEST PUSH32 0x4E487B7100000000000000000000000000000000000000000000000000000000 PUSH1 0x0 MSTORE PUSH1 0x12 PUSH1 0x4 MSTORE PUSH1 0x24 PUSH1 0x0 REVERT JUMPDEST PUSH1 0x0 PUSH2 0x38B5 DUP3 PUSH2 0x2F8B JUMP JUMPDEST SWAP2 POP PUSH2 0x38C0 DUP4 PUSH2 0x2F8B JUMP JUMPDEST SWAP3 POP DUP3 PUSH2 0x38D0 JUMPI PUSH2 0x38CF PUSH2 0x387B JUMP JUMPDEST JUMPDEST DUP3 DUP3 DIV SWAP1 POP SWAP3 SWAP2 POP POP JUMP JUMPDEST PUSH1 0x0 DUP2 SWAP1 POP SWAP3 SWAP2 POP POP JUMP JUMPDEST POP JUMP JUMPDEST PUSH1 0x0 PUSH2 0x38F6 PUSH1 0x0 DUP4 PUSH2 0x38DB JUMP JUMPDEST SWAP2 POP PUSH2 0x3901 DUP3 PUSH2 0x38E6 JUMP JUMPDEST PUSH1 0x0 DUP3 ADD SWAP1 POP SWAP2 SWAP1 POP JUMP JUMPDEST PUSH1 0x0 PUSH2 0x3917 DUP3 PUSH2 0x38E9 JUMP JUMPDEST SWAP2 POP DUP2 SWAP1 POP SWAP2 SWAP1 POP JUMP JUMPDEST PUSH1 0x0 PUSH2 0x392C DUP3 PUSH2 0x2F8B JUMP JUMPDEST SWAP2 POP PUSH2 0x3937 DUP4 PUSH2 0x2F8B JUMP JUMPDEST SWAP3 POP DUP3 DUP3 ADD SWAP1 POP DUP1 DUP3 GT ISZERO PUSH2 0x394F JUMPI PUSH2 0x394E PUSH2 0x380A JUMP JUMPDEST JUMPDEST SWAP3 SWAP2 POP POP JUMP JUMPDEST PUSH1 0x0 PUSH2 0x3960 DUP3 PUSH2 0x2F8B JUMP JUMPDEST SWAP2 POP PUSH32 0xFFFFFFFFFFFFFFFFFFFFFFFFFFFFFFFFFFFFFFFFFFFFFFFFFFFFFFFFFFFFFFFF DUP3 SUB PUSH2 0x3992 JUMPI PUSH2 0x3991 PUSH2 0x380A JUMP JUMPDEST JUMPDEST PUSH1 0x1 DUP3 ADD SWAP1 POP SWAP2 SWAP1 POP JUMP JUMPDEST PUSH32 0x4E487B7100000000000000000000000000000000000000000000000000000000 PUSH1 0x0 MSTORE PUSH1 0x32 PUSH1 0x4 MSTORE PUSH1 0x24 PUSH1 0x0 REVERT JUMPDEST PUSH32 0x455243373231456E756D657261626C653A20676C6F62616C20696E646578206F PUSH1 0x0 DUP3 ADD MSTORE PUSH32 0x7574206F6620626F756E64730000000000000000000000000000000000000000 PUSH1 0x20 DUP3 ADD MSTORE POP JUMP JUMPDEST PUSH1 0x0 PUSH2 0x3A28 PUSH1 0x2C DUP4 PUSH2 0x2EE4 JUMP JUMPDEST SWAP2 POP PUSH2 0x3A33 DUP3 PUSH2 0x39CC JUMP JUMPDEST PUSH1 0x40 DUP3 ADD SWAP1 POP SWAP2 SWAP1 POP JUMP JUMPDEST PUSH1 0x0 PUSH1 0x20 DUP3 ADD SWAP1 POP DUP2 DUP2 SUB PUSH1 0x0 DUP4 ADD MSTORE PUSH2 0x3A57 DUP2 PUSH2 0x3A1B JUMP JUMPDEST SWAP1 POP SWAP2 SWAP1 POP JUMP JUMPDEST PUSH1 0x0 DUP2 SWAP1 POP DUP2 PUSH1 0x0 MSTORE PUSH1 0x20 PUSH1 0x0 KECCAK256 SWAP1 POP SWAP2 SWAP1 POP JUMP JUMPDEST PUSH1 0x0 PUSH1 0x20 PUSH1 0x1F DUP4 ADD DIV SWAP1 POP SWAP2 SWAP1 POP JUMP JUMPDEST PUSH1 0x0 DUP3 DUP3 SHL SWAP1 POP SWAP3 SWAP2 POP POP JUMP JUMPDEST PUSH1 0x0 PUSH1 0x8 DUP4 MUL PUSH2 0x3AC0 PUSH32 0xFFFFFFFFFFFFFFFFFFFFFFFFFFFFFFFFFFFFFFFFFFFFFFFFFFFFFFFFFFFFFFFF DUP3 PUSH2 0x3A83 JUMP JUMPDEST PUSH2 0x3ACA DUP7 DUP4 PUSH2 0x3A83 JUMP JUMPDEST SWAP6 POP DUP1 NOT DUP5 AND SWAP4 POP DUP1 DUP7 AND DUP5 OR SWAP3 POP POP POP SWAP4 SWAP3 POP POP POP JUMP JUMPDEST PUSH1 0x0 DUP2 SWAP1 POP SWAP2 SWAP1 POP JUMP JUMPDEST PUSH1 0x0 PUSH2 0x3B07 PUSH2 0x3B02 PUSH2 0x3AFD DUP5 PUSH2 0x2F8B JUMP JUMPDEST PUSH2 0x3AE2 JUMP JUMPDEST PUSH2 0x2F8B JUMP JUMPDEST SWAP1 POP SWAP2 SWAP1 POP JUMP JUMPDEST PUSH1 0x0 DUP2 SWAP1 POP SWAP2 SWAP1 POP JUMP JUMPDEST PUSH2 0x3B21 DUP4 PUSH2 0x3AEC JUMP JUMPDEST PUSH2 0x3B35 PUSH2 0x3B2D DUP3 PUSH2 0x3B0E JUMP JUMPDEST DUP5 DUP5 SLOAD PUSH2 0x3A90 JUMP JUMPDEST DUP3 SSTORE POP POP POP POP JUMP JUMPDEST PUSH1 0x0 SWAP1 JUMP JUMPDEST PUSH2 0x3B4A PUSH2 0x3B3D JUMP JUMPDEST PUSH2 0x3B55 DUP2 DUP5 DUP5 PUSH2 0x3B18 JUMP JUMPDEST POP POP POP JUMP JUMPDEST JUMPDEST DUP2 DUP2 LT ISZERO PUSH2 0x3B79 JUMPI PUSH2 0x3B6E PUSH1 0x0 DUP3 PUSH2 0x3B42 JUMP JUMPDEST PUSH1 0x1 DUP2 ADD SWAP1 POP PUSH2 0x3B5B JUMP JUMPDEST POP POP JUMP JUMPDEST PUSH1 0x1F DUP3 GT ISZERO PUSH2 0x3BBE JUMPI PUSH2 0x3B8F DUP2 PUSH2 0x3A5E JUMP JUMPDEST PUSH2 0x3B98 DUP5 PUSH2 0x3A73 JUMP JUMPDEST DUP2 ADD PUSH1 0x20 DUP6 LT ISZERO PUSH2 0x3BA7 JUMPI DUP2 SWAP1 POP JUMPDEST PUSH2 0x3BBB PUSH2 0x3BB3 DUP6 PUSH2 0x3A73 JUMP JUMPDEST DUP4 ADD DUP3 PUSH2 0x3B5A JUMP JUMPDEST POP POP JUMPDEST POP POP POP JUMP JUMPDEST PUSH1 0x0 DUP3 DUP3 SHR SWAP1 POP SWAP3 SWAP2 POP POP JUMP JUMPDEST PUSH1 0x0 PUSH2 0x3BE1 PUSH1 0x0 NOT DUP5 PUSH1 0x8 MUL PUSH2 0x3BC3 JUMP JUMPDEST NOT DUP1 DUP4 AND SWAP2 POP POP SWAP3 SWAP2 POP POP JUMP JUMPDEST PUSH1 0x0 PUSH2 0x3BFA DUP4 DUP4 PUSH2 0x3BD0 JUMP JUMPDEST SWAP2 POP DUP3 PUSH1 0x2 MUL DUP3 OR SWAP1 POP SWAP3 SWAP2 POP POP JUMP JUMPDEST PUSH2 0x3C13 DUP3 PUSH2 0x2ED9 JUMP JUMPDEST PUSH8 0xFFFFFFFFFFFFFFFF DUP2 GT ISZERO PUSH2 0x3C2C JUMPI PUSH2 0x3C2B PUSH2 0x324A JUMP JUMPDEST JUMPDEST PUSH2 0x3C36 DUP3 SLOAD PUSH2 0x3591 JUMP JUMPDEST PUSH2 0x3C41 DUP3 DUP3 DUP6 PUSH2 0x3B7D JUMP JUMPDEST PUSH1 0x0 PUSH1 0x20 SWAP1 POP PUSH1 0x1F DUP4 GT PUSH1 0x1 DUP2 EQ PUSH2 0x3C74 JUMPI PUSH1 0x0 DUP5 ISZERO PUSH2 0x3C62 JUMPI DUP3 DUP8 ADD MLOAD SWAP1 POP JUMPDEST PUSH2 0x3C6C DUP6 DUP3 PUSH2 0x3BEE JUMP JUMPDEST DUP7 SSTORE POP PUSH2 0x3CD4 JUMP JUMPDEST PUSH1 0x1F NOT DUP5 AND PUSH2 0x3C82 DUP7 PUSH2 0x3A5E JUMP JUMPDEST PUSH1 0x0 JUMPDEST DUP3 DUP2 LT ISZERO PUSH2 0x3CAA JUMPI DUP5 DUP10 ADD MLOAD DUP3 SSTORE PUSH1 0x1 DUP3 ADD SWAP2 POP PUSH1 0x20 DUP6 ADD SWAP5 POP PUSH1 0x20 DUP2 ADD SWAP1 POP PUSH2 0x3C85 JUMP JUMPDEST DUP7 DUP4 LT ISZERO PUSH2 0x3CC7 JUMPI DUP5 DUP10 ADD MLOAD PUSH2 0x3CC3 PUSH1 0x1F DUP10 AND DUP3 PUSH2 0x3BD0 JUMP JUMPDEST DUP4 SSTORE POP JUMPDEST PUSH1 0x1 PUSH1 0x2 DUP9 MUL ADD DUP9 SSTORE POP POP POP JUMPDEST POP POP POP POP POP POP JUMP JUMPDEST PUSH32 0x4552433732313A20696E76616C696420746F6B656E2049440000000000000000 PUSH1 0x0 DUP3 ADD MSTORE POP JUMP JUMPDEST PUSH1 0x0 PUSH2 0x3D12 PUSH1 0x18 DUP4 PUSH2 0x2EE4 JUMP JUMPDEST SWAP2 POP PUSH2 0x3D1D DUP3 PUSH2 0x3CDC JUMP JUMPDEST PUSH1 0x20 DUP3 ADD SWAP1 POP SWAP2 SWAP1 POP JUMP JUMPDEST PUSH1 0x0 PUSH1 0x20 DUP3 ADD SWAP1 POP DUP2 DUP2 SUB PUSH1 0x0 DUP4 ADD MSTORE PUSH2 0x3D41 DUP2 PUSH2 0x3D05 JUMP JUMPDEST SWAP1 POP SWAP2 SWAP1 POP JUMP JUMPDEST PUSH32 0x4552433732313A2061646472657373207A65726F206973206E6F742061207661 PUSH1 0x0 DUP3 ADD MSTORE PUSH32 0x6C6964206F776E65720000000000000000000000000000000000000000000000 PUSH1 0x20 DUP3 ADD MSTORE POP JUMP JUMPDEST PUSH1 0x0 PUSH2 0x3DA4 PUSH1 0x29 DUP4 PUSH2 0x2EE4 JUMP JUMPDEST SWAP2 POP PUSH2 0x3DAF DUP3 PUSH2 0x3D48 JUMP JUMPDEST PUSH1 0x40 DUP3 ADD SWAP1 POP SWAP2 SWAP1 POP JUMP JUMPDEST PUSH1 0x0 PUSH1 0x20 DUP3 ADD SWAP1 POP DUP2 DUP2 SUB PUSH1 0x0 DUP4 ADD MSTORE PUSH2 0x3DD3 DUP2 PUSH2 0x3D97 JUMP JUMPDEST SWAP1 POP SWAP2 SWAP1 POP JUMP JUMPDEST PUSH32 0x4552433732314D657461646174613A2055524920717565727920666F72206E6F PUSH1 0x0 DUP3 ADD MSTORE PUSH32 0x6E6578697374656E7420746F6B656E0000000000000000000000000000000000 PUSH1 0x20 DUP3 ADD MSTORE POP JUMP JUMPDEST PUSH1 0x0 PUSH2 0x3E36 PUSH1 0x2F DUP4 PUSH2 0x2EE4 JUMP JUMPDEST SWAP2 POP PUSH2 0x3E41 DUP3 PUSH2 0x3DDA JUMP JUMPDEST PUSH1 0x40 DUP3 ADD SWAP1 POP SWAP2 SWAP1 POP JUMP JUMPDEST PUSH1 0x0 PUSH1 0x20 DUP3 ADD SWAP1 POP DUP2 DUP2 SUB PUSH1 0x0 DUP4 ADD MSTORE PUSH2 0x3E65 DUP2 PUSH2 0x3E29 JUMP JUMPDEST SWAP1 POP SWAP2 SWAP1 POP JUMP JUMPDEST PUSH1 0x0 DUP2 SWAP1 POP SWAP3 SWAP2 POP POP JUMP JUMPDEST PUSH1 0x0 PUSH2 0x3E82 DUP3 PUSH2 0x2ED9 JUMP JUMPDEST PUSH2 0x3E8C DUP2 DUP6 PUSH2 0x3E6C JUMP JUMPDEST SWAP4 POP PUSH2 0x3E9C DUP2 DUP6 PUSH1 0x20 DUP7 ADD PUSH2 0x2EF5 JUMP JUMPDEST DUP1 DUP5 ADD SWAP2 POP POP SWAP3 SWAP2 POP POP JUMP JUMPDEST PUSH1 0x0 DUP2 SLOAD PUSH2 0x3EB5 DUP2 PUSH2 0x3591 JUMP JUMPDEST PUSH2 0x3EBF DUP2 DUP7 PUSH2 0x3E6C JUMP JUMPDEST SWAP5 POP PUSH1 0x1 DUP3 AND PUSH1 0x0 DUP2 EQ PUSH2 0x3EDA JUMPI PUSH1 0x1 DUP2 EQ PUSH2 0x3EEF JUMPI PUSH2 0x3F22 JUMP JUMPDEST PUSH1 0xFF NOT DUP4 AND DUP7 MSTORE DUP2 ISZERO ISZERO DUP3 MUL DUP7 ADD SWAP4 POP PUSH2 0x3F22 JUMP JUMPDEST PUSH2 0x3EF8 DUP6 PUSH2 0x3A5E JUMP JUMPDEST PUSH1 0x0 JUMPDEST DUP4 DUP2 LT ISZERO PUSH2 0x3F1A JUMPI DUP2 SLOAD DUP2 DUP10 ADD MSTORE PUSH1 0x1 DUP3 ADD SWAP2 POP PUSH1 0x20 DUP2 ADD SWAP1 POP PUSH2 0x3EFB JUMP JUMPDEST DUP4 DUP9 ADD SWAP6 POP POP POP JUMPDEST POP POP POP SWAP3 SWAP2 POP POP JUMP JUMPDEST PUSH1 0x0 PUSH2 0x3F37 DUP3 DUP7 PUSH2 0x3E77 JUMP JUMPDEST SWAP2 POP PUSH2 0x3F43 DUP3 DUP6 PUSH2 0x3E77 JUMP JUMPDEST SWAP2 POP PUSH2 0x3F4F DUP3 DUP5 PUSH2 0x3EA8 JUMP JUMPDEST SWAP2 POP DUP2 SWAP1 POP SWAP5 SWAP4 POP POP POP POP JUMP JUMPDEST PUSH32 0x4F776E61626C653A206E6577206F776E657220697320746865207A65726F2061 PUSH1 0x0 DUP3 ADD MSTORE PUSH32 0x6464726573730000000000000000000000000000000000000000000000000000 PUSH1 0x20 DUP3 ADD MSTORE POP JUMP JUMPDEST PUSH1 0x0 PUSH2 0x3FB8 PUSH1 0x26 DUP4 PUSH2 0x2EE4 JUMP JUMPDEST SWAP2 POP PUSH2 0x3FC3 DUP3 PUSH2 0x3F5C JUMP JUMPDEST PUSH1 0x40 DUP3 ADD SWAP1 POP SWAP2 SWAP1 POP JUMP JUMPDEST PUSH1 0x0 PUSH1 0x20 DUP3 ADD SWAP1 POP DUP2 DUP2 SUB PUSH1 0x0 DUP4 ADD MSTORE PUSH2 0x3FE7 DUP2 PUSH2 0x3FAB JUMP JUMPDEST SWAP1 POP SWAP2 SWAP1 POP JUMP JUMPDEST PUSH32 0x4F776E61626C653A2063616C6C6572206973206E6F7420746865206F776E6572 PUSH1 0x0 DUP3 ADD MSTORE POP JUMP JUMPDEST PUSH1 0x0 PUSH2 0x4024 PUSH1 0x20 DUP4 PUSH2 0x2EE4 JUMP JUMPDEST SWAP2 POP PUSH2 0x402F DUP3 PUSH2 0x3FEE JUMP JUMPDEST PUSH1 0x20 DUP3 ADD SWAP1 POP SWAP2 SWAP1 POP JUMP JUMPDEST PUSH1 0x0 PUSH1 0x20 DUP3 ADD SWAP1 POP DUP2 DUP2 SUB PUSH1 0x0 DUP4 ADD MSTORE PUSH2 0x4053 DUP2 PUSH2 0x4017 JUMP JUMPDEST SWAP1 POP SWAP2 SWAP1 POP JUMP JUMPDEST PUSH32 0x4552433732313A207472616E736665722066726F6D20696E636F727265637420 PUSH1 0x0 DUP3 ADD MSTORE PUSH32 0x6F776E6572000000000000000000000000000000000000000000000000000000 PUSH1 0x20 DUP3 ADD MSTORE POP JUMP JUMPDEST PUSH1 0x0 PUSH2 0x40B6 PUSH1 0x25 DUP4 PUSH2 0x2EE4 JUMP JUMPDEST SWAP2 POP PUSH2 0x40C1 DUP3 PUSH2 0x405A JUMP JUMPDEST PUSH1 0x40 DUP3 ADD SWAP1 POP SWAP2 SWAP1 POP JUMP JUMPDEST PUSH1 0x0 PUSH1 0x20 DUP3 ADD SWAP1 POP DUP2 DUP2 SUB PUSH1 0x0 DUP4 ADD MSTORE PUSH2 0x40E5 DUP2 PUSH2 0x40A9 JUMP JUMPDEST SWAP1 POP SWAP2 SWAP1 POP JUMP JUMPDEST PUSH32 0x4552433732313A207472616E7366657220746F20746865207A65726F20616464 PUSH1 0x0 DUP3 ADD MSTORE PUSH32 0x7265737300000000000000000000000000000000000000000000000000000000 PUSH1 0x20 DUP3 ADD MSTORE POP JUMP JUMPDEST PUSH1 0x0 PUSH2 0x4148 PUSH1 0x24 DUP4 PUSH2 0x2EE4 JUMP JUMPDEST SWAP2 POP PUSH2 0x4153 DUP3 PUSH2 0x40EC JUMP JUMPDEST PUSH1 0x40 DUP3 ADD SWAP1 POP SWAP2 SWAP1 POP JUMP JUMPDEST PUSH1 0x0 PUSH1 0x20 DUP3 ADD SWAP1 POP DUP2 DUP2 SUB PUSH1 0x0 DUP4 ADD MSTORE PUSH2 0x4177 DUP2 PUSH2 0x413B JUMP JUMPDEST SWAP1 POP SWAP2 SWAP1 POP JUMP JUMPDEST PUSH32 0x4552433732313A20617070726F766520746F2063616C6C657200000000000000 PUSH1 0x0 DUP3 ADD MSTORE POP JUMP JUMPDEST PUSH1 0x0 PUSH2 0x41B4 PUSH1 0x19 DUP4 PUSH2 0x2EE4 JUMP JUMPDEST SWAP2 POP PUSH2 0x41BF DUP3 PUSH2 0x417E JUMP JUMPDEST PUSH1 0x20 DUP3 ADD SWAP1 POP SWAP2 SWAP1 POP JUMP JUMPDEST PUSH1 0x0 PUSH1 0x20 DUP3 ADD SWAP1 POP DUP2 DUP2 SUB PUSH1 0x0 DUP4 ADD MSTORE PUSH2 0x41E3 DUP2 PUSH2 0x41A7 JUMP JUMPDEST SWAP1 POP SWAP2 SWAP1 POP JUMP JUMPDEST PUSH32 0x4552433732313A207472616E7366657220746F206E6F6E204552433732315265 PUSH1 0x0 DUP3 ADD MSTORE PUSH32 0x63656976657220696D706C656D656E7465720000000000000000000000000000 PUSH1 0x20 DUP3 ADD MSTORE POP JUMP JUMPDEST PUSH1 0x0 PUSH2 0x4246 PUSH1 0x32 DUP4 PUSH2 0x2EE4 JUMP JUMPDEST SWAP2 POP PUSH2 0x4251 DUP3 PUSH2 0x41EA JUMP JUMPDEST PUSH1 0x40 DUP3 ADD SWAP1 POP SWAP2 SWAP1 POP JUMP JUMPDEST PUSH1 0x0 PUSH1 0x20 DUP3 ADD SWAP1 POP DUP2 DUP2 SUB PUSH1 0x0 DUP4 ADD MSTORE PUSH2 0x4275 DUP2 PUSH2 0x4239 JUMP JUMPDEST SWAP1 POP SWAP2 SWAP1 POP JUMP JUMPDEST PUSH32 0x455243373231456E756D657261626C653A20636F6E7365637574697665207472 PUSH1 0x0 DUP3 ADD MSTORE PUSH32 0x616E7366657273206E6F7420737570706F727465640000000000000000000000 PUSH1 0x20 DUP3 ADD MSTORE POP JUMP JUMPDEST PUSH1 0x0 PUSH2 0x42D8 PUSH1 0x35 DUP4 PUSH2 0x2EE4 JUMP JUMPDEST SWAP2 POP PUSH2 0x42E3 DUP3 PUSH2 0x427C JUMP JUMPDEST PUSH1 0x40 DUP3 ADD SWAP1 POP SWAP2 SWAP1 POP JUMP JUMPDEST PUSH1 0x0 PUSH1 0x20 DUP3 ADD SWAP1 POP DUP2 DUP2 SUB PUSH1 0x0 DUP4 ADD MSTORE PUSH2 0x4307 DUP2 PUSH2 0x42CB JUMP JUMPDEST SWAP1 POP SWAP2 SWAP1 POP JUMP JUMPDEST PUSH1 0x0 DUP2 MLOAD SWAP1 POP SWAP2 SWAP1 POP JUMP JUMPDEST PUSH1 0x0 DUP3 DUP3 MSTORE PUSH1 0x20 DUP3 ADD SWAP1 POP SWAP3 SWAP2 POP POP JUMP JUMPDEST PUSH1 0x0 PUSH2 0x4335 DUP3 PUSH2 0x430E JUMP JUMPDEST PUSH2 0x433F DUP2 DUP6 PUSH2 0x4319 JUMP JUMPDEST SWAP4 POP PUSH2 0x434F DUP2 DUP6 PUSH1 0x20 DUP7 ADD PUSH2 0x2EF5 JUMP JUMPDEST PUSH2 0x4358 DUP2 PUSH2 0x2F1F JUMP JUMPDEST DUP5 ADD SWAP2 POP POP SWAP3 SWAP2 POP POP JUMP JUMPDEST PUSH1 0x0 PUSH1 0x80 DUP3 ADD SWAP1 POP PUSH2 0x4378 PUSH1 0x0 DUP4 ADD DUP8 PUSH2 0x3020 JUMP JUMPDEST PUSH2 0x4385 PUSH1 0x20 DUP4 ADD DUP7 PUSH2 0x3020 JUMP JUMPDEST PUSH2 0x4392 PUSH1 0x40 DUP4 ADD DUP6 PUSH2 0x30B6 JUMP JUMPDEST DUP2 DUP2 SUB PUSH1 0x60 DUP4 ADD MSTORE PUSH2 0x43A4 DUP2 DUP5 PUSH2 0x432A JUMP JUMPDEST SWAP1 POP SWAP6 SWAP5 POP POP POP POP POP JUMP JUMPDEST PUSH1 0x0 DUP2 MLOAD SWAP1 POP PUSH2 0x43BE DUP2 PUSH2 0x2DF1 JUMP JUMPDEST SWAP3 SWAP2 POP POP JUMP JUMPDEST PUSH1 0x0 PUSH1 0x20 DUP3 DUP5 SUB SLT ISZERO PUSH2 0x43DA JUMPI PUSH2 0x43D9 PUSH2 0x2DBB JUMP JUMPDEST JUMPDEST PUSH1 0x0 PUSH2 0x43E8 DUP5 DUP3 DUP6 ADD PUSH2 0x43AF JUMP JUMPDEST SWAP2 POP POP SWAP3 SWAP2 POP POP JUMP JUMPDEST PUSH1 0x0 PUSH2 0x43FC DUP3 PUSH2 0x2F8B JUMP JUMPDEST SWAP2 POP PUSH2 0x4407 DUP4 PUSH2 0x2F8B JUMP JUMPDEST SWAP3 POP DUP3 DUP3 SUB SWAP1 POP DUP2 DUP2 GT ISZERO PUSH2 0x441F JUMPI PUSH2 0x441E PUSH2 0x380A JUMP JUMPDEST JUMPDEST SWAP3 SWAP2 POP POP JUMP JUMPDEST PUSH32 0x4E487B7100000000000000000000000000000000000000000000000000000000 PUSH1 0x0 MSTORE PUSH1 0x31 PUSH1 0x4 MSTORE PUSH1 0x24 PUSH1 0x0 REVERT JUMPDEST PUSH32 0x4552433732313A206D696E7420746F20746865207A65726F2061646472657373 PUSH1 0x0 DUP3 ADD MSTORE POP JUMP JUMPDEST PUSH1 0x0 PUSH2 0x448A PUSH1 0x20 DUP4 PUSH2 0x2EE4 JUMP JUMPDEST SWAP2 POP PUSH2 0x4495 DUP3 PUSH2 0x4454 JUMP JUMPDEST PUSH1 0x20 DUP3 ADD SWAP1 POP SWAP2 SWAP1 POP JUMP JUMPDEST PUSH1 0x0 PUSH1 0x20 DUP3 ADD SWAP1 POP DUP2 DUP2 SUB PUSH1 0x0 DUP4 ADD MSTORE PUSH2 0x44B9 DUP2 PUSH2 0x447D JUMP JUMPDEST SWAP1 POP SWAP2 SWAP1 POP JUMP JUMPDEST PUSH32 0x4552433732313A20746F6B656E20616C7265616479206D696E74656400000000 PUSH1 0x0 DUP3 ADD MSTORE POP JUMP JUMPDEST PUSH1 0x0 PUSH2 0x44F6 PUSH1 0x1C DUP4 PUSH2 0x2EE4 JUMP JUMPDEST SWAP2 POP PUSH2 0x4501 DUP3 PUSH2 0x44C0 JUMP JUMPDEST PUSH1 0x20 DUP3 ADD SWAP1 POP SWAP2 SWAP1 POP JUMP JUMPDEST PUSH1 0x0 PUSH1 0x20 DUP3 ADD SWAP1 POP DUP2 DUP2 SUB PUSH1 0x0 DUP4 ADD MSTORE PUSH2 0x4525 DUP2 PUSH2 0x44E9 JUMP JUMPDEST SWAP1 POP SWAP2 SWAP1 POP JUMP INVALID LOG2 PUSH5 0x6970667358 0x22 SLT KECCAK256 MULMOD LOG4 PUSH11 0x7751D37B4538275236EB7C PUSH21 0x16EDA4F1F104DC061AA5C9ACE8841675E464736F6C PUSH4 0x43000812 STOP CALLER "},"gasEstimates":{"creation":{"codeDepositCost":"3552400","executionCost":"infinite","totalCost":"infinite"},"external":{"approve(address,uint256)":"infinite","balanceOf(address)":"3010","baseExtension()":"infinite","baseURI()":"infinite","cost()":"2497","getApproved(uint256)":"5345","isApprovedForAll(address,address)":"infinite","maxMintAmount()":"2541","maxSupply()":"2562","mint(address,uint256)":"infinite","name()":"infinite","notRevealedUri()":"infinite","owner()":"2611","ownerOf(uint256)":"3089","pause(bool)":"27012","paused()":"2539","removeWhitelistUser(address)":"27144","renounceOwnership()":"30443","reveal()":"26770","revealed()":"2654","safeTransferFrom(address,address,uint256)":"infinite","safeTransferFrom(address,address,uint256,bytes)":"infinite","setApprovalForAll(address,bool)":"infinite","setBaseExtension(string)":"infinite","setBaseURI(string)":"infinite","setCost(uint256)":"24851","setNotRevealedURI(string)":"infinite","setmaxMintAmount(uint256)":"24851","supportsInterface(bytes4)":"909","symbol()":"infinite","tokenByIndex(uint256)":"infinite","tokenOfOwnerByIndex(address,uint256)":"infinite","tokenURI(uint256)":"infinite","totalSupply()":"2535","transferFrom(address,address,uint256)":"infinite","transferOwnership(address)":"30876","walletOfOwner(address)":"infinite","whitelistUser(address)":"27165","whitelisted(address)":"2889","withdraw()":"infinite"},"internal":{"_baseURI()":"infinite"}},"methodIdentifiers":{"approve(address,uint256)":"095ea7b3","balanceOf(address)":"70a08231","baseExtension()":"c6682862","baseURI()":"6c0360eb","cost()":"13faede6","getApproved(uint256)":"081812fc","isApprovedForAll(address,address)":"e985e9c5","maxMintAmount()":"239c70ae","maxSupply()":"d5abeb01","mint(address,uint256)":"40c10f19","name()":"06fdde03","notRevealedUri()":"081c8c44","owner()":"8da5cb5b","ownerOf(uint256)":"6352211e","pause(bool)":"02329a29","paused()":"5c975abb","removeWhitelistUser(address)":"30cc7ae0","renounceOwnership()":"715018a6","reveal()":"a475b5dd","revealed()":"51830227","safeTransferFrom(address,address,uint256)":"42842e0e","safeTransferFrom(address,address,uint256,bytes)":"b88d4fde","setApprovalForAll(address,bool)":"a22cb465","setBaseExtension(string)":"da3ef23f","setBaseURI(string)":"55f804b3","setCost(uint256)":"44a0d68a","setNotRevealedURI(string)":"f2c4ce1e","setmaxMintAmount(uint256)":"7f00c7a6","supportsInterface(bytes4)":"01ffc9a7","symbol()":"95d89b41","tokenByIndex(uint256)":"4f6ccce7","tokenOfOwnerByIndex(address,uint256)":"2f745c59","tokenURI(uint256)":"c87b56dd","totalSupply()":"18160ddd","transferFrom(address,address,uint256)":"23b872dd","transferOwnership(address)":"f2fde38b","walletOfOwner(address)":"438b6300","whitelistUser(address)":"4a4c560d","whitelisted(address)":"d936547e","withdraw()":"3ccfd60b"}},"storageLayout":{"storage":[{"astId":166,"contract":"contracts/test/DragonNft.sol:DragonNft","label":"_name","offset":0,"slot":"0","type":"t_string_storage"},{"astId":168,"contract":"contracts/test/DragonNft.sol:DragonNft","label":"_symbol","offset":0,"slot":"1","type":"t_string_storage"},{"astId":172,"contract":"contracts/test/DragonNft.sol:DragonNft","label":"_owners","offset":0,"slot":"2","type":"t_mapping(t_uint256,t_address)"},{"astId":176,"contract":"contracts/test/DragonNft.sol:DragonNft","label":"_balances","offset":0,"slot":"3","type":"t_mapping(t_address,t_uint256)"},{"astId":180,"contract":"contracts/test/DragonNft.sol:DragonNft","label":"_tokenApprovals","offset":0,"slot":"4","type":"t_mapping(t_uint256,t_address)"},{"astId":186,"contract":"contracts/test/DragonNft.sol:DragonNft","label":"_operatorApprovals","offset":0,"slot":"5","type":"t_mapping(t_address,t_mapping(t_address,t_bool))"},{"astId":1216,"contract":"contracts/test/DragonNft.sol:DragonNft","label":"_ownedTokens","offset":0,"slot":"6","type":"t_mapping(t_address,t_mapping(t_uint256,t_uint256))"},{"astId":1220,"contract":"contracts/test/DragonNft.sol:DragonNft","label":"_ownedTokensIndex","offset":0,"slot":"7","type":"t_mapping(t_uint256,t_uint256)"},{"astId":1223,"contract":"contracts/test/DragonNft.sol:DragonNft","label":"_allTokens","offset":0,"slot":"8","type":"t_array(t_uint256)dyn_storage"},{"astId":1227,"contract":"contracts/test/DragonNft.sol:DragonNft","label":"_allTokensIndex","offset":0,"slot":"9","type":"t_mapping(t_uint256,t_uint256)"},{"astId":7,"contract":"contracts/test/DragonNft.sol:DragonNft","label":"_owner","offset":0,"slot":"10","type":"t_address"},{"astId":3378,"contract":"contracts/test/DragonNft.sol:DragonNft","label":"baseURI","offset":0,"slot":"11","type":"t_string_storage"},{"astId":3381,"contract":"contracts/test/DragonNft.sol:DragonNft","label":"baseExtension","offset":0,"slot":"12","type":"t_string_storage"},{"astId":3384,"contract":"contracts/test/DragonNft.sol:DragonNft","label":"cost","offset":0,"slot":"13","type":"t_uint256"},{"astId":3387,"contract":"contracts/test/DragonNft.sol:DragonNft","label":"maxSupply","offset":0,"slot":"14","type":"t_uint256"},{"astId":3390,"contract":"contracts/test/DragonNft.sol:DragonNft","label":"maxMintAmount","offset":0,"slot":"15","type":"t_uint256"},{"astId":3393,"contract":"contracts/test/DragonNft.sol:DragonNft","label":"paused","offset":0,"slot":"16","type":"t_bool"},{"astId":3396,"contract":"contracts/test/DragonNft.sol:DragonNft","label":"revealed","offset":1,"slot":"16","type":"t_bool"},{"astId":3398,"contract":"contracts/test/DragonNft.sol:DragonNft","label":"notRevealedUri","offset":0,"slot":"17","type":"t_string_storage"},{"astId":3402,"contract":"contracts/test/DragonNft.sol:DragonNft","label":"whitelisted","offset":0,"slot":"18","type":"t_mapping(t_address,t_bool)"}],"types":{"t_address":{"encoding":"inplace","label":"address","numberOfBytes":"20"},"t_array(t_uint256)dyn_storage":{"base":"t_uint256","encoding":"dynamic_array","label":"uint256[]","numberOfBytes":"32"},"t_bool":{"encoding":"inplace","label":"bool","numberOfBytes":"1"},"t_mapping(t_address,t_bool)":{"encoding":"mapping","key":"t_address","label":"mapping(address => bool)","numberOfBytes":"32","value":"t_bool"},"t_mapping(t_address,t_mapping(t_address,t_bool))":{"encoding":"mapping","key":"t_address","label":"mapping(address => mapping(address => bool))","numberOfBytes":"32","value":"t_mapping(t_address,t_bool)"},"t_mapping(t_address,t_mapping(t_uint256,t_uint256))":{"encoding":"mapping","key":"t_address","label":"mapping(address => mapping(uint256 => uint256))","numberOfBytes":"32","value":"t_mapping(t_uint256,t_uint256)"},"t_mapping(t_address,t_uint256)":{"encoding":"mapping","key":"t_address","label":"mapping(address => uint256)","numberOfBytes":"32","value":"t_uint256"},"t_mapping(t_uint256,t_address)":{"encoding":"mapping","key":"t_uint256","label":"mapping(uint256 => address)","numberOfBytes":"32","value":"t_address"},"t_mapping(t_uint256,t_uint256)":{"encoding":"mapping","key":"t_uint256","label":"mapping(uint256 => uint256)","numberOfBytes":"32","value":"t_uint256"},"t_string_storage":{"encoding":"bytes","label":"string","numberOfBytes":"32"},"t_uint256":{"encoding":"inplace","label":"uint256","numberOfBytes":"32"}}},"userdoc":{"kind":"user","methods":{},"version":1}}}}