{
  "_format": "hh-sol-artifact-1",
  "contractName": "RandomIpfsNft",
  "sourceName": "contracts/test/RandomIpfsNft.sol",
  "abi": [
    {
      "inputs": [
        {
          "internalType": "uint256",
          "name": "mintFee",
          "type": "uint256"
        },
        {
          "internalType": "string[3]",
          "name": "genTokenUris",
          "type": "string[3]"
        },
        {
          "internalType": "uint256",
          "name": "maxSupply",
          "type": "uint256"
        }
      ],
      "stateMutability": "nonpayable",
      "type": "constructor"
    },
    {
      "inputs": [],
      "name": "RandomIpfsNft__AlreadyInitialized",
      "type": "error"
    },
    {
      "inputs": [],
      "name": "RandomIpfsNft__MaxSupplyReached",
      "type": "error"
    },
    {
      "inputs": [],
      "name": "RandomIpfsNft__NeedMoreETHSent",
      "type": "error"
    },
    {
      "inputs": [],
      "name": "RandomIpfsNft__RangeOutOfBounds",
      "type": "error"
    },
    {
      "inputs": [],
      "name": "RandomIpfsNft__TransferFailed",
      "type": "error"
    },
    {
      "anonymous": false,
      "inputs": [
        {
          "indexed": true,
          "internalType": "address",
          "name": "owner",
          "type": "address"
        },
        {
          "indexed": true,
          "internalType": "address",
          "name": "approved",
          "type": "address"
        },
        {
          "indexed": true,
          "internalType": "uint256",
          "name": "tokenId",
          "type": "uint256"
        }
      ],
      "name": "Approval",
      "type": "event"
    },
    {
      "anonymous": false,
      "inputs": [
        {
          "indexed": true,
          "internalType": "address",
          "name": "owner",
          "type": "address"
        },
        {
          "indexed": true,
          "internalType": "address",
          "name": "operator",
          "type": "address"
        },
        {
          "indexed": false,
          "internalType": "bool",
          "name": "approved",
          "type": "bool"
        }
      ],
      "name": "ApprovalForAll",
      "type": "event"
    },
    {
      "anonymous": false,
      "inputs": [
        {
          "indexed": false,
          "internalType": "uint256",
          "name": "_fromTokenId",
          "type": "uint256"
        },
        {
          "indexed": false,
          "internalType": "uint256",
          "name": "_toTokenId",
          "type": "uint256"
        }
      ],
      "name": "BatchMetadataUpdate",
      "type": "event"
    },
    {
      "anonymous": false,
      "inputs": [
        {
          "indexed": false,
          "internalType": "uint256",
          "name": "_tokenId",
          "type": "uint256"
        }
      ],
      "name": "MetadataUpdate",
      "type": "event"
    },
    {
      "anonymous": false,
      "inputs": [
        {
          "indexed": false,
          "internalType": "enum RandomIpfsNft.Breed",
          "name": "breed",
          "type": "uint8"
        },
        {
          "indexed": false,
          "internalType": "address",
          "name": "minter",
          "type": "address"
        }
      ],
      "name": "NftMinted",
      "type": "event"
    },
    {
      "anonymous": false,
      "inputs": [
        {
          "indexed": true,
          "internalType": "address",
          "name": "previousOwner",
          "type": "address"
        },
        {
          "indexed": true,
          "internalType": "address",
          "name": "newOwner",
          "type": "address"
        }
      ],
      "name": "OwnershipTransferred",
      "type": "event"
    },
    {
      "anonymous": false,
      "inputs": [
        {
          "indexed": true,
          "internalType": "address",
          "name": "from",
          "type": "address"
        },
        {
          "indexed": true,
          "internalType": "address",
          "name": "to",
          "type": "address"
        },
        {
          "indexed": true,
          "internalType": "uint256",
          "name": "tokenId",
          "type": "uint256"
        }
      ],
      "name": "Transfer",
      "type": "event"
    },
    {
      "inputs": [
        {
          "internalType": "address",
          "name": "to",
          "type": "address"
        },
        {
          "internalType": "uint256",
          "name": "tokenId",
          "type": "uint256"
        }
      ],
      "name": "approve",
      "outputs": [],
      "stateMutability": "nonpayable",
      "type": "function"
    },
    {
      "inputs": [
        {
          "internalType": "address",
          "name": "owner",
          "type": "address"
        }
      ],
      "name": "balanceOf",
      "outputs": [
        {
          "internalType": "uint256",
          "name": "",
          "type": "uint256"
        }
      ],
      "stateMutability": "view",
      "type": "function"
    },
    {
      "inputs": [
        {
          "internalType": "uint256",
          "name": "tokenId",
          "type": "uint256"
        }
      ],
      "name": "getApproved",
      "outputs": [
        {
          "internalType": "address",
          "name": "",
          "type": "address"
        }
      ],
      "stateMutability": "view",
      "type": "function"
    },
    {
      "inputs": [
        {
          "internalType": "uint256",
          "name": "moddedRng",
          "type": "uint256"
        }
      ],
      "name": "getBreedFromModdedRng",
      "outputs": [
        {
          "internalType": "enum RandomIpfsNft.Breed",
          "name": "",
          "type": "uint8"
        }
      ],
      "stateMutability": "pure",
      "type": "function"
    },
    {
      "inputs": [],
      "name": "getChanceArray",
      "outputs": [
        {
          "internalType": "uint256[3]",
          "name": "",
          "type": "uint256[3]"
        }
      ],
      "stateMutability": "pure",
      "type": "function"
    },
    {
      "inputs": [],
      "name": "getInitialized",
      "outputs": [
        {
          "internalType": "bool",
          "name": "",
          "type": "bool"
        }
      ],
      "stateMutability": "view",
      "type": "function"
    },
    {
      "inputs": [],
      "name": "getMintFee",
      "outputs": [
        {
          "internalType": "uint256",
          "name": "",
          "type": "uint256"
        }
      ],
      "stateMutability": "view",
      "type": "function"
    },
    {
      "inputs": [],
      "name": "getTokenCounter",
      "outputs": [
        {
          "internalType": "uint256",
          "name": "",
          "type": "uint256"
        }
      ],
      "stateMutability": "view",
      "type": "function"
    },
    {
      "inputs": [
        {
          "internalType": "uint256",
          "name": "index",
          "type": "uint256"
        }
      ],
      "name": "getgenTokenUris",
      "outputs": [
        {
          "internalType": "string",
          "name": "",
          "type": "string"
        }
      ],
      "stateMutability": "view",
      "type": "function"
    },
    {
      "inputs": [
        {
          "internalType": "address",
          "name": "owner",
          "type": "address"
        },
        {
          "internalType": "address",
          "name": "operator",
          "type": "address"
        }
      ],
      "name": "isApprovedForAll",
      "outputs": [
        {
          "internalType": "bool",
          "name": "",
          "type": "bool"
        }
      ],
      "stateMutability": "view",
      "type": "function"
    },
    {
      "inputs": [],
      "name": "name",
      "outputs": [
        {
          "internalType": "string",
          "name": "",
          "type": "string"
        }
      ],
      "stateMutability": "view",
      "type": "function"
    },
    {
      "inputs": [],
      "name": "owner",
      "outputs": [
        {
          "internalType": "address",
          "name": "",
          "type": "address"
        }
      ],
      "stateMutability": "view",
      "type": "function"
    },
    {
      "inputs": [
        {
          "internalType": "uint256",
          "name": "tokenId",
          "type": "uint256"
        }
      ],
      "name": "ownerOf",
      "outputs": [
        {
          "internalType": "address",
          "name": "",
          "type": "address"
        }
      ],
      "stateMutability": "view",
      "type": "function"
    },
    {
      "inputs": [],
      "name": "renounceOwnership",
      "outputs": [],
      "stateMutability": "nonpayable",
      "type": "function"
    },
    {
      "inputs": [],
      "name": "requestNft",
      "outputs": [],
      "stateMutability": "payable",
      "type": "function"
    },
    {
      "inputs": [
        {
          "internalType": "address",
          "name": "from",
          "type": "address"
        },
        {
          "internalType": "address",
          "name": "to",
          "type": "address"
        },
        {
          "internalType": "uint256",
          "name": "tokenId",
          "type": "uint256"
        }
      ],
      "name": "safeTransferFrom",
      "outputs": [],
      "stateMutability": "nonpayable",
      "type": "function"
    },
    {
      "inputs": [
        {
          "internalType": "address",
          "name": "from",
          "type": "address"
        },
        {
          "internalType": "address",
          "name": "to",
          "type": "address"
        },
        {
          "internalType": "uint256",
          "name": "tokenId",
          "type": "uint256"
        },
        {
          "internalType": "bytes",
          "name": "data",
          "type": "bytes"
        }
      ],
      "name": "safeTransferFrom",
      "outputs": [],
      "stateMutability": "nonpayable",
      "type": "function"
    },
    {
      "inputs": [
        {
          "internalType": "address",
          "name": "operator",
          "type": "address"
        },
        {
          "internalType": "bool",
          "name": "approved",
          "type": "bool"
        }
      ],
      "name": "setApprovalForAll",
      "outputs": [],
      "stateMutability": "nonpayable",
      "type": "function"
    },
    {
      "inputs": [
        {
          "internalType": "bytes4",
          "name": "interfaceId",
          "type": "bytes4"
        }
      ],
      "name": "supportsInterface",
      "outputs": [
        {
          "internalType": "bool",
          "name": "",
          "type": "bool"
        }
      ],
      "stateMutability": "view",
      "type": "function"
    },
    {
      "inputs": [],
      "name": "symbol",
      "outputs": [
        {
          "internalType": "string",
          "name": "",
          "type": "string"
        }
      ],
      "stateMutability": "view",
      "type": "function"
    },
    {
      "inputs": [
        {
          "internalType": "uint256",
          "name": "tokenId",
          "type": "uint256"
        }
      ],
      "name": "tokenURI",
      "outputs": [
        {
          "internalType": "string",
          "name": "",
          "type": "string"
        }
      ],
      "stateMutability": "view",
      "type": "function"
    },
    {
      "inputs": [
        {
          "internalType": "address",
          "name": "from",
          "type": "address"
        },
        {
          "internalType": "address",
          "name": "to",
          "type": "address"
        },
        {
          "internalType": "uint256",
          "name": "tokenId",
          "type": "uint256"
        }
      ],
      "name": "transferFrom",
      "outputs": [],
      "stateMutability": "nonpayable",
      "type": "function"
    },
    {
      "inputs": [
        {
          "internalType": "address",
          "name": "newOwner",
          "type": "address"
        }
      ],
      "name": "transferOwnership",
      "outputs": [],
      "stateMutability": "nonpayable",
      "type": "function"
    },
    {
      "inputs": [],
      "name": "withdraw",
      "outputs": [],
      "stateMutability": "nonpayable",
      "type": "function"
    }
  ],
  "bytecode": "0x60c06040523480156200001157600080fd5b50604051620041f1380380620041f1833981810160405281019062000037919062000608565b6040518060400160405280601381526020017f47656e65726174696f6e205069636b61636879000000000000000000000000008152506040518060400160405280600481526020017f50494341000000000000000000000000000000000000000000000000000000008152508160009081620000b49190620008c4565b508060019081620000c69190620008c4565b505050620000e9620000dd6200011b60201b60201c565b6200012360201b60201c565b620000fa82620001e960201b60201c565b826080818152505060006008819055508060a08181525050505050620009ab565b600033905090565b6000600760009054906101000a900473ffffffffffffffffffffffffffffffffffffffff16905081600760006101000a81548173ffffffffffffffffffffffffffffffffffffffff021916908373ffffffffffffffffffffffffffffffffffffffff1602179055508173ffffffffffffffffffffffffffffffffffffffff168173ffffffffffffffffffffffffffffffffffffffff167f8be0079c531659141344cd1fd0a4f28419497f9722a3daafe3b4186f6b6457e060405160405180910390a35050565b600a60009054906101000a900460ff161562000231576040517fddf8bf7000000000000000000000000000000000000000000000000000000000815260040160405180910390fd5b8060099060036200024492919062000263565b506001600a60006101000a81548160ff02191690831515021790555050565b828054828255906000526020600020908101928215620002b0579160200282015b82811115620002af5782518290816200029e9190620008c4565b509160200191906001019062000284565b5b509050620002bf9190620002c3565b5090565b5b80821115620002e75760008181620002dd9190620002eb565b50600101620002c4565b5090565b508054620002f990620006bd565b6000825580601f106200030d57506200032e565b601f0160209004906000526020600020908101906200032d919062000331565b5b50565b5b808211156200034c57600081600090555060010162000332565b5090565b6000604051905090565b600080fd5b600080fd5b6000819050919050565b620003798162000364565b81146200038557600080fd5b50565b60008151905062000399816200036e565b92915050565b600080fd5b6000601f19601f8301169050919050565b7f4e487b7100000000000000000000000000000000000000000000000000000000600052604160045260246000fd5b620003ef82620003a4565b810181811067ffffffffffffffff82111715620004115762000410620003b5565b5b80604052505050565b60006200042662000350565b9050620004348282620003e4565b919050565b600067ffffffffffffffff821115620004575762000456620003b5565b5b602082029050919050565b600080fd5b600080fd5b600067ffffffffffffffff8211156200048a5762000489620003b5565b5b6200049582620003a4565b9050602081019050919050565b60005b83811015620004c2578082015181840152602081019050620004a5565b60008484015250505050565b6000620004e5620004df846200046c565b6200041a565b90508281526020810184848401111562000504576200050362000467565b5b62000511848285620004a2565b509392505050565b600082601f8301126200053157620005306200039f565b5b815162000543848260208601620004ce565b91505092915050565b6000620005636200055d8462000439565b6200041a565b9050806020840283018581111562000580576200057f62000462565b5b835b81811015620005ce57805167ffffffffffffffff811115620005a957620005a86200039f565b5b808601620005b8898262000519565b8552602085019450505060208101905062000582565b5050509392505050565b600082601f830112620005f057620005ef6200039f565b5b6003620005ff8482856200054c565b91505092915050565b6000806000606084860312156200062457620006236200035a565b5b6000620006348682870162000388565b935050602084015167ffffffffffffffff8111156200065857620006576200035f565b5b6200066686828701620005d8565b9250506040620006798682870162000388565b9150509250925092565b600081519050919050565b7f4e487b7100000000000000000000000000000000000000000000000000000000600052602260045260246000fd5b60006002820490506001821680620006d657607f821691505b602082108103620006ec57620006eb6200068e565b5b50919050565b60008190508160005260206000209050919050565b60006020601f8301049050919050565b600082821b905092915050565b600060088302620007567fffffffffffffffffffffffffffffffffffffffffffffffffffffffffffffffff8262000717565b62000762868362000717565b95508019841693508086168417925050509392505050565b6000819050919050565b6000620007a56200079f620007998462000364565b6200077a565b62000364565b9050919050565b6000819050919050565b620007c18362000784565b620007d9620007d082620007ac565b84845462000724565b825550505050565b600090565b620007f0620007e1565b620007fd818484620007b6565b505050565b5b81811015620008255762000819600082620007e6565b60018101905062000803565b5050565b601f82111562000874576200083e81620006f2565b620008498462000707565b8101602085101562000859578190505b62000871620008688562000707565b83018262000802565b50505b505050565b600082821c905092915050565b6000620008996000198460080262000879565b1980831691505092915050565b6000620008b4838362000886565b9150826002028217905092915050565b620008cf8262000683565b67ffffffffffffffff811115620008eb57620008ea620003b5565b5b620008f78254620006bd565b6200090482828562000829565b600060209050601f8311600181146200093c576000841562000927578287015190505b620009338582620008a6565b865550620009a3565b601f1984166200094c86620006f2565b60005b8281101562000976578489015182556001820191506020850194506020810190506200094f565b8683101562000996578489015162000992601f89168262000886565b8355505b6001600288020188555050505b505050505050565b60805160a051613819620009d86000396000610d15015260008181610b510152610d7001526138196000f3fe60806040526004361061014b5760003560e01c8063715018a6116100b6578063aa1524911161006f578063aa15249114610492578063b88d4fde1461049c578063c87b56dd146104c5578063e985e9c514610502578063ee89dab41461053f578063f2fde38b1461056a5761014b565b8063715018a6146103945780637a5caab3146103ab5780638da5cb5b146103d657806395d89b4114610401578063a22cb4651461042c578063a51cccf3146104555761014b565b80633ccfd60b116101085780633ccfd60b1461028457806342842e0e1461029b5780635dacf5f4146102c45780636352211e146102ef5780636e02007d1461032c57806370a08231146103575761014b565b806301ffc9a71461015057806306fdde031461018d578063081812fc146101b8578063095ea7b3146101f557806314d808401461021e57806323b872dd1461025b575b600080fd5b34801561015c57600080fd5b506101776004803603810190610172919061238f565b610593565b60405161018491906123d7565b60405180910390f35b34801561019957600080fd5b506101a26105f4565b6040516101af9190612482565b60405180910390f35b3480156101c457600080fd5b506101df60048036038101906101da91906124da565b610686565b6040516101ec9190612548565b60405180910390f35b34801561020157600080fd5b5061021c6004803603810190610217919061258f565b6106cc565b005b34801561022a57600080fd5b50610245600480360381019061024091906124da565b6107e3565b6040516102529190612482565b60405180910390f35b34801561026757600080fd5b50610282600480360381019061027d91906125cf565b610893565b005b34801561029057600080fd5b506102996108f3565b005b3480156102a757600080fd5b506102c260048036038101906102bd91906125cf565b6109a7565b005b3480156102d057600080fd5b506102d96109c7565b6040516102e691906126cd565b60405180910390f35b3480156102fb57600080fd5b50610316600480360381019061031191906124da565b6109f2565b6040516103239190612548565b60405180910390f35b34801561033857600080fd5b50610341610a78565b60405161034e91906126f7565b60405180910390f35b34801561036357600080fd5b5061037e60048036038101906103799190612712565b610a82565b60405161038b91906126f7565b60405180910390f35b3480156103a057600080fd5b506103a9610b39565b005b3480156103b757600080fd5b506103c0610b4d565b6040516103cd91906126f7565b60405180910390f35b3480156103e257600080fd5b506103eb610b75565b6040516103f89190612548565b60405180910390f35b34801561040d57600080fd5b50610416610b9f565b6040516104239190612482565b60405180910390f35b34801561043857600080fd5b50610453600480360381019061044e919061276b565b610c31565b005b34801561046157600080fd5b5061047c600480360381019061047791906124da565b610c47565b6040516104899190612822565b60405180910390f35b61049a610d13565b005b3480156104a857600080fd5b506104c360048036038101906104be9190612972565b610f1f565b005b3480156104d157600080fd5b506104ec60048036038101906104e791906124da565b610f81565b6040516104f99190612482565b60405180910390f35b34801561050e57600080fd5b50610529600480360381019061052491906129f5565b611093565b60405161053691906123d7565b60405180910390f35b34801561054b57600080fd5b50610554611127565b60405161056191906123d7565b60405180910390f35b34801561057657600080fd5b50610591600480360381019061058c9190612712565b61113e565b005b6000634906490660e01b7bffffffffffffffffffffffffffffffffffffffffffffffffffffffff1916827bffffffffffffffffffffffffffffffffffffffffffffffffffffffff191614806105ed57506105ec826111c1565b5b9050919050565b60606000805461060390612a64565b80601f016020809104026020016040519081016040528092919081815260200182805461062f90612a64565b801561067c5780601f106106515761010080835404028352916020019161067c565b820191906000526020600020905b81548152906001019060200180831161065f57829003601f168201915b5050505050905090565b6000610691826112a3565b6004600083815260200190815260200160002060009054906101000a900473ffffffffffffffffffffffffffffffffffffffff169050919050565b60006106d7826109f2565b90508073ffffffffffffffffffffffffffffffffffffffff168373ffffffffffffffffffffffffffffffffffffffff1603610747576040517f08c379a000000000000000000000000000000000000000000000000000000000815260040161073e90612b07565b60405180910390fd5b8073ffffffffffffffffffffffffffffffffffffffff166107666112ee565b73ffffffffffffffffffffffffffffffffffffffff16148061079557506107948161078f6112ee565b611093565b5b6107d4576040517f08c379a00000000000000000000000000000000000000000000000000000000081526004016107cb90612b99565b60405180910390fd5b6107de83836112f6565b505050565b6060600982815481106107f9576107f8612bb9565b5b90600052602060002001805461080e90612a64565b80601f016020809104026020016040519081016040528092919081815260200182805461083a90612a64565b80156108875780601f1061085c57610100808354040283529160200191610887565b820191906000526020600020905b81548152906001019060200180831161086a57829003601f168201915b50505050509050919050565b6108a461089e6112ee565b826113af565b6108e3576040517f08c379a00000000000000000000000000000000000000000000000000000000081526004016108da90612c5a565b60405180910390fd5b6108ee838383611444565b505050565b6108fb61173d565b600047905060003373ffffffffffffffffffffffffffffffffffffffff168260405161092690612cab565b60006040518083038185875af1925050503d8060008114610963576040519150601f19603f3d011682016040523d82523d6000602084013e610968565b606091505b50509050806109a3576040517fca7e25b700000000000000000000000000000000000000000000000000000000815260040160405180910390fd5b5050565b6109c283838360405180602001604052806000815250610f1f565b505050565b6109cf612301565b6040518060600160405280600a8152602001602881526020016064815250905090565b6000806109fe836117bb565b9050600073ffffffffffffffffffffffffffffffffffffffff168173ffffffffffffffffffffffffffffffffffffffff1603610a6f576040517f08c379a0000000000000000000000000000000000000000000000000000000008152600401610a6690612d0c565b60405180910390fd5b80915050919050565b6000600854905090565b60008073ffffffffffffffffffffffffffffffffffffffff168273ffffffffffffffffffffffffffffffffffffffff1603610af2576040517f08c379a0000000000000000000000000000000000000000000000000000000008152600401610ae990612d9e565b60405180910390fd5b600360008373ffffffffffffffffffffffffffffffffffffffff1673ffffffffffffffffffffffffffffffffffffffff168152602001908152602001600020549050919050565b610b4161173d565b610b4b60006117f8565b565b60007f0000000000000000000000000000000000000000000000000000000000000000905090565b6000600760009054906101000a900473ffffffffffffffffffffffffffffffffffffffff16905090565b606060018054610bae90612a64565b80601f0160208091040260200160405190810160405280929190818152602001828054610bda90612a64565b8015610c275780601f10610bfc57610100808354040283529160200191610c27565b820191906000526020600020905b815481529060010190602001808311610c0a57829003601f168201915b5050505050905090565b610c43610c3c6112ee565b83836118be565b5050565b600080600090506000610c586109c7565b905060005b6003811015610cdb57828510158015610c8c5750818160038110610c8457610c83612bb9565b5b602002015185105b15610cae57806002811115610ca457610ca36127ab565b5b9350505050610d0e565b818160038110610cc157610cc0612bb9565b5b602002015192508080610cd390612ded565b915050610c5d565b506040517f12806c9d00000000000000000000000000000000000000000000000000000000815260040160405180910390fd5b919050565b7f000000000000000000000000000000000000000000000000000000000000000060085410610d6e576040517f5c0610cc00000000000000000000000000000000000000000000000000000000815260040160405180910390fd5b7f0000000000000000000000000000000000000000000000000000000000000000341015610dc8576040517fb90f491000000000000000000000000000000000000000000000000000000000815260040160405180910390fd5b6000339050600060085490506001600854610de39190612e35565b6008819055506000610df3611a2a565b90506000606482610e049190612e98565b90506000610e1182610c47565b9050610e1d8585611a6a565b610edf846009836002811115610e3657610e356127ab565b5b81548110610e4757610e46612bb9565b5b906000526020600020018054610e5c90612a64565b80601f0160208091040260200160405190810160405280929190818152602001828054610e8890612a64565b8015610ed55780601f10610eaa57610100808354040283529160200191610ed5565b820191906000526020600020905b815481529060010190602001808311610eb857829003601f168201915b5050505050611a88565b7f8a269f26b688e110e9cbd887d163dab35cae678fa353a0292de532c0cac1ecdc8186604051610f10929190612ec9565b60405180910390a15050505050565b610f30610f2a6112ee565b836113af565b610f6f576040517f08c379a0000000000000000000000000000000000000000000000000000000008152600401610f6690612c5a565b60405180910390fd5b610f7b84848484611b2c565b50505050565b6060610f8c826112a3565b6000600660008481526020019081526020016000208054610fac90612a64565b80601f0160208091040260200160405190810160405280929190818152602001828054610fd890612a64565b80156110255780601f10610ffa57610100808354040283529160200191611025565b820191906000526020600020905b81548152906001019060200180831161100857829003601f168201915b505050505090506000611036611b88565b9050600081510361104b57819250505061108e565b600082511115611080578082604051602001611068929190612f2e565b6040516020818303038152906040529250505061108e565b61108984611b9f565b925050505b919050565b6000600560008473ffffffffffffffffffffffffffffffffffffffff1673ffffffffffffffffffffffffffffffffffffffff16815260200190815260200160002060008373ffffffffffffffffffffffffffffffffffffffff1673ffffffffffffffffffffffffffffffffffffffff16815260200190815260200160002060009054906101000a900460ff16905092915050565b6000600a60009054906101000a900460ff16905090565b61114661173d565b600073ffffffffffffffffffffffffffffffffffffffff168173ffffffffffffffffffffffffffffffffffffffff16036111b5576040517f08c379a00000000000000000000000000000000000000000000000000000000081526004016111ac90612fc4565b60405180910390fd5b6111be816117f8565b50565b60007f80ac58cd000000000000000000000000000000000000000000000000000000007bffffffffffffffffffffffffffffffffffffffffffffffffffffffff1916827bffffffffffffffffffffffffffffffffffffffffffffffffffffffff1916148061128c57507f5b5e139f000000000000000000000000000000000000000000000000000000007bffffffffffffffffffffffffffffffffffffffffffffffffffffffff1916827bffffffffffffffffffffffffffffffffffffffffffffffffffffffff1916145b8061129c575061129b82611c07565b5b9050919050565b6112ac81611c71565b6112eb576040517f08c379a00000000000000000000000000000000000000000000000000000000081526004016112e290612d0c565b60405180910390fd5b50565b600033905090565b816004600083815260200190815260200160002060006101000a81548173ffffffffffffffffffffffffffffffffffffffff021916908373ffffffffffffffffffffffffffffffffffffffff160217905550808273ffffffffffffffffffffffffffffffffffffffff16611369836109f2565b73ffffffffffffffffffffffffffffffffffffffff167f8c5be1e5ebec7d5bd14f71427d1e84f3dd0314c0f7b2291e5b200ac8c7c3b92560405160405180910390a45050565b6000806113bb836109f2565b90508073ffffffffffffffffffffffffffffffffffffffff168473ffffffffffffffffffffffffffffffffffffffff1614806113fd57506113fc8185611093565b5b8061143b57508373ffffffffffffffffffffffffffffffffffffffff1661142384610686565b73ffffffffffffffffffffffffffffffffffffffff16145b91505092915050565b8273ffffffffffffffffffffffffffffffffffffffff16611464826109f2565b73ffffffffffffffffffffffffffffffffffffffff16146114ba576040517f08c379a00000000000000000000000000000000000000000000000000000000081526004016114b190613056565b60405180910390fd5b600073ffffffffffffffffffffffffffffffffffffffff168273ffffffffffffffffffffffffffffffffffffffff1603611529576040517f08c379a0000000000000000000000000000000000000000000000000000000008152600401611520906130e8565b60405180910390fd5b6115368383836001611cb2565b8273ffffffffffffffffffffffffffffffffffffffff16611556826109f2565b73ffffffffffffffffffffffffffffffffffffffff16146115ac576040517f08c379a00000000000000000000000000000000000000000000000000000000081526004016115a390613056565b60405180910390fd5b6004600082815260200190815260200160002060006101000a81549073ffffffffffffffffffffffffffffffffffffffff02191690556001600360008573ffffffffffffffffffffffffffffffffffffffff1673ffffffffffffffffffffffffffffffffffffffff168152602001908152602001600020600082825403925050819055506001600360008473ffffffffffffffffffffffffffffffffffffffff1673ffffffffffffffffffffffffffffffffffffffff16815260200190815260200160002060008282540192505081905550816002600083815260200190815260200160002060006101000a81548173ffffffffffffffffffffffffffffffffffffffff021916908373ffffffffffffffffffffffffffffffffffffffff160217905550808273ffffffffffffffffffffffffffffffffffffffff168473ffffffffffffffffffffffffffffffffffffffff167fddf252ad1be2c89b69c2b068fc378daa952ba7f163c4a11628f55a4df523b3ef60405160405180910390a46117388383836001611cb8565b505050565b6117456112ee565b73ffffffffffffffffffffffffffffffffffffffff16611763610b75565b73ffffffffffffffffffffffffffffffffffffffff16146117b9576040517f08c379a00000000000000000000000000000000000000000000000000000000081526004016117b090613154565b60405180910390fd5b565b60006002600083815260200190815260200160002060009054906101000a900473ffffffffffffffffffffffffffffffffffffffff169050919050565b6000600760009054906101000a900473ffffffffffffffffffffffffffffffffffffffff16905081600760006101000a81548173ffffffffffffffffffffffffffffffffffffffff021916908373ffffffffffffffffffffffffffffffffffffffff1602179055508173ffffffffffffffffffffffffffffffffffffffff168173ffffffffffffffffffffffffffffffffffffffff167f8be0079c531659141344cd1fd0a4f28419497f9722a3daafe3b4186f6b6457e060405160405180910390a35050565b8173ffffffffffffffffffffffffffffffffffffffff168373ffffffffffffffffffffffffffffffffffffffff160361192c576040517f08c379a0000000000000000000000000000000000000000000000000000000008152600401611923906131c0565b60405180910390fd5b80600560008573ffffffffffffffffffffffffffffffffffffffff1673ffffffffffffffffffffffffffffffffffffffff16815260200190815260200160002060008473ffffffffffffffffffffffffffffffffffffffff1673ffffffffffffffffffffffffffffffffffffffff16815260200190815260200160002060006101000a81548160ff0219169083151502179055508173ffffffffffffffffffffffffffffffffffffffff168373ffffffffffffffffffffffffffffffffffffffff167f17307eab39ab6107e8899845ad3d59bd9653f200f220920489ca2b5937696c3183604051611a1d91906123d7565b60405180910390a3505050565b6000804290506000334283604051602001611a4793929190613249565b6040516020818303038152906040528051906020012060001c9050809250505090565b611a84828260405180602001604052806000815250611cbe565b5050565b611a9182611c71565b611ad0576040517f08c379a0000000000000000000000000000000000000000000000000000000008152600401611ac7906132f8565b60405180910390fd5b80600660008481526020019081526020016000209081611af091906134c4565b507ff8e1a15aba9398e019f0b49df1a4fde98ee17ae345cb5f6b5e2c27f5033e8ce782604051611b2091906126f7565b60405180910390a15050565b611b37848484611444565b611b4384848484611d19565b611b82576040517f08c379a0000000000000000000000000000000000000000000000000000000008152600401611b7990613608565b60405180910390fd5b50505050565b606060405180602001604052806000815250905090565b6060611baa826112a3565b6000611bb4611b88565b90506000815111611bd45760405180602001604052806000815250611bff565b80611bde84611ea0565b604051602001611bef929190612f2e565b6040516020818303038152906040525b915050919050565b60007f01ffc9a7000000000000000000000000000000000000000000000000000000007bffffffffffffffffffffffffffffffffffffffffffffffffffffffff1916827bffffffffffffffffffffffffffffffffffffffffffffffffffffffff1916149050919050565b60008073ffffffffffffffffffffffffffffffffffffffff16611c93836117bb565b73ffffffffffffffffffffffffffffffffffffffff1614159050919050565b50505050565b50505050565b611cc88383611f6e565b611cd56000848484611d19565b611d14576040517f08c379a0000000000000000000000000000000000000000000000000000000008152600401611d0b90613608565b60405180910390fd5b505050565b6000611d3a8473ffffffffffffffffffffffffffffffffffffffff1661218b565b15611e93578373ffffffffffffffffffffffffffffffffffffffff1663150b7a02611d636112ee565b8786866040518563ffffffff1660e01b8152600401611d85949392919061367d565b6020604051808303816000875af1925050508015611dc157506040513d601f19601f82011682018060405250810190611dbe91906136de565b60015b611e43573d8060008114611df1576040519150601f19603f3d011682016040523d82523d6000602084013e611df6565b606091505b506000815103611e3b576040517f08c379a0000000000000000000000000000000000000000000000000000000008152600401611e3290613608565b60405180910390fd5b805181602001fd5b63150b7a0260e01b7bffffffffffffffffffffffffffffffffffffffffffffffffffffffff1916817bffffffffffffffffffffffffffffffffffffffffffffffffffffffff191614915050611e98565b600190505b949350505050565b606060006001611eaf846121ae565b01905060008167ffffffffffffffff811115611ece57611ecd612847565b5b6040519080825280601f01601f191660200182016040528015611f005781602001600182028036833780820191505090505b509050600082602001820190505b600115611f63578080600190039150507f3031323334353637383961626364656600000000000000000000000000000000600a86061a8153600a8581611f5757611f56612e69565b5b04945060008503611f0e575b819350505050919050565b600073ffffffffffffffffffffffffffffffffffffffff168273ffffffffffffffffffffffffffffffffffffffff1603611fdd576040517f08c379a0000000000000000000000000000000000000000000000000000000008152600401611fd490613757565b60405180910390fd5b611fe681611c71565b15612026576040517f08c379a000000000000000000000000000000000000000000000000000000000815260040161201d906137c3565b60405180910390fd5b612034600083836001611cb2565b61203d81611c71565b1561207d576040517f08c379a0000000000000000000000000000000000000000000000000000000008152600401612074906137c3565b60405180910390fd5b6001600360008473ffffffffffffffffffffffffffffffffffffffff1673ffffffffffffffffffffffffffffffffffffffff16815260200190815260200160002060008282540192505081905550816002600083815260200190815260200160002060006101000a81548173ffffffffffffffffffffffffffffffffffffffff021916908373ffffffffffffffffffffffffffffffffffffffff160217905550808273ffffffffffffffffffffffffffffffffffffffff16600073ffffffffffffffffffffffffffffffffffffffff167fddf252ad1be2c89b69c2b068fc378daa952ba7f163c4a11628f55a4df523b3ef60405160405180910390a4612187600083836001611cb8565b5050565b6000808273ffffffffffffffffffffffffffffffffffffffff163b119050919050565b600080600090507a184f03e93ff9f4daa797ed6e38ed64bf6a1f010000000000000000831061220c577a184f03e93ff9f4daa797ed6e38ed64bf6a1f010000000000000000838161220257612201612e69565b5b0492506040810190505b6d04ee2d6d415b85acef81000000008310612249576d04ee2d6d415b85acef8100000000838161223f5761223e612e69565b5b0492506020810190505b662386f26fc10000831061227857662386f26fc10000838161226e5761226d612e69565b5b0492506010810190505b6305f5e10083106122a1576305f5e100838161229757612296612e69565b5b0492506008810190505b61271083106122c65761271083816122bc576122bb612e69565b5b0492506004810190505b606483106122e957606483816122df576122de612e69565b5b0492506002810190505b600a83106122f8576001810190505b80915050919050565b6040518060600160405280600390602082028036833780820191505090505090565b6000604051905090565b600080fd5b600080fd5b60007fffffffff0000000000000000000000000000000000000000000000000000000082169050919050565b61236c81612337565b811461237757600080fd5b50565b60008135905061238981612363565b92915050565b6000602082840312156123a5576123a461232d565b5b60006123b38482850161237a565b91505092915050565b60008115159050919050565b6123d1816123bc565b82525050565b60006020820190506123ec60008301846123c8565b92915050565b600081519050919050565b600082825260208201905092915050565b60005b8381101561242c578082015181840152602081019050612411565b60008484015250505050565b6000601f19601f8301169050919050565b6000612454826123f2565b61245e81856123fd565b935061246e81856020860161240e565b61247781612438565b840191505092915050565b6000602082019050818103600083015261249c8184612449565b905092915050565b6000819050919050565b6124b7816124a4565b81146124c257600080fd5b50565b6000813590506124d4816124ae565b92915050565b6000602082840312156124f0576124ef61232d565b5b60006124fe848285016124c5565b91505092915050565b600073ffffffffffffffffffffffffffffffffffffffff82169050919050565b600061253282612507565b9050919050565b61254281612527565b82525050565b600060208201905061255d6000830184612539565b92915050565b61256c81612527565b811461257757600080fd5b50565b60008135905061258981612563565b92915050565b600080604083850312156125a6576125a561232d565b5b60006125b48582860161257a565b92505060206125c5858286016124c5565b9150509250929050565b6000806000606084860312156125e8576125e761232d565b5b60006125f68682870161257a565b93505060206126078682870161257a565b9250506040612618868287016124c5565b9150509250925092565b600060039050919050565b600081905092915050565b6000819050919050565b61264b816124a4565b82525050565b600061265d8383612642565b60208301905092915050565b6000602082019050919050565b61267f81612622565b612689818461262d565b925061269482612638565b8060005b838110156126c55781516126ac8782612651565b96506126b783612669565b925050600181019050612698565b505050505050565b60006060820190506126e26000830184612676565b92915050565b6126f1816124a4565b82525050565b600060208201905061270c60008301846126e8565b92915050565b6000602082840312156127285761272761232d565b5b60006127368482850161257a565b91505092915050565b612748816123bc565b811461275357600080fd5b50565b6000813590506127658161273f565b92915050565b600080604083850312156127825761278161232d565b5b60006127908582860161257a565b92505060206127a185828601612756565b9150509250929050565b7f4e487b7100000000000000000000000000000000000000000000000000000000600052602160045260246000fd5b600381106127eb576127ea6127ab565b5b50565b60008190506127fc826127da565b919050565b600061280c826127ee565b9050919050565b61281c81612801565b82525050565b60006020820190506128376000830184612813565b92915050565b600080fd5b600080fd5b7f4e487b7100000000000000000000000000000000000000000000000000000000600052604160045260246000fd5b61287f82612438565b810181811067ffffffffffffffff8211171561289e5761289d612847565b5b80604052505050565b60006128b1612323565b90506128bd8282612876565b919050565b600067ffffffffffffffff8211156128dd576128dc612847565b5b6128e682612438565b9050602081019050919050565b82818337600083830152505050565b6000612915612910846128c2565b6128a7565b90508281526020810184848401111561293157612930612842565b5b61293c8482856128f3565b509392505050565b600082601f8301126129595761295861283d565b5b8135612969848260208601612902565b91505092915050565b6000806000806080858703121561298c5761298b61232d565b5b600061299a8782880161257a565b94505060206129ab8782880161257a565b93505060406129bc878288016124c5565b925050606085013567ffffffffffffffff8111156129dd576129dc612332565b5b6129e987828801612944565b91505092959194509250565b60008060408385031215612a0c57612a0b61232d565b5b6000612a1a8582860161257a565b9250506020612a2b8582860161257a565b9150509250929050565b7f4e487b7100000000000000000000000000000000000000000000000000000000600052602260045260246000fd5b60006002820490506001821680612a7c57607f821691505b602082108103612a8f57612a8e612a35565b5b50919050565b7f4552433732313a20617070726f76616c20746f2063757272656e74206f776e6560008201527f7200000000000000000000000000000000000000000000000000000000000000602082015250565b6000612af16021836123fd565b9150612afc82612a95565b604082019050919050565b60006020820190508181036000830152612b2081612ae4565b9050919050565b7f4552433732313a20617070726f76652063616c6c6572206973206e6f7420746f60008201527f6b656e206f776e6572206f7220617070726f76656420666f7220616c6c000000602082015250565b6000612b83603d836123fd565b9150612b8e82612b27565b604082019050919050565b60006020820190508181036000830152612bb281612b76565b9050919050565b7f4e487b7100000000000000000000000000000000000000000000000000000000600052603260045260246000fd5b7f4552433732313a2063616c6c6572206973206e6f7420746f6b656e206f776e6560008201527f72206f7220617070726f76656400000000000000000000000000000000000000602082015250565b6000612c44602d836123fd565b9150612c4f82612be8565b604082019050919050565b60006020820190508181036000830152612c7381612c37565b9050919050565b600081905092915050565b50565b6000612c95600083612c7a565b9150612ca082612c85565b600082019050919050565b6000612cb682612c88565b9150819050919050565b7f4552433732313a20696e76616c696420746f6b656e2049440000000000000000600082015250565b6000612cf66018836123fd565b9150612d0182612cc0565b602082019050919050565b60006020820190508181036000830152612d2581612ce9565b9050919050565b7f4552433732313a2061646472657373207a65726f206973206e6f74206120766160008201527f6c6964206f776e65720000000000000000000000000000000000000000000000602082015250565b6000612d886029836123fd565b9150612d9382612d2c565b604082019050919050565b60006020820190508181036000830152612db781612d7b565b9050919050565b7f4e487b7100000000000000000000000000000000000000000000000000000000600052601160045260246000fd5b6000612df8826124a4565b91507fffffffffffffffffffffffffffffffffffffffffffffffffffffffffffffffff8203612e2a57612e29612dbe565b5b600182019050919050565b6000612e40826124a4565b9150612e4b836124a4565b9250828201905080821115612e6357612e62612dbe565b5b92915050565b7f4e487b7100000000000000000000000000000000000000000000000000000000600052601260045260246000fd5b6000612ea3826124a4565b9150612eae836124a4565b925082612ebe57612ebd612e69565b5b828206905092915050565b6000604082019050612ede6000830185612813565b612eeb6020830184612539565b9392505050565b600081905092915050565b6000612f08826123f2565b612f128185612ef2565b9350612f2281856020860161240e565b80840191505092915050565b6000612f3a8285612efd565b9150612f468284612efd565b91508190509392505050565b7f4f776e61626c653a206e6577206f776e657220697320746865207a65726f206160008201527f6464726573730000000000000000000000000000000000000000000000000000602082015250565b6000612fae6026836123fd565b9150612fb982612f52565b604082019050919050565b60006020820190508181036000830152612fdd81612fa1565b9050919050565b7f4552433732313a207472616e736665722066726f6d20696e636f72726563742060008201527f6f776e6572000000000000000000000000000000000000000000000000000000602082015250565b60006130406025836123fd565b915061304b82612fe4565b604082019050919050565b6000602082019050818103600083015261306f81613033565b9050919050565b7f4552433732313a207472616e7366657220746f20746865207a65726f2061646460008201527f7265737300000000000000000000000000000000000000000000000000000000602082015250565b60006130d26024836123fd565b91506130dd82613076565b604082019050919050565b60006020820190508181036000830152613101816130c5565b9050919050565b7f4f776e61626c653a2063616c6c6572206973206e6f7420746865206f776e6572600082015250565b600061313e6020836123fd565b915061314982613108565b602082019050919050565b6000602082019050818103600083015261316d81613131565b9050919050565b7f4552433732313a20617070726f766520746f2063616c6c657200000000000000600082015250565b60006131aa6019836123fd565b91506131b582613174565b602082019050919050565b600060208201905081810360008301526131d98161319d565b9050919050565b60008160601b9050919050565b60006131f8826131e0565b9050919050565b600061320a826131ed565b9050919050565b61322261321d82612527565b6131ff565b82525050565b6000819050919050565b61324361323e826124a4565b613228565b82525050565b60006132558286613211565b6014820191506132658285613232565b6020820191506132758284613232565b602082019150819050949350505050565b7f45524337323155524953746f726167653a2055524920736574206f66206e6f6e60008201527f6578697374656e7420746f6b656e000000000000000000000000000000000000602082015250565b60006132e2602e836123fd565b91506132ed82613286565b604082019050919050565b60006020820190508181036000830152613311816132d5565b9050919050565b60008190508160005260206000209050919050565b60006020601f8301049050919050565b600082821b905092915050565b60006008830261337a7fffffffffffffffffffffffffffffffffffffffffffffffffffffffffffffffff8261333d565b613384868361333d565b95508019841693508086168417925050509392505050565b6000819050919050565b60006133c16133bc6133b7846124a4565b61339c565b6124a4565b9050919050565b6000819050919050565b6133db836133a6565b6133ef6133e7826133c8565b84845461334a565b825550505050565b600090565b6134046133f7565b61340f8184846133d2565b505050565b5b81811015613433576134286000826133fc565b600181019050613415565b5050565b601f8211156134785761344981613318565b6134528461332d565b81016020851015613461578190505b61347561346d8561332d565b830182613414565b50505b505050565b600082821c905092915050565b600061349b6000198460080261347d565b1980831691505092915050565b60006134b4838361348a565b9150826002028217905092915050565b6134cd826123f2565b67ffffffffffffffff8111156134e6576134e5612847565b5b6134f08254612a64565b6134fb828285613437565b600060209050601f83116001811461352e576000841561351c578287015190505b61352685826134a8565b86555061358e565b601f19841661353c86613318565b60005b828110156135645784890151825560018201915060208501945060208101905061353f565b86831015613581578489015161357d601f89168261348a565b8355505b6001600288020188555050505b505050505050565b7f4552433732313a207472616e7366657220746f206e6f6e20455243373231526560008201527f63656976657220696d706c656d656e7465720000000000000000000000000000602082015250565b60006135f26032836123fd565b91506135fd82613596565b604082019050919050565b60006020820190508181036000830152613621816135e5565b9050919050565b600081519050919050565b600082825260208201905092915050565b600061364f82613628565b6136598185613633565b935061366981856020860161240e565b61367281612438565b840191505092915050565b60006080820190506136926000830187612539565b61369f6020830186612539565b6136ac60408301856126e8565b81810360608301526136be8184613644565b905095945050505050565b6000815190506136d881612363565b92915050565b6000602082840312156136f4576136f361232d565b5b6000613702848285016136c9565b91505092915050565b7f4552433732313a206d696e7420746f20746865207a65726f2061646472657373600082015250565b60006137416020836123fd565b915061374c8261370b565b602082019050919050565b6000602082019050818103600083015261377081613734565b9050919050565b7f4552433732313a20746f6b656e20616c7265616479206d696e74656400000000600082015250565b60006137ad601c836123fd565b91506137b882613777565b602082019050919050565b600060208201905081810360008301526137dc816137a0565b905091905056fea2646970667358221220ef20fac6040cc7011da7434abdd94bd1f3bad4b30cdfccdfc15b903be2a451a064736f6c63430008120033",
  "linkReferences": {},
  "deployedLinkReferences": {}
}