{
  "_format": "hh-sol-artifact-1",
  "contractName": "WarriorNft",
  "sourceName": "contracts/test/WarriorNft.sol",
  "abi": [
    {
      "inputs": [
        {
          "internalType": "uint256",
          "name": "mintFee",
          "type": "uint256"
        },
        {
          "internalType": "uint256",
          "name": "maxSupply",
          "type": "uint256"
        }
      ],
      "stateMutability": "nonpayable",
      "type": "constructor"
    },
    {
      "inputs": [],
      "name": "WarriorNft__AlreadyInitialized",
      "type": "error"
    },
    {
      "inputs": [],
      "name": "WarriorNft__InvalidAirdrop",
      "type": "error"
    },
    {
      "inputs": [],
      "name": "WarriorNft__MaxSupplyReached",
      "type": "error"
    },
    {
      "inputs": [],
      "name": "WarriorNft__NeedMoreETHSent",
      "type": "error"
    },
    {
      "inputs": [],
      "name": "WarriorNft__RangeOutOfBounds",
      "type": "error"
    },
    {
      "inputs": [],
      "name": "WarriorNft__SoldOut",
      "type": "error"
    },
    {
      "inputs": [],
      "name": "WarriorNft__TransferFailed",
      "type": "error"
    },
    {
      "anonymous": false,
      "inputs": [
        {
          "indexed": true,
          "internalType": "address",
          "name": "owner",
          "type": "address"
        },
        {
          "indexed": true,
          "internalType": "address",
          "name": "approved",
          "type": "address"
        },
        {
          "indexed": true,
          "internalType": "uint256",
          "name": "tokenId",
          "type": "uint256"
        }
      ],
      "name": "Approval",
      "type": "event"
    },
    {
      "anonymous": false,
      "inputs": [
        {
          "indexed": true,
          "internalType": "address",
          "name": "owner",
          "type": "address"
        },
        {
          "indexed": true,
          "internalType": "address",
          "name": "operator",
          "type": "address"
        },
        {
          "indexed": false,
          "internalType": "bool",
          "name": "approved",
          "type": "bool"
        }
      ],
      "name": "ApprovalForAll",
      "type": "event"
    },
    {
      "anonymous": false,
      "inputs": [
        {
          "indexed": false,
          "internalType": "uint256",
          "name": "_fromTokenId",
          "type": "uint256"
        },
        {
          "indexed": false,
          "internalType": "uint256",
          "name": "_toTokenId",
          "type": "uint256"
        }
      ],
      "name": "BatchMetadataUpdate",
      "type": "event"
    },
    {
      "anonymous": false,
      "inputs": [
        {
          "indexed": false,
          "internalType": "uint256",
          "name": "_tokenId",
          "type": "uint256"
        }
      ],
      "name": "MetadataUpdate",
      "type": "event"
    },
    {
      "anonymous": false,
      "inputs": [
        {
          "indexed": false,
          "internalType": "uint256",
          "name": "tokenId",
          "type": "uint256"
        },
        {
          "indexed": false,
          "internalType": "address",
          "name": "minter",
          "type": "address"
        }
      ],
      "name": "NftMinted",
      "type": "event"
    },
    {
      "anonymous": false,
      "inputs": [
        {
          "indexed": true,
          "internalType": "address",
          "name": "previousOwner",
          "type": "address"
        },
        {
          "indexed": true,
          "internalType": "address",
          "name": "newOwner",
          "type": "address"
        }
      ],
      "name": "OwnershipTransferred",
      "type": "event"
    },
    {
      "anonymous": false,
      "inputs": [
        {
          "indexed": false,
          "internalType": "uint256",
          "name": "numRecipients",
          "type": "uint256"
        },
        {
          "indexed": false,
          "internalType": "uint256",
          "name": "numTokens",
          "type": "uint256"
        }
      ],
      "name": "TokensAirdropped",
      "type": "event"
    },
    {
      "anonymous": false,
      "inputs": [
        {
          "indexed": true,
          "internalType": "address",
          "name": "from",
          "type": "address"
        },
        {
          "indexed": true,
          "internalType": "address",
          "name": "to",
          "type": "address"
        },
        {
          "indexed": true,
          "internalType": "uint256",
          "name": "tokenId",
          "type": "uint256"
        }
      ],
      "name": "Transfer",
      "type": "event"
    },
    {
      "inputs": [],
      "name": "NOT_REVEALED_URI",
      "outputs": [
        {
          "internalType": "string",
          "name": "",
          "type": "string"
        }
      ],
      "stateMutability": "view",
      "type": "function"
    },
    {
      "inputs": [
        {
          "internalType": "string[10]",
          "name": "genTokenUris",
          "type": "string[10]"
        }
      ],
      "name": "_initializeContract",
      "outputs": [],
      "stateMutability": "nonpayable",
      "type": "function"
    },
    {
      "inputs": [
        {
          "internalType": "uint64[]",
          "name": "quantity",
          "type": "uint64[]"
        },
        {
          "internalType": "address[]",
          "name": "recipients",
          "type": "address[]"
        }
      ],
      "name": "airdropToken",
      "outputs": [],
      "stateMutability": "nonpayable",
      "type": "function"
    },
    {
      "inputs": [
        {
          "internalType": "address",
          "name": "to",
          "type": "address"
        },
        {
          "internalType": "uint256",
          "name": "tokenId",
          "type": "uint256"
        }
      ],
      "name": "approve",
      "outputs": [],
      "stateMutability": "nonpayable",
      "type": "function"
    },
    {
      "inputs": [
        {
          "internalType": "address",
          "name": "owner",
          "type": "address"
        }
      ],
      "name": "balanceOf",
      "outputs": [
        {
          "internalType": "uint256",
          "name": "",
          "type": "uint256"
        }
      ],
      "stateMutability": "view",
      "type": "function"
    },
    {
      "inputs": [
        {
          "internalType": "uint256",
          "name": "tokenId",
          "type": "uint256"
        }
      ],
      "name": "getApproved",
      "outputs": [
        {
          "internalType": "address",
          "name": "",
          "type": "address"
        }
      ],
      "stateMutability": "view",
      "type": "function"
    },
    {
      "inputs": [],
      "name": "getInitialized",
      "outputs": [
        {
          "internalType": "bool",
          "name": "",
          "type": "bool"
        }
      ],
      "stateMutability": "view",
      "type": "function"
    },
    {
      "inputs": [],
      "name": "getMintFee",
      "outputs": [
        {
          "internalType": "uint256",
          "name": "",
          "type": "uint256"
        }
      ],
      "stateMutability": "view",
      "type": "function"
    },
    {
      "inputs": [],
      "name": "getTokenCounter",
      "outputs": [
        {
          "internalType": "uint256",
          "name": "",
          "type": "uint256"
        }
      ],
      "stateMutability": "view",
      "type": "function"
    },
    {
      "inputs": [
        {
          "internalType": "address",
          "name": "owner",
          "type": "address"
        },
        {
          "internalType": "address",
          "name": "operator",
          "type": "address"
        }
      ],
      "name": "isApprovedForAll",
      "outputs": [
        {
          "internalType": "bool",
          "name": "",
          "type": "bool"
        }
      ],
      "stateMutability": "view",
      "type": "function"
    },
    {
      "inputs": [],
      "name": "mintNft",
      "outputs": [],
      "stateMutability": "payable",
      "type": "function"
    },
    {
      "inputs": [],
      "name": "name",
      "outputs": [
        {
          "internalType": "string",
          "name": "",
          "type": "string"
        }
      ],
      "stateMutability": "view",
      "type": "function"
    },
    {
      "inputs": [],
      "name": "owner",
      "outputs": [
        {
          "internalType": "address",
          "name": "",
          "type": "address"
        }
      ],
      "stateMutability": "view",
      "type": "function"
    },
    {
      "inputs": [
        {
          "internalType": "uint256",
          "name": "tokenId",
          "type": "uint256"
        }
      ],
      "name": "ownerOf",
      "outputs": [
        {
          "internalType": "address",
          "name": "",
          "type": "address"
        }
      ],
      "stateMutability": "view",
      "type": "function"
    },
    {
      "inputs": [],
      "name": "renounceOwnership",
      "outputs": [],
      "stateMutability": "nonpayable",
      "type": "function"
    },
    {
      "inputs": [],
      "name": "reveal",
      "outputs": [],
      "stateMutability": "nonpayable",
      "type": "function"
    },
    {
      "inputs": [],
      "name": "revealed",
      "outputs": [
        {
          "internalType": "bool",
          "name": "",
          "type": "bool"
        }
      ],
      "stateMutability": "view",
      "type": "function"
    },
    {
      "inputs": [
        {
          "internalType": "address",
          "name": "from",
          "type": "address"
        },
        {
          "internalType": "address",
          "name": "to",
          "type": "address"
        },
        {
          "internalType": "uint256",
          "name": "tokenId",
          "type": "uint256"
        }
      ],
      "name": "safeTransferFrom",
      "outputs": [],
      "stateMutability": "nonpayable",
      "type": "function"
    },
    {
      "inputs": [
        {
          "internalType": "address",
          "name": "from",
          "type": "address"
        },
        {
          "internalType": "address",
          "name": "to",
          "type": "address"
        },
        {
          "internalType": "uint256",
          "name": "tokenId",
          "type": "uint256"
        },
        {
          "internalType": "bytes",
          "name": "data",
          "type": "bytes"
        }
      ],
      "name": "safeTransferFrom",
      "outputs": [],
      "stateMutability": "nonpayable",
      "type": "function"
    },
    {
      "inputs": [
        {
          "internalType": "address",
          "name": "operator",
          "type": "address"
        },
        {
          "internalType": "bool",
          "name": "approved",
          "type": "bool"
        }
      ],
      "name": "setApprovalForAll",
      "outputs": [],
      "stateMutability": "nonpayable",
      "type": "function"
    },
    {
      "inputs": [
        {
          "internalType": "bytes4",
          "name": "interfaceId",
          "type": "bytes4"
        }
      ],
      "name": "supportsInterface",
      "outputs": [
        {
          "internalType": "bool",
          "name": "",
          "type": "bool"
        }
      ],
      "stateMutability": "view",
      "type": "function"
    },
    {
      "inputs": [],
      "name": "symbol",
      "outputs": [
        {
          "internalType": "string",
          "name": "",
          "type": "string"
        }
      ],
      "stateMutability": "view",
      "type": "function"
    },
    {
      "inputs": [
        {
          "internalType": "uint256",
          "name": "tokenId",
          "type": "uint256"
        }
      ],
      "name": "tokenURI",
      "outputs": [
        {
          "internalType": "string",
          "name": "",
          "type": "string"
        }
      ],
      "stateMutability": "view",
      "type": "function"
    },
    {
      "inputs": [
        {
          "internalType": "address",
          "name": "from",
          "type": "address"
        },
        {
          "internalType": "address",
          "name": "to",
          "type": "address"
        },
        {
          "internalType": "uint256",
          "name": "tokenId",
          "type": "uint256"
        }
      ],
      "name": "transferFrom",
      "outputs": [],
      "stateMutability": "nonpayable",
      "type": "function"
    },
    {
      "inputs": [
        {
          "internalType": "address",
          "name": "newOwner",
          "type": "address"
        }
      ],
      "name": "transferOwnership",
      "outputs": [],
      "stateMutability": "nonpayable",
      "type": "function"
    },
    {
      "inputs": [],
      "name": "withdraw",
      "outputs": [],
      "stateMutability": "nonpayable",
      "type": "function"
    }
  ],
  "bytecode": "0x60c06040526000600960016101000a81548160ff0219169083151502179055503480156200002c57600080fd5b5060405162003d3038038062003d30833981810160405281019062000052919062000254565b6040518060400160405280600781526020017f57617272696f72000000000000000000000000000000000000000000000000008152506040518060400160405280600481526020017f5741494f000000000000000000000000000000000000000000000000000000008152508160009081620000cf91906200050b565b508060019081620000e191906200050b565b50505062000104620000f86200014660201b60201c565b6200014e60201b60201c565b81608081815250506000600760146101000a81548167ffffffffffffffff021916908367ffffffffffffffff1602179055508060a081815250505050620005f2565b600033905090565b6000600760009054906101000a900473ffffffffffffffffffffffffffffffffffffffff16905081600760006101000a81548173ffffffffffffffffffffffffffffffffffffffff021916908373ffffffffffffffffffffffffffffffffffffffff1602179055508173ffffffffffffffffffffffffffffffffffffffff168173ffffffffffffffffffffffffffffffffffffffff167f8be0079c531659141344cd1fd0a4f28419497f9722a3daafe3b4186f6b6457e060405160405180910390a35050565b600080fd5b6000819050919050565b6200022e8162000219565b81146200023a57600080fd5b50565b6000815190506200024e8162000223565b92915050565b600080604083850312156200026e576200026d62000214565b5b60006200027e858286016200023d565b925050602062000291858286016200023d565b9150509250929050565b600081519050919050565b7f4e487b7100000000000000000000000000000000000000000000000000000000600052604160045260246000fd5b7f4e487b7100000000000000000000000000000000000000000000000000000000600052602260045260246000fd5b600060028204905060018216806200031d57607f821691505b602082108103620003335762000332620002d5565b5b50919050565b60008190508160005260206000209050919050565b60006020601f8301049050919050565b600082821b905092915050565b6000600883026200039d7fffffffffffffffffffffffffffffffffffffffffffffffffffffffffffffffff826200035e565b620003a986836200035e565b95508019841693508086168417925050509392505050565b6000819050919050565b6000620003ec620003e6620003e08462000219565b620003c1565b62000219565b9050919050565b6000819050919050565b6200040883620003cb565b620004206200041782620003f3565b8484546200036b565b825550505050565b600090565b6200043762000428565b62000444818484620003fd565b505050565b5b818110156200046c57620004606000826200042d565b6001810190506200044a565b5050565b601f821115620004bb57620004858162000339565b62000490846200034e565b81016020851015620004a0578190505b620004b8620004af856200034e565b83018262000449565b50505b505050565b600082821c905092915050565b6000620004e060001984600802620004c0565b1980831691505092915050565b6000620004fb8383620004cd565b9150826002028217905092915050565b62000516826200029b565b67ffffffffffffffff811115620005325762000531620002a6565b5b6200053e825462000304565b6200054b82828562000470565b600060209050601f8311600181146200058357600084156200056e578287015190505b6200057a8582620004ed565b865550620005ea565b601f198416620005938662000339565b60005b82811015620005bd5784890151825560018201915060208501945060208101905062000596565b86831015620005dd5784890151620005d9601f891682620004cd565b8355505b6001600288020188555050505b505050505050565b60805160a05161370a6200062660003960008181610bd90152610e7f015260008181610af70152610ef8015261370a6000f3fe6080604052600436106101815760003560e01c80638d22a5ce116100d1578063c2229fea1161008a578063ed99e1e211610064578063ed99e1e21461053b578063ee89dab414610566578063f0ccd4d714610591578063f2fde38b146105ba57610181565b8063c2229fea146104b7578063c87b56dd146104c1578063e985e9c5146104fe57610181565b80638d22a5ce146103cf5780638da5cb5b146103f857806395d89b4114610423578063a22cb4651461044e578063a475b5dd14610477578063b88d4fde1461048e57610181565b806342842e0e1161013e5780636e02007d116101185780636e02007d1461032557806370a0823114610350578063715018a61461038d5780637a5caab3146103a457610181565b806342842e0e1461029457806351830227146102bd5780636352211e146102e857610181565b806301ffc9a71461018657806306fdde03146101c3578063081812fc146101ee578063095ea7b31461022b57806323b872dd146102545780633ccfd60b1461027d575b600080fd5b34801561019257600080fd5b506101ad60048036038101906101a89190612221565b6105e3565b6040516101ba9190612269565b60405180910390f35b3480156101cf57600080fd5b506101d8610644565b6040516101e59190612314565b60405180910390f35b3480156101fa57600080fd5b506102156004803603810190610210919061236c565b6106d6565b60405161022291906123da565b60405180910390f35b34801561023757600080fd5b50610252600480360381019061024d9190612421565b61071c565b005b34801561026057600080fd5b5061027b60048036038101906102769190612461565b610833565b005b34801561028957600080fd5b50610292610893565b005b3480156102a057600080fd5b506102bb60048036038101906102b69190612461565b610947565b005b3480156102c957600080fd5b506102d2610967565b6040516102df9190612269565b60405180910390f35b3480156102f457600080fd5b5061030f600480360381019061030a919061236c565b61097a565b60405161031c91906123da565b60405180910390f35b34801561033157600080fd5b5061033a610a00565b60405161034791906124c3565b60405180910390f35b34801561035c57600080fd5b50610377600480360381019061037291906124de565b610a28565b60405161038491906124c3565b60405180910390f35b34801561039957600080fd5b506103a2610adf565b005b3480156103b057600080fd5b506103b9610af3565b6040516103c691906124c3565b60405180910390f35b3480156103db57600080fd5b506103f660048036038101906103f191906125c6565b610b1b565b005b34801561040457600080fd5b5061040d610d24565b60405161041a91906123da565b60405180910390f35b34801561042f57600080fd5b50610438610d4e565b6040516104459190612314565b60405180910390f35b34801561045a57600080fd5b5061047560048036038101906104709190612673565b610de0565b005b34801561048357600080fd5b5061048c610df6565b005b34801561049a57600080fd5b506104b560048036038101906104b091906127e3565b610e1b565b005b6104bf610e7d565b005b3480156104cd57600080fd5b506104e860048036038101906104e3919061236c565b61100c565b6040516104f59190612314565b60405180910390f35b34801561050a57600080fd5b5061052560048036038101906105209190612866565b6110a6565b6040516105329190612269565b60405180910390f35b34801561054757600080fd5b5061055061113a565b60405161055d9190612314565b60405180910390f35b34801561057257600080fd5b5061057b611156565b6040516105889190612269565b60405180910390f35b34801561059d57600080fd5b506105b860048036038101906105b39190612a16565b61116d565b005b3480156105c657600080fd5b506105e160048036038101906105dc91906124de565b6111ec565b005b6000634906490660e01b7bffffffffffffffffffffffffffffffffffffffffffffffffffffffff1916827bffffffffffffffffffffffffffffffffffffffffffffffffffffffff1916148061063d575061063c8261126f565b5b9050919050565b60606000805461065390612a8e565b80601f016020809104026020016040519081016040528092919081815260200182805461067f90612a8e565b80156106cc5780601f106106a1576101008083540402835291602001916106cc565b820191906000526020600020905b8154815290600101906020018083116106af57829003601f168201915b5050505050905090565b60006106e182611351565b6004600083815260200190815260200160002060009054906101000a900473ffffffffffffffffffffffffffffffffffffffff169050919050565b60006107278261097a565b90508073ffffffffffffffffffffffffffffffffffffffff168373ffffffffffffffffffffffffffffffffffffffff1603610797576040517f08c379a000000000000000000000000000000000000000000000000000000000815260040161078e90612b31565b60405180910390fd5b8073ffffffffffffffffffffffffffffffffffffffff166107b661139c565b73ffffffffffffffffffffffffffffffffffffffff1614806107e557506107e4816107df61139c565b6110a6565b5b610824576040517f08c379a000000000000000000000000000000000000000000000000000000000815260040161081b90612bc3565b60405180910390fd5b61082e83836113a4565b505050565b61084461083e61139c565b8261145d565b610883576040517f08c379a000000000000000000000000000000000000000000000000000000000815260040161087a90612c55565b60405180910390fd5b61088e8383836114f2565b505050565b61089b6117eb565b600047905060003373ffffffffffffffffffffffffffffffffffffffff16826040516108c690612ca6565b60006040518083038185875af1925050503d8060008114610903576040519150601f19603f3d011682016040523d82523d6000602084013e610908565b606091505b5050905080610943576040517faa8b9cf700000000000000000000000000000000000000000000000000000000815260040160405180910390fd5b5050565b61096283838360405180602001604052806000815250610e1b565b505050565b600960019054906101000a900460ff1681565b60008061098683611869565b9050600073ffffffffffffffffffffffffffffffffffffffff168173ffffffffffffffffffffffffffffffffffffffff16036109f7576040517f08c379a00000000000000000000000000000000000000000000000000000000081526004016109ee90612d07565b60405180910390fd5b80915050919050565b6000600760149054906101000a900467ffffffffffffffff1667ffffffffffffffff16905090565b60008073ffffffffffffffffffffffffffffffffffffffff168273ffffffffffffffffffffffffffffffffffffffff1603610a98576040517f08c379a0000000000000000000000000000000000000000000000000000000008152600401610a8f90612d99565b60405180910390fd5b600360008373ffffffffffffffffffffffffffffffffffffffff1673ffffffffffffffffffffffffffffffffffffffff168152602001908152602001600020549050919050565b610ae76117eb565b610af160006118a6565b565b60007f0000000000000000000000000000000000000000000000000000000000000000905090565b610b236117eb565b60008282905090506000858590508214610b69576040517f7ac4bba900000000000000000000000000000000000000000000000000000000815260040160405180910390fd5b60005b82811015610ce25760005b878783818110610b8a57610b89612db9565b5b9050602002016020810190610b9f9190612e28565b67ffffffffffffffff16811015610cd65760006001600760149054906101000a900467ffffffffffffffff16610bd59190612e84565b90507f00000000000000000000000000000000000000000000000000000000000000008167ffffffffffffffff161115610c3b576040517fdd05d6d600000000000000000000000000000000000000000000000000000000815260040160405180910390fd5b80600760146101000a81548167ffffffffffffffff021916908367ffffffffffffffff160217905550600184610c719190612ec0565b93506000600760149054906101000a900467ffffffffffffffff1667ffffffffffffffff169050610cc9888886818110610cae57610cad612db9565b5b9050602002016020810190610cc391906124de565b8261196c565b8260010192505050610b77565b50806001019050610b6c565b507f71cc7095cc35ed4701c217a8efb440732eb0737da67f6548c008ac26fba954648282604051610d14929190612ef4565b60405180910390a1505050505050565b6000600760009054906101000a900473ffffffffffffffffffffffffffffffffffffffff16905090565b606060018054610d5d90612a8e565b80601f0160208091040260200160405190810160405280929190818152602001828054610d8990612a8e565b8015610dd65780601f10610dab57610100808354040283529160200191610dd6565b820191906000526020600020905b815481529060010190602001808311610db957829003601f168201915b5050505050905090565b610df2610deb61139c565b838361198a565b5050565b610dfe6117eb565b6001600960016101000a81548160ff021916908315150217905550565b610e2c610e2661139c565b8361145d565b610e6b576040517f08c379a0000000000000000000000000000000000000000000000000000000008152600401610e6290612c55565b60405180910390fd5b610e7784848484611af6565b50505050565b7f0000000000000000000000000000000000000000000000000000000000000000600760149054906101000a900467ffffffffffffffff1667ffffffffffffffff1610610ef6576040517fde02aad600000000000000000000000000000000000000000000000000000000815260040160405180910390fd5b7f0000000000000000000000000000000000000000000000000000000000000000341015610f50576040517f44d2294d00000000000000000000000000000000000000000000000000000000815260040160405180910390fd5b60003390506000600760149054906101000a900467ffffffffffffffff1667ffffffffffffffff1690506001600760149054906101000a900467ffffffffffffffff16610f9d9190612e84565b600760146101000a81548167ffffffffffffffff021916908367ffffffffffffffff160217905550610fcf828261196c565b7f769eff512f395b679667e0062a0e31dad5d22dbc7e6b87f16c3de7e85e6634608183604051611000929190612f1d565b60405180910390a15050565b60606000151561101b83611b52565b151503611054576040517f4906322a00000000000000000000000000000000000000000000000000000000815260040160405180910390fd5b60001515600960019054906101000a900460ff1615150361108f576040518060600160405280603581526020016136a06035913990506110a1565b600061109a83611b93565b9050809150505b919050565b6000600560008473ffffffffffffffffffffffffffffffffffffffff1673ffffffffffffffffffffffffffffffffffffffff16815260200190815260200160002060008373ffffffffffffffffffffffffffffffffffffffff1673ffffffffffffffffffffffffffffffffffffffff16815260200190815260200160002060009054906101000a900460ff16905092915050565b6040518060600160405280603581526020016136a06035913981565b6000600960009054906101000a900460ff16905090565b6111756117eb565b600960009054906101000a900460ff16156111bc576040517fc31f25df00000000000000000000000000000000000000000000000000000000815260040160405180910390fd5b80600890600a6111cd9291906120db565b506001600960006101000a81548160ff02191690831515021790555050565b6111f46117eb565b600073ffffffffffffffffffffffffffffffffffffffff168173ffffffffffffffffffffffffffffffffffffffff1603611263576040517f08c379a000000000000000000000000000000000000000000000000000000000815260040161125a90612fb8565b60405180910390fd5b61126c816118a6565b50565b60007f80ac58cd000000000000000000000000000000000000000000000000000000007bffffffffffffffffffffffffffffffffffffffffffffffffffffffff1916827bffffffffffffffffffffffffffffffffffffffffffffffffffffffff1916148061133a57507f5b5e139f000000000000000000000000000000000000000000000000000000007bffffffffffffffffffffffffffffffffffffffffffffffffffffffff1916827bffffffffffffffffffffffffffffffffffffffffffffffffffffffff1916145b8061134a575061134982611c43565b5b9050919050565b61135a81611b52565b611399576040517f08c379a000000000000000000000000000000000000000000000000000000000815260040161139090612d07565b60405180910390fd5b50565b600033905090565b816004600083815260200190815260200160002060006101000a81548173ffffffffffffffffffffffffffffffffffffffff021916908373ffffffffffffffffffffffffffffffffffffffff160217905550808273ffffffffffffffffffffffffffffffffffffffff166114178361097a565b73ffffffffffffffffffffffffffffffffffffffff167f8c5be1e5ebec7d5bd14f71427d1e84f3dd0314c0f7b2291e5b200ac8c7c3b92560405160405180910390a45050565b6000806114698361097a565b90508073ffffffffffffffffffffffffffffffffffffffff168473ffffffffffffffffffffffffffffffffffffffff1614806114ab57506114aa81856110a6565b5b806114e957508373ffffffffffffffffffffffffffffffffffffffff166114d1846106d6565b73ffffffffffffffffffffffffffffffffffffffff16145b91505092915050565b8273ffffffffffffffffffffffffffffffffffffffff166115128261097a565b73ffffffffffffffffffffffffffffffffffffffff1614611568576040517f08c379a000000000000000000000000000000000000000000000000000000000815260040161155f9061304a565b60405180910390fd5b600073ffffffffffffffffffffffffffffffffffffffff168273ffffffffffffffffffffffffffffffffffffffff16036115d7576040517f08c379a00000000000000000000000000000000000000000000000000000000081526004016115ce906130dc565b60405180910390fd5b6115e48383836001611cad565b8273ffffffffffffffffffffffffffffffffffffffff166116048261097a565b73ffffffffffffffffffffffffffffffffffffffff161461165a576040517f08c379a00000000000000000000000000000000000000000000000000000000081526004016116519061304a565b60405180910390fd5b6004600082815260200190815260200160002060006101000a81549073ffffffffffffffffffffffffffffffffffffffff02191690556001600360008573ffffffffffffffffffffffffffffffffffffffff1673ffffffffffffffffffffffffffffffffffffffff168152602001908152602001600020600082825403925050819055506001600360008473ffffffffffffffffffffffffffffffffffffffff1673ffffffffffffffffffffffffffffffffffffffff16815260200190815260200160002060008282540192505081905550816002600083815260200190815260200160002060006101000a81548173ffffffffffffffffffffffffffffffffffffffff021916908373ffffffffffffffffffffffffffffffffffffffff160217905550808273ffffffffffffffffffffffffffffffffffffffff168473ffffffffffffffffffffffffffffffffffffffff167fddf252ad1be2c89b69c2b068fc378daa952ba7f163c4a11628f55a4df523b3ef60405160405180910390a46117e68383836001611cb3565b505050565b6117f361139c565b73ffffffffffffffffffffffffffffffffffffffff16611811610d24565b73ffffffffffffffffffffffffffffffffffffffff1614611867576040517f08c379a000000000000000000000000000000000000000000000000000000000815260040161185e90613148565b60405180910390fd5b565b60006002600083815260200190815260200160002060009054906101000a900473ffffffffffffffffffffffffffffffffffffffff169050919050565b6000600760009054906101000a900473ffffffffffffffffffffffffffffffffffffffff16905081600760006101000a81548173ffffffffffffffffffffffffffffffffffffffff021916908373ffffffffffffffffffffffffffffffffffffffff1602179055508173ffffffffffffffffffffffffffffffffffffffff168173ffffffffffffffffffffffffffffffffffffffff167f8be0079c531659141344cd1fd0a4f28419497f9722a3daafe3b4186f6b6457e060405160405180910390a35050565b611986828260405180602001604052806000815250611cb9565b5050565b8173ffffffffffffffffffffffffffffffffffffffff168373ffffffffffffffffffffffffffffffffffffffff16036119f8576040517f08c379a00000000000000000000000000000000000000000000000000000000081526004016119ef906131b4565b60405180910390fd5b80600560008573ffffffffffffffffffffffffffffffffffffffff1673ffffffffffffffffffffffffffffffffffffffff16815260200190815260200160002060008473ffffffffffffffffffffffffffffffffffffffff1673ffffffffffffffffffffffffffffffffffffffff16815260200190815260200160002060006101000a81548160ff0219169083151502179055508173ffffffffffffffffffffffffffffffffffffffff168373ffffffffffffffffffffffffffffffffffffffff167f17307eab39ab6107e8899845ad3d59bd9653f200f220920489ca2b5937696c3183604051611ae99190612269565b60405180910390a3505050565b611b018484846114f2565b611b0d84848484611d14565b611b4c576040517f08c379a0000000000000000000000000000000000000000000000000000000008152600401611b4390613246565b60405180910390fd5b50505050565b60008073ffffffffffffffffffffffffffffffffffffffff16611b7483611869565b73ffffffffffffffffffffffffffffffffffffffff1614159050919050565b606060088281548110611ba957611ba8612db9565b5b906000526020600020018054611bbe90612a8e565b80601f0160208091040260200160405190810160405280929190818152602001828054611bea90612a8e565b8015611c375780601f10611c0c57610100808354040283529160200191611c37565b820191906000526020600020905b815481529060010190602001808311611c1a57829003601f168201915b50505050509050919050565b60007f01ffc9a7000000000000000000000000000000000000000000000000000000007bffffffffffffffffffffffffffffffffffffffffffffffffffffffff1916827bffffffffffffffffffffffffffffffffffffffffffffffffffffffff1916149050919050565b50505050565b50505050565b611cc38383611e9b565b611cd06000848484611d14565b611d0f576040517f08c379a0000000000000000000000000000000000000000000000000000000008152600401611d0690613246565b60405180910390fd5b505050565b6000611d358473ffffffffffffffffffffffffffffffffffffffff166120b8565b15611e8e578373ffffffffffffffffffffffffffffffffffffffff1663150b7a02611d5e61139c565b8786866040518563ffffffff1660e01b8152600401611d8094939291906132bb565b6020604051808303816000875af1925050508015611dbc57506040513d601f19601f82011682018060405250810190611db9919061331c565b60015b611e3e573d8060008114611dec576040519150601f19603f3d011682016040523d82523d6000602084013e611df1565b606091505b506000815103611e36576040517f08c379a0000000000000000000000000000000000000000000000000000000008152600401611e2d90613246565b60405180910390fd5b805181602001fd5b63150b7a0260e01b7bffffffffffffffffffffffffffffffffffffffffffffffffffffffff1916817bffffffffffffffffffffffffffffffffffffffffffffffffffffffff191614915050611e93565b600190505b949350505050565b600073ffffffffffffffffffffffffffffffffffffffff168273ffffffffffffffffffffffffffffffffffffffff1603611f0a576040517f08c379a0000000000000000000000000000000000000000000000000000000008152600401611f0190613395565b60405180910390fd5b611f1381611b52565b15611f53576040517f08c379a0000000000000000000000000000000000000000000000000000000008152600401611f4a90613401565b60405180910390fd5b611f61600083836001611cad565b611f6a81611b52565b15611faa576040517f08c379a0000000000000000000000000000000000000000000000000000000008152600401611fa190613401565b60405180910390fd5b6001600360008473ffffffffffffffffffffffffffffffffffffffff1673ffffffffffffffffffffffffffffffffffffffff16815260200190815260200160002060008282540192505081905550816002600083815260200190815260200160002060006101000a81548173ffffffffffffffffffffffffffffffffffffffff021916908373ffffffffffffffffffffffffffffffffffffffff160217905550808273ffffffffffffffffffffffffffffffffffffffff16600073ffffffffffffffffffffffffffffffffffffffff167fddf252ad1be2c89b69c2b068fc378daa952ba7f163c4a11628f55a4df523b3ef60405160405180910390a46120b4600083836001611cb3565b5050565b6000808273ffffffffffffffffffffffffffffffffffffffff163b119050919050565b828054828255906000526020600020908101928215612123579160200282015b8281111561212257825182908161211291906135cd565b50916020019190600101906120fb565b5b5090506121309190612134565b5090565b5b80821115612154576000818161214b9190612158565b50600101612135565b5090565b50805461216490612a8e565b6000825580601f106121765750612195565b601f0160209004906000526020600020908101906121949190612198565b5b50565b5b808211156121b1576000816000905550600101612199565b5090565b6000604051905090565b600080fd5b600080fd5b60007fffffffff0000000000000000000000000000000000000000000000000000000082169050919050565b6121fe816121c9565b811461220957600080fd5b50565b60008135905061221b816121f5565b92915050565b600060208284031215612237576122366121bf565b5b60006122458482850161220c565b91505092915050565b60008115159050919050565b6122638161224e565b82525050565b600060208201905061227e600083018461225a565b92915050565b600081519050919050565b600082825260208201905092915050565b60005b838110156122be5780820151818401526020810190506122a3565b60008484015250505050565b6000601f19601f8301169050919050565b60006122e682612284565b6122f0818561228f565b93506123008185602086016122a0565b612309816122ca565b840191505092915050565b6000602082019050818103600083015261232e81846122db565b905092915050565b6000819050919050565b61234981612336565b811461235457600080fd5b50565b60008135905061236681612340565b92915050565b600060208284031215612382576123816121bf565b5b600061239084828501612357565b91505092915050565b600073ffffffffffffffffffffffffffffffffffffffff82169050919050565b60006123c482612399565b9050919050565b6123d4816123b9565b82525050565b60006020820190506123ef60008301846123cb565b92915050565b6123fe816123b9565b811461240957600080fd5b50565b60008135905061241b816123f5565b92915050565b60008060408385031215612438576124376121bf565b5b60006124468582860161240c565b925050602061245785828601612357565b9150509250929050565b60008060006060848603121561247a576124796121bf565b5b60006124888682870161240c565b93505060206124998682870161240c565b92505060406124aa86828701612357565b9150509250925092565b6124bd81612336565b82525050565b60006020820190506124d860008301846124b4565b92915050565b6000602082840312156124f4576124f36121bf565b5b60006125028482850161240c565b91505092915050565b600080fd5b600080fd5b600080fd5b60008083601f8401126125305761252f61250b565b5b8235905067ffffffffffffffff81111561254d5761254c612510565b5b60208301915083602082028301111561256957612568612515565b5b9250929050565b60008083601f8401126125865761258561250b565b5b8235905067ffffffffffffffff8111156125a3576125a2612510565b5b6020830191508360208202830111156125bf576125be612515565b5b9250929050565b600080600080604085870312156125e0576125df6121bf565b5b600085013567ffffffffffffffff8111156125fe576125fd6121c4565b5b61260a8782880161251a565b9450945050602085013567ffffffffffffffff81111561262d5761262c6121c4565b5b61263987828801612570565b925092505092959194509250565b6126508161224e565b811461265b57600080fd5b50565b60008135905061266d81612647565b92915050565b6000806040838503121561268a576126896121bf565b5b60006126988582860161240c565b92505060206126a98582860161265e565b9150509250929050565b600080fd5b7f4e487b7100000000000000000000000000000000000000000000000000000000600052604160045260246000fd5b6126f0826122ca565b810181811067ffffffffffffffff8211171561270f5761270e6126b8565b5b80604052505050565b60006127226121b5565b905061272e82826126e7565b919050565b600067ffffffffffffffff82111561274e5761274d6126b8565b5b612757826122ca565b9050602081019050919050565b82818337600083830152505050565b600061278661278184612733565b612718565b9050828152602081018484840111156127a2576127a16126b3565b5b6127ad848285612764565b509392505050565b600082601f8301126127ca576127c961250b565b5b81356127da848260208601612773565b91505092915050565b600080600080608085870312156127fd576127fc6121bf565b5b600061280b8782880161240c565b945050602061281c8782880161240c565b935050604061282d87828801612357565b925050606085013567ffffffffffffffff81111561284e5761284d6121c4565b5b61285a878288016127b5565b91505092959194509250565b6000806040838503121561287d5761287c6121bf565b5b600061288b8582860161240c565b925050602061289c8582860161240c565b9150509250929050565b600067ffffffffffffffff8211156128c1576128c06126b8565b5b602082029050919050565b600067ffffffffffffffff8211156128e7576128e66126b8565b5b6128f0826122ca565b9050602081019050919050565b600061291061290b846128cc565b612718565b90508281526020810184848401111561292c5761292b6126b3565b5b612937848285612764565b509392505050565b600082601f8301126129545761295361250b565b5b81356129648482602086016128fd565b91505092915050565b600061298061297b846128a6565b612718565b9050806020840283018581111561299a57612999612515565b5b835b818110156129e157803567ffffffffffffffff8111156129bf576129be61250b565b5b8086016129cc898261293f565b8552602085019450505060208101905061299c565b5050509392505050565b600082601f830112612a00576129ff61250b565b5b600a612a0d84828561296d565b91505092915050565b600060208284031215612a2c57612a2b6121bf565b5b600082013567ffffffffffffffff811115612a4a57612a496121c4565b5b612a56848285016129eb565b91505092915050565b7f4e487b7100000000000000000000000000000000000000000000000000000000600052602260045260246000fd5b60006002820490506001821680612aa657607f821691505b602082108103612ab957612ab8612a5f565b5b50919050565b7f4552433732313a20617070726f76616c20746f2063757272656e74206f776e6560008201527f7200000000000000000000000000000000000000000000000000000000000000602082015250565b6000612b1b60218361228f565b9150612b2682612abf565b604082019050919050565b60006020820190508181036000830152612b4a81612b0e565b9050919050565b7f4552433732313a20617070726f76652063616c6c6572206973206e6f7420746f60008201527f6b656e206f776e6572206f7220617070726f76656420666f7220616c6c000000602082015250565b6000612bad603d8361228f565b9150612bb882612b51565b604082019050919050565b60006020820190508181036000830152612bdc81612ba0565b9050919050565b7f4552433732313a2063616c6c6572206973206e6f7420746f6b656e206f776e6560008201527f72206f7220617070726f76656400000000000000000000000000000000000000602082015250565b6000612c3f602d8361228f565b9150612c4a82612be3565b604082019050919050565b60006020820190508181036000830152612c6e81612c32565b9050919050565b600081905092915050565b50565b6000612c90600083612c75565b9150612c9b82612c80565b600082019050919050565b6000612cb182612c83565b9150819050919050565b7f4552433732313a20696e76616c696420746f6b656e2049440000000000000000600082015250565b6000612cf160188361228f565b9150612cfc82612cbb565b602082019050919050565b60006020820190508181036000830152612d2081612ce4565b9050919050565b7f4552433732313a2061646472657373207a65726f206973206e6f74206120766160008201527f6c6964206f776e65720000000000000000000000000000000000000000000000602082015250565b6000612d8360298361228f565b9150612d8e82612d27565b604082019050919050565b60006020820190508181036000830152612db281612d76565b9050919050565b7f4e487b7100000000000000000000000000000000000000000000000000000000600052603260045260246000fd5b600067ffffffffffffffff82169050919050565b612e0581612de8565b8114612e1057600080fd5b50565b600081359050612e2281612dfc565b92915050565b600060208284031215612e3e57612e3d6121bf565b5b6000612e4c84828501612e13565b91505092915050565b7f4e487b7100000000000000000000000000000000000000000000000000000000600052601160045260246000fd5b6000612e8f82612de8565b9150612e9a83612de8565b9250828201905067ffffffffffffffff811115612eba57612eb9612e55565b5b92915050565b6000612ecb82612336565b9150612ed683612336565b9250828201905080821115612eee57612eed612e55565b5b92915050565b6000604082019050612f0960008301856124b4565b612f1660208301846124b4565b9392505050565b6000604082019050612f3260008301856124b4565b612f3f60208301846123cb565b9392505050565b7f4f776e61626c653a206e6577206f776e657220697320746865207a65726f206160008201527f6464726573730000000000000000000000000000000000000000000000000000602082015250565b6000612fa260268361228f565b9150612fad82612f46565b604082019050919050565b60006020820190508181036000830152612fd181612f95565b9050919050565b7f4552433732313a207472616e736665722066726f6d20696e636f72726563742060008201527f6f776e6572000000000000000000000000000000000000000000000000000000602082015250565b600061303460258361228f565b915061303f82612fd8565b604082019050919050565b6000602082019050818103600083015261306381613027565b9050919050565b7f4552433732313a207472616e7366657220746f20746865207a65726f2061646460008201527f7265737300000000000000000000000000000000000000000000000000000000602082015250565b60006130c660248361228f565b91506130d18261306a565b604082019050919050565b600060208201905081810360008301526130f5816130b9565b9050919050565b7f4f776e61626c653a2063616c6c6572206973206e6f7420746865206f776e6572600082015250565b600061313260208361228f565b915061313d826130fc565b602082019050919050565b6000602082019050818103600083015261316181613125565b9050919050565b7f4552433732313a20617070726f766520746f2063616c6c657200000000000000600082015250565b600061319e60198361228f565b91506131a982613168565b602082019050919050565b600060208201905081810360008301526131cd81613191565b9050919050565b7f4552433732313a207472616e7366657220746f206e6f6e20455243373231526560008201527f63656976657220696d706c656d656e7465720000000000000000000000000000602082015250565b600061323060328361228f565b915061323b826131d4565b604082019050919050565b6000602082019050818103600083015261325f81613223565b9050919050565b600081519050919050565b600082825260208201905092915050565b600061328d82613266565b6132978185613271565b93506132a78185602086016122a0565b6132b0816122ca565b840191505092915050565b60006080820190506132d060008301876123cb565b6132dd60208301866123cb565b6132ea60408301856124b4565b81810360608301526132fc8184613282565b905095945050505050565b600081519050613316816121f5565b92915050565b600060208284031215613332576133316121bf565b5b600061334084828501613307565b91505092915050565b7f4552433732313a206d696e7420746f20746865207a65726f2061646472657373600082015250565b600061337f60208361228f565b915061338a82613349565b602082019050919050565b600060208201905081810360008301526133ae81613372565b9050919050565b7f4552433732313a20746f6b656e20616c7265616479206d696e74656400000000600082015250565b60006133eb601c8361228f565b91506133f6826133b5565b602082019050919050565b6000602082019050818103600083015261341a816133de565b9050919050565b60008190508160005260206000209050919050565b60006020601f8301049050919050565b600082821b905092915050565b6000600883026134837fffffffffffffffffffffffffffffffffffffffffffffffffffffffffffffffff82613446565b61348d8683613446565b95508019841693508086168417925050509392505050565b6000819050919050565b60006134ca6134c56134c084612336565b6134a5565b612336565b9050919050565b6000819050919050565b6134e4836134af565b6134f86134f0826134d1565b848454613453565b825550505050565b600090565b61350d613500565b6135188184846134db565b505050565b5b8181101561353c57613531600082613505565b60018101905061351e565b5050565b601f8211156135815761355281613421565b61355b84613436565b8101602085101561356a578190505b61357e61357685613436565b83018261351d565b50505b505050565b600082821c905092915050565b60006135a460001984600802613586565b1980831691505092915050565b60006135bd8383613593565b9150826002028217905092915050565b6135d682612284565b67ffffffffffffffff8111156135ef576135ee6126b8565b5b6135f98254612a8e565b613604828285613540565b600060209050601f8311600181146136375760008415613625578287015190505b61362f85826135b1565b865550613697565b601f19841661364586613421565b60005b8281101561366d57848901518255600182019150602085019450602081019050613648565b8683101561368a5784890151613686601f891682613593565b8355505b6001600288020188555050505b50505050505056fe697066733a2f2f516d647474395136536d35504c557135615773367176627757644e6a4c62335a514c4d35473548584a38484d6947a26469706673582212203e489f17995c015c8928b5f269cdc0df0fd2f4e60104267ab1012e9ac4dc757464736f6c63430008120033",
  "linkReferences": {},
  "deployedLinkReferences": {}
}